:020000040810E2
:10000000600600101D0310082503100827031008C0
:10001000290310082B0310082D031008000000000E
:100020000000000000000000000000002F03100886
:1000300031031008000000003303100835031008D6
:100040003703100837031008370310083703100868
:100050003703100837031008370310083703100858
:100060003703100837031008370310083703100848
:100070003703100837031008370310083703100838
:100080003703100837031008370310083703100828
:100090003703100837031008370310083703100818
:1000A0003703100837031008370310083703100808
:1000B00037031008370310083703100837031008F8
:1000C00037031008370310083703100837031008E8
:1000D00037031008370310083703100837031008D8
:1000E000370310083703100800000000370310081A
:1000F00037031008370310083703100837031008B8
:1001000037031008370310083703100837031008A7
:100110003703100837031008370310083703100897
:100120003703100837031008370310083703100887
:100130003703100837031008370310083703100877
:10014000370310083703100800000000000000000B
:100150003703100837031008370310083703100857
:100160003703100837031008370310083703100847
:100170003703100837031008370310080000000089
:100180003703100837031008370310083703100827
:100190003703100837031008370310083703100817
:1001A0003703100837031008370310083703100807
:1001B00037031008370310083703100837031008F7
:1001C00037031008370310083703100837031008E7
:1001D00037031008370310083703100837031008D7
:1001E00037031008370310083703100837031008C7
:1001F00037031008370310083703100837031008B7
:1002000037031008370310083703100837031008A6
:100210003703100837031008370310083703100896
:1002200037031008370310083703100800000000D8
:100230003703100837031008370310083703100876
:100240003703100837031008370310083703100866
:100250003703100837031008370310083703100856
:100260003703100837031008370310083703100846
:100270003703100837031008370310083703100836
:100280003703100837031008370310080000000078
:10029000370310083703100800F002F800F02EF8BA
:1002A0000AA090E8000C82448344AAF10107DA45D1
:1002B00001D100F023F8AFF2090EBAE80F0013F0F5
:1002C000010F18BFFB1A43F0010318471802000082
:1002D000280200000023002400250026103A28BF31
:1002E00078C1FBD8520728BF30C148BF0B607047A8
:1002F0001FB500F0F1F81FBD10B510BD00F031F8CA
:100300001146FFF7F5FF00F0E5F800F04FF803B4F1
:10031000FFF7F2FF03BC00F057F8000009488047E0
:1003200009480047FEE7FEE7FEE7FEE7FEE7FEE7D7
:10033000FEE7FEE7FEE7FEE704480549054A064BEF
:1003400070470000D90310089902100860000010DF
:1003500060060010600200106002001070477047D5
:100360007047754600F02CF8AE46050069465346C6
:1003700020F00700854618B020B5FFF7DDFFBDE887
:1003800020404FF000064FF000074FF000084FF0FC
:10039000000B21F00701AC46ACE8C009ACE8C0098D
:1003A000ACE8C009ACE8C0098D46704710B50446FA
:1003B000AFF300802046BDE81040FFF7A8BF000063
:1003C000004870470000001001491820ABBEFEE74E
:1003D00026000200704700003548006840F47000B5
:1003E000334908603348006800F00F00072806D240
:1003F0003048006820F00F00C01D2E4908602E48CC
:10040000006840F001002C49086000202A491031A2
:10041000086029480068294908402749086025489C
:10042000006800F00F00072806D92248006820F075
:100430000F00C01D1F49086000201F4918310860C7
:10044000091D0860091D08601D481B492831086006
:100450001C48091D08601C48091D08600020091D72
:1004600008601948091D08600020091D0860164829
:10047000091D08600020091D08600F48006820F46D
:1004800080200D49086000200B49603108600F484A
:1004900000686FF30F00B0F1005F02D201200C4939
:1004A00008604FF001600249803908607047000021
:1004B00088ED00E000200052004402587FEDF6EA8B
:1004C000000202020000FF01800201010010005C36
:1004D0000881005100BFFEE74FF04070E1EE100AC6
:1004E00070470000F40410080000001060060000CF
:0404F000D40210081A
:040000050810029944
:00000001FF
