:020000040800F2
:10000000E0A60120950300089D0300089F03000857
:10001000A1030008A3030008A503000800000000D6
:10002000000000000000000000000000A70300081E
:10003000A903000800000000AB030008D5890000F8
:10004000AF030008AF030008AF030008AF030008C8
:10005000AF030008AF030008AF030008AF030008B8
:10006000AF030008AF030008AF030008B5050008A0
:10007000D1050008AF030008E9050008AF03000838
:10008000AF030008AF030008AF03000859480000A1
:10009000AF03000881480000AF030008AF03000869
:1000A000AF030008AF030008AF030008AF03000868
:1000B000AF030008AF030008AF030008AF03000858
:1000C000AF030008AF030008AF030008AF03000848
:1000D000AF030008AF030008012F0008452F0008F8
:1000E000AF030008AF03000800000000AF030008E2
:1000F000AF030008AF030008AF030008AF03000818
:10010000AF030008AF030008D92E0008AF030008B2
:10011000AF030008AF030008AF03000889A2000086
:10012000AF030008AF030008AF030008AF030008E7
:10013000AF030008AF030008AF030008AF030008D7
:10014000AF030008AF03000800000000000000003B
:10015000AF030008AF030008AF030008AF030008B7
:10016000AF030008AF030008AF030008AF030008A7
:10017000AF030008AF030008AF0300080000000051
:10018000AF030008AF030008AF030008AF03000887
:10019000AF030008AF030008AF030008AF03000877
:1001A000AF030008AF030008AF030008AF03000867
:1001B000AF030008AF030008AF030008AF03000857
:1001C000AF030008AF030008AF030008AF03000847
:1001D000AF030008AF030008AF030008AF03000837
:1001E000AF030008AF030008AF030008AF03000827
:1001F000AF030008AF030008AF030008AF03000817
:10020000AF030008AF030008AF030008AF03000806
:10021000AF030008AF030008AF030008AF030008F6
:10022000AF030008AF030008AF03000800000000A0
:10023000AF030008AF030008AF030008AF030008D6
:10024000AF030008AF030008AF030008AF030008C6
:10025000AF030008AF030008AF030008AF030008B6
:10026000AF030008AF030008AF030008AF030008A6
:10027000AF030008AF030008AF030008AF03000896
:10028000AF030008AF030008AF0300080000000040
:10029000AF030008AF03000800F002F800F06AF8AE
:1002A0000AA090E8000C82448344AAF10107DA45D1
:1002B00001D100F05FF8AFF2090EBAE80F0013F0B9
:1002C000010F18BFFB1A43F0010318473C9A0000C6
:1002D0009C9A00000A444FF0000C10F8013B13F008
:1002E000070408BF10F8014B1D1108BF10F8015B8F
:1002F000641E05D010F8016B641E01F8016BF9D182
:1003000013F0080F1EBF10F8014BAD1C0C1B09D1D8
:100310006D1E58BF01F801CBFAD505E014F8016B4A
:1003200001F8016B6D1EF9D59142D6D370470000DC
:10033000103A24BF78C878C1FAD8520724BF30C811
:1003400030C144BF04680C607047000000230024E3
:1003500000250026103A28BF78C1FBD8520728BFD5
:1003600030C148BF0B6070471FB504F0B7F91FBD1F
:1003700010B510BD00F0BCF81146FFF7F5FF04F012
:100380004BF900F0DAF803B4FFF7F2FF03BC00F01A
:10039000DDF800000948804709480047FEE7FEE70E
:1003A000FEE7FEE7FEE7FEE7FEE7FEE7FEE7FEE725
:1003B00004480549054A064B70470000D92D00083E
:1003C00099020008E0A70020E0A60120E0B6002086
:1003D000E0B60020032A40F2308010F0030C00F059
:1003E000158011F8013BBCF1020F624498BF11F86F
:1003F00001CB00F8013B38BF11F8013BA2F1040228
:1004000098BF00F801CB38BF00F8013B11F003039F
:1004100000F02580083AC0F0088051F8043B083A03
:1004200051F804CBA0E80810F5E7121D5CBF51F8A5
:10043000043B40F8043BAFF30080D20724BF11F81F
:10044000013B11F801CB48BF11F8012B24BF00F884
:10045000013B00F801CB48BF00F8012B704710B5F5
:10046000203AC0F00B80B1E81850203AA0E81850AC
:10047000B1E81850A0E81850BFF4F5AF5FEA027C6D
:1004800024BFB1E81850A0E8185044BF18C918C0DC
:10049000BDE810405FEA827C24BF51F8043B40F87D
:1004A000043B08BF7047D20728BF31F8023B48BF62
:1004B00011F8012B28BF20F8023B48BF00F8012BA0
:1004C000704770477047704710B500F009F8006832
:1004D00010BD10B5044600F003F8046010BD000024
:1004E0000048704780A700200048704780A7002080
:1004F0007546FFF7F9FFAE4605006946534620F002
:100500000700854618B020B5FFF752FFBDE8204030
:100510004FF000064FF000074FF000084FF0000BBF
:1005200021F00701AC46ACE8C009ACE8C009ACE872
:10053000C009ACE8C0098D46704710B50446AFF35A
:1005400000802046BDE81040FFF71DBF014918207C
:10055000ABBEFEE726000200704743F2F56CC0F226
:10056000000C604743F6356CC0F2000C604747F65C
:10057000113CC0F2000C604742F2893CC0F2000C12
:10058000604742F2313CC0F2000C604743F6011C68
:10059000C0F2000C604744F2713CC0F2000C6047AE
:1005A00041F6257CC0F2000C60474AF2A11CC0F263
:1005B000000C604710B5054C2068800605D502F098
:1005C00025F9A06840F02000A06010BD00000240A6
:1005D00004480168090503D5816841F40061816020
:1005E000704700000000024004480168090103D57B
:1005F000816841F0006181607047000000000240A6
:1006000028482DE9F041016821F47021016001685A
:10061000244D244B41F420220C3502602433002168
:100620002A682148214C42F4A026214A2E60D3F8A2
:1006300000C064251F4F2D264CF0770EDFF878C0E0
:10064000C3F800E004F1040E016402F16403846461
:1006500044F62064C2642E2245643E60056C3E1D53
:10066000154F45EA0C050564B13F8165C0F860E0AF
:100670004366C4653260816D394381650E2002F0A6
:100680009AFC0A498220094DC02218390B1F1D24EB
:10069000243D08601A602C602720BDE8F04102F07C
:1006A0008ABC0000000C02580000024024480040B0
:1006B0001400003008080240010503000749002229
:1006C000074830B402240A7064250C82A623858072
:1006D000027042804B8230BCFFF792BF00000030B6
:1006E000B89C0030F0B5044641F2210500204FF6D9
:1006F000FF76034610E0E25C80EA02200022070455
:1007000003D585EA400080B201E006EA4000521CB1
:10071000D2B2082AF3D35B1C8B42ECD3F0BD0000AD
:10072000F2492DE9F0030A78002A7CD04A68521C6D
:100730004A600B8AB2FBF3F403FB1422002A72D145
:1007400001F5104898F8B82C12B1012A03D003E043
:10075000E648783000E0E64800EE103A9FEDE51BF1
:10076000B8F8BA3CB8EE402B4A8ADFF8909382EE94
:10077000010B91ED021B5A43083292B2541C30EE29
:10078000011B81ED021BB7EEC10BA1B210EE103AB6
:100790001B0E835410EE102A130C4A1C435491B2C2
:1007A00010EE102A130A4A1C435491B210EE102A7C
:1007B0004B1C42549DB2D2499FEDD20B5FF0000317
:1007C0006F1C03EBC3020C6802EB432209EBC30668
:1007D00004EBC20406F5784604F5805496EDB01B90
:1007E00094EDD22B5B1C062B81EE023B23EE001B0B
:1007F000BDEEC11B11EE104A4FEA142C00F805C0E3
:10080000BDB244550C6805F1010596EDBC1B04EB27
:10081000C20404F58054AFB294EDD42B07F1010566
:1008200081EE023B00E05EE123EE001BADB2BDEEC7
:10083000C11B11EE104A4FEA142C00F807C04455B2
:100840000C6805F1010596EDC81B04EBC20404F524
:100850008054ADB294EDD62B05F1010681EE023B3A
:1008600023EE001BBDEEC11B11EE104A4FEA142708
:100870004755B5B244550C6805F10105AEB204EB1D
:10088000C20404F5805406F1010594EDAC1B94ED0F
:10089000D22BADB281EE023B23EE001BBDEEC11B9D
:1008A00011EE104A4FEA1427875544550C6805F19C
:1008B0000105ADB204EBC20404F5805405F1010654
:1008C00094EDAE1B94EDD42B81EE023B23EE001B86
:1008D000BDEEC11B11EE104A4FEA14274755B5B2C1
:1008E00044550C6805F10105AEB204EBC20404F5F1
:1008F000805406F1010594EDB21B94EDD82BADB2F6
:1009000081EE023B23EE001BBDEEC11B11EE104A2F
:100910004FEA1427875544550C6805F10105ADB21F
:1009200004EBC20404F5805405F1010694EDB41BF8
:10093000B6B2BDEEC11B11EE104A44550C6806F16B
:100940000105ADB204EBC20404F5805494EDA21B82
:1009500094EDD82B81EE023B23EE001BBDEEC11BB4
:1009600011EE104A4FEA1427875544550C6805F1DB
:100970000105ADB204EBC20404F5005704F5805440
:1009800097ED8A1B94EDD82B05F1010681EE023B11
:1009900023EE001BBDEEC11B11EE104A4FEA1427D7
:1009A0004755B5B244550C6805F10105AEB204EBEC
:1009B000C20404F5005704F5805497ED8C1B94EDA8
:1009C000D82B06F10105ADB281EE023B23EE001BF0
:1009D000BDEEC11B11EE104A4FEA1427875544554E
:1009E0000C6805F10105ADB204EBC20404F5005733
:1009F00004F5805497ED8E1B94EDD82B05F101067C
:100A000081EE023B23EE001BBDEEC11B11EE104A2E
:100A10004FEA14274755B5B244550C6805F1010556
:100A2000AEB204EBC20404F5005704F5805497ED10
:100A3000901B94EDD82B06F10105ADB281EE023B7F
:100A400023EE001BBDEEC11B11EE104A4FEA142726
:100A5000875544550C6805F10105AEB204EBC2049C
:100A600004F59B5406F1010594EC041BADB282EE33
:100A7000013B23EE001BBDEEC11B11EE104A4FEAF5
:100A80001427875544550E6805F10105ACB206EBF5
:100A9000C20202F5005602F5805296ED661B92EDF9
:100AA000D82B04F1010581EE023B23EE001BBDEEC5
:100AB000C11B11EE102A4FEA12260655ACB204F102
:100AC0000105ADB20255FFF67BAEB8F8BA0CB8F826
:100AD000BC1C401C80B2A8F8BA0C884203D3BDE805
:100AE000F00300F041B8BDE8F003704700000030AB
:100AF000984E00300000000000408F4000000024AD
:100B00000000002000000000C0FFDF4010B5144CC2
:100B100002212046FFF7E6FDA278E17801EB0221F1
:100B200089B288420BD120789B2808D16178A4F142
:100B30001400012902D0022901D1002101700948C5
:100B40006421026C22F001020264826842F4001205
:100B500082604164016C41F00101016410BD00003C
:100B6000140000300000024070B52A4D95F8B80C12
:100B700010B1012802D002E0274C00E0274C9B2353
:100B80009C229D219E2023706270A170E070B5F8B8
:100B9000BC0C21497839020A22716071488AB5F883
:100BA000BA2C50430A30A5F8BE0C020AA271E071BB
:100BB000488AB5F8BA1C05F6B8454843083086B2ED
:100BC00020463146FFF78EFD030A0146721C144889
:100BD00092B2A355A154816D521C92B221F0010131
:100BE0008165816841F0006181602978A5F6B8458A
:100BF00009B1012900D14466C265826D491C01F02A
:100C00000103002142F00102826585F8B83CA5F895
:100C1000BA1C70BD0090003078000030984E003053
:100C200000000240AFF300800B48012300210422A2
:100C3000006800F5E840437081700270C170017176
:100C4000C1800181C17241738173C17301744174A8
:100C50008174C17401757047000000200A4A0A4976
:100C60000C311368094823F0030313600A6842F04B
:100C700001020A60016821F0C0010160016841F0D1
:100C8000400101607047000000080258000002584F
:100C9000114A002110B5114813680268DB0702F5FC
:100CA000004015D0012380F8983400BFA0F8A814A4
:100CB00000215418B0F8A83404F5004494F898447E
:100CC0008C402343A0F8A834491C1029F1DB10BD47
:100CD00080F89814EAE7000010080258000000208D
:100CE0001148002310B5016818460A4601F5004175
:100CF000A1F8BA34141804F500449BB294F8AA443D
:100D000084402343A1F8BA34401C1028F2DB074882
:100D100091F8AA140129416903D021F00801416129
:100D200010BD41F00801FAE7000000200000025861
:100D30000348006800F5004090F8980470470000F0
:100D400000000020044848F2AA4200210068115423
:100D500080F82F100163704700000020044848F21B
:100D6000AA4201210068115480F82F10704700003A
:100D70000000002005480068007C18B1012803D15C
:100D800000F08EB800F004B87047000000000020AA
:100D9000F0B5424D00242DED068B8DB06F4600BF9F
:100DA00004EBC40000EB4426286800EBC60202F501
:100DB0008051002091EDA68B91EDB4AB02EBC00108
:100DC00001F5005107EBC00391ED540B401C0628C0
:100DD00083ED000BF2DBB0EE001BB0EE480B02F02F
:100DE0003FFCB5EEC08B9DED041BF1EE10FA20EE3A
:100DF000011B01DD012000E00020B5EEC08BF1EE0B
:100E000010FA01D2012100E00021B5EEC08B401A9A
:100E1000F1EE10FA00EE100AB8EEC02B01DD012051
:100E200000E00020B5EEC08BF1EE10FA01D20121F6
:100E300000E00021401A00EE100A9DED003BB8EEE4
:100E4000C04B9DED020B24EE039B00EE089BB0EE21
:100E5000480B01EE029BB0EE081B02F001FC9DED79
:100E60000A4B9DED062B9DED083B3AEE444BB7EE49
:100E7000001B02EE009B2868641CE4B200EBC60075
:100E800000F58050062C03EE041B29EE010B80EDCB
:100E9000DA0B85D30DB0BDEC068BF0BD0000002051
:100EA0002DE9F0476D48012400252A462DED068BDB
:100EB000D0F8003002EBC20000EB422003EBC00090
:100EC00000F5805191EDAE0B91EDDC1B81F868527D
:100ED000B4EEC10BF1EE10FA5AD391EDDE1BB4EE75
:100EE000C10BF1EE10FA53DC91EDB41B91EDE02B48
:100EF000B4EEC21BF1EE10FA4AD391EDE22BB4EE40
:100F0000C21BF1EE10FA43DC14275FF00006B8466E
:100F1000BA46B94600EBC60C0CF5805C9CEDE42BA0
:100F2000B4EEC02BF1EE10FA0AD29CEDE62BB4EE33
:100F3000C02BF1EE10FA03DD06F10108374602E09E
:100F4000761C132EE6DB002600EBC60C0CF5A05C2D
:100F50009CED0C2BB4EEC12BF1EE10FA0AD29CEDF5
:100F60000E2BB4EEC12BF1EE10FA03DD06F10109F0
:100F7000B24602E0761C132EE6DB142F08DAB8F135
:100F8000140F05DABAF1140F02DAB9F1140F0DDB00
:100F900002EBC20000EB422003EBC00000F58050E2
:100FA00080F86842BDEC068BBDE8F08707EB87064A
:100FB00000EBC80C00EBC7070CF5805C07F5805709
:100FC0009CEDE46B97EDE44B08EB880800EB4616CC
:100FD00036EE446B00EB481806EBCA0708EBC90C69
:100FE00006EBC90607F5A05706F5A0560CF5A05C60
:100FF00097ED342B96ED345BB0EEC66B9CED343B35
:1010000035EE427B33EE439B30EE440B00EBCA08D7
:1010100000EBC90008F5A05800F5A05098ED0C5B56
:1010200087EE06AB90ED0C8B31EE451B521C062A69
:1010300089EE064B0AEE002B38EE456B04EE003BC2
:10104000B0EEC64B33EE423B83EE040B00EE012BB9
:1010500081EDDA2BFFF62EAFA4E7000000000020A0
:1010600030B51F4D5FF0000404EBC40101EB4421D7
:10107000286800EBC10000F5005090F848120129E3
:1010800006D0E0B200F030FD641C062CECDB30BD75
:1010900090ED981B90ED9A0B90ED9E2B31EE401B3E
:1010A000B1EE423B80ED9C1BB4EEC31BF1EE10FA97
:1010B00007D290EDA03B90ED944B03EE440B80EDF6
:1010C0009A0BB4EEC21BF1EE10FADDDD90EDA01B21
:1010D00090ED942B01EE020B80ED9A0BD4E700000B
:1010E0000000002070B5454805259FED456B0022A6
:1010F000D0F8004002EBC20000EB422004EBC0013C
:1011000001F5805301F5005093EDA40B93EDAC1B5A
:1011100030EE410B80ED700BD0F8D83101EBC303FA
:1011200003F5005383ED780BD0F8D8315B1CB3FB8B
:10113000F5F605FB1633C0F8D831002390ED725B4D
:1011400080ED745B80ED726B01EBC30606F5005613
:1011500090ED721B96ED780B5B1C052B30EE010BAE
:1011600080ED720BF0D390ED721BB1EE042B90ED7D
:10117000840B81EE023B90ED6E1B90ED704B90ED79
:10118000862B04EE010BB4EEC20B80ED723B33EE06
:10119000455B80ED840B85EE013BF1EE10FA80EDAE
:1011A000823B01D280ED842B90ED841B90ED880B67
:1011B000B4EEC01BF1EE10FA01DD80ED840B90ED72
:1011C000681B90ED6A0B90ED845B21EE041B20EE12
:1011D000050B90ED6C2B521C062A22EE032B80EDA2
:1011E0008A1B31EE003B80ED8C0B80ED8E2B33EEB5
:1011F000020B80ED900BFFF67DAF70BD000000206C
:1012000000000000000000002D48002230B50468F6
:1012100002EBC20000EB422004EBC00101F580505C
:1012200001F5A05390EDE40B80EDDC0B80EDDE0BBF
:1012300093ED0C0B5FF0000380EDE00B80EDE20B13
:1012400001EBC30505F5805590EDDC1B95EDE40B36
:10125000B4EEC10BF1EE10FA01D280EDDC0B95ED8E
:10126000E40B90EDDE1BB4EEC10BF1EE10FA01DDE4
:1012700080EDDE0B5B1C142BE2DB002390EDE01B0A
:1012800001EBC30505F5A05595ED0C0BB4EEC10BB4
:10129000F1EE10FA01D280EDE00B95ED0C0B90ED24
:1012A000E21BB4EEC10BF1EE10FA01DD80EDE20BB2
:1012B0005B1C142BE2DB521C062AA9DB30BD0000AC
:1012C0000000002005480068007C18B1012803D107
:1012D00000F068B900F004B870470000000000207A
:1012E00010B567482DED108B9EB000689FED65FB33
:1012F0009FED661B9FED672B9FED683B9FED694B54
:101300009FED6A5B00F500519FED6A6B9FED6B7B73
:101310009FED6C8B9FED6D9B9FED6EAB9FED6FBB5B
:101320009FED70CB9FED71DB9FED72EB9FED730B2B
:101330008DED1C0B9FED730B8DED1A0B9FED730B59
:101340008DED180B9FED730B8DED160B9FED730B51
:101350008DED140B9FED730B8DED120B9FED730B49
:101360008DED100B9FED730B8DED0E0B9FED730B41
:101370008DED0C0B9FED730B8DED0A0B9FED730B39
:101380008DED080B9FED730B8DED060B9FED730B31
:101390008DED040B9FED730B8DED020B9FED730B29
:1013A0008DED000B81ED54FB9FED720B81ED561B13
:1013B0009FED721B81ED582B9FED722B81ED5A3BF7
:1013C0009FED723B81ED5C4B9FED724B81ED5E5B5F
:1013D0009FED725B00F5405303F5CC7300F580443C
:1013E00083EC0C6B04F5F07300F5A04100F5C042EE
:1013F00083EC06CB9DED1C6B84ED7E6B9DED1A6B33
:1014000084ED806B9DED186BA0F6485084ED826BE7
:101410009DED166B00F5004081ED8A6B9DED146B20
:1014200081ED8C6B9DED126B81ED8E6B9DED106BE4
:1014300081ED906B9DED0E6B81ED926B9DED0C6BD4
:1014400081ED946B9DED0A6B82ED9C6B9DED086BBD
:1014500082ED9E6B9DED066B82EDA06B9DED046BA6
:1014600082EDA26B9DED026B82EDA46B9DED006B96
:1014700082EDA66B80EC0C0B1EB0BDEC108B10BD8A
:10148000000000204F401361C3B320402BF697DDCE
:10149000938748402BF697DD93EF40C0569FABAD46
:1014A000D81F2D40E030D120054F91BF2B137EA9CE
:1014B0009F072C40B2BD16F4DE181A4035DF35E127
:1014C000694547401684EA3906FE42C0F14D674936
:1014D0001B0535406C7FCAF6FDD89BBF8586A320CF
:1014E0004BE33340671102A7A7A01740734F420F89
:1014F0002F5F4740CC8BC61BBCD049C04C9C80663C
:10150000B7EC42405694F63C3CAE9DBFB0C31E2F94
:1015100017BC384093A757728F590540414F920D21
:101520008B25294046E5C0175EBB0DC0272C1497BC
:1015300094F0E4BFC3BE4F898A8198BFB788ED524B
:10154000819E39401880D72D751C074075D9C67A01
:1015500042F83240D5A4CB41284B36C0735EB85216
:101560001EF13040F4CDDB1FCB2293BF057D01BAC5
:1015700088133F4056BE99B18A3B08404A091E85F0
:1015800033FB3540A86D391BA42F34C0520AF7EB4A
:10159000174C2940BEA203B79A9197BF976EE7F008
:1015A000DD1C3340F0B587B02A4918226846FEF7A3
:1015B00056FF294800216C46D0F800E001EBC1023B
:1015C00002EB412300200EEBC305024654F82160D4
:1015D00005EBC20306EBC00603F5805396ED000B46
:1015E000401C521C142A83EDE40BEFDB5FF0000279
:1015F00054F8216005EBC20306EBC00603F5A053C7
:1016000096ED000B401C521C142A83ED0C0BEFDBF3
:101610005FF00003002203EB830605EB461600BFD4
:1016200054F821C006EBC20707F5A0570CEBC00C1D
:10163000401C9CED000B521C142A87ED340BEFDB91
:101640005B1C142BE6DB491C0629B7DBFFF7DCFD2E
:1016500007B0F0BD589A00080000002010B53448CB
:101660009FED346B9FED354B9FED365B9FED370B58
:101670009FED3A1B9FED3B2B9FED3C3B2DED0A8BE5
:1016800000689FED34AB9FED3B7B00F500529FED72
:101690003B8B82ED686B82ED6A4B82ED6C5B82ED79
:1016A000867B82ED888B00F540539FED36BB83ED42
:1016B0007A6B83ED7C4B83ED7E5B83ED98BB00F50D
:1016C000804483ED9A0B84ED8C6B9FED30CB84EDE1
:1016D0008E4B9FED309B84ED905B84EDAACB00F5A3
:1016E000A04184EDAC9B81ED9EAB81EDA01B81ED13
:1016F000A20B81EDBC2B00F5C04281EDBE3B82ED1B
:10170000B0AB82EDB21B82EDB40B82EDCE2B00F5B7
:10171000E04082EDD03B80EDC2AB80EDC41B80ED9C
:10172000C60B80EDE02B80EDE23BBDEC0A8B10BDDB
:1017300000000020000000000040BF40000000004A
:101740000058CB4000000000000064400000000092
:1017500000005940000000000040AF4000000000C1
:101760000070D74000000000000044C000000000EE
:10177000000044400000000000005EC000000000C7
:1017800000005E4000000000000059C000000000A2
:10179000000054C00000000000005440214870B513
:1017A0000025D0F800402B469FED1F1B03EBC30024
:1017B00000EB4320B0EE410B04EBC00202F5805178
:1017C00002F5005081ED9C0B81ED9E0B81EDA00B8D
:1017D00081EDA20B81EDDA0B80ED600B80ED620BE9
:1017E00080ED640B80ED660B80ED700B80ED720B6D
:1017F00080ED740B0021C0F8D85100BF02EBC10688
:1018000006F50056491C052986ED780BF6D380EDC8
:10181000820B5B1C80ED840B062B80ED900BC5DBEF
:1018200070BD00000000002000000000000000006B
:10183000284900EBC00310B503EB402000220968E3
:1018400001249FED250B01EBC00303F5805103F547
:10185000005081F8612281F8622281F86B4281F8A0
:10186000512281F8504281F8542281F8534281ED8F
:101870009C0B81ED9E0B81EDA00B81EDA20B81ED08
:10188000DA0B80ED600B80ED620B80ED640B80ED78
:10189000660B80ED700B80ED720B80ED740B0021F8
:1018A000C0F8D82103EBC10404F50054491C0529F4
:1018B00084ED780BF6D380F8482280ED820B80ED22
:1018C000840B80ED900B80ED9A0B80ED980B80EDF2
:1018D0009C0B10BD00000020000000000000000074
:1018E000F0B551480125072600242DED108B9FED02
:1018F0004F5B9FED501BB8EE006BB0EE002B9FEDE1
:101900004F7B9FED503B9FED518B9FED524B9FEDD9
:10191000539B9FED54AB23469FED540BD0F80070C2
:1019200004EBC4009FED53CB00EB442007EBC00158
:1019300001F580500A4601F5005180F8613280F8C7
:10194000623280F86B5280F8513280F8505280F841
:10195000526280F86C3281EDA40B9FED48BB80EDA4
:101960009C0B80ED9E0B80EDA00B80EDA20B80ED1B
:10197000BA5B80EDBC1B80EDBE6B80EDC02B80EDB3
:10198000C27B80EDC43B80EDC68B80EDC84B80ED03
:10199000CA0B80EDDA0B00F5527C00F54C708CEC34
:1019A000081B80EC069B0020B0EE40BB81ED600B75
:1019B00081ED620B81ED640B81ED660B81ED6ECBE9
:1019C00081ED700B81ED720B81ED740BC1F8D83194
:1019D00002EBC00C0CF5005C401C05288CED78BBBC
:1019E000F6D3B3EE04DB81F84832641C9FED25EB9F
:1019F00081ED96DB81ED94CBB7EE00FB81ED9EEBA4
:101A000081EDA0FB81ED82BB81ED84BB81ED90BBBC
:101A100081ED9ABB81ED98BB062C81ED9CBBFFF656
:101A20007FAFBDEC108BF0BD000000207A008BFC76
:101A3000FA2109C07A008BFCFA210940FCDEA63F9E
:101A4000FB2129C0FCDEA63FFB212940000000004D
:101A5000008076C00000000000807640000000009A
:101A600000E06F400AD7A3703D0AB7BF0000000036
:101A700000000000FCA9F1D24D62503F0AD7A370CC
:101A80003D0AB73F9A9999999999C93F134900EB33
:101A9000C00303EB40200122096801EBC00101F5FE
:101AA000005001F5805180F8482280EDA20B91EDA5
:101AB000AC2B90ED961BB4EEC02BF1EE10FA04DDCA
:101AC000B1EE410B80ED980B01E080ED981B9FED8E
:101AD000040B80ED9A0B80ED9C0B704700000020FA
:101AE00000000000000000000A4900EBC00303EB07
:101AF00040209FED090B0022096801EBC00000F5B2
:101B0000005080F8482280ED980B80ED9A0B80ED14
:101B10009C0B704700000020000000000000000047
:101B200070B500F02DF800F07BF800F0FBF9124AD8
:101B30004FF4C2701149136891F8EC1A0F4A83F8F8
:101B4000F8120021441C02EB4006A0B203EBC105D1
:101B5000B6F8E64702EB4006401C491CB6F8E667BB
:101B600080B2062906EB044400EE104AB7EEC00A24
:101B700085EDC00BE6DB70BD0000002000000038E2
:101B80002548B0F88E0908B1012200E00022234860
:101B900041F25E2100680A541F49B1F8901909B159
:101BA000012200E0002242F2A6210A541A49B1F8AB
:101BB000921909B1012200E0002243F2EE210A54F9
:101BC0001549B1F8941909B1012200E0002244F24C
:101BD00036310A541049B1F8961909B1012200E0D2
:101BE000002245F27E310A540B49B1F8981909B127
:101BF000012200E0002246F2C6310A540649B1F83B
:101C00009A1901B1012100F5E04080F80A14024858
:101C1000B0F89C09FEF7A1BC0000003800000020CD
:101C20002DE9F05FBB484FF0010BB0F83E1ABA48FF
:101C3000012901D180F8E9B8B649B1F8401A012963
:101C400002D1022180F8E918B249B1F8421A0129FB
:101C500002D1032180F8E918AE49B1F8441A0129EC
:101C600002D1AE4A82F802B0AA49AD4EB1F8461A86
:101C7000A0F8EC18A748B0F8481A3068012901D13B
:101C800080F80DB04FF00009A249B1F84A1A0129B5
:101C900001D180F80D909F48B0F84C0A012804D17A
:101CA000FFF7DCFC316881F825909A48B0F84E0ABD
:101CB000012801D101F006F89648B0F8500A012831
:101CC00006D1FEF74FFCFEF752FC316881F82690F2
:101CD0009048B0F8520A012801D100F05FFF8D480A
:101CE000B0F8540A012808D130684C4680F81090AA
:101CF000FFF7E8FA306880F8244040F2391E854842
:101D00008246B0F8561A012930D1D6F800200021B9
:101D10004FF4487301EBC10000EB4124002002EBBB
:101D2000C40500BF03F101080AEB430C1FFA88F356
:101D300005EBC0070AEB4304BCF8E6C75B1C07F5DC
:101D40000057B4F8E647401C9BB204EB0C4400EE8D
:101D5000104A0628B7EEC00A87ED540BE2DB491C97
:101D60000629D7DB82F8109082F824900AEB4E0007
:101D70000EF101075446B0F8E607012807D1316893
:101D800081F810B0FFF79EFA316881F8249004EBD7
:101D90004700791CB0F8E607012804D1326802F543
:101DA000E04282F811B4481C04EB4101B1F8E61797
:101DB000012904D1326802F5E04282F81194451CF1
:101DC00004EB4000B0F8E607012801D1FEF7D4FB90
:101DD00004EB45006F1CB0F8E607012801D1FEF7BF
:101DE000D0FB04EB47007E1CB0F8E607012802D1C7
:101DF0000220FEF7C6FB04EB4600751CB0F8E607B0
:101E0000012802D10420FEF7BCFB04EB4501681C4D
:101E100085B2B1F8E607012802D10820FEF7B1FB30
:101E200004EB4501681C85B2B1F8E607012802D130
:101E30001020FEF7A6FB04EB4501681C85B2B1F843
:101E4000E607012802D12020FEF79BFB04EB4501A9
:101E5000681C85B2B1F8E607012802D14020FEF7E0
:101E600090FB04EB4501681C85B2B1F8E607012838
:101E700001D1FEF78BFB04EB4501681C85B2B1F87C
:101E8000E607012802D10220FEF780FB04EB4501A2
:101E9000681C85B2B1F8E607012802D10420FEF7DC
:101EA00075FB04EB4501681C85B2B1F8E607012813
:101EB00002D10820FEF76AFB04EB4501681C85B2DD
:101EC000B1F8E607012802D11020FEF75FFB04EB12
:101ED0004501681C85B2B1F8E607012802D120202F
:101EE000FEF754FB04EB4500B0F8E607012802D1E9
:101EF0004020FEF74BFB4FF4967049464FF4A57314
:101F000004EB4005421C90B29842A5F8E617F7D9B9
:101F1000BDE8F09F0000003800F00024000000241D
:101F200000000020FE480F232DE9F0430068FD4A21
:101F3000FD4C00F5E0411646457A04F57044A2F8E0
:101F4000E657458AA6F8E857858AA6F8EA5790F832
:101F50002250A6F8EC5790F82350A6F8EE5794F8C4
:101F6000EA58A6F8F057F04D6D78A6F8F257D4F875
:101F7000284A250CA6F8F4571546A5F8F647047C20
:101F8000A5F8F84791F83044A5F8FA47D1F8344459
:101F9000240CA5F8FC47B1F83444A5F8FE47D1F865
:101FA0003844240CA5F80048B1F83844A5F8024894
:101FB0005FF000045E1C04EBC40505EB442502EB56
:101FC0004308B6B200EBC50303F58053751C02EB62
:101FD0004607AEB293F854C2751CA8F8E6C702EBE8
:101FE000460C93F85582AEB2A7F8E687751C93F8B5
:101FF0005682ADB2ACF8E68702EB460793F85782FB
:102000006E1C02EB450CB5B2A7F8E6876E1C93F880
:10201000588202EB4507ACF8E687B5B2B3F85AC26E
:102020006E1CB6B2A7F8E6C702EB4508751C02EBBA
:10203000460CAEB2B3F85C52A8F8E657751C93EDA7
:10204000AC0B1FFA85F902EB4608B7EEC00B09F19D
:102050000106B6B210EE105A2F0CACF8E67710EE6F
:10206000105A02EB4907A8F8E657751C93EDAE0B22
:1020700002EB4608ADB2B7EEC00B10EE106A4FEAA5
:10208000164CA7F8E6C710EE106A02EB450CA8F84C
:10209000E6676E1C93EDB20BB6B2B7EEC00B02EB67
:1020A000460810EE105A2F0CACF8E67710EE105AD6
:1020B000761CA8F8E657641C93EDB40BB3B2BCEEE3
:1020C000C00B02EB43065B1C9BB2062C10EE105AB1
:1020D000A6F8E657FFF66EAF5C1C91F8025402EBCF
:1020E0004306A3B25C1CA6F8E65702EB4305A3B275
:1020F00091F8126402EB4304A5F8E6675B1C91F8C3
:1021000013549BB25F1CA4F8E65702EB4306BBB224
:1021100091F814745C1C02EB4305A6F8E677A3B2B1
:1021200091F8036402EB4304A5F8E6675B1C9BB2DD
:102130005F1C02EB430CBBB291F804745E1CA4F864
:10214000E67702EB4305B3B203F101081FFA88F703
:102150007C1CA4B202EB4306B1F80634ACF8E637B7
:10216000631CB1F808C499B201F10108A5F8E6C7EB
:1021700002EB41051FFA88F10023A6F8E63702EBCF
:10218000470701F1010C02EB41061FFA8CF1A7F899
:10219000E6374F1C02EB440402EB410CB9B2A4F841
:1021A000E6374C1C02EB4107A5F8E637A1B2A6F8CA
:1021B000E6374C1CACF8E63702EB4105A1B24C1CEB
:1021C00002EB4106A4B200F50041B1F8A8C4A7F89B
:1021D000E6C704F1010C02EB44071FFA8CF4B1F8D6
:1021E000BAC4A5F8E6C704F1010C02EB44051FFAD6
:1021F0008CF4B1F878C4A6F8E6C704F1010C02EB40
:1022000044061FFA8CF4B1F87AC4A7F8E6C704F1C3
:10221000010C02EB44071FFA8CF4B1F87CC4A5F85A
:10222000E6C704F1010C02EB44051FFA8CF4B1F887
:102230007EC4A6F8E6C704F1010C02EB44061FFABF
:102240008CF4B1F890C4A7F8E6C704F1010C02EBD6
:1022500044071FFA8CF4B1F892C4A5F8E6C704F15C
:10226000010C02EB44051FFA8CF4B1F894C4A6F8F3
:10227000E6C704F1010CB1F8961402EB4406A7F886
:10228000E6171FFA8CF4A5F8E637611C90ED260BD3
:1022900089B24B1CB7EEC00B02EB410502EB4404C4
:1022A0009BB25F1C10EE101A090CA6F8E61710EE90
:1022B000101A02EB4306A4F8E617B9B290ED2E0B04
:1022C0004B1C02EB4104B7EEC00B99B210EE103A72
:1022D0001B0CA5F8E63710EE103A4F1C02EB410537
:1022E000A6F8E63790ED360BB9B24E1CB7EEC00B30
:1022F00002EB4103B1B210EE106A370CA4F8E67796
:1023000010EE104A4E1CA5F8E64702EB410790ED8F
:10231000400BB1B24D1CB7EEC00B02EB410405E01F
:10232000000000200000003800000024A9B210EED8
:10233000105A4E1C2D0CA3F8E65710EE103A02EB83
:102340004105A7F8E637B1B290ED420B4B1C02EB0A
:102350004106B7EEC00B99B201F1010C02EB410747
:102360001FFA8CF110EE103A1B0CA4F8E63710EEB1
:10237000103A02EB4104A5F8E6374B1C90ED440BF4
:1023800099B201F1010CB7EEC00B02EB41051FFA47
:102390008CF110EE103A1B0CA6F8E63710EE103A4E
:1023A00002EB4106A7F8E6374B1C90ED460B99B2BD
:1023B0004F1CB7EEC00B10EE103A1B0CA4F8E6371A
:1023C00010EE103A02EB4104A5F8E637B9B290EDF1
:1023D000200B4B1C02EB4105B7EEC00B9BB25F1C00
:1023E00002EB430310EE101A090CA6F8E61710EEE4
:1023F000101AA4F8E617B9B290ED220B4E1C02EBAE
:102400004104B7EEC00BB1B210EE106A360CA5F85D
:10241000E66710EE106A4F1CA3F8E66702EB410571
:1024200090ED240BB9B24E1CB7EEC00B02EB41038A
:10243000B1B24F1C10EE106A360CA4F8E66710EE2D
:10244000106A02EB4104A5F8E667B9B290ED280BDB
:102450004D1C02EB4106B7EEC00BA9B24F1C10EEAB
:10246000105A2D0CA3F8E65710EE103A02EB410576
:10247000A4F8E637B9B290ED2A0B4B1C02EB4104ED
:10248000B7EEC00B99B24F1C10EE103A1B0CA6F819
:10249000E63710EE103A02EB4106A5F8E637B9B27E
:1024A00090ED2C0B4D1C02EB4103B7EEC00BA9B213
:1024B0004F1C10EE105A2D0CA4F8E65710EE104ADF
:1024C00002EB4105A6F8E647B9B290ED300B4E1C81
:1024D00002EB4104B7EEC00BB1B24F1C10EE106A14
:1024E000360CA3F8E66710EE103A02EB4106A5F8A9
:1024F000E637B9B290ED320B4B1C02EB4105B7EE5B
:10250000C00B99B210EE103A1F0CA4F8E67710EE4B
:10251000103AA6F8E6374B1C90ED340B02EB410461
:102520009BB2B7EEC00B00F5805010EE101A0E0CE7
:10253000A5F8E66710EE101AA4F8E61702EB4301BF
:10254000B0F84802A1F8E607BDE8F08300231A4678
:1025500001E08354521C8A42FBD37047284870B56F
:10256000274A03680C32264923F470530360203154
:102570000368244C00254FF47A7643F4205303601B
:102580001368214843F4A05313600B681F4A43F0BB
:10259000EE630B6025612B21A0611D48E26166613D
:1025A000016020691B49084320610B2000F0F6FC04
:1025B00015491948091DA5622C22154B21631B1DC5
:1025C0006063E6621A60A06A1249C1390843A062DA
:1025D0000C2000F0E3FC0D48C021104C08380A4DD7
:1025E00003680948B4FBF3F31838021F1D24243D87
:1025F000036011602C602620BDE8704000F0CEBC66
:10260000000C02580000024024440040080000383A
:102610000008024011050300F0030038000E2707F0
:102620002DE9F04100F08CFAFFF798FF0E490E48B3
:102630000C300A6800230C4CEF2522F001020A60DE
:102640002434261D4FF47A7706F1040C236035609C
:10265000CCF80070016841F001010160BDE8F04173
:10266000322000F09BBC0000000C004070B500233D
:1026700005464FF6FF704AF201040CE0EA5C504058
:102680000822C6074FEA500000D06040521E12F0E8
:10269000FF02F6D15B1C8B42F0D370BD2DE9F041F7
:1026A000594D2C4695F8D80714F8081F814230D1AF
:1026B0006178204640F2DC57062968D004DC012905
:1026C0000BD0032925D145E04F480F29807B00F12D
:1026D00007001FD010291CD170E00621FFF7C6FFAC
:1026E000E279A17901EB022189B2884211D101205E
:1026F00085F8E007A178E0782379627900EB012082
:1027000002EB03210844401E80B2642873D200F01B
:10271000C7F875E0C6B220463146FFF7A7FFA119FA
:10272000A25D497802EB012189B2884268D10F206D
:1027300085F8E007A178E0782379627900EB012140
:1027400002EB03200844401E80B2642853D200F0FC
:1027500061F955E00621FFF789FFE279A17901EBE4
:10276000022189B288424BD1032085F8E007A17885
:10277000E0782379627900EB012102EB0320084421
:10278000401E80B2B84236D200F0CEF838E00621C2
:10279000FFF76CFFE279A17901EB022189B288424F
:1027A0002ED1062085F8E007A178E07800EB012023
:1027B00080B2B8421FD200F0FBF821E0C6B220463A
:1027C0003146FFF753FFA119A25D497802EB0121C1
:1027D00089B2884214D1102085F8E007A178E0780A
:1027E0002379627900EB012102EB03200844401EAB
:1027F00080B2B84202D300F02FF801E000F060F997
:10280000BDE8F04100F002B80000003808484FF47D
:102810007A71026922F001020261826842F02002AC
:1028200082604161016941F001010161704700006E
:102830000000024007498A6A22F001028A628A681F
:1028400042F400628A60C862886A40F001008862CF
:10285000704700000000024070B5104D02204FF498
:102860007A7105F57C7485F8D90705F5FB65204676
:10287000FFF76CFE287803212070287A8030607082
:102880006878A0702046FFF7F1FE020AE07022711E
:102890000521BDE870400846FFF7CCBF00000038B6
:1028A0002DE9F0411F4D4FF47A71A5F57C7428464F
:1028B000FFF74CFE237B2046627BE17AA67A02EB8F
:1028C000032290F8D877D21D2F70032490F8E037B8
:1028D00001EB0621C2F3C7026B7089B2AA70012A0C
:1028E00002D0022A06D010E0B0F8E4070424C84061
:1028F000E8700AE0B0F8E42701F108030524CA40B3
:10290000EA70B0F8E407D840287121462846FFF75E
:10291000ADFE611C020A2855A01C6A54BDE8F041B6
:10292000FFF788BFF00300382DE9F0411F4C4FF44A
:102930007A71A4F57C752046FFF708FE6A7B29466C
:102940002B7BE87AAE7A02EB032291F8D857FF236B
:10295000257000EB062080B28618032503EA4203A7
:1029600091F8E027761E6270B6B2A3700DE001EB1D
:1029700040036A1C92B2B3F8E6773F0A675593F8B2
:10298000E657531CA5549DB2401CB042EFDD2946CA
:102990002046FFF76BFE691C020A605588B2411C95
:1029A0002254BDE8F04188B2FFF744BFF00300387D
:1029B00070B5174D4FF47A71A5F57A742846FFF774
:1029C000C5FDA278A4F10801E078237900EB02208C
:1029D00080B21A0201EB400301EB4000A3F8E627A6
:1029E000B0F8E61762791144A0F8E6170020215CE0
:1029F0002954401C0628FADB06212846FFF736FE3C
:102A0000A871010AE9710820BDE87040FFF712BF04
:102A1000F00300382DE9F047284D4FF47A71A5F501
:102A20007A742846FFF792FD94F802C0A4F10803D7
:102A300027790020E278667902EB0C2CA17906EB6D
:102A40000727B3F8E4271FFA8CF63744A7F10107EC
:102A50001FFA87FC012902D0022902D007E0E079A1
:102A600003E0217AE07900EB0120B04080B24FF022
:102A7000010900273946B14205DB614503DC09FA4B
:102A800001F84744BFB2491C1029F4DBBA4338406F
:102A90000243A3F8E4270020215C2954401C0628A7
:102AA000FADB06212846FFF7E1FDA871010AE9716A
:102AB0000820BDE8F047FFF7BDBE0000F003003876
:102AC0002DE9F0411D4D4FF47A71A5F57A74284631
:102AD000FFF73CFDA2780720E178A4F108072679EA
:102AE000637901EB022189B203EB06220A44521EEC
:102AF00092B20FE0235C401C07EB410680B21B0240
:102B0000A6F8E63714F800C0401C80B2491C6344A4
:102B1000A6F8E6379142EDDD0020215C2954401CE7
:102B20000628FADB06212846FFF7A0FDA871010A56
:102B3000E9710820BDE8F041FFF77CBEF0030038E2
:102B400070B54FF47A7412482146FFF7FFFC114824
:102B50002146FFF7FBFC104B4FF4E1300C490022FB
:102B6000B3FBF0F308390124C1E9000381F8E02741
:102B700040F2DC5381F8D8471046A1F8E427441C02
:102B800001EB4005A0B29842A5F8E627F7D370BD47
:102B900008000038F003003840420F00474A002385
:102BA000F0B447494FF4FA70D2F8004003EB430504
:102BB000002204EB051500BF00F1010C01EB4007FA
:102BC0001FFA8CF005EBC20601EB400CB7F8E67774
:102BD000401C06F50046BCF8E6C7521C80B20CEB60
:102BE000074700EE107A062AB7EEC00A86ED100BF2
:102BF000E2DB5B1C072BD9DB5FF0000505EB8502F0
:102C000002EBC503002204EBC30300BF00F1010C7B
:102C100001EB40061FFA8CF003EBC20701EB400CFE
:102C2000B6F8E667401C07F50047BCF8E6C7521C3B
:102C300080B20CEB064600EE106A062AB7EEC00A18
:102C400087ED640BE2DB0022461C01EB400CB0B2C6
:102C500003EBC207BCF8E66701EB400C401C07F52C
:102C60000047BCF8E6C7521C80B20CEB064600EEEB
:102C7000106A062AB7EEC00A87ED720BE4DB421C2D
:102C800001EB400690B203F50043B6F8E62701EBEE
:102C90004006401C6D1CB6F8E66780B2072D06EBB7
:102CA000024200EE102AB7EEC00A83ED700BA5DBDE
:102CB000002084F82600F0BCFDF759BC000000207D
:102CC0000000003842490022F0B542484FF4C87372
:102CD0000D685C1C00EB4306A3B202EBC201B6F820
:102CE000E64700EB43065B1C9BB2B6F8E66701EBD8
:102CF0004221521C06EB044400EE104A03F1010687
:102D000000EB4304B7EEC00AB3B205EBC10100EB20
:102D1000430601F5005103F1010381ED680BB4F89E
:102D2000E6479BB2B6F8E66703F10107062A06EB11
:102D3000044400EE104A00EB4306BBB2B7EEC00AF3
:102D400000EB430703F101039BB203F1010C81ED9A
:102D50006A0BB6F8E647B7F8E6674FEA04473E4421
:102D600000EE106A00EB43041FFA8CF3B7EEC00AC2
:102D700000EB430603F101039BB281ED6C0BB4F849
:102D8000E647B6F8E67700EB43064FEA044C6744A3
:102D900000EE107A03F10104A3B2B7EEC00A00EB13
:102DA000430703F101039BB281ED860BB6F8E647BA
:102DB000B7F8E66706EB044400EE104AB7EEC00A27
:102DC00081ED880B85DB002085F82500F0BD000033
:102DD00000000020000000383548F0B53449036891
:102DE0007839344A43F470030360086840F01000F7
:102DF0000860106800F00F00072804D2106820F067
:102E00000F00C01D10602C4900202B4C10340B68A3
:102E10002A4D43F001030B6020600B682B400B60D0
:102E2000136803F00F03072B04D9136823F00F0373
:102E3000DB1D1360204C224A1834224B261D371DFF
:102E400020601D4C204D28343060261D3860371D11
:102E500023603B1D35601C1D3A60251D2E1D18602A
:102E6000331D22602860326018600B684FF0B0425A
:102E7000114C23F480230B6060342060D2F8E4000E
:102E8000124940F48040C2F8E40008686FF30F0074
:102E9000B0F1005F03D20E490120C1F8080143F2EE
:102EA000D2000C49024B4A03803B08601A60F0BD17
:102EB00088ED00E000200052004402587FEDF6EA61
:102EC00080020101000202020000FF010010005C0C
:102ED000008000510040005210B5084C2068C00727
:102EE0000BD006481038016821F001010160FFF79E
:102EF000D5FB206820F00100206010BD100C0040C0
:102F00000C480068C00613D50B4800680B48014602
:102F1000007A91F8D817884204D10948016841F035
:102F2000010101600348001D016841F010010160CA
:102F3000704700001C440040244800400000003856
:102F4000000C0040084810B50068C0060AD50648C5
:102F500008300068FDF7DAFD0348001D016841F004
:102F60001001016010BD00001C48004003B401982E
:102F70004100009850EAC12018BF04204A0D18BF34
:102F800040F0010040F2FF72B2EB515F08BF40F029
:102F90000200012808BF052002B07047002809DBA5
:102FA000410900F01F028900012001F1E021904059
:102FB000C1F800017047002809DB410900F01F0239
:102FC0008900012001F1E0219040C1F80001704723
:102FD00010B5694A2DED020B2DED0C8B82B00F99C7
:102FE00021F000409FED66CB90422CDBA0F14053D6
:102FF0000E9AA3F17F631A430FD06349884202DC23
:1030000016D10E98A0B19DED0E0B02B0BDEC0C8B4D
:1030100002B0BDE8104001F0BFBA0029CCBF9FED5F
:103020005C0BB0EE4C0B02B0BDEC0C8B02B010BDD3
:103030000120FDF74EFA02B0BDEC0C8B02B0BDE8EA
:10304000104001F0B1BA544A9FED558B9FED569B4D
:1030500090422ADA56499FED58BB8142A8BFB0EE94
:103060004B0BE0DA9DED0E0B5548062120EE00AB30
:10307000B0EE4A0B784401F0F3F920EE0ACB514848
:10308000B0EE4A0B0421784401F0EAF90AEE008B15
:103090009DED0E1B8CEE080B01EE409B9DED0E0B83
:1030A00030EE490B3BEE400BBDE79FED470B9FED2C
:1030B00048BB9DED0E1B002926DA31EE081B464861
:1030C000062121EE00ABB0EE4A0B784401F0C8F9BE
:1030D00020EE0ADB4148B0EE4A0B0421784401F0AF
:1030E000BFF90AEE008B51EC1A0B01F0B9FA8DEE24
:1030F000081B41EC100B11EE009B30EE091BB0EEEB
:103100004C0B01EE4B0B8EE738EE411B21EE009B82
:1031100051EC190B01F0A4FA41EC1C0B00208DEDD1
:1031200000CB00909DED001B9DED002BB0EE490BF8
:103130002B4801EE420B06213CEE011B80EE01AB59
:10314000B0EE490B784401F08BF920EE09DB2548FD
:10315000B0EE490B0421784401F082F909EE008BAE
:103160008DEE080B00EE0CAB9DED000B30EE0A0B64
:1031700020EE0B0B57E700000000F03F00000000BE
:10318000182D4454FB2109400000F07F000000008E
:1031900000000000000000000000E03F0000000010
:1031A000000000000000F03F075C143326A6913CAD
:1031B0000000603C00000000182D4454FB21F93F42
:1031C000F8690000166A0000000000000000E03FFF
:1031D0000000000000000040A2690000C06900007B
:1031E000286900004669000070B565482DED020BA6
:1031F0002DED048B059D25F00044A04218DC6148AC
:10320000844202DC0AD1049840B19DED040BBDEC70
:10321000048B02B0BDE8704001F0BEB9002DCCBFF8
:103220009FED590B9FED5A0BBDEC048B02B070BDA6
:103230005948A04215DD5948A042D8BF4FF0FF348D
:1032400055DD9DED040B51EC100BFFF78FFE0428AC
:1032500008BF01F0C1F99DED040BBDEC048B02B079
:1032600070BD9DED040B51EC100B01F0C9F9CDE9D7
:1032700004014B489FED4C0BA0421CDD4C48A04282
:103280000BDD9DED042B00249FED4B1B12EE010B7B
:1032900032EE011B80EE012B27E09DED041B9DED1E
:1032A000042B012431EE401B32EE000B81EE002B8B
:1032B0008DED042B1BE04248A0420FDD9DED042B59
:1032C00002249FED411B9DED043B32EE412B03EEAA
:1032D000010B82EE001B8DED041B08E09DED040B3D
:1032E0009FED3B1B032481EE002B8DED042B9DED08
:1032F000040B3948062120EE009B29EE098BB0EE25
:10330000480B784401F0ACF820EE099B3348B0EE4E
:10331000480B0521784401F0A3F820EE080B002C9F
:103320000BDA9DED042B39EE001B9DED040BBDEC7B
:10333000048B02B002EE410B70BD2948784439EE8F
:10334000000B00EBC4009DED042B90ED001B254805
:1033500012EE001B9DED040B31EE400B784400EBA8
:10336000C400002D90ED001B31EE400BB8BFB1EE54
:10337000400BBDEC048B02B070BD000000000000EB
:10338000000010440000F07F182D4454FB21F93F49
:10339000182D4454FB21F9BF0000DC3F0000203E03
:1033A0000000F33F00000000000000000000F03FBC
:1033B0000000E63F000000000000000000000040A8
:1033C0000080034000000000000000000000F83F03
:1033D000000000000000F0BFAA6800007068000054
:1033E00028680000E867000070B5614E2DED040B01
:1033F0002DED048B82B0DDF824C0DDE907235C42AB
:103400002CF000411C4341EAD474069D22F0004098
:10341000B44205D86C422C4340EAD474B4420BD970
:103420009DED081B9DED060B02B0BDEC048B04B0B6
:10343000BDE8704001F0B3B8ACF14054A4F17F6432
:103440001C430BD0022404EAAC7444EAD274054352
:103450009FED498B9FED4A2B0DD016E09DED060B9D
:1034600051EC100B01F0C4F841EC100B02B0BDECB4
:10347000048B04B070BD002C14BF012C9DED060B15
:10348000F4D0022C2ED0032C2FD00B439FED3E1BEB
:103490009FED3F0B0AD0B1421DD1B04209D121F0BE
:1034A000804120F080400991079014E0002ADDDA85
:1034B00015E0394B7B44002C08BF93ED000BD5D0B1
:1034C000012C04BF93ED000BB1EE400BCED0022CCB
:1034D00008D0032C09D0B0420AD1002AC6DAB0EED7
:1034E000410BC3E7B0EE480BC0E7B0EE420BBDE7BF
:1034F000401A00159FED2A9B3C28C8BF8DED000B9C
:1035000015DCBCF1000FBCBF10F13C0F8DED009B32
:103510000DDB9DED061B9DED082B81EE020B51ECA2
:10352000100B01F06DF801F063F8CDE9000194B1E2
:10353000012C0CD09DED001B9FED1B0B022C31EEDE
:10354000400B0CBF38EE400B30EE480B8EE7019875
:1035500080F0004001909DED000BB4EE490BF1EEC0
:1035600010FA04BF0220FCF7B4FF9DED000B7DE7CD
:103570000000F07F00000000182D4454FB2109409A
:10358000182D4454FB2109C0182D4454FB21F9BFC8
:10359000182D4454FB21F93F58670000000000003B
:1035A0000000000000000000075C143326A6A13CC8
:1035B00010B529499FED261B2DED020B84B005980F
:1035C00020F000408842D8BF9DED040B2DDD23493B
:1035D000884209D1049840B94FF00100FCF779FF07
:1035E00000F0E2FF06B010BD05DB9DED040B30EEF0
:1035F000000B06B010BD68469DED040B00F038FDD1
:1036000010F0030004BF9DED021B9DED000B0CD0DC
:1036100001280ED09DED021B9DED000B022810D05D
:10362000012000F055FF06B010BD00F0A9FE06B065
:1036300010BD9DED021B9DED000B012000F048FF29
:1036400001E000F09DFE06B0B1EE400B10BD0000A1
:103650000000000000000000FB21E93F0000F07FB7
:103660002DE9F04D2DED040B2DED0A8B9AB0DDE91F
:103670002550279CDDF890A025F0004624F0004856
:10368000BAF1000F14BF0121002101EB4502F849F6
:1036900053184A1093422AD3002814BF0123002351
:1036A00003EB44030B44F3498B4220D358EA000157
:1036B0009FEDF19B72D0DFF8C8B35D4503D1BAF13D
:1036C000000F05D184E0BAF1000F08BF002100D03F
:1036D000012101EB450111F5001F08D8002814BF96
:1036E0000121002101EB440111F5001F0BD99DEDD3
:1036F000261B9DED240B1AB0BDEC0A8B04B0BDE86F
:10370000F04D00F04CBF0027002DBCBFDD498845BF
:1037100021DADD498845A8BF02271CDAC3451ADC37
:10372000DA4901EB2851142908DDC1F1340220FAED
:1037300002F101FA02F282420DD108E058B9C1F15A
:10374000140228FA02F101FA02F2424503D101F013
:103750000101C1F1020756EA0A0120D1002C1EDA4C
:10376000002D18BF022F01D0012F0AD00220FCF734
:10377000B0FE1AB0BDEC0A8B04B0BDE8F04D00F00D
:10378000FBBE0220FCF7A5FE00F0F6FEB1EE400BFA
:103790001AB0BDEC0A8B04B0BDE8F08D18E09FEDC7
:1037A000BCAB9FEDBD8B00287DD1B64880451CD1B8
:1037B00005F1804010F5801008BFBAF1000F07D066
:1037C000B34508DC002CA8BF9DED260BE0DA07E02E
:1037D000B0EE490BDCE7002CB8BF9DED260BD5DB26
:1037E000AF48784490ED000BD2E7D84548D1002C83
:1037F00043DA2EB186423AD1BAF1000F3DD126E02C
:10380000BAF1000F13D00220FCF763FE00F0D8FEDF
:103810008DED020B9DED240B8DED000B10EE900A4B
:10382000039961F31E0003909DED020BB0E78DED4F
:1038300002AB9DED240B1AEE901A10EE900A8DED5E
:10384000000B61F31E0003909DED020BA0E78DEDD0
:10385000028B9DED240B18EE901A10EE900A8DED60
:10386000000B61F31E0003909DED020B90E704DA5C
:103870009DED241B89EE010B8AE79DED240B87E764
:1038800086421ADAB4F1804F04BF9DED240B20EE7E
:10389000000B3FF47DAFA4F10050B0F1FF500CD10C
:1038A000002D0ADB00E008E09DED240B51EC100B2D
:1038B00000F0D6FE41EC100B6AE79DED240B51ECB5
:1038C000100B00F09DFEBAF1000FCDE90E0140D1C2
:1038D0009FED750B46B3A6F1E040B0F17F600ED0CE
:1038E0005E4536D1002D00DA97B3022F0CBF0120C0
:1038F0004FF0FF3000EE100AB8EEC00B48E7002D85
:1039000001DD002C0DDA002D01DD002C1DDB002D6A
:1039100014DA002C12DB012F08BF9FED650B3FF47A
:1039200037AFB0EE4A0B33E7022F18BF002D0CD093
:10393000012F0AD1002DFFF62BAF06E0002DB8BFF6
:10394000002C06DA012F3FF423AFB0EE480B1FE73F
:1039500019E0012000EBE57050EA070113D0791E51
:10396000B0EE498B084308BF9FED538B54480025A8
:1039700080457ADD53495448884514DDB0420DDB5B
:10398000002C19DB2CE00120FCF7A3FD1AB0BDECE4
:103990000A8B04B0BDE8F04D00F006BEB34502DC72
:1039A000002C09DC1CE0864202DA002C18DA03E065
:1039B0005E4528DD002C13DD0220FCF78AFD00F0B7
:1039C000FFFD8DED020B28EE0A0B8DED000B10EEC6
:1039D000900A039961F31E0003909DED020BD7E658
:1039E0000220FCF776FD00F0F7FD10EE901A18EEBD
:1039F000900A8DED020B8DED008B61F31E0003909C
:103A00009DED020BC4E69DED0E0B9FED313B30EEBC
:103A1000490B8DED040B20EE002B9DED041B9FED5B
:103A20002E0B01EE430B9DED043B9FED2D1B03EE92
:103A3000401B9DED040B9FED2E3B22EE012B9FEDD5
:103A40002A1B20EE011B20EE030B9FED2B3B02EE09
:103A5000430B31EE002B8DED022B02959DED022BD9
:103A600032EE411B30EE411B21E149E00000000035
:103A7000FFFF1F00FFFF0F00000000000000F03FED
:103A80000000F03F0000F07F0000404301FCFFFF1A
:103A9000000000000000F07F0000000000000000B7
:103AA0002A64000000000000000000000000008008
:103AB000000000000000F0FF000000000000F0BF68
:103AC0000000E0410000F043FFFFEF3F0000000076
:103AD000000000000000D03F555555555555D53FC5
:103AE000000000000000E03F000000604715F73FC5
:103AF00044DF5DF80BAE543EFE822B654715F73F61
:103B00000020B6F5801F0BDA9DED0E0B9FEDEC1B30
:103B10006FF0340020EE010B10EE906A8DED0E0B6D
:103B2000E94A00EB2650C6F31301A0F2FF3741F03B
:103B30007F6040F040509142D8BF002408DDE34A46
:103B40008A42C8BF012403DC0024A0F580107F1C3A
:103B5000DF49794401EBC4010F9091ED001B9DED0D
:103B60000E2B9DED0E0BDB4931EE023B30EE410B8F
:103B700089EE032B20EE02AB8DED02AB794402956A
:103B800091ED003B4FF0005141EA600000EB8440B2
:103B90008DED043B00F5002005909DED043B9DED6F
:103BA000044B2AEE0ACB33EE411B9DED0E3BCA4877
:103BB000062133EE411B9DED023B03EE440B03EE69
:103BC000410B20EE02BBB0EE4C0B784400F048FCF9
:103BD0002CEE0C1B20EE010B9DED021B31EE0A1B9F
:103BE0000BEE010B9DED021B21EE011B9FEDBC2B8B
:103BF00031EE023B33EE003B8DED043B04959DED31
:103C0000043B33EE422B32EE411B30EE412B9DED57
:103C1000020B9DED041B20EE011B9DED040B2BEE12
:103C2000000B02EE0A0B31EE002B8DED022B0295FC
:103C30009DED022B32EE411B30EE410B9DED021B40
:103C40009FEDA92B21EE021B9DED022B9FEDA83BC2
:103C500022EE032B9FEDA83BA94800EE032B7844EE
:103C600000EBC40090ED000BA64832EE000B02EE14
:103C7000107AB8EEC22B8DED042B31EE003B784468
:103C800000EBC4009DED044B90ED002B33EE023BA6
:103C900033EE043B8DED023B02959DED023B33EE8E
:103CA000443B33EE422B32EE411B30EE411B9DED87
:103CB000260B954A8DED000B00959DED260B9DED95
:103CC000002B30EE420B9DED022B20EE020B9DED02
:103CD000262B02EE010B9DED001B9DED022B21EE2C
:103CE000021B8DED021B30EE011B11EE900A11EE4E
:103CF000101A8DED001B904224DB821A11430ED165
:103D00009FED831B9DED002B9DED023B30EE011BD3
:103D100032EE432BB4EEC21BF1EE10FA26DD022088
:103D2000FCF7D7FB00F04CFC10EE901A18EE900A4E
:103D30008DED020B8DED008B61F31E0003909DED68
:103D4000020B25E5744B20F000429A420ED3734AD1
:103D5000024411437FF444AE9DED022B31EE421B31
:103D6000B4EEC01BF1EE10FABFF63AAE20F00041FF
:103D70006B4A6C4B002402EB21529942D8BF9DED57
:103D8000021B27DD511C4FF4801222FA01F101447D
:103D9000654BC1F30A527B44A2F2FF3293ED001B44
:103DA000624B8DED041BD34021EA0303C1F31301E1
:103DB00041F48011C2F1140221FA02F405930028A3
:103DC000B8BF64429DED021B9DED042B31EE421BFA
:103DD0008DED021B30EE011B8DED041B04959DED56
:103DE000041B9FED532B9DED023B21EE021B9DED2D
:103DF000042B32EE432B30EE420B9FED4F2B20EE87
:103E0000020B9DED042B9FED4E3B4F48052102EE2A
:103E1000030B31EE002B8DED002B32EE411B30EE0B
:103E200041AB9DED000B20EE000B8DED040B7844B3
:103E300000F016FB9DED001B9DED042B02EE401BD8
:103E40008DED021B9DED000B20EE010B9FED402B35
:103E500031EE422B80EE021B9DED002BB0EE4A0BA3
:103E600002EE0A0B31EE400B9DED001B30EE410BD4
:103E700039EE400B10EE900A8DED000B00EB045074
:103E800001150029C8BF019013DC224651EC100B2C
:103E900000F05BFCFFF76AF8042808BF00F09CFB09
:103EA00022469DED000B51EC100B00F04EFCCDE9CD
:103EB00000019DED000B28EE000B69E400000000FE
:103EC00000000000000040438E9803007AB60B000B
:103ED0006A5F000090600000225F000000000000A8
:103EE0000000000000000840000000E009C7EE3FAD
:103EF000F5015B14E02F3EBEFD033ADC09C7EE3F3F
:103F00007E5E00004E5E0000000090400000000059
:103F1000FE822B654715973C00CC904000346F3FE4
:103F200001FCFFFF0000E03F765E0000FFFF0F0096
:103F300000000000432EE63FEF39FAFE422EE63F36
:103F4000396CA80C615C20BEEE5C00000000000033
:103F5000000000000000004010B529499FED261B1D
:103F60002DED020B84B0059820F000408842DCBFA4
:103F700000209DED040B2EDD2249884209D10498D2
:103F800040B94FF00100FCF7A4FA00F00DFB06B0B9
:103F900010BD05DB9DED040B30EE000B06B010BD2F
:103FA00068469DED040B00F063F810F003000DD09F
:103FB000012814D09DED021B9DED000B022816D0A8
:103FC00000F0DEF906B0B1EE400B10BD9DED021B16
:103FD0009DED000B012000F07BFA06B010BD9DEDB9
:103FE000021B9DED000B00F0CBF906B010BD0120C7
:103FF00000F06EFAE6E7000000000000000000009C
:10400000FB21E93F0000F07F00B52DED028BB1EE02
:10401000C08B83B018EE100A18EE901A8DED008B4D
:10402000002818BF0120084320F00040C0F17F6045
:1040300000F1E040C00F14D010EE101A10EE900AFC
:104040008DED000B002918BF0121084320F000402E
:10405000C0F17F6000F1E040C00F04BF0120FCF719
:1040600038FAB0EE480B03B0BDEC028B00BD000087
:104070002DE9F14F04462DED020B2DED048B94B08C
:104080009FED9D0B80ED020B199E9D4826F000458B
:1040900085420ADC9DED180B002084ED000B14B066
:1040A000BDEC048B03B0BDE8F08F96489FED969B66
:1040B0009FED978BA84225DD97489FED991B9FEDBB
:1040C0009A2B9DED180B002E0DDD30EE490B85422D
:1040D00012BF30EE480B30EE410B30EE420B84ED58
:1040E000000B0120DBE730EE090B854212BF30EEFA
:1040F000080B30EE010B30EE020B84ED000B4FF09D
:10410000FF30CCE78A48A84253DB9DED180B51ECF9
:10411000100B00F075FA41EC100BB0EE401B9FED58
:10412000862B9FED870B290DDFF81CC201EE020BD9
:104130000120FDEEC00B10EE903A00EE903AB8EE82
:10414000E02BB0EE410B02EE490B22EE081BFC44C3
:10415000032830EE411B84ED001B1DD011EE902A88
:1041600000EB4015113DC2F30A528A1A954213DA48
:104170000CEB0012B0EE403B92ED000B401C20EE29
:10418000021B33EE410B33EE403B33EE411B92ED0D
:10419000023B12EE031BDBE7002EA8BF1846BFF65A
:1041A0007EAF94ED000B5842B1EE400B84ED000B56
:1041B00075E7C6F3130040F4801EC6F30A50A0F260
:1041C000F530471100F01F05C5F12000DDF860B0A3
:1041D000139000200890099005200DF1080C5B4910
:1041E000002D07EB0002794408BF51F8221009D0D6
:1041F00051F8223001EB8201AB404A68139922FA50
:1042000001F11943A1FB0E26A1FB0B131A449A429C
:1042100034BF0123002303EB06080CEB8003D3E932
:1042200001A60E448E4234BF0121002192448A44EB
:1042300011B1924502D903E0924501D2012100E07B
:104240000021C3E901A641444CF82010011EA0F151
:104250000100C4DC04989DED050A00F10050810FB7
:1042600004989FED3B4B800001EE100ADDED060A3D
:104270009DED072AB8EEC13BB8EE401BB8EE600BCF
:10428000B8EE422B002021EE041B9FED334B20EEB5
:10429000040B9FED334B22EE042B30EE024B34EE39
:1042A000014B34EE034B8DED004B00909DED004B28
:1042B000199834EE433B10F0004F33EE411B31EEC2
:1042C000400B32EE401B9DED000B9FED272B20EEA7
:1042D000020B9FED272B01EE020B9DED001B9FEDC6
:1042E000262B01EE020B1CBF4942B1EE400B84EDC0
:1042F000000B0846D3E600000000000000000000AC
:10430000FB21E93F7CD9024000004054FB21F93FEA
:104310003163621A61B4D03DFB21F93F0000000017
:104320000000601A61B4D03D7370032E8A19A33B5C
:10433000FB2139410000000083C8C96D305FE43FB4
:10434000000000000000E03FC65A00005E5A000076
:10435000000000000000103E000000000000103CC3
:10436000000000000000103A3326A611460B113C55
:10437000182D4454FB21F93D00000054FB21F93D68
:1043800010B52DED040B2DED068B82B0B0EE41ABD8
:1043900009989FED299B20F00044B4F1795F0FDA72
:1043A0009DED080BBDEEC00B10EE100A002801BFFA
:1043B000B0EE490B02B0BDEC068B04B008BF10BDD7
:1043C0009DED080B1E48062120EE008BB0EE480B39
:1043D000784400F045F820EE080B9DED081B1C48C2
:1043E000844228EE000B01EE4A0B9FED171B28EECE
:1043F000011BBCBF31EE400B39EE400B16DB1548FC
:10440000A042BCBF9FED142B8DED002B06DBA4F565
:1044100000100190002000909DED002B31EE421B1A
:1044200039EE422B31EE400B32EE400B02B0BDECC8
:10443000068B04B010BD0000000000000000F03F3B
:104440000C58000000000000000000000000E03FE9
:104450003333D33F0000E93F000000000000D23FAB
:10446000491E00EBC102B0EE401B92ED000B31F093
:1044700006020DD0491E00EBC102B0EE403B92EDAA
:10448000002B31F00602B0EE420B03EE010BF1D12E
:10449000022914D004290AD0062918BF704790EDCC
:1044A0000A2B00EE012B90ED080B02EE010B90EDB4
:1044B000062B00EE012B90ED040B02EE010B90EDAC
:1044C000022B00EE012B90ED000B02EE010B70476A
:1044D00031B504462DED040B2DED068BB0EE419B5E
:1044E00007989DED060B20F00040B0F1795F0DDAE2
:1044F00051EC100BFEF73AFD042808BF00F06CF8F1
:104500009DED060BBDEC068B05B030BD20EE008B9B
:104510001348052128EE00ABB0EE480B7844FFF7B6
:104520009FFF9FED111B8CB19FED112B29EE022BEC
:104530000AEE402B9DED060B18EE029B0AEE419B06
:1045400030EE490BBDEC068B05B030BD08EE001B0C
:104550009DED060B0AEE010BBDEC068B05B030BDE0
:10456000C057000000000000495555555555C5BFBE
:10457000000000000000E03F9FED031B9FED042BB7
:1045800081EE020B70470000000000000000F03FC9
:10459000000000000000000030EE000B704730EE1D
:1045A000010B7047000000009FED031B81EE010B23
:1045B0007047000000000000000000000000000044
:1045C0009FED030B20EE000B704700000000000081
:1045D00000000000000000709FED030B20EE000BB8
:1045E0007047000000000000000000000000001004
:1045F00010B541EC100BFEF7F7FD51EC100B10BDA0
:1046000082B0CDE9000121F0004001909DED000B4A
:1046100002B051EC100B7047FBF7BDFF0F4D0026A9
:104620005FF00104FBF7BCFFFBF7BFFF286841F216
:104630005E2342F2A62143F2EE2245F27E371E545B
:1046400044F236330C5446F2C63114541C543C54D4
:104650000C5400F5E04080F80A44E3E70000002035
:1046600000B541EC100B2DED028B83B0B1EEC08B89
:1046700018EE100A18EE901A8DED008B002818BF66
:104680000120084320F00040C0F17F6000F1E040CD
:10469000C00F14D010EE101A10EE900A8DED000B22
:1046A000002918BF0121084320F00040C0F17F60BD
:1046B00000F1E040C00F04BF0120FBF70AFF51ECFE
:1046C000180B03B0BDEC028B00BD000002494FF097
:1046D000000000F008B800BF0000F87F4FF0407005
:1046E000E1EE100A70470CF00F03092B08BF0820F9
:1046F00000F059800A2B0BD0082B18BF704708BF59
:104700001CF0400F0AD04FF000004FF0000170473E
:104710001CF0400F18BF4FF0004070471CF0100F06
:1047200008D020F0704300F07F4242EAD3014FEA04
:104730004370704700F0604021F07F4242EA00027F
:1047400001F07F4040EA727070474FF0FF0C4CF46C
:10475000E06C1CEA11531CBF9CEA030C9445C2BFD9
:10476000DA4201EB02517047002B0DD0BCF1000F73
:104770000FD0002A01F00041A4BF41F0E04141F018
:104780007F614FF00000704701F000414FF00000E2
:10479000704750EA01334FF09B0C18BF4CF0806C0F
:1047A0007FF494AF70471CF4801F11D01CF4E02FED
:1047B00003D06FEACC31490070474FF04050EFF31F
:1047C000008222F0704242EA000282F300887047C1
:1047D0004FF000007047000027A5A0DB4B1AEABF8E
:1047E00097C7A3426056E7BF07EAA6A97492E4BF41
:1047F000760CAA1089CEE1BFCD5D5AEF3A15DEBF27
:10480000ADA260BD638DD8BF8CE7668B8C05D3BF2E
:10481000D858DAB26AFBCABF30C5CD9D78D7BFBFC2
:1048200060B1CDAB3770A3BFA02700E481CEA83F15
:104830002880F3DC4E43C13F6CF6E640FD52CC3F8E
:1048400056366DD255B1D33F76F166042D39D93F36
:1048500096AC603604C1DE3FDB332DB46D24E23FFD
:104860006B112A4D59E8E43FFBEE26E644ACE73FE6
:104870008BCC237F3070EA3F000000000000344002
:1048800026605CA1213835404CC0B84243703640A8
:10489000722015E464A837409880718586E038401E
:1048A000BEE0CD26A8183A40E3402AC8C9503B4094
:1048B00009A18669EB883C402F01E30A0DC13D4008
:1048C00055613FAC2EF93E40BEE0CD26A8184040D1
:1048D000D0107CF7B8B44040E3402AC8C9504140EA
:1048E000F670D898DAEC414009A18669EB8842401D
:1048F0001CD1343AFC2443402F01E30A0DC143404C
:10490000423191DB1D5D444055613FAC2EF944407E
:104910006891ED7C3F95454000ACA63EFEB245C097
:10492000806E30710B7241C00051B8DA276E3CC006
:1049300000F874DA639937C000D1BFFA140D34C09F
:1049400000505010097F31C000E06F11C9612FC0C5
:10495000001CD3D273DC2CC00000E7968B162BC052
:104960000084C75D5EC829C000309A0158B928C0CC
:104970000000C85DD3BF27C00078564733C126C0AA
:1049800000884C0C03B225C000D81130DE9524C03D
:1049900000F0B61ADF7E23C000001571548C22C0CF
:1049A00000E0B0CB7CE821C000C0528208C521C025
:1049B00000F03E42215622C0007789EA13C639C072
:1049C00080CA96E2041135C0009E524031AC31C01D
:1049D000007AC95A8E972EC00026549894652BC031
:1049E0000078C736335F29C000D03719B23228C0EB
:1049F00000B46F503D9C27C000D05B34866327C055
:104A00000054AD046B5A27C000E0A0C6645C27C008
:104A10000080D7157B4E27C00018319E7D1F27C010
:104A2000004095F442C826C000E09884AC4B26C0F4
:104A30000098EF482FB625C000B09504A11C25C0F2
:104A40000040A2B2099A24C00030AEE2384C24C023
:104A500000B0BEB7DE4E24C000406C9C040C30C0D9
:104A600000150A849B472BC0007C4D483D0628C09A
:104A70000084C38F24ED25C0002EA590F6AD24C080
:104A800000D4130D020C24C000C437F03ED723C05D
:104A900000849BDED2E823C000ECB06FDA2024C093
:104AA000002070C6366524C00060FC3E1FA124C0F3
:104AB00000783EE736C524C000186278E5C724C0F8
:104AC00000A02487B3A524C00010E3A0696124C01E
:104AD00000C0550BB20324C00040E8DCFC9923C0A1
:104AE00000C09923663423C0003057D05DE222C055
:104AF00000E0B91CD1AD22C00099373237F726C08B
:104B000000F314A171C124C000AC38E7805A23C05F
:104B10000046C7D7B48022C0001CA131AF0622C016
:104B200000DEC695CBCC21C00078EE924ABC21C0F5
:104B3000008C377CFFC321C000E4EBC040D621C00D
:104B400000443C7BDAE721C000C8E5EBC2EF21C09E
:104B500000C0AE9850E721C00070A9C3B1CA21C0FF
:104B600000702AF1649921C000086132725621C098
:104B700000087FEA240821C000905FC405B720C068
:104B80000050998ED46B20C00060ECB3412C20C043
:104B90000000EE0B4EEC1FC00084EE8A117F23C094
:104BA00000369105F1A422C00026E5F4521922C076
:104BB00000022BC346B521C0000C9CFC086321C039
:104BC000007884DA971721C000D870BB08CE20C0C7
:104BD00000505D3E5E8420C00098D3B69E3920C050
:104BE0000080CE5FD5D91FC000E0FA67A63A1FC08B
:104BF00000B09C1E5F941EC000201E8664E71DC08E
:104C0000001063BEF9361DC0004051F1E4891CC09C
:104C100000B03CE410EA1BC000A0189AAA621BC0B6
:104C2000002040723AFC1AC00000BF2F38B61AC0EC
:104C30000080EA54997D1AC000EDB84FF91A22C0DD
:104C400000CF711500E621C00010E04DECB021C08E
:104C50000048D779A46621C000549CDAE90021C03D
:104C60000070D78F188220C00028F8F44CE11FC0D4
:104C70000078293541A81EC00078C03BCD661DC014
:104C800000005FAAC8271CC000F0E28C11F31AC014
:104C900000E0B52275CE19C000E032B912BF18C0CD
:104CA0000060FD02B8CA17C000202458B6F816C02C
:104CB00000A0EF4AB05116C0000037FDDEDD15C080
:104CC00000C013A24EA115C00040D997919515C000
:104CD0000040238669A015C000BD2E83D76720C081
:104CE00000EC1334DF7B20C00086F115376720C04D
:104CF000000C7BE6311F20C000C85938AE4C1FC0E5
:104D00000064702A9B0C1EC000C08DC605971CC095
:104D100000D80BD49D041BC000C8C70CA76A19C0DB
:104D20000000E4E8AFD917C00070AC53BF5D16C0F7
:104D3000002076B578FF14C000F05BBEB5C513C087
:104D40000090AD5D15B712C00050F551FFDA11C0EB
:104D500000D067BD9B3911C000C0A22A3EDA10C046
:104D600000E0906DC3BF10C000C050CC61E210C025
:104D70000000FEDB6A2611C000DA061B64541AC06C
:104D800000362D58E3C01AC0001C45877EC31AC0E8
:104D90000008AC22F14F1AC0004C049E207219C0CA
:104DA000009044E2444218C000683BB385DC16C062
:104DB00000F0646A8C5B15C000E0ED7289D513C009
:104DC0000048C0F22C5B12C00028770C12F810C00B
:104DD0000000264C38680FC000A09D408B2A0DC0F3
:104DE0000000DFD4BE420BC00040D3BC81BE09C06E
:104DF000002079A2CEAD08C00000B686092008C008
:104E00000080063AFA1C08C000C0B6C4A29808C0C8
:104E100000C06A96F06009C0009867F1234C10C08A
:104E2000002EBA1374E210C000745489711E11C0B0
:104E300000744D7456F410C00094FEF1076F10C05A
:104E400000E01B631F490FC0004063470C5C0DC0AE
:104E50000010145FD9440BC000A0DDB0EE2709C0DC
:104E600000A012818A1E07C0008038E80E3805C0F5
:104E700000809FD22A7D03C000E0C840DDF301C05E
:104E8000004048A051A300C00040B829282DFFBF12
:104E90000040FA1239BAFDBF004021C25E10FDBFCA
:104EA0000080033D2548FDBF0080E1B72C58FEBFC0
:104EB000008077D1DEF0FFBF0060F18AE0FFEDBF38
:104EC000000849C267CAF1BF00907956F2CEF3BF1D
:104ED00000004D0622CBF4BF008046410AD3F4BF48
:104EE00000504C976224F4BF0020C4915A07F3BFCE
:104EF00000E01D601CBBF1BF00203B07FC6BF0BF56
:104F000000404886A162EEBF00400195EC21ECBF55
:104F100000007346E70CEABF00808B6F8A17E8BF7A
:104F200000800CB98F43E6BF008042E984ACE4BF47
:104F30000080BDCB178BE3BF0080BA15962BE3BF73
:104F4000000053A69CD3E3BF00003881F192E5BF77
:104F50000000D2E283FBE7BF00D0DA03CDC60240F7
:104F600000101443095201400000A379A1B0FF3F93
:104F700000B0489FF010FD3F00206CC7B1CFFA3F52
:104F8000005064D447D0F83F00C052D6CFECF63F73
:104F9000000068948C08F53F00A039D4B618F33FA0
:104FA00000C0B2AFB425F13F00806894748DEE3F2D
:104FB0000080DE6AAC33EB3F000014ADD774E83FED
:104FC00000003A383C70E63F000037AB5920E53F1F
:104FD000000064F98D56E43F00804E82A8C3E33F91
:104FE0000000AC4F7011E33F0000961A2211E23F1F
:104FF000000024B9EA02E13F0012784CDEFB1440C5
:10500000005237F9F157144000307F3210811340BD
:10501000009CE7C2F8931240008054B5B399114048
:1050200000AC6485309210400060B04E03F70E4033
:10503000000024F769AC0C400080B083934E0A4016
:105040000060EE4089F007400070D4A6C4AB054074
:1050500000A05F2FD39B03400040D3CD39D901403E
:1050600000A0DE2E997400400080D7D327E6FE3FD3
:105070000040C597EF99FD3F00C03EC756DFFC3F9B
:105080000080E2F0C187FC3F0080B4252072FC3F25
:105090000000C87F6DAEFC3F00748A4639621D4037
:1050A00000BA08B217EE1C4000687554222A1C4052
:1050B00000AC60EF69331B400030C4B8BD141A4027
:1050C0000034E87F01D118400048FB79246A17407A
:1050D0000000804A39E515400068B5DB2F4C1440CC
:1050E00000D81B9BB1AD124000383CAEA01B114054
:1050F00000C0A86775510F4000A0174BBFCB0C40F4
:105100000080A9DCFABE0A4000E03D934137094027
:105110000020F9FE573208400040C02368A1074034
:1051200000002BDE096F07400080347B9A8A07401D
:1051300000C0EFAAE4F907400078BECA3107214059
:1051400000C022D573DF20400090DC558D942040B4
:1051500000F6E599DB302040007C509A686D1F40D6
:1051600000A40F12DA4A1E4000A0CDBD6AF91C400F
:1051700000A06051077D1B400070FCD2A9DF1940E0
:105180000010D710003118400040495FB984164024
:1051900000409033FCEF144000D0522F848613401F
:1051A00000E00D31E957124000E08CFD8F6D114099
:1051B00000809116C5C910400060CD528268104031
:1051C000008053CB5F4210400060A2B230521040CA
:1051D00000806EA9CC9D104000037F7865102240AE
:1051E000000958B0FCCA2140005038CC9C852140B1
:1051F00000FA6A234740214000CCEDA992F42040F8
:10520000004EF4FC909A204000587F13082C204058
:10521000007835BA814C1F400080A63156151E40DB
:1052200000C8EC5C2DBD1C4000A05BA885541B4051
:105230000010129506EF194000B00BF277A018404D
:1052400000A0556AE6791740006089FC7587164012
:105250000050B2EF62CF15400030C0D9B1521540B6
:105260000060AD4B0F101540006077B75F09154027
:1052700000601324804C15400058E04A3A612340F6
:1052800000F49DC94A83224000F085F3AEF421402A
:1052900000FC4400F2A22140007063297C77214089
:1052A00000129E36565C2140007870D6433F214064
:1052B0000078E30C751321400030B1020FD220407A
:1052C0000080D07ECC79204000C47954F60D204077
:1052D00000E06E1FE8291F40009025556A2D1E40F2
:1052E0000090E02966361D40001059B298521C40CB
:1052F0000060184F728C1B4000F01F25B3EB1A4062
:1053000000807E8C3B781A4000A0F508913F1A403F
:105310000020D560985D1A4000943BD39FA627409B
:105320000075CBFFD4412540001A984C61B823404A
:105330000070396A4ADB224000DC0EA68A7A2240DD
:1053400000724BF8B369224000E45106EC8222401F
:105350000044716381A8224000A8155A5AC5224012
:1053600000347D877DCC224000980494F4B722401D
:1053700000301C52498722400088F78DDD3D2240D5
:1053800000D809D85DE12140008060948F782140E9
:105390000068EE98BA0A214000B0D7A4EE9F2040E2
:1053A0000050D4FA644220400060B5683E012040BD
:1053B0000020490CBCE91F4000EDFF76734B3140E3
:1053C00000E13593CF182D4000067232ED5229408E
:1053D0000042C25AAFED2640007E07178894254050
:1053E00000A8937F6FFA244000AC3468C2DC2440EC
:1053F0000060BE74BC042540004825DECD47254032
:1054000000E83B320D8725400078245805AE254042
:105410000080892320B125400090ADC0ED8B254050
:1054200000686643893F254000D012A35AD124402A
:1054300000409F6D764A24400050A97BDBB7234093
:105440000070D5EFCE2B2340008067CB96C0224062
:1054500000603062D39C2240801C6A19235C3C406F
:105460008091907CE2D8364080D5B7B2B0D432403B
:1054700000EA2B916B08304000B6CC870E622C40BE
:1054800000702AB281232A40008CCEDDFEEA28403B
:1054900000044D51085F2840006053201237284017
:1054A00000744C11DE3A28400068D5EF35412840A1
:1054B00000B81796442E284000E817F7CDF1274092
:1054C00000580C748685274000F0CDC6C9EB2640F5
:1054D00000B073CBF12E264000002B738D61254068
:1054E0000050602AB89F244000B047FCD1112440EE
:1054F0000050D8BDD8F0234040E94DDB6ABD47409D
:10550000005B5C64A6B6424080943929B2C43D4039
:1055100000F8C14A6E16384000E3D33F36FF3340EF
:1055200000A8FD892F253140002AB83E87722E4001
:1055300000ACF29686EF2B4000102421F4502A4054
:105540000018925CA33C29400030A6E54B6D284032
:10555000009046F7D1B0274000F8411570E626408C
:105560000020E12902FD25400038AF60B2F124405F
:1055700000888A0848CF2340008811C758AE2240CF
:1055800000687A679CB6214000C0EA8EA3212140C2
:1055900000305FA0313F214027A5A0DB4B1AEABFB6
:1055A00097C7A3426056E7BF07EAA6A97492E4BF73
:1055B000760CAA1089CEE1BFCD5D5AEF3A15DEBF59
:1055C000ADA260BD638DD8BF8CE7668B8C05D3BF61
:1055D000D858DAB26AFBCABF30C5CD9D78D7BFBFF5
:1055E00060B1CDAB3770A3BFA02700E481CEA83F48
:1055F0002880F3DC4E43C13F6CF6E640FD52CC3FC1
:1056000056366DD255B1D33F76F166042D39D93F68
:1056100096AC603604C1DE3FDB332DB46D24E23F2F
:105620006B112A4D59E8E43FFBEE26E644ACE73F18
:105630008BCC237F3070EA3F000000000000344034
:1056400026605CA1213835404CC0B84243703640DA
:10565000722015E464A837409880718586E0384050
:10566000BEE0CD26A8183A40E3402AC8C9503B40C6
:1056700009A18669EB883C402F01E30A0DC13D403A
:1056800055613FAC2EF93E40BEE0CD26A818404003
:10569000D0107CF7B8B44040E3402AC8C95041401C
:1056A000F670D898DAEC414009A18669EB8842404F
:1056B0001CD1343AFC2443402F01E30A0DC143407E
:1056C000423191DB1D5D444055613FAC2EF94440B1
:1056D0006891ED7C3F95454000ACA63EFEB245C0CA
:1056E000806E30710B7241C00051B8DA276E3CC039
:1056F00000F874DA639937C000D1BFFA140D34C0D2
:1057000000505010097F31C000E06F11C9612FC0F7
:10571000001CD3D273DC2CC00000E7968B162BC084
:105720000084C75D5EC829C000309A0158B928C0FE
:105730000000C85DD3BF27C00078564733C126C0DC
:1057400000884C0C03B225C000D81130DE9524C06F
:1057500000F0B61ADF7E23C000001571548C22C001
:1057600000E0B0CB7CE821C000C0528208C521C057
:1057700000F03E42215622C0007789EA13C639C0A4
:1057800080CA96E2041135C0009E524031AC31C04F
:10579000007AC95A8E972EC00026549894652BC063
:1057A0000078C736335F29C000D03719B23228C01D
:1057B00000B46F503D9C27C000D05B34866327C087
:1057C0000054AD046B5A27C000E0A0C6645C27C03B
:1057D0000080D7157B4E27C00018319E7D1F27C043
:1057E000004095F442C826C000E09884AC4B26C027
:1057F0000098EF482FB625C000B09504A11C25C025
:105800000040A2B2099A24C00030AEE2384C24C055
:1058100000B0BEB7DE4E24C000406C9C040C30C00B
:1058200000150A849B472BC0007C4D483D0628C0CC
:105830000084C38F24ED25C0002EA590F6AD24C0B2
:1058400000D4130D020C24C000C437F03ED723C08F
:1058500000849BDED2E823C000ECB06FDA2024C0C5
:10586000002070C6366524C00060FC3E1FA124C025
:1058700000783EE736C524C000186278E5C724C02A
:1058800000A02487B3A524C00010E3A0696124C050
:1058900000C0550BB20324C00040E8DCFC9923C0D3
:1058A00000C09923663423C0003057D05DE222C087
:1058B00000E0B91CD1AD22C00099373237F726C0BD
:1058C00000F314A171C124C000AC38E7805A23C092
:1058D0000046C7D7B48022C0001CA131AF0622C049
:1058E00000DEC695CBCC21C00078EE924ABC21C028
:1058F000008C377CFFC321C000E4EBC040D621C040
:1059000000443C7BDAE721C000C8E5EBC2EF21C0D0
:1059100000C0AE9850E721C00070A9C3B1CA21C031
:1059200000702AF1649921C000086132725621C0CA
:1059300000087FEA240821C000905FC405B720C09A
:105940000050998ED46B20C00060ECB3412C20C075
:105950000000EE0B4EEC1FC00084EE8A117F23C0C6
:1059600000369105F1A422C00026E5F4521922C0A8
:1059700000022BC346B521C0000C9CFC086321C06B
:10598000007884DA971721C000D870BB08CE20C0F9
:1059900000505D3E5E8420C00098D3B69E3920C082
:1059A0000080CE5FD5D91FC000E0FA67A63A1FC0BD
:1059B00000B09C1E5F941EC000201E8664E71DC0C0
:1059C000001063BEF9361DC0004051F1E4891CC0CF
:1059D00000B03CE410EA1BC000A0189AAA621BC0E9
:1059E000002040723AFC1AC00000BF2F38B61AC01F
:1059F0000080EA54997D1AC000EDB84FF91A22C010
:105A000000CF711500E621C00010E04DECB021C0C0
:105A10000048D779A46621C000549CDAE90021C06F
:105A20000070D78F188220C00028F8F44CE11FC006
:105A30000078293541A81EC00078C03BCD661DC046
:105A400000005FAAC8271CC000F0E28C11F31AC046
:105A500000E0B52275CE19C000E032B912BF18C0FF
:105A60000060FD02B8CA17C000202458B6F816C05E
:105A700000A0EF4AB05116C0000037FDDEDD15C0B2
:105A800000C013A24EA115C00040D997919515C032
:105A90000040238669A015C000BD2E83D76720C0B3
:105AA00000EC1334DF7B20C00086F115376720C07F
:105AB000000C7BE6311F20C000C85938AE4C1FC017
:105AC0000064702A9B0C1EC000C08DC605971CC0C8
:105AD00000D80BD49D041BC000C8C70CA76A19C00E
