:020000040800F2
:10000000D0910120950300089D0300089F0300087C
:10001000A1030008A3030008A503000800000000D6
:10002000000000000000000000000000A70300081E
:10003000A903000800000000AB030008896D000060
:10004000AF030008AF030008AF030008AF030008C8
:10005000AF030008AF030008AF030008AF030008B8
:10006000AF030008AF030008AF0300082105000834
:100070003D050008AF030008AF030008AF03000808
:10008000AF030008AF030008AF0300087D3700008E
:10009000AF030008A5370000AF030008AF03000856
:1000A000AF030008AF030008AF030008AF03000868
:1000B000AF030008AF030008AF030008AF03000858
:1000C000AF030008AF030008AF030008AF03000848
:1000D000AF030008AF030008A9140008AF0300082D
:1000E000AF030008AF03000800000000AF030008E2
:1000F000AF030008AF030008AF030008AF03000818
:10010000AF030008AF030008AF030008AF03000807
:10011000AF030008AF030008AF030008996D0000AB
:10012000AF030008AF030008AF030008AF030008E7
:10013000AF030008AF030008AF030008AF030008D7
:10014000AF030008AF03000800000000000000003B
:10015000AF030008AF030008AF030008AF030008B7
:10016000AF030008AF030008AF030008AF030008A7
:10017000AF030008AF030008AF0300080000000051
:10018000AF030008AF030008AF030008AF03000887
:10019000AF030008AF030008AF030008AF03000877
:1001A000AF030008AF030008AF030008AF03000867
:1001B000AF030008AF030008AF030008AF03000857
:1001C000AF030008AF030008AF030008AF03000847
:1001D000AF030008AF030008AF030008AF03000837
:1001E000AF030008AF030008AF030008AF03000827
:1001F000AF030008AF030008AF030008AF03000817
:10020000AF030008AF030008AF030008AF03000806
:10021000AF030008AF030008AF030008AF030008F6
:10022000AF030008AF030008AF03000800000000A0
:10023000AF030008AF030008AF030008AF030008D6
:10024000AF030008AF030008AF030008AF030008C6
:10025000AF030008AF030008AF030008AF030008B6
:10026000AF030008AF030008AF030008AF030008A6
:10027000AF030008AF030008AF030008AF03000896
:10028000AF030008AF030008AF0300080000000040
:10029000AF030008AF03000800F002F800F06AF8AE
:1002A0000AA090E8000C82448344AAF10107DA45D1
:1002B00001D100F05FF8AFF2090EBAE80F0013F0B9
:1002C000010F18BFFB1A43F0010318476C2500000B
:1002D000CC2500000A444FF0000C10F8013B13F04D
:1002E000070408BF10F8014B1D1108BF10F8015B8F
:1002F000641E05D010F8016B641E01F8016BF9D182
:1003000013F0080F1EBF10F8014BAD1C0C1B09D1D8
:100310006D1E58BF01F801CBFAD505E014F8016B4A
:1003200001F8016B6D1EF9D59142D6D370470000DC
:10033000103A24BF78C878C1FAD8520724BF30C811
:1003400030C144BF04680C607047000000230024E3
:1003500000250026103A28BF78C1FBD8520728BFD5
:1003600030C148BF0B6070471FB502F00DF91FBDCB
:1003700010B510BD00F076F81146FFF7F5FF02F05A
:10038000C3F800F094F803B4FFF7F2FF03BC00F0E9
:1003900097F800000948804709480047FEE7FEE754
:1003A000FEE7FEE7FEE7FEE7FEE7FEE7FEE7FEE725
:1003B00004480549054A064B70470000A913000888
:1003C00099020008D0920020D0910120D0A10020F5
:1003D000D0A1002010B5203AC0F00B80B1E8185031
:1003E000203AA0E81850B1E81850A0E81850BFF41F
:1003F000F5AF5FEA027C24BFB1E81850A0E81850BE
:1004000044BF18C918C0BDE810405FEA827C24BF11
:1004100051F8043B40F8043B08BF7047D20728BF9F
:1004200031F8023B48BF11F8012B28BF20F8023BEE
:1004300048BF00F8012B704770477047704710B5F0
:1004400000F008F8006810BD10B5044600F002F88E
:10045000046010BD0048704770920020004870474B
:10046000709200207546FFF7F9FFAE460500694619
:10047000534620F00700854618B020B5FFF798FFD7
:10048000BDE820404FF000064FF000074FF0000895
:100490004FF0000B21F00701AC46ACE8C009ACE816
:1004A000C009ACE8C009ACE8C0098D46704710B57A
:1004B0000446AFF300802046BDE81040FFF763BF5D
:1004C00001491820ABBEFEE726000200704744F247
:1004D0008D2CC0F2000C604742F6915CC0F2000C1B
:1004E000604745F6C56CC0F2000C604743F6057CDA
:1004F000C0F2000C604742F2A90CC0F2000C604749
:1005000042F2550CC0F2000C604742F6013CC0F2CA
:10051000000C604743F2C92CC0F2000C6047000099
:1005200010B5054C2068800605D500F05DFCA0687C
:1005300040F02000A06010BD0000024004480168A7
:10054000090503D5816841F40061816070470000AE
:1005500000000240AFF300800C4800210123042278
:100560000068883000F5C040437081700270C1702F
:100570000171C18001818172017341738173C17303
:10058000017441748174C174704700000000002040
:1005900010B500F005F8BDE8104000F06FB900009C
:1005A0002DE9F05FB349B248B1F83E1A012900D1F4
:1005B0004170B049B1F8401A012901D102214170BE
:1005C000AC49B1F8421A012901D103214170A9496E
:1005D000A94CB1F8441A8180A648B0F8461A2068A0
:1005E000012900D101724FF00009A249B1F8481A5F
:1005F000012901D180F808909E48B0F84A0A0128E4
:1006000004D1FFF764FF216881F81D909948B0F884
:100610004C0A012801D100F043FE9648B0F84E0A7A
:10062000012806D1FFF758FFFFF75BFF216881F82B
:100630001E909048B0F8500A012801D100F09CFDAE
:100640008C48B0F8520A012807D120684D4680F83E
:100650000B90FFF74BFF206805774FF49C7B854894
:100660008246B0F8541A01292ED1D4F80020002176
:100670004FF4487301EB0125052002EB051600BF7E
:1006800003F101080AEB430C1FFA88F306EBC007DD
:100690000AEB4305BCF8E6C707F5406703F1010321
:1006A000B5F8E6579BB2401E05EB0C4500EE105A1C
:1006B000B7EEC00A87EDC60BE2D5491C0629D9DB87
:1006C00082F80B9082F81C900AEB4B000BF10106AC
:1006D0005546B0F8E607012806D12168C872FFF731
:1006E00005FF216881F81C9005EB4600711CB0F8ED
:1006F000E607012804D1226802F5C04282F898007A
:10070000481C05EB4101B1F8E617012904D1226824
:1007100002F5C04282F89890471C05EB4000B0F803
:10072000E607012801D1FFF7E6FE05EB47007C1C38
:10073000B0F8E607012801D1FFF7E2FE05EB44001F
:10074000661CB0F8E607012802D10220FFF7D8FEA8
:1007500005EB4600741CB0F8E607012802D104201E
:10076000FFF7CEFE05EB4401601C84B2B1F8E6074A
:10077000012802D10820FFF7C3FE05EB4401601CED
:1007800084B2B1F8E607012802D11020FFF7B8FEC5
:1007900005EB4401601C84B2B1F8E607012802D1E0
:1007A0002020FFF7ADFE05EB4401601C84B2B1F8D8
:1007B000E607012802D14020FFF7A2FE05EB440125
:1007C000601C84B2B1F8E607012801D1FFF79DFE55
:1007D00005EB4401601C84B2B1F8E607012802D1A0
:1007E0000220FFF792FE05EB4401601C84B2B1F8D1
:1007F000E607012802D10420FFF787FE05EB44013C
:10080000601C84B2B1F8E607012802D10820FFF786
:100810007CFE05EB4401601C84B2B1F8E6070128B8
:1008200002D11020FFF771FE05EB4401601C84B279
:10083000B1F8E607012802D12020FFF766FE05EB9C
:100840004400B0F8E607012802D14020FFF75DFE22
:100850004FF4967049464FF4A57305EB4004421CD3
:1008600090B29842A4F8E617F7D3BDE8F09F0000D5
:10087000000000240000003800000020B6480E23CD
:100880002DE9F0430268B549B54C02F5C0400E466B
:100890005579A1F8E6579589A6F8E857D589A6F8BD
:1008A000EA57957EA6F8EC57D57EA6F8EE57254672
:1008B00004F5D224AD78A6F8F057D4F8C048250C3A
:1008C000A6F8F2570D46A5F8F447D47AA5F8F647EE
:1008D00090F8B840A5F8F847D0F8BC40240CA5F82B
:1008E000FA47B0F8BC40A5F8FC47D0F8C040240C4B
:1008F000A5F8FE47B0F8C040A5F8004800245E1CEB
:1009000004EB042501EB43071FFA86FC02EB0513F9
:100910000CF10105ADB213F82C6F01EB4C08A7F8F0
:10092000E6676E1C01EB450C5F78B5B2A8F8E67778
:100930006E1C93F8028001EB4507ACF8E687B5B270
:1009400093F803806E1CB6B2A7F8E68701EB450C5E
:1009500093F80480751CADB201EB4607ACF8E6874E
:100960006E1CB3F806C0B6B201EB4508A7F8E6C79F
:10097000751C01EB460C1E89A8F8E667ADB293ED35
:10098000170B6E1C01EB4508B7EEC00B1FFA86F97A
:1009900009F10106B6B210EE105A2F0CACF8E6774A
:1009A00010EE105A01EB4907A8F8E657751C93EDB5
:1009B000190B01EB4608ADB2B7EEC00B10EE106A92
:1009C0004FEA164CA7F8E6C710EE106A01EB450C8B
:1009D000A8F8E6676E1C93ED1D0BB5B2B7EEC00B21
:1009E00001EB450810EE106A370CACF8E67710EE14
:1009F000106AA8F8E66793ED1F0B6D1CABB2BCEE56
:100A0000C00B01EB43065B1C641C9BB2062C10EE72
:100A1000105AA6F8E657FFF672AF5A1C01EB4303D3
:100A200010F88A4F92B2A3F8E647531C01EB420438
:100A3000C57B9AB201EB4203A4F8E657521C047C32
:100A400092B2561CA3F8E64701EB4205B2B2467CCF
:100A5000531C01EB4204A5F8E6679AB2457801EB16
:100A60004203A4F8E657521C92B2561C01EB42070F
:100A7000B2B2541C01EB4206A2B2847802F1010C1E
:100A8000A3F8E64701EB42051FFA8CF2B0F804C068
:100A9000541CA7F8E6C7A4B2C78804F1010CA6F855
:100AA000E6771FFA8CF0461C01EB42030022A5F802
:100AB000E627B5B26E1CA3F8E62701EB440401EB70
:100AC0004503B5B26E1CA4F8E62701EB400001EB2C
:100AD0004504B5B26E1CA0F8E62701EB4500A3F86B
:100AE000E627B5B2A4F8E6276E1C01EB4503A0F893
:100AF000E627B5B26E1C01EB4504B5B2A3F8E627B4
:100B00006E1C01EB4500A4F8E627B5B26E1C01EBA4
:100B10004503A0F8E627B5B26E1C01EB4504A3F827
:100B2000E627B5B2681C80B2A4F8E627461C01EBA4
:100B30004003B0B2461C01EB450501EB4004B0B2E6
:100B4000A5F8E62701EB4000A3F8E627A4F8E6277E
:100B5000A0F8E627BDE8F083000000200000003880
:100B60000000002400231A4601E08354521C8A42EC
:100B7000FBD37047284870B5274A03680C322649D2
:100B800023F47053036020310368244C00254FF494
:100B90007A7643F4205303601368214843F4A0534A
:100BA00013600B681F4A43F0EE630B6025612B2135
:100BB000A0611D48E2616661016020691B4908432C
:100BC00020610B2000F09CFC15491948091DA56205
:100BD0002C22154B21631B1D6063E6621A60A06A1C
:100BE0001249C1390843A0620C2000F089FC0D486D
:100BF000C021104C08380A4D03680948B4FBF3F3D0
:100C00001838021F1D24243D036011602C6026202B
:100C1000BDE8704000F074BC000C025800000240B7
:100C20002444004008000038000802401105030079
:100C3000F0030038000E270710B500F06FFABDE88A
:100C40001040FFF797BF70B5002305464FF6FF70C1
:100C50004AF201040CE0EA5C50400822C6074FEA61
:100C6000500000D06040521E12F0FF02F6D15B1C13
:100C70008B42F0D370BD00002DE9F041594D2C4658
:100C800095F8D80714F8081F814230D161782046C2
:100C900042F21077062968D004DC01290BD0032921
:100CA00025D145E04F480F29807B00F107001FD078
:100CB00010291CD170E00621FFF7C5FFE279A17968
:100CC00001EB022189B2884211D1012085F8E007A9
:100CD000A178E0782379627900EB012002EB03210F
:100CE0000844401E80B2642873D200F0C7F875E053
:100CF000C6B220463146FFF7A6FFA119A25D49788A
:100D000002EB012189B2884268D10F2085F8E00703
:100D1000A178E0782379627900EB012102EB0320CE
:100D20000844401E80B2642853D200F061F955E0B7
:100D30000621FFF788FFE279A17901EB022189B250
:100D400088424BD1032085F8E007A178E078237929
:100D5000627900EB012102EB03200844401E80B2BF
:100D6000B84236D200F0CEF838E00621FFF76BFF2C
:100D7000E279A17901EB022189B288422ED10620C5
:100D800085F8E007A178E07800EB012080B2B84256
:100D90001FD200F0FBF821E0C6B220463146FFF733
:100DA00052FFA119A25D497802EB012189B2884264
:100DB00014D1102085F8E007A178E07823796279D2
:100DC00000EB012102EB03200844401E80B2B84230
:100DD00002D300F02FF801E000F060F9BDE8F04127
:100DE00000F002B80000003808484FF47A71026938
:100DF00022F001020261826842F0200282604161B9
:100E0000016941F0010101617047000000000240EA
:100E100007498A6A22F001028A628A6842F4006203
:100E20008A60C862886A40F00100886270470000EA
:100E30000000024070B5104D02204FF47A7105F5A4
:100E40007C7485F8D90705F5FB652046FFF78AFE17
:100E5000287803212070287A803060706878A0702C
:100E60002046FFF7F0FE020AE07022710521BDE87E
:100E700070400846FFF7CCBF000000382DE9F04174
:100E80001F4D4FF47A71A5F57C742846FFF76AFE72
:100E9000237B2046627BE17AA67A02EB032290F85C
:100EA000D877D21D2F70032490F8E03701EB06218C
:100EB000C2F3C7026B7089B2AA70012A02D0022A5B
:100EC00006D010E0B0F8E4070424C840E8700AE057
:100ED000B0F8E42701F108030524CA40EA70B0F82D
:100EE000E407D840287121462846FFF7ACFE611C74
:100EF000020A2855A01C6A54BDE8F041FFF788BFDC
:100F0000F00300382DE9F0411F4C4FF47A71A4F53D
:100F10007C752046FFF726FE6A7B29462B7BE87A04
:100F2000AE7A02EB032291F8D857FF23257000EB2D
:100F3000062080B28618032503EA420391F8E027D1
:100F4000761E6270B6B2A3700DE001EB40036A1C1E
:100F500092B2B3F8E6773F0A675593F8E657531C09
:100F6000A5549DB2401CB042EFDD29462046FFF754
:100F70006AFE691C020A605588B2411C2254BDE811
:100F8000F04188B2FFF744BFF003003870B5174D49
:100F90004FF47A71A5F57A742846FFF7E3FDA2783D
:100FA000A4F10801E078237900EB022080B21A0254
:100FB00001EB400301EB4000A3F8E627B0F8E61789
:100FC00062791144A0F8E6170020215C2954401CE6
:100FD0000628FADB06212846FFF735FEA871010A2C
:100FE000E9710820BDE87040FFF712BFF003003838
:100FF0002DE9F047284D4FF47A71A5F57A7428460B
:10100000FFF7B0FD94F802C0A4F10803277900208F
:10101000E278667902EB0C2CA17906EB0727B3F88E
:10102000E4271FFA8CF63744A7F101071FFA87FC63
:10103000012902D0022902D007E0E07903E0217AF9
:10104000E07900EB0120B04080B24FF001090027A9
:101050003946B14205DB614503DC09FA01F8474432
:10106000BFB2491C1029F4DBBA4338400243A3F84D
:10107000E4270020215C2954401C0628FADB0621C5
:101080002846FFF7E0FDA871010AE9710820BDE8D4
:10109000F047FFF7BDBE0000F00300382DE9F04136
:1010A0001D4D4FF47A71A5F57A742846FFF75AFD65
:1010B000A2780720E178A4F108072679637901EB8B
:1010C000022189B203EB06220A44521E92B20FE0BB
:1010D000235C401C07EB410680B21B02A6F8E637F2
:1010E00014F800C0401C80B2491C6344A6F8E637DF
:1010F0009142EDDD0020215C2954401C0628FADBDA
:1011000006212846FFF79FFDA871010AE971082012
:10111000BDE8F041FFF77CBEF003003870B54FF436
:101120007A7412482146FFF71DFD11482146FFF74A
:1011300019FD104B4FF4E1300C490022B3FBF0F3E2
:1011400008390224C1E9000381F8E02742F2107354
:1011500081F8D8471046A1F8E427441C01EB40056C
:10116000A0B29842A5F8E627F7D370BD0800003872
:10117000F003003840420F00474A0023F0B44749CB
:101180004FF4FA70D2F8004003EB4305002204EB61
:10119000051500BF00F1010C01EB40071FFA8CF0B0
:1011A00005EBC20601EB400CB7F8E677401C06F5EC
:1011B000D846BCF8E6C7521C80B20CEB074700EEDD
:1011C000107A062AB7EEC00A86ED080BE2DB5B1C3C
:1011D000072BD9DB5FF0000505EB850202EBC503A9
:1011E000002204EBC30300BF00F1010C01EB400639
:1011F0001FFA8CF003EBC20701EB400CB6F8E66770
:10120000401C07F5D847BCF8E6C7521C80B20CEB6F
:10121000064600EE106A062AB7EEC00A87ED5C0BA0
:10122000E2DB0022461C01EB400CB0B203EBC2072C
:10123000BCF8E66701EB400C401C07F5D847BCF84A
:10124000E6C7521C80B20CEB064600EE106A062A76
:10125000B7EEC00A87ED6A0BE4DB421C01EB4006E7
:1012600090B203F5D843B6F8E62701EB4006401CE0
:101270006D1CB6F8E66780B2072D06EB024200EE61
:10128000102AB7EEC00A83ED680BA5DB0020A0771B
:10129000F0BCFFF726B90000000000200000003875
:1012A0003F49002270B53F484FF4C8730C68591C81
:1012B00002EB022600EB43058BB204EB061100EBB8
:1012C0004306B5F8E6575B1C9BB2B6F8E66701F536
:1012D0004061521C06EB054500EE105A03F1010671
:1012E00000EB4305B7EEC00AB3B2062A00EB430693
:1012F00003F101039BB281EDDA0BB5F8E657B6F8BE
:10130000E66706EB054500EE105A03F1010500EB18
:101310004306B7EEC00AABB281EDDC0BB6F8E65778
:1013200000EB430603F101039BB2B6F8E66706EB58
:10133000054500EE105A03F1010500EB4306B7EE38
:10134000C00AABB281EDDE0BB6F8E65700EB430600
:1013500003F101039BB2B6F8E66706EB054500EE24
:10136000105A03F1010500EB4306B7EEC00AABB219
:1013700081EDF80BB6F8E65700EB430603F10103E5
:101380009BB2B6F8E66706EB054500EE105AB7EEDD
:10139000C00A81EDFA0B8ADB0020607770BD000087
:1013A00000000020000000383548F0B534490368DB
:1013B0007839344A43F470030360086840F0100041
:1013C0000860106800F00F00072804D2106820F0B1
:1013D0000F00C01D10602C4900202B4C10340B68EE
:1013E0002A4D43F001030B6020600B682B400B601B
:1013F000136803F00F03072B04D9136823F00F03BE
:10140000DB1D1360204C224A1834224B261D371D49
:1014100020601D4C204D28343060261D3860371D5B
:1014200023603B1D35601C1D3A60251D2E1D186074
:10143000331D22602860326018600B684FF0B042A4
:10144000114C23F480230B6060342060D2F8E40058
:10145000124940F48040C2F8E40008686FF30F00BE
:10146000B0F1005F03D20E490120C1F8080143F238
:10147000D2000C49024B4A03803B08601A60F0BD61
:1014800088ED00E000200052004402587FEDF6EAAB
:1014900080020101000202020000FF010010005C56
:1014A0000080005100400052074810B50068C00697
:1014B00009D506480068FFF7DFFB0348001D0168F7
:1014C00041F01001016010BD1C4400402448004060
:1014D00003B401984100009850EAC12018BF0420CD
:1014E0004A0D18BF40F0010040F2FF72B2EB515FAD
:1014F00008BF40F00200012808BF052002B0704775
:10150000002809DB410900F01F028900012001F1D8
:10151000E0219040C1F80001704700000000000089
:1015200010B529499FED261B2DED020B84B00598BF
:1015300020F000408842D8BF9DED040B2DDD2349EB
:10154000884209D1049840B94FF00100FEF77CFFB2
:1015500000F0AAFF06B010BD05DB9DED040B30EED8
:10156000000B06B010BD68469DED040B00F004FDB5
:1015700010F0030004BF9DED021B9DED000B0CD08D
:1015800001280ED09DED021B9DED000B022810D00E
:10159000012000F021FF06B010BD00F075FE06B07E
:1015A00010BD9DED021B9DED000B012000F014FF0E
:1015B00001E000F069FE06B0B1EE400B10BD000086
:1015C0000000000000000000FB21E93F0000F07F68
:1015D0002DE9F04D2DED040B2DED0A8B9AB0DDE9D0
:1015E0002550279CDDF890A025F0004624F0004807
:1015F000BAF1000F14BF0121002101EB4502F849A7
:1016000053184A1093422AD3002814BF0123002301
:1016100003EB44030B44F3498B4220D358EA000107
:101620009FEDF19B72D0DFF8C8B35D4503D1BAF1ED
:10163000000F05D184E0BAF1000F08BF002100D0EF
:10164000012101EB450111F5001F08D8002814BF46
:101650000121002101EB440111F5001F0BD99DED83
:10166000261B9DED240B1AB0BDEC0A8B04B0BDE81F
:10167000F04D00F015BF0027002DBCBFDD498845A7
:1016800021DADD498845A8BF02271CDAC3451ADCE8
:10169000DA4901EB2851142908DDC1F1340220FA9E
:1016A00002F101FA02F282420DD108E058B9C1F10B
:1016B000140228FA02F101FA02F2424503D101F0C4
:1016C0000101C1F1020756EA0A0120D1002C1EDAFD
:1016D000002D18BF022F01D0012F0AD00220FEF7E3
:1016E000B3FE1AB0BDEC0A8B04B0BDE8F04D00F0BB
:1016F000C7BE0220FEF7A8FE00F0C2FEB1EE400B0E
:101700001AB0BDEC0A8B04B0BDE8F08D18E09FED77
:10171000BCAB9FEDBD8B00287DD1B64880451CD168
:1017200005F1804010F5801008BFBAF1000F07D016
:10173000B34508DC002CA8BF9DED260BE0DA07E0DE
:10174000B0EE490BDCE7002CB8BF9DED260BD5DBD6
:10175000AF48784490ED000BD2E7D84548D1002C33
:1017600043DA2EB186423AD1BAF1000F3DD126E0DC
:10177000BAF1000F13D00220FEF766FE00F0A0FEC3
:101780008DED020B9DED240B8DED000B10EE900AFC
:10179000039961F31E0003909DED020BB0E78DED00
:1017A00002AB9DED240B1AEE901A10EE900A8DED0F
:1017B000000B61F31E0003909DED020BA0E78DED81
:1017C000028B9DED240B18EE901A10EE900A8DED11
:1017D000000B61F31E0003909DED020B90E704DA0D
:1017E0009DED241B89EE010B8AE79DED240B87E715
:1017F00086421ADAB4F1804F04BF9DED240B20EE2F
:10180000000B3FF47DAFA4F10050B0F1FF500CD1BC
:10181000002D0ADB00E008E09DED240B51EC100BDD
:1018200000F075FE41EC100B6AE79DED240B51ECC6
:10183000100B00F05DFEBAF1000FCDE90E0140D1B2
:101840009FED750B46B3A6F1E040B0F17F600ED07E
:101850005E4536D1002D00DA97B3022F0CBF012070
:101860004FF0FF3000EE100AB8EEC00B48E7002D35
:1018700001DD002C0DDA002D01DD002C1DDB002D1B
:1018800014DA002C12DB012F08BF9FED650B3FF42B
:1018900037AFB0EE4A0B33E7022F18BF002D0CD044
:1018A000012F0AD1002DFFF62BAF06E0002DB8BFA7
:1018B000002C06DA012F3FF423AFB0EE480B1FE7F0
:1018C00019E0012000EBE57050EA070113D0791E02
:1018D000B0EE498B084308BF9FED538B5448002559
:1018E00080457ADD53495448884514DDB0420DDB0C
:1018F000002C19DB2CE00120FEF7A6FD1AB0BDEC90
:101900000A8B04B0BDE8F04D00F0CEBDB34502DC5B
:10191000002C09DC1CE0864202DA002C18DA03E015
:101920005E4528DD002C13DD0220FEF78DFD00F062
:10193000C7FD8DED020B28EE0A0B8DED000B10EEAE
:10194000900A039961F31E0003909DED020BD7E608
:101950000220FEF779FD00F0BFFD10EE901A18EEA0
:10196000900A8DED020B8DED008B61F31E0003904C
:101970009DED020BC4E69DED0E0B9FED313B30EE6D
:10198000490B8DED040B20EE002B9DED041B9FED0C
:101990002E0B01EE430B9DED043B9FED2D1B03EE43
:1019A000401B9DED040B9FED2E3B22EE012B9FED86
:1019B0002A1B20EE011B20EE030B9FED2B3B02EEBA
:1019C000430B31EE002B8DED022B02959DED022B8A
:1019D00032EE411B30EE411B21E149E000000000E6
:1019E000FFFF1F00FFFF0F00000000000000F03F9E
:1019F0000000F03F0000F07F0000404301FCFFFFCB
:101A0000000000000000F07F000000000000000067
:101A1000EA0F00000000000000000000000000804D
:101A2000000000000000F0FF000000000000F0BF18
:101A30000000E0410000F043FFFFEF3F0000000026
:101A4000000000000000D03F555555555555D53F75
:101A5000000000000000E03F000000604715F73F75
:101A600044DF5DF80BAE543EFE822B654715F73F11
:101A70000020B6F5801F0BDA9DED0E0B9FEDEC1BE1
:101A80006FF0340020EE010B10EE906A8DED0E0B1E
:101A9000E94A00EB2650C6F31301A0F2FF3741F0EC
:101AA0007F6040F040509142D8BF002408DDE34AF7
:101AB0008A42C8BF012403DC0024A0F580107F1CEB
:101AC000DF49794401EBC4010F9091ED001B9DEDBE
:101AD0000E2B9DED0E0BDB4931EE023B30EE410B40
:101AE00089EE032B20EE02AB8DED02AB794402951B
:101AF00091ED003B4FF0005141EA600000EB844063
:101B00008DED043B00F5002005909DED043B9DED1F
:101B1000044B2AEE0ACB33EE411B9DED0E3BCA4827
:101B2000062133EE411B9DED023B03EE440B03EE19
:101B3000410B20EE02BBB0EE4C0B784400F014FCDD
:101B40002CEE0C1B20EE010B9DED021B31EE0A1B4F
:101B50000BEE010B9DED021B21EE011B9FEDBC2B3B
:101B600031EE023B33EE003B8DED043B04959DEDE1
:101B7000043B33EE422B32EE411B30EE412B9DED08
:101B8000020B9DED041B20EE011B9DED040B2BEEC3
:101B9000000B02EE0A0B31EE002B8DED022B0295AD
:101BA0009DED022B32EE411B30EE410B9DED021BF1
:101BB0009FEDA92B21EE021B9DED022B9FEDA83B73
:101BC00022EE032B9FEDA83BA94800EE032B78449F
:101BD00000EBC40090ED000BA64832EE000B02EEC5
:101BE000107AB8EEC22B8DED042B31EE003B784419
:101BF00000EBC4009DED044B90ED002B33EE023B57
:101C000033EE043B8DED023B02959DED023B33EE3E
:101C1000443B33EE422B32EE411B30EE411B9DED37
:101C2000260B954A8DED000B00959DED260B9DED45
:101C3000002B30EE420B9DED022B20EE020B9DEDB2
:101C4000262B02EE010B9DED001B9DED022B21EEDC
:101C5000021B8DED021B30EE011B11EE900A11EEFE
:101C6000101A8DED001B904224DB821A11430ED115
:101C70009FED831B9DED002B9DED023B30EE011B84
:101C800032EE432BB4EEC21BF1EE10FA26DD022039
:101C9000FEF7DAFB00F014FC10EE901A18EE900A32
:101CA0008DED020B8DED008B61F31E0003909DED19
:101CB000020B25E5744B20F000429A420ED3734A82
:101CC000024411437FF444AE9DED022B31EE421BE2
:101CD000B4EEC01BF1EE10FABFF63AAE20F00041B0
:101CE0006B4A6C4B002402EB21529942D8BF9DED08
:101CF000021B27DD511C4FF4801222FA01F101442E
:101D0000654BC1F30A527B44A2F2FF3293ED001BF4
:101D1000624B8DED041BD34021EA0303C1F3130191
:101D200041F48011C2F1140221FA02F40593002853
:101D3000B8BF64429DED021B9DED042B31EE421BAA
:101D40008DED021B30EE011B8DED041B04959DED06
:101D5000041B9FED532B9DED023B21EE021B9DEDDD
:101D6000042B32EE432B30EE420B9FED4F2B20EE37
:101D7000020B9DED042B9FED4E3B4F48052102EEDB
:101D8000030B31EE002B8DED002B32EE411B30EEBC
:101D900041AB9DED000B20EE000B8DED040B784464
:101DA00000F0E2FA9DED001B9DED042B02EE401BBE
:101DB0008DED021B9DED000B20EE010B9FED402BE6
:101DC00031EE422B80EE021B9DED002BB0EE4A0B54
:101DD00002EE0A0B31EE400B9DED001B30EE410B85
:101DE00039EE400B10EE900A8DED000B00EB045025
:101DF00001150029C8BF019013DC224651EC100BDD
:101E000000F0F9FBFFF764FB042808BF00F064FB57
:101E100022469DED000B51EC100B00F0ECFBCDE9E0
:101E200000019DED000B28EE000B69E400000000AE
:101E300000000000000040438E9803007AB60B00BB
:101E4000C20B0000500C00007A0B000000000000E4
:101E50000000000000000840000000E009C7EE3F5D
:101E6000F5015B14E02F3EBEFD033ADC09C7EE3FEF
:101E7000D60A0000A60A0000000090400000000002
:101E8000FE822B654715973C00CC904000346F3F95
:101E900001FCFFFF0000E03F360A0000FFFF0F00DB
:101EA00000000000432EE63FEF39FAFE422EE63FE7
:101EB000396CA80C615C20BE4609000000000000DF
:101EC000000000000000004010B529499FED261BCE
:101ED0002DED020B84B0059820F000408842DCBF55
:101EE00000209DED040B2EDD2249884209D1049883
:101EF00040B94FF00100FEF7A7FA00F0D5FA06B09E
:101F000010BD05DB9DED040B30EE000B06B010BDDF
:101F100068469DED040B00F02FF810F003000DD083
:101F2000012814D09DED021B9DED000B022816D058
:101F300000F0AAF906B0B1EE400B10BD9DED021BFA
:101F40009DED000B012000F047FA06B010BD9DED9D
:101F5000021B9DED000B00F097F906B010BD0120AB
:101F600000F03AFAE6E70000000000000000000080
:101F7000FB21E93F0000F07F2DE9F14F04462DEDF4
:101F8000020B2DED048B94B09FED9D0B80ED020BA9
:101F9000199E9D4826F0004585420ADC9DED180BF0
:101FA000002084ED000B14B0BDEC048B03B0BDE841
:101FB000F08F96489FED969B9FED978BA84225DD6D
:101FC00097489FED991B9FED9A2B9DED180B002EC6
:101FD0000DDD30EE490B854212BF30EE480B30EE7E
:101FE000410B30EE420B84ED000B0120DBE730EEBD
:101FF000090B854212BF30EE080B30EE010B30EEBC
:10200000020B84ED000B4FF0FF30CCE78A48A8426A
:1020100053DB9DED180B51EC100B00F069FA41EC0D
:10202000100BB0EE401B9FED862B9FED870B290D0B
:10203000DFF81CC201EE020B0120FDEEC00B10EE1A
:10204000903A00EE903AB8EEE02BB0EE410B02EE83
:10205000490B22EE081BFC44032830EE411B84EDA3
:10206000001B1DD011EE902A00EB4015113DC2F36C
:102070000A528A1A954213DA0CEB0012B0EE403B7A
:1020800092ED000B401C20EE021B33EE410B33EEB1
:10209000403B33EE411B92ED023B12EE031BDBE7AC
:1020A000002EA8BF1846BFF67EAF94ED000B584235
:1020B000B1EE400B84ED000B75E7C6F3130040F45E
:1020C000801EC6F30A50A0F2F530471100F01F053C
:1020D000C5F12000DDF860B0139000200890099051
:1020E00005200DF1080C5B49002D07EB0002794437
:1020F00008BF51F8221009D051F8223001EB8201BB
:10210000AB404A68139922FA01F11943A1FB0E264C
:10211000A1FB0B131A449A4234BF0123002303EBA3
:1021200006080CEB8003D3E901A60E448E4234BFAF
:102130000121002192448A4411B1924502D903E061
:10214000924501D2012100E00021C3E901A64144EA
:102150004CF82010011EA0F10100C4DC04989DED94
:10216000050A00F10050810F04989FED3B4B800061
:1021700001EE100ADDED060A9DED072AB8EEC13B1F
:10218000B8EE401BB8EE600BB8EE422B002021EEFB
:10219000041B9FED334B20EE040B9FED334B22EEDF
:1021A000042B30EE024B34EE014B34EE034B8DED3D
:1021B000004B00909DED004B199834EE433B10F01E
:1021C000004F33EE411B31EE400B32EE401B9DEDD4
:1021D000000B9FED272B20EE020B9FED272B01EE2E
:1021E000020B9DED001B9FED262B01EE020B1CBF89
:1021F0004942B1EE400B84ED000B0846D3E60000E7
:102200000000000000000000FB21E93F7CD90240F3
:1022100000004054FB21F93F3163621A61B4D03DA4
:10222000FB21F93F000000000000601A61B4D03DBE
:102230007370032E8A19A33BFB2139410000000073
:1022400083C8C96D305FE43F000000000000E03F3C
:10225000EE06000086060000000000000000103EB0
:10226000000000000000103C000000000000103AD8
:102270003326A611460B113C182D4454FB21F93D81
:1022800000000054FB21F93D10B52DED040B2DEDA0
:10229000068B82B0B0EE41AB09989FED299B20F0F0
:1022A0000044B4F1795F0FDA9DED080BBDEEC00B71
:1022B00010EE100A002801BFB0EE490B02B0BDECD1
:1022C000068B04B008BF10BD9DED080B1E4806210B
:1022D00020EE008BB0EE480B784400F045F820EE7D
:1022E000080B9DED081B1C48844228EE000B01EEF4
:1022F0004A0B9FED171B28EE011BBCBF31EE400BB4
:1023000039EE400B16DB1548A042BCBF9FED142BE5
:102310008DED002B06DBA4F500100190002000904D
:102320009DED002B31EE421B39EE422B31EE400B7E
:1023300032EE400B02B0BDEC068B04B010BD0000C5
:10234000000000000000F03F340400000000000026
:10235000000000000000E03F3333D33F0000E93FBE
:10236000000000000000D23F491E00EBC102B0EEA9
:10237000401B92ED000B31F006020DD0491E00EB20
:10238000C102B0EE403B92ED002B31F00602B0EE00
:10239000420B03EE010BF1D1022914D004290AD01B
:1023A000062918BF704790ED0A2B00EE012B90ED27
:1023B000080B02EE010B90ED062B00EE012B90EDC9
:1023C000040B02EE010B90ED022B00EE012B90EDC1
:1023D000000B02EE010B704731B504462DED040BE6
:1023E0002DED068BB0EE419B07989DED060B20F07E
:1023F0000040B0F1795F0DDA51EC100BFFF768F88F
:10240000042808BF00F068F89DED060BBDEC068BB4
:1024100005B030BD20EE008B1348052128EE00AB3F
:10242000B0EE480B7844FFF79FFF9FED111B8CB176
:102430009FED112B29EE022B0AEE402B9DED060B92
:1024400018EE029B0AEE419B30EE490BBDEC068B69
:1024500005B030BD08EE001B9DED060B0AEE010B2A
:10246000BDEC068B05B030BDE803000000000000A5
:10247000495555555555C5BF000000000000E03FC7
:102480009FED031B9FED042B81EE020B70470000B4
:10249000000000000000F03F00000000000000000D
:1024A00030EE010B704700009FED031B81EE010B26
:1024B0007047000000000000000000000000000065
:1024C0009FED030B20EE000B7047000000000000A2
:1024D00000000000000000709FED030B20EE000BD9
:1024E0007047000000000000000000000000001025
:1024F00082B0CDE9000121F0004001909DED000B7C
:1025000002B051EC100B7047FEF704F8FEE700B57F
:1025100041EC100B2DED028B83B0B1EEC08B18EEA9
:10252000100A18EE901A8DED008B002818BF0120BC
:10253000084320F00040C0F17F6000F1E040C00F90
:1025400014D010EE101A10EE900A8DED000B002939
:1025500018BF0121084320F00040C0F17F6000F166
:10256000E040C00F04BF0120FDF76EFF51EC180BD7
:1025700003B0BDEC028B00BD02494FF0000000F03B
:1025800008B800BF0000F87F4FF04070E1EE100A7D
:1025900070470CF00F03092B08BF082000F059808A
:1025A0000A2B0BD0082B18BF704708BF1CF0400F38
:1025B0000AD04FF000004FF0000170471CF0400FB0
:1025C00018BF4FF0004070471CF0100F08D020F0EB
:1025D000704300F07F4242EAD3014FEA43707047F4
:1025E00000F0604021F07F4242EA000201F07F40AB
:1025F00040EA727070474FF0FF0C4CF4E06C1CEA3C
:1026000011531CBF9CEA030C9445C2BFDA4201EB94
:1026100002517047002B0DD0BCF1000F0FD0002AE3
:1026200001F00041A4BF41F0E04141F07F614FF073
:102630000000704701F000414FF00000704750EA81
:1026400001334FF09B0C18BF4CF0806C7FF494AFBB
:1026500070471CF4801F11D01CF4E02F03D06FEAE8
:10266000CC31490070474FF04050EFF3008222F028
:10267000704242EA000282F3008870474FF0000087
:102680007047000000000000000000000000F03F64
:10269000000000000000F83F000000000000000003
:1026A0000000004003B8E23F00000000000000000E
:1026B00006D0CF43EBFD4C3E033333333333E33F9C
:1026C000FFAB6FDBB66DDB3F4D268F515555D53FC8
:1026D00001411DA96074D13F65DBC9934A86CD3F96
:1026E000EF4E454A287ECA3F3E5555555555C53F84
:1026F00093BDBE166CC166BF2CDE25AF6A56113F76
:10270000F16BD2C541BDBBBED0A4BE726937663E77
:102710004C5555555555A53F7751C1166CC156BFFF
:102720009015CB19A001FA3EAD529C804F7E92BE0F
:10273000C4B1B4BD9EEE213ED43888BEE9FAA8BD2E
:10274000000000000000000000004054FB21F93FA1
:102750003163621A61B4D03D0000601A61B4D03DAB
:102760007370032E8A19A33B0000002E8A19A33B25
:10277000C14920259A837B39000000000000000039
:102780006E83F9A22915444ED15727FCC0DD34F5DC
:10279000999562DB4190433CAB6351FE61C5BBDE62
:1027A0003A6E24B7E0D24D42EA2E49061C92D10976
:1027B0001CEB1DFE3EA729B1F53582E88444BB2EF3
:1027C00026709CE9417E5FB439D69139F439538340
:1027D0008B5F849C3B28F9BDFF97F81F0F9805DE9F
:1027E0008B112FEF1F6D0A5ACF7E366DB709CB279D
:1027F000663F464F2DEA5F9EC7BA27757BF1E5EB32
:10280000F739073DEA92528AB15FFB6B085D8D1F75
:10281000A6F810111111813FD561C119A0012ABF7D
:102820007DFEB157E31DC73EEB9C2B8AE6E55ABE01
:102830007CD5CF5A3AD9E53D982800080000002001
:1028400004000000300300089C2800080000002459
:10285000789A0600D4020008E03500080000003035
:10286000B0DC0100D4020008A0390008000000001C
:1028700070C100003003000810FB000800000038A1
:1028800008560000D40200089C280008040000201C
:10289000CC9101004C0300080800002001FF01FF5B
:1028A00001FF01FF01FF01FF01FF01FF01FF01FF28
:1028B00001FF01FF01FF01FF01FF01FF01FF01FF18
:1028C00001FF01FF01FF01FF01FF01FF01FF01FF08
:1028D00001FF01FF01FF01FF01FF01FF01FF01FFF8
:1035D00001FF01FF01FF01FF01FF01FF01FF0119D1
:1035E00001FF01FF01FF01FF01FF01FF01FF01FFDB
:1035F00001FF01FF01FF01FF01FF01FF01FF01FFCB
:1036000001FF01FF01FF01FF01FF01FF01FF01FFBA
:1036100001FF01FF01FF01FF01FF01FF01FF01FFAA
:1039900001FF01FF01FF01FF01FF01FF018E000098
:1039A00040F2915CC0F6000C604740F2555CC0F6F6
:1039B000000C604740F2595CC0F6000C604740F6CE
:1039C000394CC0F6000C604740F2D53CC0F6000C04
:1039D000604741F2215CC0F6000C604741F6C96CBB
:1039E000C0F6000C604741F2D15CC0F6000C6047A5
:1039F0004A4830B5002402680123214602F5C04040
:103A0000C0F8BC4001EB410505EBC10502EBC50563
:103A100005F5C04595F8D05105B90023491C0B297F
:103A2000F0DB1BB144F00101C0F8BC1090F8981510
:103A300059B190F8C81741B190F8F81929B1D0F8E8
:103A4000BC1041F48071C0F8BC1090F8E81559B171
:103A500090F8181841B190F8481A29B1D0F8BC1064
:103A600041F40071C0F8BC1090F8381659B190F8C4
:103A7000681841B190F8981A29B1D0F8BC1041F4F7
:103A80008061C0F8BC1090F8881659B190F8B81849
:103A900041B190F8E81A29B1D0F8BC1041F40061A6
:103AA000C0F8BC1090F8D81659B190F8081941B177
:103AB00090F8381B29B1D0F8BC1041F48051C0F8FF
:103AC000BC1090F8281759B190F8581941B190F8E6
:103AD000881B29B1D0F8BC1041F40051C0F8BC10CB
:103AE00090F8781759B190F8A81941B190F8D81BFF
:103AF00029B1D0F8BC1041F48041C0F8BC10D0F816
:103B0000BC1019B1012280F8B82001E080F8B8405B
:103B1000D0F8C0200A43C0F8C02030BD000000200B
:103B20001B49F0B401240A6800204FF4FA750346DB
:103B300000EB400101EBC00102EBC10101F5C04106
:103B4000D1F8CC61AE4204D3C1F8CC5181F8D04158
:103B500001E081F8D031401C0B28E9DB5FF0000068
:103B600000EB800102EB011101F5C041D1F8946531
:103B7000AE4204D3C1F8945581F8984501E081F82C
:103B80009835401C1528EBDBF0BCFFF731BF000077
:103B90000000002010B501F075FC00F077F801F08E
:103BA00095FC00F009F80348816921F00101816169
:103BB00010BD000000A000402F492F4B10B520334E
:103BC0000A682E4822F00F020A600C682C4A44F062
:103BD0000A040C60196841F099011960836940F684
:103BE000313143F00303836183693F2443F4864307
:103BF0008361C261C160C0F880400222214940F265
:103C000022230968A1F5FB5101F500410C8844F419
:103C1000A814C0F884404C8844F43024C0F8C04054
:103C2000C0F8C820C0F8BC30174A8B88C0F8AC3048
:103C3000C98841F42C11C0F8A0104265012200216E
:103C4000D0F8E03002FA01F42343C0F8E030491C18
:103C50000B29F5DB426D4FF07F51032342F07F5279
:103C600042658165C365132006F0F7FDBDE810408D
:103C7000152006F0F2BD0000000C025800A0004024
:103C8000030B0402000000200002080064482DE934
:103C9000F043006800F10C04814600F1180C00F1BB
:103CA000240800F1300100F13C0200F1480300F16A
:103CB000540500F5C047603000F5C0464FF4007071
:103CC000A7F8CA0009F16C0004F5C04400F5C0472C
:103CD00040F201200CF5C04CA4F8CA0009F17800AC
:103CE00000F5C04440F2022008F5C048ACF8CA0014
:103CF00009F1840000F5C04C40F2032001F5C041F9
:103D0000A8F8CA0009F1900000F5C0484FF401700E
:103D1000A1F8CA0009F19C0002F5C04200F5C041BB
:103D200040F2052003F5C043A2F8CA0009F1A8003B
:103D300000F5C04240F2062005F5C045A3F8CA00D0
:103D400009F1B40000F5C0434FF40470A5F8CA00AF
:103D500009F1C00000F5C04540F21120A6F8CA00E4
:103D600009F1CC0000F5C04640F21220A7F8CA00C5
:103D700009F1D80000F5C04740F21320A4F8CA00AA
:103D80004FF40574ACF8CA40641CA8F8CA4040F26D
:103D90001628A1F8CA80072409F1E40040F2F128AE
:103DA00009F1F00C4FF43C71A2F8CA10A3F8CA80D4
:103DB000891CA5F8CA104A1C00F5C040A6F8CA2004
:103DC0008B1CA7F8CA300CF5C04C40F2F528091D31
:103DD000A0F8CA80124F01265FF00000ACF8CA10AC
:103DE0004FF0605C00EB40013A6885B245F08043DB
:103DF00002EB8101C83101F5C04102F5C0420E70ED
:103E00004C708D804D884CEA05452B438B60D2F871
:103E1000A81041F82030401C1528E3DBBDE8F083F2
:103E2000000000205A4900EB40032DE9F043D1F88F
:103E3000009000EB80045B0009F5C04209EB04141C
:103E400004F5C041D2F8B05055F823600425C1F8FC
:103E5000C86505EB8305D2F8B0707D590827C1F815
:103E6000CC5507EB8307D2F8B0C05CF807C00C272D
:103E7000C1F8D0C507EB8307D2F8B0C05CF807C023
:103E80001027C1F8D4C507EB8307D2F8B0C05CF89F
:103E900007704FF0140CC1F8D8750CEB8303D2F8FF
:103EA000B0C007275CF80330B0FBF7FCC1F8DC3585
:103EB000C6F38A4307FB1C074FEAD67C81F8A8C5E6
:103EC000C6F3407081F8A905C1F8AC35EE0F81F852
:103ED000B065C5F3056081F8B105C5F3405381F8BD
:103EE000B235C5F3005681F8B3652B0CC5F303401A
:103EF00081F8B405A1F8B6355FF0000304EB830048
:103F000000F5B76000F5C0405B1C042B85690570A7
:103F10004FEA152646704FEA154C80F802C04FEA6A
:103F2000156880F80380E9DB052F4FF001030ED8F8
:103F300091F8B805012812D107EB072209EB02100E
:103F400090F8282080F8393080F8292007E0062FE3
:103F500005D191F8B805012801D182F8953004F512
:103F6000C042134615460020C1F89405D2F8A0259A
:103F700004F5C044D3F8A435521CC5F8A02543F17C
:103F80000003C4F8A43581F89005BDE8F083000073
:103F900000000020544900EB80032DE9F043D1F8E4
:103FA000009000EB400509F5C0426D0009EB0313DA
:103FB000D2F8B04003F5C04154F825600424C1F89C
:103FC000C86504EB8504D2F8B0703C590827C1F8E5
:103FD000CC4507EB8507D2F8B0C05CF807C00C27CA
:103FE000C1F8D0C507EB8507D2F8B0C05CF807C0B0
:103FF0001027C1F8D4C507EB8507D2F8B0C05CF82C
:1040000007704FF0140CC1F8D8750CEB8505D2F889
:10401000B0C007275CF805C0B0FBF7F5C1F8DCC5F8
:1040200007FB1505F70F81F8A875C6F3407081F8F6
:10403000A905C6F38A46C1F8AC65E70F81F8B075EB
:10404000C4F3056081F8B105C4F3405681F8B26548
:10405000C4F3005781F8B375C4F3034081F8B40585
:10406000240CA1F8B645002403EB840000F5B760EA
:1040700000F5C040641C042C866906704FEA1627C0
:1040800047704FEA164C80F802C04FEA166880F875
:104090000380E9DB052D08D805EB052491F8B82548
:1040A00009EB041080F82C2005E0062D03D191F8CF
:1040B000B80582F88A0003F5C04214461546002070
:1040C000C1F89405D2F8A02503F5C043D4F8A4455F
:1040D000521CC5F8A02544F10004C3F8A44581F89A
:1040E0009005BDE8F083000000000020954900EB3A
:1040F00080032DE9F047D1F800A000EB40040AF559
:10410000C04264000AEB0313D2F8B05003F5C0417B
:1041100055F824600425C1F8C86505EB8405D2F87C
:10412000B0707D590827C1F8CC5507EB8407D2F849
:10413000B0C05CF807C00C27C1F8D0C507EB8407F6
:10414000D2F8B0C05CF807C01027C1F8D4C507EB9F
:104150008407D2F8B0C05CF807704FF0140CC1F8B7
:10416000D8750CEB8404D2F8B0C007275CF8044083
:10417000B0FBF7FCC1F8DC45C6F38A4407FB1C0919
:104180004FEAD67C81F8A8C5C6F3407781F8A975B7
:10419000C1F8AC45EE0F81F8B065C5F3056781F84D
:1041A000B175C5F3405481F8B245C5F3005681F8A6
:1041B000B3652C0CC5F3034781F8B4755FF00005B7
:1041C000A1F8B64503EB850404F5B76404F5C044D3
:1041D0006D1C042DA66926704FEA162767704FEAFA
:1041E000164C84F802C04FEA166884F80380E9DBB5
:1041F000B9F1050F4FF001046ED891F8B92500EB25
:10420000002C91F8B86591F8BB5591F8BA75120475
:1042100005EB06659FED4C2B02EB07270AEB0C1212
:1042200009EB09263D4401EE105A92ED443B0AEB9E
:1042300006109FED470BB8EEC11B21EE031B81EE6C
:10424000023B80ED223B91F8BC6591F8BD5592EDA3
:10425000462B05EB06252DB201EE105AB8EEC11B18
:1042600021EE021B81EE002B80ED242B91F8BE6520
:1042700091F8BF5592ED4A2B05EB062212B201EEE2
:10428000102AB8EEC11B21EE021B81EE002B80ED3F
:10429000282B91F8C02500EE102AB8EE400B80EDD7
:1042A0002A0B91F8C12580F82C2091F8C22580F8BE
:1042B0002D2091F8C32580F82E2091F8C42580F890
:1042C0002F2091F8C52580F8302080F8384002F082
:1042D000010580F842501CE0B9F1060F19D191F8A0
:1042E000B80582F8990091F8B90582F89A0091F81A
:1042F000BA0582F89B0091F8C10582F88A0091F80E
:10430000C40582F88B0091F8C50582F88C0082F80C
:10431000944003F5C040044605460022C1F89425A8
:10432000D0F8A00503F5C043D4F8A445401CC5F857
:10433000A00544F10004C3F8A44581F89025BDE828
:10434000F0870000000000200000C0FFFFFFDF41F9
:1043500000000000C0FFDF4070B5194C01260025A9
:10436000D4F89800E840C00706D0E8B2FFF7BEFED8
:1043700006FA05F0C4F898006D1C072DF0DB072540
:10438000D4F89800E840C00706D0E8B2FFF702FE74
:1043900006FA05F0C4F898006D1C0E2DF0DB0E2512
:1043A000D4F89800E840C00706D0E8B2FFF73AFD1D
:1043B00006FA05F0C4F898006D1C152DF0DB70BDF1
:1043C00000A0004010B501F01BF8FFF7A9FB13484F
:1043D00001680020024600EB420303EBC202401CCE
:1043E00001EBC20202F5C0420B28D2F8CC3103F136
:1043F0000103C2F8CC31EDDB5FF0000000EB80027E
:10440000401C01EB021202F5C0421528D2F8943587
:1044100003F10103C2F89435F0DB10BD0000002069
:104420002DE9F0435D4E012230680146583000F519
:10443000C04090F8C80101287DD002EB420000EB9B
:10444000C200002301EBC0041D4600BF05EB052799
:1044500004EB030C01EB07180CF5C04C5F1C98F83B
:104460002B806D1CBBB28CF8F581062DEEDB23444E
:10447000B14601F5C04103F5C04391F8895083F876
:10448000F551002504EB850303F5C0436D1C042D95
:1044900093F8F67193F8F56193F8F7C193F8F88102
:1044A00006EB072606EB0C4606EB0866C3F810621F
:1044B000E8DB02EB4203D1F8AC6004F5C0444FF6F0
:1044C000FF7505EA430349464FF00C0CD4F8087217
:1044D000042446F8237004EB8307D9F8004008252C
:1044E00004EBC00804F5C04408F5C04805EB83059B
:1044F000D4F8AC401026D8F80C8206EB830644F8BA
:1045000007800C680CEB8308142704EBC00C04F53F
:10451000C0440CF5C04C07EB8307D4F8AC40012332
:10452000DCF810C244F805C00C681D4D04EBC00C4B
:104530000CF5C04C00E02FE004F5C044DCF814C2D8
:1045400003FA02F2D4F8AC4044F808C00C6804EB5B
:10455000C00C04F5C0440CF5C04CD4F8AC40DCF8F9
:1045600018C244F806C00C6804EBC00604F5C04449
:1045700006F5C046D4F8AC40D6F81C62E651D9F82E
:10458000001001EBC00000F5C04080F8C831D5F83C
:10459000D0001043C5F8D000BDE8F0830000002033
:1045A00000A000402DE9F043664E0222306801462B
:1045B000B03000F5C04090F8C80101287DD002EB72
:1045C000420000EBC200002401EBC003254600BFFF
:1045D00005EB052703EB040C01EB07170CF5C04CAA
:1045E000641C97F82880A4B28CF8F58103EB040CC6
:1045F0000CF5C04C97F82A70641C6D1CA4B28CF8A2
:10460000F571062DE4DB1F19B146641CA4B207F551
:10461000C0471C4401F5C04104F5C044002587F89B
:10462000F55191F8885084F8F551002503EB850485
:1046300004F5C0446D1C042D94F8F67194F8F561EE
:1046400094F8F7C194F8F88106EB072606EB0C46C0
:1046500006EB0866C4F81062E8DB03F5C043D1F846
:10466000AC4002EB4205494604264FF00C0CD3F84F
:1046700008724FF6FF7303EA4503082505EB83052F
:1046800044F82370D9F8004006EB8307102604EBAA
:10469000C00804F5C04408F5C04806EB8306D4F80A
:1046A000AC40D8F80C8244F8078014270C680CEB57
:1046B000830807EB8307012300E041E004EBC00C13
:1046C00004F5C0440CF5C04C03FA02F2D4F8AC4037
:1046D000DCF810C244F805C00C681B4D04EBC00C9C
:1046E00004F5C0440CF5C04CD4F8AC40DCF814C25E
:1046F00044F808C00C6804EBC00C04F5C0440CF589
:10470000C04CD4F8AC40DCF818C244F806C00C68C1
:1047100004EBC00604F5C04406F5C046D4F8AC402E
:10472000D6F81C62E651D9F8001001EBC00000F584
:10473000C04080F8C831D5F8D0001043C5F8D0008B
:10474000BDE8F0830000002000A000406E49002278
:104750002DE9F0470C6804F5C040814690F8C80187
:1047600001287DD0002002EB42039FED681B8A46A2
:10477000054603EBC20104EBC10300BF05EB0526B0
:10478000B0EE410B04EB06161F1896ED182B96EDB4
:104790004A3B07F5C047401C82EE034B80B203EB57
:1047A000000C0CF5C04C401C6D1C80B2062D24EE94
:1047B000002BBDEEC22B12EE108A4FEA282887F894
:1047C000F58196ED182B96ED4A3B82EE034B24EED5
:1047D000000BFDEEC00B10EE906A8CF8F561CDDB9E
:1047E0001C1899F8985004F5C044504684F8F551C7
:1047F0005FF0000503EB850404F5C0446D1C042D37
:1048000094F8F67194F8F56194F8F7C194F8F8818A
:1048100006EB072606EB0C4606EB0866C4F81062AA
:10482000E8DB03F5C043D9F8AC4002EB42054FF09A
:104830000C0C0427D3F808624FF6FF7303EA450314
:10484000082507EB830744F823600468102605EB6E
:10485000830504EBC10808F5C048D8F80C8200E0D5
:1048600050E004F5C04406EB8306D4F8AC4044F8AD
:10487000078004680CEB8308142704EBC10C04F5D3
:10488000C0440CF5C04C07EB8307D4F8AC400123BF
:10489000DCF810C203FA02F244F805C004681D4DAA
:1048A00004EBC10C04F5C0440CF5C04CD4F8AC408A
:1048B000DCF814C244F808C0046804EBC10C04F529
:1048C000C0440CF5C04CD4F8AC40DCF818C244F835
:1048D00006C0046804EBC10604F5C04406F5C046F2
:1048E000D4F8AC40D6F81C62E651DAF8000000EBD0
:1048F000C10000F5C04080F8C831D5F8D0001043A1
:10490000C5F8D000BDE8F0870000002000000000DE
:10491000C0FFDF4000A000401749F0B50026174D4A
:10492000D1F8003002273046D5F8D810C140C90769
:104930001DD000EB400101EBC00103EBC10101F50B
:10494000C04292F8C841012C11D19446144682F815
:10495000C8719646C2F8CC61DCF8D811D4F8DC41B5
:10496000491CCEF8D81144F10004C2F8DC41401CC7
:104970000B28D9DBF0BD00000000002000A00040A3
:10498000514803222DE9F04301680B4601F584717B
:1049900001F5C04191F8C81101297CD002EB420118
:1049A000814601EBC200002403EBC00505EB840146
:1049B00001F5C041641C042C91F8F67191F8F56181
:1049C00091F8F7C191F8F88106EB072606EB0C4643
:1049D00006EB0866C1F81062E8DB03F5C0434FF64A
:1049E000FF7802EB42074FF0040C05F5C04549463D
:1049F000D3F8AC6008EA47030824D5F808520C271E
:104A000007EB830846F8235004EB8305D9F80040F0
:104A10000CEB830604EBC00C04F5C0440CF5C04C51
:104A20001027D4F8AC40DCF80CC244F806C00C687F
:104A300007EB8306142704EBC00C04F5C0440CF507
:104A4000C04C07EB8307D4F8AC400123DCF810C25C
:104A500003FA02F244F805C00C681C4D04EBC00CCC
:104A600004F5C0440CF5C04CD4F8AC40DCF814C2DA
:104A700044F808C00C6804EBC00C04F5C0440CF505
:104A8000C04CD4F8AC40DCF818C244F806C00C683E
:104A900004EBC00600E015E004F5C04406F5C0468E
:104AA000D4F8AC40D6F81C62E651D9F8001001EBFE
:104AB000C00000F5C04080F8C831D5F8D0001043E0
:104AC000C5F8D000BDE8F0830000002000A0004041
:104AD00051480A222DE9F04301680B4601F55C714B
:104AE00001F5C04191F8C81101297CD002EB4201C7
:104AF000814601EBC200002403EBC00505EB8401F5
:104B000001F5C041641C042C91F8F67191F8F5612F
:104B100091F8F7C191F8F88106EB072606EB0C46F1
:104B200006EB0866C1F81062E8DB03F5C0434FF6F8
:104B3000FF7802EB42074FF0040C05F5C0454946EB
:104B4000D3F8AC6008EA47030824D5F808520C27CC
:104B500007EB830846F8235004EB8305D9F800409F
:104B60000CEB830604EBC00C04F5C0440CF5C04C00
:104B70001027D4F8AC40DCF80CC244F806C00C682E
:104B800007EB8306142704EBC00C04F5C0440CF5B6
:104B9000C04C07EB8307D4F8AC400123DCF810C20B
:104BA00003FA02F244F805C00C681C4D04EBC00C7B
:104BB00004F5C0440CF5C04CD4F8AC40DCF814C289
:104BC00044F808C00C6804EBC00C04F5C0440CF5B4
:104BD000C04CD4F8AC40DCF818C244F806C00C68ED
:104BE00004EBC00600E015E004F5C04406F5C0463D
:104BF000D4F8AC40D6F81C62E651D9F8001001EBAD
:104C0000C00000F5C04080F8C831D5F8D00010438E
:104C1000C5F8D000BDE8F0830000002000A00040EF
:104C2000514804222DE9F04301680B46A1F5F551E6
:104C300001F5004191F8C81101297CD002EB420135
:104C4000814601EBC200002403EBC00505EB8401A3
:104C500001F5C041641C042C91F8F67191F8F561DE
:104C600091F8F7C191F8F88106EB072606EB0C46A0
:104C700006EB0866C1F81062E8DB03F5C0434FF6A7
:104C8000FF7802EB42074FF0040C05F5C04549469A
:104C9000D3F8AC6008EA47030824D5F808520C277B
:104CA00007EB830846F8235004EB8305D9F800404E
:104CB0000CEB830604EBC00C04F5C0440CF5C04CAF
:104CC0001027D4F8AC40DCF80CC244F806C00C68DD
:104CD00007EB8306142704EBC00C04F5C0440CF565
:104CE000C04C07EB8307D4F8AC400123DCF810C2BA
:104CF00003FA02F244F805C00C681C4D04EBC00C2A
:104D000004F5C0440CF5C04CD4F8AC40DCF814C237
:104D100044F808C00C6804EBC00C04F5C0440CF562
:104D2000C04CD4F8AC40DCF818C244F806C00C689B
:104D300004EBC00600E015E004F5C04406F5C046EB
:104D4000D4F8AC40D6F81C62E651D9F8001001EB5B
:104D5000C00000F5C04080F8C831D5F8D00010433D
:104D6000C5F8D000BDE8F0830000002000A000409E
:104D7000514805222DE9F04301680B4601F5DC712D
:104D800001F5C04191F8C81101297CD002EB420124
:104D9000814601EBC200002403EBC00505EB840152
:104DA00001F5C041641C042C91F8F67191F8F5618D
:104DB00091F8F7C191F8F88106EB072606EB0C464F
:104DC00006EB0866C1F81062E8DB03F5C0434FF656
:104DD000FF7802EB42074FF0040C05F5C045494649
:104DE000D3F8AC6008EA47030824D5F808520C272A
:104DF00007EB830846F8235004EB8305D9F80040FD
:104E00000CEB830604EBC00C04F5C0440CF5C04C5D
:104E10001027D4F8AC40DCF80CC244F806C00C688B
:104E200007EB8306142704EBC00C04F5C0440CF513
:104E3000C04C07EB8307D4F8AC400123DCF810C268
:104E400003FA02F244F805C00C681C4D04EBC00CD8
:104E500004F5C0440CF5C04CD4F8AC40DCF814C2E6
:104E600044F808C00C6804EBC00C04F5C0440CF511
:104E7000C04CD4F8AC40DCF818C244F806C00C684A
:104E800004EBC00600E015E004F5C04406F5C0469A
:104E9000D4F8AC40D6F81C62E651D9F8001001EB0A
:104EA000C00000F5C04080F8C831D5F8D0001043EC
:104EB000C5F8D000BDE8F0830000002000A000404D
:104EC000514806222DE9F04301680B4601F50471B3
:104ED00001F5C04191F8C81101297CD002EB4201D3
:104EE000814601EBC200002403EBC00505EB840101
:104EF00001F5C041641C042C91F8F67191F8F5613C
:104F000091F8F7C191F8F88106EB072606EB0C46FD
:104F100006EB0866C1F81062E8DB03F5C0434FF604
:104F2000FF7802EB42074FF0040C05F5C0454946F7
:104F3000D3F8AC6008EA47030824D5F808520C27D8
:104F400007EB830846F8235004EB8305D9F80040AB
:104F50000CEB830604EBC00C04F5C0440CF5C04C0C
:104F60001027D4F8AC40DCF80CC244F806C00C683A
:104F700007EB8306142704EBC00C04F5C0440CF5C2
:104F8000C04C07EB8307D4F8AC400123DCF810C217
:104F900003FA02F244F805C00C681C4D04EBC00C87
:104FA00004F5C0440CF5C04CD4F8AC40DCF814C295
:104FB00044F808C00C6804EBC00C04F5C0440CF5C0
:104FC000C04CD4F8AC40DCF818C244F806C00C68F9
:104FD00004EBC00600E015E004F5C04406F5C04649
:104FE000D4F8AC40D6F81C62E651D9F8001001EBB9
:104FF000C00000F5C04080F8C831D5F8D00010439B
:10500000C5F8D000BDE8F0830000002000A00040FB
:10501000514807222DE9F04301680B4601F51A714A
:1050200001F5C04191F8C81101297CD002EB420181
:10503000814601EBC200002403EBC00505EB8401AF
:1050400001F5C041641C042C91F8F67191F8F561EA
:1050500091F8F7C191F8F88106EB072606EB0C46AC
:1050600006EB0866C1F81062E8DB03F5C0434FF6B3
:10507000FF7802EB42074FF0040C05F5C0454946A6
:10508000D3F8AC6008EA47030824D5F808520C2787
:1050900007EB830846F8235004EB8305D9F800405A
:1050A0000CEB830604EBC00C04F5C0440CF5C04CBB
:1050B0001027D4F8AC40DCF80CC244F806C00C68E9
:1050C00007EB8306142704EBC00C04F5C0440CF571
:1050D000C04C07EB8307D4F8AC400123DCF810C2C6
:1050E00003FA02F244F805C00C681C4D04EBC00C36
:1050F00004F5C0440CF5C04CD4F8AC40DCF814C244
:1051000044F808C00C6804EBC00C04F5C0440CF56E
:10511000C04CD4F8AC40DCF818C244F806C00C68A7
:1051200004EBC00600E015E004F5C04406F5C046F7
:10513000D4F8AC40D6F81C62E651D9F8001001EB67
:10514000C00000F5C04080F8C831D5F8D000104349
:10515000C5F8D000BDE8F0830000002000A00040AA
:10516000514808222DE9F04301680B46A1F5EA51A8
:1051700001F5004191F8C81101297CD002EB4201F0
:10518000814601EBC200002403EBC00505EB84015E
:1051900001F5C041641C042C91F8F67191F8F56199
:1051A00091F8F7C191F8F88106EB072606EB0C465B
:1051B00006EB0866C1F81062E8DB03F5C0434FF662
:1051C000FF7802EB42074FF0040C05F5C045494655
:1051D000D3F8AC6008EA47030824D5F808520C2736
:1051E00007EB830846F8235004EB8305D9F8004009
:1051F0000CEB830604EBC00C04F5C0440CF5C04C6A
:105200001027D4F8AC40DCF80CC244F806C00C6897
:1052100007EB8306142704EBC00C04F5C0440CF51F
:10522000C04C07EB8307D4F8AC400123DCF810C274
:1052300003FA02F244F805C00C681C4D04EBC00CE4
:1052400004F5C0440CF5C04CD4F8AC40DCF814C2F2
:1052500044F808C00C6804EBC00C04F5C0440CF51D
:10526000C04CD4F8AC40DCF818C244F806C00C6856
:1052700004EBC00600E015E004F5C04406F5C046A6
:10528000D4F8AC40D6F81C62E651D9F8001001EB16
:10529000C00000F5C04080F8C831D5F8D0001043F8
:1052A000C5F8D000BDE8F0830000002000A0004059
:1052B000514809222DE9F04301680B4601F546717A
:1052C00001F5C04191F8C81101297CD002EB4201DF
:1052D000814601EBC200002403EBC00505EB84010D
:1052E00001F5C041641C042C91F8F67191F8F56148
:1052F00091F8F7C191F8F88106EB072606EB0C460A
:1053000006EB0866C1F81062E8DB03F5C0434FF610
:10531000FF7802EB42074FF0040C05F5C045494603
:10532000D3F8AC6008EA47030824D5F808520C27E4
:1053300007EB830846F8235004EB8305D9F80040B7
:105340000CEB830604EBC00C04F5C0440CF5C04C18
:105350001027D4F8AC40DCF80CC244F806C00C6846
:1053600007EB8306142704EBC00C04F5C0440CF5CE
:10537000C04C07EB8307D4F8AC400123DCF810C223
:1053800003FA02F244F805C00C681C4D04EBC00C93
:1053900004F5C0440CF5C04CD4F8AC40DCF814C2A1
:1053A00044F808C00C6804EBC00C04F5C0440CF5CC
:1053B000C04CD4F8AC40DCF818C244F806C00C6805
:1053C00004EBC00600E015E004F5C04406F5C04655
:1053D000D4F8AC40D6F81C62E651D9F8001001EBC5
:1053E000C00000F5C04080F8C831D5F8D0001043A7
:1053F000C5F8D000BDE8F0830000002000A0004008
:1054000070B51F4C0B2500222068014600F5C040F6
:10541000B0F8C4305B1C9BB2B3FBF5F605FB16334A
:10542000A0F8C43003EB430606EBC30301EBC30350
:1054300003F5C04393F8E031012B03D0521C0B2A33
:10544000E6DB70BDB0F8C40000EB400202EBC00028
:1054500001EBC00000F5C040D0F8E40180472068AF
:1054600046F2C4010022095A01EB410303EBC101DA
:1054700000EBC10000F5C04080F8E02170BD0000E5
:10548000000000200D484FF0000CF0B500685427D4
:105490000B4A4FF4AE76A0F5FB50094900F50040E9
:1054A000084B5432084C4FF45575A0F800C04780A3
:1054B0008680C580083080E81E00F0BD0000002016
:1054C00000AC00405CAD004054AF00408648002373
:1054D000F0B501680124854A4FF4681501F5C04014
:1054E0000A26072780F8E031C0F8E421A1F5E85248
:1054F00080F8E831C83A80F8E93102F5004280F8D6
:10550000EA31C0F8EC3180F8F03180F8F13180F800
:10551000F24180F8F34180F8F461C0E982357448C3
:10552000137050601020137253729372D060800415
:10553000137453749474D47417754FF45C17C2E9E0
:105540000A07A1F5E8506B4A703800F500404FF0AB
:10555000707703704260F022037243728372C260FC
:105560004FF44012037443748474C4740675A1F537
:10557000E856183E06F50046C0E90A755E48A025C3
:1055800033707060002033727372B372F5603374DD
:105590007074B474AB04F4743075A1F5E65000F582
:1055A00000405A4DC6E90A3200230370534B436052
:1055B00000230372437283724FF4D073C3600023DD
:1055C000037443748474C47403754FF0D063C0E9EA
:1055D0000A32A1F5E050683800F50040002303705E
:1055E000474B4360002303724372837240F2A1135E
:1055F000C3600023037443748474C4740375414B03
:10560000C0E90A32A1F5E050103800F5004000234F
:1056100003703D4B436000230372437283724FF467
:10562000D173C3600023037443748474C47403751A
:105630004FF0D163C0E90A320020A1F5D853B83B3E
:1056400003F5004318705D601872587240F2A3159C
:105650009872DD60AD04187458749C74DC7418750D
:10566000C3E90A52A1F5DB53294D03F50043187035
:105670005D604FF4D275187258729872DD60AD0497
:10568000187458749C74DC741875C3E90A52A1F537
:10569000D853204D083B03F5004301F5AA6101F5FD
:1056A000C04118705D6040F2A5151872587298726A
:1056B000DD60AD04187458749C74DC741875C3E90B
:1056C0000A52154B08704B604FF4D373087248723E
:1056D0008872CB60087448748C74CC740875980414
:1056E000C1E90A02F0BD000000000020AD0D00007D
:1056F000810A0000050C0000E10F0000811200008B
:10570000D11300000000840621150000711600006E
:10571000C117000011190000311100002DE9F041FE
:105720005C4D002101244FEA01032A689174D17471
:1057300011755176117651759175D17503EB032072
:1057400002EB001090F82F6080F8401080F84110B4
:105750000EB180F8404090F82D600EB180F84040C6
:1057600090F83D60012E01D180F8414090F83F60F3
:10577000012E01D180F8414090F83A60012E01D10C
:1057800080F8414090F83B60012E01D180F8414003
:1057900090F83C60012E01D180F8414090F83E60C5
:1057A000012E01D180F8414090F84260012E00D1D5
:1057B000547690F84060012E00D1147690F84100A4
:1057C000012800D154755B1C062BB7DB286846F214
:1057D000B802125C012A00D184752F4A1268017444
:1057E000417581750176C17D012909D000F090FED7
:1057F0002868017E012906D0017C012903D003E03D
:105800008474447400E0C4742968487E012800D17F
:105810000C754D7C087C8B7CCA7C40EA45004C7D35
:105820008D7D40EA8300CE7D40EAC2000F7E40EAD3
:10583000041040EA4510CB8940EA861040EAC710C0
:1058400088810343CB81002202EB0220521C01EB32
:105850000010062A90F83B4090F83A3090F83C50FF
:1058600090F83D6043EA440390F83E7090F83FC0E2
:1058700043EA850343EAC603848E43EA071343EAF7
:105880004C1320F8323F44EA03044480DCDBBDE8DB
:10589000F081000000000020100C02585448012242
:1058A00010B50021D0F8003001EB012003EB00100F
:1058B00090ED280B90ED381BB4EEC10BF1EE10FA11
:1058C00006D390ED3A1BB4EEC10BF1EE10FA01DDF8
:1058D00080F83D2090ED200BB5EEC00BF1EE10FAF4
:1058E00001DD012400E00024B5EEC00B01EE104AFA
:1058F000F1EE10FAB8EE413B01D2012400E00024A1
:1059000002EE104A90ED4A1BB8EE422B10EE023B1D
:10591000B4EEC13BF1EE10FA1BDDB5EEC00BF1EEBB
:1059200010FA01DD012400E00024B5EEC00B02EE08
:10593000104AF1EE10FAB8EE420B01D2012400E059
:10594000002402EE104AB8EE422B11EE020B80ED5D
:10595000200B90ED1A0B90ED2C1BB4EEC10BF1EE69
:1059600010FA06D390ED2E1BB4EEC10BF1EE10FA37
:1059700001DD80F83A2090ED1C0B90ED301BB4EE69
:10598000C10BF1EE10FA06D390ED321BB4EEC10B51
:10599000F1EE10FA01DD80F83B2090ED1E0B90ED4A
:1059A000341BB4EEC10BF1EE10FA06D390ED361BAA
:1059B000B4EEC10BF1EE10FA01DD80F83C2000F5E9
:1059C000406490ED401B94EDE20BB4EEC10BF1EEA0
:1059D00010FA06D390ED421BB4EEC10BF1EE10FAB3
:1059E00001DD80F83E20491C0629FFF65DAF10BDA1
:1059F000000000201349C3074FF00102096801D0DD
:105A000081F83720830702D541F247035A544307F0
:105A100002D542F257035A54030702D543F26703F3
:105A20005A54C30602D544F277035A54830602D56A
:105A300045F287035A54400603D501F5C04181F869
:105A4000932070470000002030B4354C00204FEA0E
:105A500000032268107450749074D07410755075DF
:105A60009075D075107650769081D08103EB03212C
:105A70005B1C02EB0111062B81F8400081F841000C
:105A800081F83D0081F83F0081F83A0081F83B0041
:105A900081F83C0081F83E0081F82D0081F82E004D
:105AA00081F82F0081F8300048868886DEDB216887
:105AB0000B468C3101F5C0415FF000028872C8725C
:105AC00001F8010C087048808880194602EB8203B7
:105AD000521C01EB031303F5C043152A83F8980504
:105AE000C3F89405F2DBD4F80030002101EB410249
:105AF00002EBC102491C03EBC20202F5C0420B29B2
:105B000082F8D001C2F8CC01F0DB2168B83101F590
:105B1000C04108704860886030BCFFF7FFBD0000DE
:105B2000000000202DE9F04F3348202106680125B0
:105B300040F2DF192C4646F001062B460A46066065
:105B400003274FF0A90AAC464FEA0506D0F80080BB
:105B50005FEA4878FAD51B06DFF89C8043EA0443E5
:105B6000DFF898B034060E0144EA074443EA4521C1
:105B7000214D44EA4C23DFF880C046EA02371E4A32
:105B80000CF1280C383248241835CCF8007041EA62
:105B9000090143EA0A0308F130084FF488664FF020
:105BA000400C2F1DC8F8001007F1040813602C608A
:105BB0003E60C8F800C0DBF8002042F03702CBF8A6
:105BC0000020016841F08071016001688901FCD505
:105BD000016841F08061016001680901FCD5064857
:105BE0001030016841F0030101600168C1F3C20196
:105BF0000329FAD1BDE8F08F00440258002000527A
:105C000070B5364C364D206820F001002060686980
:105C100020F002006861206820F480402060FFF7D7
:105C20007DFD00F061F82F4E30684079052808D0DE
:105C300001281DD0042822D002282BD0032830D0E0
:105C400035E0206840F48040206001F031F902F036
:105C500095F8306800210172807C012827D100244A
:105C6000204600F077FB641CE4B2062CF8D31EE05B
:105C7000206840F00100206000F096F917E02068ED
:105C800040F001002060686940F00200686100F0A7
:105C90007BFB0CE0686940F00200686100F016F9D7
:105CA00005E0686940F00200686100F071FAFFF7F2
:105CB000F5FDFFF733FD00F0A3FF3068012100F58B
:105CC000C04080F8E01100F02BFC00F057FCFEF71C
:105CD00079FBBDE87040FDF763BE00001404025874
:105CE00000100258000000202DE9F0413F4D012432
:105CF0002DED028B2868817C012937D0C17C0129D8
:105D000034D0002180F8061000F076F801F08AF80F
:105D100029680523887901282AD0CA792846012ACA
:105D200029D00A7A04259FED328B012A26D04A7A9F
:105D30000226012A3CD08A7A0327012A54D00A7904
:105D4000052A16D0012A17D0042A18D0022A30D0EA
:105D5000032A07D149790446032901D002F00EF83D
:105D600020684771BDEC028BBDE8F0818471CBE700
:105D70000B714B71F6E70C714C71F3E70D71044632
:105D80004979042911D001F0F9FFD4F8002000214D
:105D900001EB0120491C02EB0010062980ED1A8B53
:105DA00080ED1C8B80ED1E8BF2DB20684571D9E7FE
:105DB0000E7104464979022913D001F0DFFFD4F8AF
:105DC0000020002000EB0021401C02EB01110628FE
:105DD00091ED220B81ED1C8B81ED1E8B81ED1A0B59
:105DE000F0DB20684671BDE70F71B3E700000020CB
:105DF000000000000000000070B5334E3168087FDD
:105E000018B9887E20F001008876487F18B9887E0E
:105E100020F002008876887F18B9887E20F0040080
:105E200088760120022503465FF0000403EB03227D
:105E30005B1C01EB0212062B82F8424082F838000C
:105E400082F8290082F82C5082F83900EEDB3168A4
:105E500001F5C04282F8940082F8950082F88A50D9
:105E6000CA7E22F04002CA765FF0000202EB0225F1
:105E700001EB051393F83950012D15D193F82C50EF
:105E8000022D01D0032D02D193F842603EB1012DC5
:105E90000AD04DB193F84230012B05D009E0CB7EFA
:105EA00000FA02F5AB4303E0CB7E00FA02F52B4388
:105EB000CB76521CD2B2062AD8D3CA7E8C760AB1CF
:105EC000C87170BDCC7170BD0000002070B5304D40
:105ED0005FF0000404EB0421286800EB011090F847
:105EE0002C00032802D0204600F022FA641CE4B201
:105EF000062CEFD3286800F5C04090F88A000328EC
:105F000001D000F007FA234800218278012A02D04C
:105F1000052A18D01CE0B0F838214281B0F83A01C7
:105F2000521E1D4B4243C3F8BC2803F6C800C3F8F9
:105F3000C01800F0F1FF194800F0EEFF174890304C
:105F400000F0EAFF04E00278022A1FD0417081705D
:105F500000F076F902F02EFA01F0C8FB2A68002062
:105F60009FED0F1B00EB0021401C02EB011303F51A
:105F70004061062891EDFC0B91EDD82B30EE020B21
:105F800020EE010B83ED200BECDB70BD0121DEE781
:105F900000000020000000240090062458990624E8
:105FA000CDCCCCCCCCCCF43F2DE9F0412DED028B07
:105FB00000F07EFF01F0E2FE724C002621680E72B6
:105FC0009FED718B4FEA060000EB0022401C01EBB5
:105FD0000212062882ED208BF6DB2068012589302D
:105FE00000F5C04041780170C27A89389AB1012A1F
:105FF00011D1012902D0022908D00CE080F8956067
:10600000022180F8891080F8385204E090F8951049
:1060100009B980F890520027216807EB072001EBAF
:10602000001090F82C2080F82B2090F83820AAB18E
:10603000012A13D190F82C20012A0FD190F82920A1
:10604000012A08D001F5C04180F8396080F8285055
:1060500081F8905202E0384600F07CF97F1CFFB2D4
:10606000062FD9D3D4F800300121002000EB002204
:1060700003EB021292F83950012D00D0002192F862
:106080002C50022D02D0032D00D0002192F8382090
:10609000012A00D00021401CC0B20628E6D3E9B393
:1060A0005FF00005206805EB052100EB011090F87A
:1060B000F81F31B990F84200012802D1284601F0BA
:1060C000D1FF6D1CEDB2062DECD30025206805EB49
:1060D000052100EB011090F8F80F012802D12846A5
:1060E00000F026F96D1CEDB2062DEFD322680021D9
:1060F00001EB0120491C02EB0010062990ED220B58
:1061000000F5406080EDD20B80EDD48B80EDD68B16
:10611000EEDB02F04FF901F0A9FA00E016E0D4F846
:106120000020002000EB0021401C02EB011101F5D2
:10613000406301F5805593EDD80B95ED061BC0B279
:10614000062830EE010B81ED200BEBD35FF000054C
:10615000216805EB052001EB001090F8421049B9C9
:1061600090F82C00032805D1284601F0A1FF28460D
:1061700000F0F0F86D1CEDB2062DE9D3BDEC028BFA
:10618000BDE8F081000000200000000000000000D9
:1061900070B5264D5FF0000404EB0421286800EB85
:1061A000011090F82C00032802D0204600F0C0F81F
:1061B000641CE4B2062CEFD3286800F5C04090F8C8
:1061C0008A00032801D000F0A5F81948D0E9002181
:1061D000491C4160914203D316490420487070BDA8
:1061E00000F0AEFE00F058F802F0E4F801F07EFA9C
:1061F00001F0E8F82B6800219FED0F1B01EB012057
:10620000491C03EB001202F5406092ED4C2B90ED1F
:10621000FC0B90EDD83B062930EE030B30EE020B61
:1062200020EE010B82ED200BE8DB70BD00000020AA
:10623000BC98062400000024CDCCCCCCCCCCF43FC0
:10624000124A00219FED120BD2F8003001EB012021
:10625000491C03EB0010062990ED221B00F540605D
:1062600080EDD21B80EDD40B80EDD60BEEDBD2F8A7
:106270000020002000EB0021401C02EB0111062849
:1062800081ED1C0B81ED1E0BF4DB7047000000203C
:10629000000000000000000030B51C4C00211C482C
:1062A000D4F8005001EB012200EBC10305EB021210
:1062B00003F5D32392ED220B02F54062491C82EDD7
:1062C000D20B93ED620B062982EDD40B93ED6E0B8E
:1062D00082EDD60BE6DBD4F80040002100EBC102D2
:1062E00001EB012302F5D32204EB031392ED560BCD
:1062F000491C83ED1A0B92ED620B062983ED1C0BF2
:1063000092ED6E0B83ED1E0BE8DB30BD000000202C
:1063100000000024054803220121006800F5C04068
:1063200080F8892080F838127047000000000020B3
:10633000074900EB002303220868012100EB031347
:1063400000F5C04083F82B2080F838127047000019
:10635000000000200949022210B500EB00249FED47
:10636000080B0868012300EB041100F5C04081F818
:106370002B2081ED200B80F8383210BD000000206A
:10638000000000000000000070B500F091FD224DFB
:106390005FF0000404EB0421286800EB011090F882
:1063A0002C00032802D02046FFF7C2FF641CE4B291
:1063B000062CEFD3286800F5C04090F88A00032827
:1063C00001D0FFF7A7FFD5F8002000219FED130BA8
:1063D00001EB0120491C02EB0010062990ED221B65
:1063E00000F5406080EDD21B80EDD40B80EDD60B24
:1063F000EEDB01F0DFFFD5F80020002000EB0021EC
:10640000401C02EB011101F54063062893EDD80B07
:1064100081ED200BF2DB70BD0000002000000000C9
:106420000000000030B51D4C002101220B46206801
:106430004171C172827702774277C5185B1C062BC7
:10644000EA77FADB2068037F012B03D1837E43F0D8
:1064500001038376437F012B03D1837E43F0020344
:106460008376837F012B03D1837E43F004038376FD
:106470000023C418E47F012C04D1C47E02FA03F582
:106480002C43C4765B1CDBB2062BF2D38174C1743F
:10649000017641758175C17530BD00000000002096
:1064A0002DE9F04100250446E8B201F0ADFC6D1C79
:1064B000062DF9DBFDF779FA144841F2460104F0A4
:1064C000010243F2660EC4F34003C4F38005006882
:1064D000C4F3C006C4F30017C4F3401CC4F3801413
:1064E00080F8362042F256020B5444F2760145F20F
:1064F000860315540EF800600F5403F800C000F531
:10650000C04080F89240BDE8F0810000000000200B
:106510000248016800204874704700000000002015
:10652000154BF0B5196800250122284601F5C04435
:1065300000EB002601EB061696F83770012F0AD102
:10654000C7B207EB072701EB071787F82B2084F862
:10655000382286F83750401C0628E9DB186800F519
:10656000C04090F89310012905D180F8892080F867
:10657000935080F83822F0BD000000202DE9F04152
:106580006A4C01220021206801EB012500EB051374
:1065900093F8363003B90022491C0629F4DB00F5D4
:1065A000C0410025012691F892304FF4967703B34D
:1065B000FAB1D1F8D422BA421BD90027206807EBE0
:1065C000072100EB011080F83650F8B201F01CFCF6
:1065D0007F1C062FF2DB206800F5C04080F8925047
:1065E000FDF7E3F9206800F5C04080F8E862BDE8F7
:1065F000F08190F83620012A0DD1D1F82C13B94240
:1066000009D980F83650002001F0FEFB206800F523
:10661000C04080F84063206800F5805191F8462022
:10662000012A0FD100F5C040D0F88403B84209D93F
:10663000012081F8465001F0E7FB206800F5C040DA
:1066400080F89863206800F5005191F85620012ADF
:106650000FD100F5C040D0F8DC03B84209D90220C0
:1066600081F8565001F0D0FB206800F5C04080F85A
:10667000F063206800F5405191F86620012A0FD19F
:1066800000F5C040D0F83404B84209D9032081F89D
:10669000665001F0B9FB206800F5C04080F84864FE
:1066A0002068014600F5804090F87620012A0FD13D
:1066B00001F5C041D1F88C14B94209D980F876505F
:1066C000042001F0A1FB206800F5C04080F8A06420
:1066D000206800F5A04191F88620012A0FD100F52D
:1066E000C040D0F8E404B84209D9052081F88650AA
:1066F00001F08AFB206800F5C04080F8F86420684B
:1067000000F5C04090F8921001297FF470AFD0F8E6
:106710003C15B9427FF66BAF80F89250FDF745F912
:10672000206800F5C04080F8506560E70000002058
:1067300010B52DED088B9FEDD95B9FEDDA8BB0EE98
:10674000484BB0EE483B9FEDD99BDA4C46F62040D3
:10675000B0EE481BB0EE492BB0EE480B2168084460
:1067600000F07EFAB0EE485B9FEDD3ABB0EE483B55
:10677000B0EE4A4B9FEDD22B206846F65041B0EE6A
:10678000481BB0EE490B084400F06AFAB0EE485BD3
:106790009FEDCD9BB0EE483BB0EE482BB0EE494BA1
:1067A000B0EE481B9FEDCA0B206800F5D94000F001
:1067B00057FAB0EE485BB0EE484BB0EE493B9FED68
:1067C000C62BB0EE481B9FEDC60B206846F6B041C5
:1067D000084400F045FAB0EE495B9FEDC34BB0EEC4
:1067E000483B9FEDC39BB0EE481BB0EE492B9FED9D
:1067F000C2BB206846F6E041B0EE4B0B084400F007
:106800002FFA206846F61051B0EE485BB0EE4A4BC6
:10681000B0EE483BB0EE492BB0EE481BB0EE4B0B50
:10682000084400F01DFAB0EE485BB0EE484BB0EE05
:10683000483B9FEDB32B206846F64051B0EE481B15
:10684000B0EE480B084400F00BFAB0EE485BB0EE37
:10685000484BB0EE483B9FEDAC2B9FEDAD1B206845
:1068600046F67051B0EE480B084400F0F9F9B0EE6E
:106870004A5BB0EE484BB0EE483B9FEDA72B9FED37
:10688000A81B9FEDA90B206846F6D851084400F0DC
:10689000E7F9B0EE4A5B9FEDA64BB0EE483B9FEDAB
:1068A000A62BB0EE481B9FEDA60B206846F6406174
:1068B000084400F0D5F9B0EE4A5BB0EE484BB0EEBC
:1068C000483B9FEDA12BB0EE481B9FEDA10B20682C
:1068D00046F6A861084400F0C3F9B0EE4A5BB0EE9A
:1068E000484BB0EE483B9FED9C9BB0EE481BB0EE92
:1068F000492B9FED9BBB206846F61071B0EE4B0B09
:10690000084400F0ADF9206846F67871B0EE4A5BB5
:10691000B0EE484BB0EE483BB0EE492BB0EE481B12
:10692000B0EE4B0B084400F09BF9206846F6E0718E
:10693000B0EE485BB0EE484BB0EE483BB0EE482BB3
:10694000B0EE481BB0EE480B084400F089F920680F
:1069500046F6A851B7EE005BB0EE484BB7EE003BF1
:10696000B0EE482BB0EE481BB7EE000B084400F029
:1069700077F99FED7D5BB0EE484B9FED7D3BB0EE30
:10698000482BB0EE481B9FED7C0B206846F610614B
:10699000084400F065F99FED7A5BB0EE484B9FED3F
:1069A0007A3BB0EE482BB0EE481B9FED790B206888
:1069B00046F67861084400F053F99FED775BB0EE3E
:1069C000484B9FED773BB0EE482BB0EE481B9FED58
:1069D000760B206846F6E061084400F041F99FED2F
:1069E000749BB0EE484BB0EE495B9FED73ABB0EEDD
:1069F000482BB0EE481BB0EE4A3B9FED71BB2068C0
:106A000046F64871B0EE4B0B084400F029F92068B7
:106A100046F6B071B0EE495BB0EE484BB0EE4A3B83
:106A2000B0EE482BB0EE481BB0EE4B0B084400F024
:106A300017F99FED655BB0EE484B9FED653BB0EEFF
:106A4000482BB0EE481B9FED640B206847F21801FD
:106A5000084400F005F99FED620BB6EE081B9FEDB0
:106A6000622BB1EE0E3B9FED624B9FED635B2068A6
:106A700000F5E04100F5D84080ED681B80ED822BE9
:106A800080ED9C3B80EDB64B80EDD00B80EDEA0BAA
:106A900081ED045BBDEC088B10BD0000E3361AC02D
:106AA0005B20C9BF000000000000000054E3A59B6C
:106AB000C420B03F000000207A008BFCFA21F93F8F
:106AC0000E4FAF946588B33F7A008BFCFA210940E2
:106AD000C1CAA145B6F3E5BF7B14AE47E17A743F66
:106AE00046B6F3FDD478E53F7A008BFCFA21F9BF76
:106AF000FCA9F1D24D62B03FF2D24D621058A93FCD
:106B00007FFB3A70CE88923F809F71E14048363FCC
:106B1000B37BF2B0506B8ABFEC51B81E85EB913F4E
:106B200079E9263108AC7CBF2D431CEBE2360ABF65
:106B30001F85EB51B81E094000AE64C74620AE3F2A
