:020000040800F2
:1000000030940120950300089D0300089F03000819
:10001000A1030008A3030008A503000800000000D6
:10002000000000000000000000000000A70300081E
:10003000A903000800000000AB0300087D7A00005F
:10004000AF030008AF030008AF030008AF030008C8
:10005000AF030008AF030008AF030008AF030008B8
:10006000AF030008AF030008AF030008B5050008A0
:10007000D1050008AF030008C93C0000AF03000829
:10008000AF030008AF030008AF030008D14200002F
:10009000AF030008F9420000AF030008AF030008F7
:1000A000AF030008AF030008AF030008AF03000868
:1000B000AF030008AF030008AF030008AF03000858
:1000C000AF030008AF030008AF030008AF03000848
:1000D000AF030008AF0300086D160008718F000021
:1000E000AF030008AF03000800000000AF030008E2
:1000F000AF030008AF030008AF030008AF03000818
:10010000AF030008AF03000845160008AF0300085E
:10011000AF030008AF030008AF030008558F0000CD
:10012000AF030008AF030008AF030008AF030008E7
:10013000AF030008AF030008AF030008AF030008D7
:10014000AF030008AF03000800000000000000003B
:10015000AF030008AF030008AF030008AF030008B7
:10016000AF030008AF030008AF030008AF030008A7
:10017000AF030008AF030008AF0300080000000051
:10018000AF030008AF030008AF030008AF03000887
:10019000AF030008AF030008AF030008AF03000877
:1001A000AF030008AF030008AF030008AF03000867
:1001B000AF030008AF030008AF030008AF03000857
:1001C000AF030008AF030008AF030008AF03000847
:1001D000AF030008AF030008AF030008AF03000837
:1001E000AF030008AF030008AF030008AF03000827
:1001F000AF030008AF030008AF030008AF03000817
:10020000AF030008AF030008AF030008AF03000806
:10021000AF030008AF030008AF030008AF030008F6
:10022000AF030008AF030008AF03000800000000A0
:10023000AF030008AF030008AF030008AF030008D6
:10024000AF030008AF030008AF030008AF030008C6
:10025000AF030008AF030008AF030008AF030008B6
:10026000AF030008AF030008AF030008AF030008A6
:10027000AF030008AF030008AF030008AF03000896
:10028000AF030008AF030008AF0300080000000040
:10029000AF030008AF03000800F002F800F06AF8AE
:1002A0000AA090E8000C82448344AAF10107DA45D1
:1002B00001D100F05FF8AFF2090EBAE80F0013F0B9
:1002C000010F18BFFB1A43F0010318474C27000029
:1002D000AC2700000A444FF0000C10F8013B13F06B
:1002E000070408BF10F8014B1D1108BF10F8015B8F
:1002F000641E05D010F8016B641E01F8016BF9D182
:1003000013F0080F1EBF10F8014BAD1C0C1B09D1D8
:100310006D1E58BF01F801CBFAD505E014F8016B4A
:1003200001F8016B6D1EF9D59142D6D370470000DC
:10033000103A24BF78C878C1FAD8520724BF30C811
:1003400030C144BF04680C607047000000230024E3
:1003500000250026103A28BF78C1FBD8520728BFD5
:1003600030C148BF0B6070471FB502F0FFF91FBDD9
:1003700010B510BD00F0BCF81146FFF7F5FF02F014
:10038000B3F900F0DAF803B4FFF7F2FF03BC00F0B2
:10039000DDF800000948804709480047FEE7FEE70E
:1003A000FEE7FEE7FEE7FEE7FEE7FEE7FEE7FEE725
:1003B00004480549054A064B7047000045150008EA
:1003C00099020008309500203094012030A40020CC
:1003D00030A40020032A40F2308010F0030C00F01B
:1003E000158011F8013BBCF1020F624498BF11F86F
:1003F00001CB00F8013B38BF11F8013BA2F1040228
:1004000098BF00F801CB38BF00F8013B11F003039F
:1004100000F02580083AC0F0088051F8043B083A03
:1004200051F804CBA0E80810F5E7121D5CBF51F8A5
:10043000043B40F8043BAFF30080D20724BF11F81F
:10044000013B11F801CB48BF11F8012B24BF00F884
:10045000013B00F801CB48BF00F8012B704710B5F5
:10046000203AC0F00B80B1E81850203AA0E81850AC
:10047000B1E81850A0E81850BFF4F5AF5FEA027C6D
:1004800024BFB1E81850A0E8185044BF18C918C0DC
:10049000BDE810405FEA827C24BF51F8043B40F87D
:1004A000043B08BF7047D20728BF31F8023B48BF62
:1004B00011F8012B28BF20F8023B48BF00F8012BA0
:1004C000704770477047704710B500F009F8006832
:1004D00010BD10B5044600F003F8046010BD000024
:1004E00000487047D094002000487047D094002006
:1004F0007546FFF7F9FFAE4605006946534620F002
:100500000700854618B020B5FFF752FFBDE8204030
:100510004FF000064FF000074FF000084FF0000BBF
:1005200021F00701AC46ACE8C009ACE8C009ACE872
:10053000C009ACE8C0098D46704710B50446AFF35A
:1005400000802046BDE81040FFF71DBF014918207C
:10055000ABBEFEE726000200704744F65D7CC0F2A9
:10056000000C604743F2C52CC0F2000C604746F611
:10057000B93CC0F2000C604744F6D53CC0F2000C18
:10058000604742F2052CC0F2000C604742F2B11CF9
:10059000C0F2000C604743F2210CC0F2000C60472F
:1005A00043F2FD7CC0F2000C604748F6716CC0F26B
:1005B000000C604710B5054C2068800605D500F09A
:1005C000DBFCA06840F02000A06010BD00000240ED
:1005D00004480168090503D5816841F40061816020
:1005E000704700000000024010B500F007F800F06E
:1005F00051F8BDE8104000F0CDB900002348B0F834
:100600008E0908B1012100E000212148006880F82E
:100610003E101E49B1F8901909B1012200E00022F4
:1006200041F286010A541949B1F8921909B101221F
:1006300000E0002242F2CE010A541449B1F89419A4
:1006400009B1012200E0002243F216110A540F49B9
:10065000B1F8961909B1012200E0002244F25E11BE
:100660000A540A49B1F8981909B1012200E00022A0
:1006700045F2A6110A540549B1F89A1901B10121B0
:1006800000F5C04080F8EA11704700000000003813
:10069000000000202DE9F05FBA484FF0010BB0F8E0
:1006A0003E1AB948012901D180F8B9B0B549B1F86D
:1006B000401A012902D1022180F8B910B149B1F8DC
:1006C000421A012902D1032180F8B910AD49B1F8CD
:1006D000441A012902D1AD4A82F802B0A949AC4EB0
:1006E000B1F8461AA0F8BC10A648B0F8481A30680D
:1006F000012901D180F809B04FF00009A149B1F8F2
:100700004A1A012901D180F809909E48B0F84C0A94
:10071000012804D1FFF721FF316881F82090994822
:10072000B0F84E0A012801D100F082FE9548B0F8D9
:10073000500A012806D1FFF715FFFFF718FF3168AF
:1007400081F821908F48B0F8520A012801D100F0B9
:10075000DBFD8C48B0F8540A012807D130684C46BC
:1007600080F80C90FFF708FF3068C47740F2391E1C
:1007700084488246B0F8561A01292FD132680021E8
:100780004FF4487301EBC10000EB4124002002EB61
:10079000C40500BF03F101080AEB430C1FFA88F3FC
:1007A00005EBC0070AEB4304BCF8E6C75B1C07F582
:1007B0004067B4F8E647401C9BB204EB0C4400EEE3
:1007C000104A0628B7EEC00A87EDCC0BE2DB491CC5
:1007D0000629D7DB82F80C9082F81F900AEB4E00B6
:1007E0000EF101075446B0F8E607012807D1316839
:1007F00081F80CB0FFF7C0FE316881F81F9004EB60
:100800004700791CB0F8E607012804D1326802F5E8
:10081000C04282F8F1B1481C04EB4101B1F8E6177F
:10082000012904D1326802F5C04282F8F191451CD9
:1008300004EB4000B0F8E607012801D1FFF7A1FE64
:1008400004EB45006F1CB0F8E607012801D1FFF763
:100850009DFE04EB47007E1CB0F8E607012802D19C
:100860000220FFF793FE04EB4600751CB0F8E60784
:10087000012802D10420FFF789FE04EB4501681C22
:1008800085B2B1F8E607012802D10820FFF77EFE05
:1008900004EB4501681C85B2B1F8E607012802D1D6
:1008A0001020FFF773FE04EB4501681C85B2B1F818
:1008B000E607012802D12020FFF768FE04EB45017E
:1008C000681C85B2B1F8E607012802D14020FFF785
:1008D0005DFE04EB4501681C85B2B1F8E60701280E
:1008E00001D1FFF758FE04EB4501681C85B2B1F851
:1008F000E607012802D10220FFF74DFE04EB450177
:10090000681C85B2B1F8E607012802D10420FFF780
:1009100042FE04EB4501681C85B2B1F8E6070128E8
:1009200002D10820FFF737FE04EB4501681C85B2B1
:10093000B1F8E607012802D11020FFF72CFE04EBE6
:100940004501681C85B2B1F8E607012802D12020D4
:10095000FFF721FE04EB4500B0F8E607012802D1BD
:100960004020FFF718FE4FF4967049464FF4A573E8
:1009700004EB4005421C90B29842A5F8E617F7D95F
:10098000BDE8F09F000000380000012400000024B2
:1009900000000020C5480F232DE9F0430068C44A39
:1009A000C44C00F5C0411646457904F58034A2F8E0
:1009B000E657C589A6F8E857058AA6F8EA57457F9D
:1009C000A6F8EC57857FA6F8EE5794F8BA50A6F82B
:1009D000F057B84D6D78A6F8F257D4F8F841250CC9
:1009E000A6F8F4571546A5F8F647047BA5F8F8478E
:1009F00091F81042A5F8FA47D1F81442240CA5F852
:100A0000FC47B1F81442A5F8FE47D1F81842240C6F
:100A1000A5F80048B1F81842A5F8024800245E1C69
:100A200004EBC40502EB430805EB4423B6B200EB2C
:100A3000C303751C02EB4607AEB293F834C0751CB5
:100A4000A8F8E6C702EB460C93F83580AEB2A7F8DB
:100A5000E687751C93F83680ADB2ACF8E68702EBFA
:100A6000460793F837806E1C02EB450CB5B2A7F829
:100A7000E6876E1C93F8388002EB4507ACF8E687F2
:100A8000B5B2B3F83AC06E1CB6B2A7F8E6C702EB2F
:100A90004508751C02EB460C9E8FA8F8E667ADB2C0
:100AA00093ED240B6E1C02EB4508B7EEC00B1FFA4A
:100AB00086F909F10106B6B210EE105A2F0CACF807
:100AC000E67710EE105A02EB4907A8F8E657751CB6
:100AD00093ED260B02EB4608ADB2B7EEC00B10EE5D
:100AE000106A4FEA164CA7F8E6C710EE106A02EB40
:100AF000450CA8F8E6676E1C93ED2A0BB6B2B7EE6C
:100B0000C00B02EB460810EE105A2F0CACF8E6773B
:100B100010EE105AA8F8E657761C93ED2C0BB3B2E2
:100B2000641CBCEEC00B02EB43065B1C9BB2062CA4
:100B300010EE105AA6F8E657FFF671AF5C1C91F85C
:100B4000E25102EB4306A3B25C1CA6F8E65702EBA7
:100B50004305A3B291F8F261A0F6A85002EB43045A
:100B6000A5F8E6675B1C91F8F3619BB25F1CA4F8E3
:100B7000E66702EB4305BBB291F8F4715E1C02EB31
:100B80004304A5F8E677B3B291F8E35100F50040CD
:100B900002EB4306A4F8E6575B1C9BB203F1010C81
:100BA00002EB43071FFA8CF391F8E4C15D1CA6F831
:100BB000E6C702EB4304ABB203F101081FFA88F663
:100BC00006F1010C1FFA8CFC02EB4305B1F8E6318B
:100BD0000CF10108A7F8E637B1F8E8711FFA88F1BF
:100BE000A4F8E6774C1C02EB4606A4B20023A5F855
:100BF000E63702EB4C0CA6F8E637651C02EB410128
:100C0000ADB2ACF8E63702EB4404A1F8E63702EBEC
:100C100045016D1CA4F8E637A1F8E637A9B24B1CD4
:100C2000048E02EB410599B24B1CA5F8E64702EB96
:100C3000410499B2B0F842504B1CA4F8E65702EBBD
:100C4000410499B205884B1CA4F8E65702EB410415
:100C500099B245884B1CA4F8E65702EB410499B2BF
:100C600085884B1CA4F8E65702EB410499B2C5886D
:100C70004B1CA4F8E65702EB410499B2058B4B1CC0
:100C8000A4F8E65702EB410499B2438B02EB41050D
:100C9000A4F8E6374B1C848B99B2A5F8E64702EB23
:100CA0004101C08BA1F8E607BDE8F08300000020F9
:100CB000000000380000002400231A4601E083549D
:100CC000521C8A42FBD37047284870B5274A0368F4
:100CD0000C32264923F47053036020310368244CFE
:100CE00000254FF47A7643F42053036013682148BB
:100CF00043F4A05313600B681F4A43F0EE630B608C
:100D000025612B21A0611D48E261666101602069B7
:100D10001B49084320610B2000F0E2FC15491948EB
:100D2000091DA5622C22154B21631B1D6063E66221
:100D30001A60A06A1249C1390843A0620C2000F071
:100D4000CFFC0D48C021104C08380A4D03680948F3
:100D5000B4FBF3F31838021F1D24243D0360116017
:100D60002C602620BDE8704000F0BABC000C025890
:100D700000000240244400400800003800080240FF
:100D800011050300F0030038000E27072DE9F0419C
:100D900000F08CFAFFF798FF0E490E480C300A68F5
:100DA00000230C4CEF2522F001020A602434261D9A
:100DB0004FF47A7706F1040C23603560CCF80070AC
:100DC000016841F001010160BDE8F041322000F00E
:100DD00087BC0000000C004070B5002305464FF6AC
:100DE000FF704AF201040CE0EA5C50400822C6079A
:100DF0004FEA500000D06040521E12F0FF02F6D1C0
:100E00005B1C8B42F0D370BD2DE9F041594D2C464F
:100E100095F8D80714F8081F814230D16178204630
:100E200040F2DC57062968D004DC01290BD00329E5
:100E300025D145E04F480F29807B00F107001FD0E6
:100E400010291CD170E00621FFF7C6FFE279A179D5
:100E500001EB022189B2884211D1012085F8E00717
:100E6000A178E0782379627900EB012002EB03217D
:100E70000844401E80B2642873D200F0C7F875E0C1
:100E8000C6B220463146FFF7A7FFA119A25D4978F7
:100E900002EB012189B2884268D10F2085F8E00772
:100EA000A178E0782379627900EB012102EB03203D
:100EB0000844401E80B2642853D200F061F955E026
:100EC0000621FFF789FFE279A17901EB022189B2BE
:100ED00088424BD1032085F8E007A178E078237998
:100EE000627900EB012102EB03200844401E80B22E
:100EF000B84236D200F0CEF838E00621FFF76CFF9A
:100F0000E279A17901EB022189B288422ED1062033
:100F100085F8E007A178E07800EB012080B2B842C4
:100F20001FD200F0FBF821E0C6B220463146FFF7A1
:100F300053FFA119A25D497802EB012189B28842D1
:100F400014D1102085F8E007A178E0782379627940
:100F500000EB012102EB03200844401E80B2B8429E
:100F600002D300F02FF801E000F060F9BDE8F04195
:100F700000F002B80000003808484FF47A710269A6
:100F800022F001020261826842F020028260416127
:100F9000016941F001010161704700000000024059
:100FA00007498A6A22F001028A628A6842F4006272
:100FB0008A60C862886A40F0010088627047000059
:100FC0000000024070B5104D02204FF47A7105F513
:100FD0007C7485F8D90705F5FB652046FFF76CFEA4
:100FE000287803212070287A803060706878A0709B
:100FF0002046FFF7F1FE020AE07022710521BDE8EC
:1010000070400846FFF7CCBF000000382DE9F041E2
:101010001F4D4FF47A71A5F57C742846FFF74CFEFE
:10102000237B2046627BE17AA67A02EB032290F8CA
:10103000D877D21D2F70032490F8E03701EB0621FA
:10104000C2F3C7026B7089B2AA70012A02D0022AC9
:1010500006D010E0B0F8E4070424C840E8700AE0C5
:10106000B0F8E42701F108030524CA40EA70B0F89B
:10107000E407D840287121462846FFF7ADFE611CE1
:10108000020A2855A01C6A54BDE8F041FFF788BF4A
:10109000F00300382DE9F0411F4C4FF47A71A4F5AC
:1010A0007C752046FFF708FE6A7B29462B7BE87A91
:1010B000AE7A02EB032291F8D857FF23257000EB9C
:1010C000062080B28618032503EA420391F8E02740
:1010D000761E6270B6B2A3700DE001EB40036A1C8D
:1010E00092B2B3F8E6773F0A675593F8E657531C78
:1010F000A5549DB2401CB042EFDD29462046FFF7C3
:101100006BFE691C020A605588B2411C2254BDE87E
:10111000F04188B2FFF744BFF003003870B5174DB7
:101120004FF47A71A5F57A742846FFF7C5FDA278C9
:10113000A4F10801E078237900EB022080B21A02C2
:1011400001EB400301EB4000A3F8E627B0F8E617F7
:1011500062791144A0F8E6170020215C2954401C54
:101160000628FADB06212846FFF736FEA871010A99
:10117000E9710820BDE87040FFF712BFF0030038A6
:101180002DE9F047284D4FF47A71A5F57A74284679
:10119000FFF792FD94F802C0A4F10803277900201C
:1011A000E278667902EB0C2CA17906EB0727B3F8FD
:1011B000E4271FFA8CF63744A7F101071FFA87FCD2
:1011C000012902D0022902D007E0E07903E0217A68
:1011D000E07900EB0120B04080B24FF00109002718
:1011E0003946B14205DB614503DC09FA01F84744A1
:1011F000BFB2491C1029F4DBBA4338400243A3F8BC
:10120000E4270020215C2954401C0628FADB062133
:101210002846FFF7E1FDA871010AE9710820BDE841
:10122000F047FFF7BDBE0000F00300382DE9F041A4
:101230001D4D4FF47A71A5F57A742846FFF73CFDF1
:10124000A2780720E178A4F108072679637901EBF9
:10125000022189B203EB06220A44521E92B20FE029
:10126000235C401C07EB410680B21B02A6F8E63760
:1012700014F800C0401C80B2491C6344A6F8E6374D
:101280009142EDDD0020215C2954401C0628FADB48
:1012900006212846FFF7A0FDA871010AE971082080
:1012A000BDE8F041FFF77CBEF003003870B54FF4A5
:1012B0007A7412482146FFF7FFFC11482146FFF7D8
:1012C000FBFC104B4FF4E1300C490022B3FBF0F370
:1012D00008390124C1E9000381F8E02740F2DC531A
:1012E00081F8D8471046A1F8E427441C01EB4005DB
:1012F000A0B29842A5F8E627F7D370BD08000038E1
:10130000F003003840420F00474A0023F0B4474939
:101310004FF4FA70D2F8004003EB4305002204EBCF
:10132000051500BF00F1010C01EB40071FFA8CF01E
:1013300005EBC20601EB400CB7F8E677401C06F55A
:10134000D846BCF8E6C7521C80B20CEB074700EE4B
:10135000107A062AB7EEC00A86ED880BE2DB5B1C2A
:10136000072BD9DB5FF0000505EB850202EBC50317
:10137000002204EBC30300BF00F1010C01EB4006A7
:101380001FFA8CF003EBC20701EB400CB6F8E667DE
:10139000401C07F5D847BCF8E6C7521C80B20CEBDE
:1013A000064600EE106A062AB7EEC00A87EDDC0B8F
:1013B000E2DB0022461C01EB400CB0B203EBC2079B
:1013C000BCF8E66701EB400C401C07F5D847BCF8B9
:1013D000E6C7521C80B20CEB064600EE106A062AE5
:1013E000B7EEC00A87EDEA0BE4DB421C01EB4006D6
:1013F00090B203F5D843B6F8E62701EB4006401C4F
:101400006D1CB6F8E66780B2072D06EB024200EECF
:10141000102AB7EEC00A83EDE80BA5DB002084F8A4
:101420002100F0BCFFF7A3B8000000200000003846
:1014300042490022F0B542484FF4C8730E68591C67
:1014400000EB43058BB202EBC204B5F8E61700EBE4
:1014500043055B1C04EB4224B5F8E6579BB206EB50
:10146000C40405EB014700EE107A03F1010504F511
:101470004061B7EEC00A00EB4303ADB204F58054FF
:1014800000EB450705F1010581EDE00BB3F8E63708
:10149000521CB7F8E677062A4FEA034CABB20CEBC6
:1014A000070500EE105A03F1010500EB4307B7EE04
:1014B000C00AABB281EDE20BB7F8E65700EB430789
:1014C00003F101039BB2B7F8E67707EB054500EEA1
:1014D000105A03F1010500EB4307B7EEC00AABB2A7
:1014E00081EDE40BB7F8E65700EB430703F1010386
:1014F0009BB2B7F8E67707EB054500EE105A03F10B
:10150000010500EB4303B7EEC00A81EDFE0BA9B263
:10151000B3F8E63700EB410501F10101B5F8E657F4
:1015200005EB034500EE105A8BB2B7EEC00A84ED0E
:10153000000B84DB002086F82000F0BD00000020B6
:10154000000000383548F0B5344903687839344A2A
:1015500043F470030360086840F0100008601068EE
:1015600000F00F00072804D2106820F00F00C01D03
:1015700010602C4900202B4C10340B682A4D43F08E
:1015800001030B6020600B682B400B60136803F0B5
:101590000F03072B04D9136823F00F03DB1D13601F
:1015A000204C224A1834224B261D371D20601D4C2A
:1015B000204D28343060261D3860371D23603B1DC8
:1015C00035601C1D3A60251D2E1D1860331D2260DC
:1015D0002860326018600B684FF0B042114C23F461
:1015E00080230B6060342060D2F8E400124940F49C
:1015F0008040C2F8E40008686FF30F00B0F1005FAC
:1016000003D20E490120C1F8080143F2D2000C496F
:10161000024B4A03803B08601A60F0BD88ED00E091
:1016200000200052004402587FEDF6EA80020101DA
:10163000000202020000FF010010005C0080005167
:101640000040005210B5084C2068C0070BD0064877
:101650001038016821F001010160FFF7D5FB206817
:1016600020F00100206010BD100C00400C48006804
:10167000C00613D50B4800680B480146007A91F864
:10168000D817884204D10948016841F0010101607E
:101690000348001D016841F010010160704700001F
:1016A0001C4400402448004000000038000C00406A
:1016B00003B401984100009850EAC12018BF0420EB
:1016C0004A0D18BF40F0010040F2FF72B2EB515FCB
:1016D00008BF40F00200012808BF052002B0704793
:1016E000002809DB410900F01F028900012001F1F7
:1016F000E0219040C1F800017047000000000000A8
:1017000010B529499FED261B2DED020B84B00598DD
:1017100020F000408842D8BF9DED040B2DDD234909
:10172000884209D1049840B94FF00100FEF7D1FE7C
:1017300000F0AAFF06B010BD05DB9DED040B30EEF6
:10174000000B06B010BD68469DED040B00F004FDD3
:1017500010F0030004BF9DED021B9DED000B0CD0AB
:1017600001280ED09DED021B9DED000B022810D02C
:10177000012000F021FF06B010BD00F075FE06B09C
:1017800010BD9DED021B9DED000B012000F014FF2C
:1017900001E000F069FE06B0B1EE400B10BD0000A4
:1017A0000000000000000000FB21E93F0000F07F86
:1017B0002DE9F04D2DED040B2DED0A8B9AB0DDE9EE
:1017C0002550279CDDF890A025F0004624F0004825
:1017D000BAF1000F14BF0121002101EB4502F849C5
:1017E00053184A1093422AD3002814BF0123002320
:1017F00003EB44030B44F3498B4220D358EA000126
:101800009FEDF19B72D0DFF8C8B35D4503D1BAF10B
:10181000000F05D184E0BAF1000F08BF002100D00D
:10182000012101EB450111F5001F08D8002814BF64
:101830000121002101EB440111F5001F0BD99DEDA1
:10184000261B9DED240B1AB0BDEC0A8B04B0BDE83D
:10185000F04D00F015BF0027002DBCBFDD498845C5
:1018600021DADD498845A8BF02271CDAC3451ADC06
:10187000DA4901EB2851142908DDC1F1340220FABC
:1018800002F101FA02F282420DD108E058B9C1F129
:10189000140228FA02F101FA02F2424503D101F0E2
:1018A0000101C1F1020756EA0A0120D1002C1EDA1B
:1018B000002D18BF022F01D0012F0AD00220FEF701
:1018C00008FE1AB0BDEC0A8B04B0BDE8F04D00F084
:1018D000C7BE0220FEF7FDFD00F0C2FEB1EE400BD8
:1018E0001AB0BDEC0A8B04B0BDE8F08D18E09FED96
:1018F000BCAB9FEDBD8B00287DD1B64880451CD187
:1019000005F1804010F5801008BFBAF1000F07D034
:10191000B34508DC002CA8BF9DED260BE0DA07E0FC
:10192000B0EE490BDCE7002CB8BF9DED260BD5DBF4
:10193000AF48784490ED000BD2E7D84548D1002C51
:1019400043DA2EB186423AD1BAF1000F3DD126E0FA
:10195000BAF1000F13D00220FEF7BBFD00F0A0FE8D
:101960008DED020B9DED240B8DED000B10EE900A1A
:10197000039961F31E0003909DED020BB0E78DED1E
:1019800002AB9DED240B1AEE901A10EE900A8DED2D
:10199000000B61F31E0003909DED020BA0E78DED9F
:1019A000028B9DED240B18EE901A10EE900A8DED2F
:1019B000000B61F31E0003909DED020B90E704DA2B
:1019C0009DED241B89EE010B8AE79DED240B87E733
:1019D00086421ADAB4F1804F04BF9DED240B20EE4D
:1019E000000B3FF47DAFA4F10050B0F1FF500CD1DB
:1019F000002D0ADB00E008E09DED240B51EC100BFC
:101A000000F077FE41EC100B6AE79DED240B51ECE2
:101A1000100B00F05DFEBAF1000FCDE90E0140D1D0
:101A20009FED750B46B3A6F1E040B0F17F600ED09C
:101A30005E4536D1002D00DA97B3022F0CBF01208E
:101A40004FF0FF3000EE100AB8EEC00B48E7002D53
:101A500001DD002C0DDA002D01DD002C1DDB002D39
:101A600014DA002C12DB012F08BF9FED650B3FF449
:101A700037AFB0EE4A0B33E7022F18BF002D0CD062
:101A8000012F0AD1002DFFF62BAF06E0002DB8BFC5
:101A9000002C06DA012F3FF423AFB0EE480B1FE70E
:101AA00019E0012000EBE57050EA070113D0791E20
:101AB000B0EE498B084308BF9FED538B5448002577
:101AC00080457ADD53495448884514DDB0420DDB2A
:101AD000002C19DB2CE00120FEF7FBFC1AB0BDEC5A
:101AE0000A8B04B0BDE8F04D00F0CEBDB34502DC7A
:101AF000002C09DC1CE0864202DA002C18DA03E034
:101B00005E4528DD002C13DD0220FEF7E2FC00F02C
:101B1000C7FD8DED020B28EE0A0B8DED000B10EECC
:101B2000900A039961F31E0003909DED020BD7E626
:101B30000220FEF7CEFC00F0BFFD10EE901A18EE6A
:101B4000900A8DED020B8DED008B61F31E0003906A
:101B50009DED020BC4E69DED0E0B9FED313B30EE8B
:101B6000490B8DED040B20EE002B9DED041B9FED2A
:101B70002E0B01EE430B9DED043B9FED2D1B03EE61
:101B8000401B9DED040B9FED2E3B22EE012B9FEDA4
:101B90002A1B20EE011B20EE030B9FED2B3B02EED8
:101BA000430B31EE002B8DED022B02959DED022BA8
:101BB00032EE411B30EE411B21E149E00000000004
:101BC000FFFF1F00FFFF0F00000000000000F03FBC
:101BD0000000F03F0000F07F0000404301FCFFFFE9
:101BE000000000000000F07F000000000000000086
:101BF000EA0F00000000000000000000000000806C
:101C0000000000000000F0FF000000000000F0BF36
:101C10000000E0410000F043FFFFEF3F0000000044
:101C2000000000000000D03F555555555555D53F93
:101C3000000000000000E03F000000604715F73F93
:101C400044DF5DF80BAE543EFE822B654715F73F2F
:101C50000020B6F5801F0BDA9DED0E0B9FEDEC1BFF
:101C60006FF0340020EE010B10EE906A8DED0E0B3C
:101C7000E94A00EB2650C6F31301A0F2FF3741F00A
:101C80007F6040F040509142D8BF002408DDE34A15
:101C90008A42C8BF012403DC0024A0F580107F1C09
:101CA000DF49794401EBC4010F9091ED001B9DEDDC
:101CB0000E2B9DED0E0BDB4931EE023B30EE410B5E
:101CC00089EE032B20EE02AB8DED02AB7944029539
:101CD00091ED003B4FF0005141EA600000EB844081
:101CE0008DED043B00F5002005909DED043B9DED3E
:101CF000044B2AEE0ACB33EE411B9DED0E3BCA4846
:101D0000062133EE411B9DED023B03EE440B03EE37
:101D1000410B20EE02BBB0EE4C0B784400F014FCFB
:101D20002CEE0C1B20EE010B9DED021B31EE0A1B6D
:101D30000BEE010B9DED021B21EE011B9FEDBC2B59
:101D400031EE023B33EE003B8DED043B04959DEDFF
:101D5000043B33EE422B32EE411B30EE412B9DED26
:101D6000020B9DED041B20EE011B9DED040B2BEEE1
:101D7000000B02EE0A0B31EE002B8DED022B0295CB
:101D80009DED022B32EE411B30EE410B9DED021B0F
:101D90009FEDA92B21EE021B9DED022B9FEDA83B91
:101DA00022EE032B9FEDA83BA94800EE032B7844BD
:101DB00000EBC40090ED000BA64832EE000B02EEE3
:101DC000107AB8EEC22B8DED042B31EE003B784437
:101DD00000EBC4009DED044B90ED002B33EE023B75
:101DE00033EE043B8DED023B02959DED023B33EE5D
:101DF000443B33EE422B32EE411B30EE411B9DED56
:101E0000260B954A8DED000B00959DED260B9DED63
:101E1000002B30EE420B9DED022B20EE020B9DEDD0
:101E2000262B02EE010B9DED001B9DED022B21EEFA
:101E3000021B8DED021B30EE011B11EE900A11EE1C
:101E4000101A8DED001B904224DB821A11430ED133
:101E50009FED831B9DED002B9DED023B30EE011BA2
:101E600032EE432BB4EEC21BF1EE10FA26DD022057
:101E7000FEF72FFB00F014FC10EE901A18EE900AFB
:101E80008DED020B8DED008B61F31E0003909DED37
:101E9000020B25E5744B20F000429A420ED3734AA0
:101EA000024411437FF444AE9DED022B31EE421B00
:101EB000B4EEC01BF1EE10FABFF63AAE20F00041CE
:101EC0006B4A6C4B002402EB21529942D8BF9DED26
:101ED000021B27DD511C4FF4801222FA01F101444C
:101EE000654BC1F30A527B44A2F2FF3293ED001B13
:101EF000624B8DED041BD34021EA0303C1F31301B0
:101F000041F48011C2F1140221FA02F40593002871
:101F1000B8BF64429DED021B9DED042B31EE421BC8
:101F20008DED021B30EE011B8DED041B04959DED24
:101F3000041B9FED532B9DED023B21EE021B9DEDFB
:101F4000042B32EE432B30EE420B9FED4F2B20EE55
:101F5000020B9DED042B9FED4E3B4F48052102EEF9
:101F6000030B31EE002B8DED002B32EE411B30EEDA
:101F700041AB9DED000B20EE000B8DED040B784482
:101F800000F0E2FA9DED001B9DED042B02EE401BDC
:101F90008DED021B9DED000B20EE010B9FED402B04
:101FA00031EE422B80EE021B9DED002BB0EE4A0B72
:101FB00002EE0A0B31EE400B9DED001B30EE410BA3
:101FC00039EE400B10EE900A8DED000B00EB045043
:101FD00001150029C8BF019013DC224651EC100BFB
:101FE00000F0FBFBFFF764FB042808BF00F064FB74
:101FF00022469DED000B51EC100B00F0EEFBCDE9FD
:1020000000019DED000B28EE000B69E400000000CC
:1020100000000000000040438E9803007AB60B00D9
:10202000C20B0000500C00007A0B00000000000002
:102030000000000000000840000000E009C7EE3F7B
:10204000F5015B14E02F3EBEFD033ADC09C7EE3F0D
:10205000D60A0000A60A0000000090400000000020
:10206000FE822B654715973C00CC904000346F3FB3
:1020700001FCFFFF0000E03F360A0000FFFF0F00F9
:1020800000000000432EE63FEF39FAFE422EE63F05
:10209000396CA80C615C20BE4609000000000000FD
:1020A000000000000000004010B529499FED261BEC
:1020B0002DED020B84B0059820F000408842DCBF73
:1020C00000209DED040B2EDD2249884209D10498A1
:1020D00040B94FF00100FEF7FCF900F0D5FA06B068
:1020E00010BD05DB9DED040B30EE000B06B010BDFE
:1020F00068469DED040B00F02FF810F003000DD0A2
:10210000012814D09DED021B9DED000B022816D076
:1021100000F0AAF906B0B1EE400B10BD9DED021B18
:102120009DED000B012000F047FA06B010BD9DEDBB
:10213000021B9DED000B00F097F906B010BD0120C9
:1021400000F03AFAE6E7000000000000000000009E
:10215000FB21E93F0000F07F2DE9F14F04462DED12
:10216000020B2DED048B94B09FED9D0B80ED020BC7
:10217000199E9D4826F0004585420ADC9DED180B0E
:10218000002084ED000B14B0BDEC048B03B0BDE85F
:10219000F08F96489FED969B9FED978BA84225DD8B
:1021A00097489FED991B9FED9A2B9DED180B002EE4
:1021B0000DDD30EE490B854212BF30EE480B30EE9C
:1021C000410B30EE420B84ED000B0120DBE730EEDB
:1021D000090B854212BF30EE080B30EE010B30EEDA
:1021E000020B84ED000B4FF0FF30CCE78A48A84289
:1021F00053DB9DED180B51EC100B00F069FA41EC2C
:10220000100BB0EE401B9FED862B9FED870B290D29
:10221000DFF81CC201EE020B0120FDEEC00B10EE38
:10222000903A00EE903AB8EEE02BB0EE410B02EEA1
:10223000490B22EE081BFC44032830EE411B84EDC1
:10224000001B1DD011EE902A00EB4015113DC2F38A
:102250000A528A1A954213DA0CEB0012B0EE403B98
:1022600092ED000B401C20EE021B33EE410B33EECF
:10227000403B33EE411B92ED023B12EE031BDBE7CA
:10228000002EA8BF1846BFF67EAF94ED000B584253
:10229000B1EE400B84ED000B75E7C6F3130040F47C
:1022A000801EC6F30A50A0F2F530471100F01F055A
:1022B000C5F12000DDF860B013900020089009906F
:1022C00005200DF1080C5B49002D07EB0002794455
:1022D00008BF51F8221009D051F8223001EB8201D9
:1022E000AB404A68139922FA01F11943A1FB0E266B
:1022F000A1FB0B131A449A4234BF0123002303EBC2
:1023000006080CEB8003D3E901A60E448E4234BFCD
:102310000121002192448A4411B1924502D903E07F
:10232000924501D2012100E00021C3E901A6414408
:102330004CF82010011EA0F10100C4DC04989DEDB2
:10234000050A00F10050810F04989FED3B4B80007F
:1023500001EE100ADDED060A9DED072AB8EEC13B3D
:10236000B8EE401BB8EE600BB8EE422B002021EE19
:10237000041B9FED334B20EE040B9FED334B22EEFD
:10238000042B30EE024B34EE014B34EE034B8DED5B
:10239000004B00909DED004B199834EE433B10F03C
:1023A000004F33EE411B31EE400B32EE401B9DEDF2
:1023B000000B9FED272B20EE020B9FED272B01EE4C
:1023C000020B9DED001B9FED262B01EE020B1CBFA7
:1023D0004942B1EE400B84ED000B0846D3E6000005
:1023E0000000000000000000FB21E93F7CD9024012
:1023F00000004054FB21F93F3163621A61B4D03DC3
:10240000FB21F93F000000000000601A61B4D03DDC
:102410007370032E8A19A33BFB2139410000000091
:1024200083C8C96D305FE43F000000000000E03F5A
:10243000EE06000086060000000000000000103ECE
:10244000000000000000103C000000000000103AF6
:102450003326A611460B113C182D4454FB21F93D9F
:1024600000000054FB21F93D10B52DED040B2DEDBE
:10247000068B82B0B0EE41AB09989FED299B20F00E
:102480000044B4F1795F0FDA9DED080BBDEEC00B8F
:1024900010EE100A002801BFB0EE490B02B0BDECEF
:1024A000068B04B008BF10BD9DED080B1E48062129
:1024B00020EE008BB0EE480B784400F045F820EE9B
:1024C000080B9DED081B1C48844228EE000B01EE12
:1024D0004A0B9FED171B28EE011BBCBF31EE400BD2
:1024E00039EE400B16DB1548A042BCBF9FED142B04
:1024F0008DED002B06DBA4F500100190002000906C
:102500009DED002B31EE421B39EE422B31EE400B9C
:1025100032EE400B02B0BDEC068B04B010BD0000E3
:10252000000000000000F03F340400000000000044
:10253000000000000000E03F3333D33F0000E93FDC
:10254000000000000000D23F491E00EBC102B0EEC7
:10255000401B92ED000B31F006020DD0491E00EB3E
:10256000C102B0EE403B92ED002B31F00602B0EE1E
:10257000420B03EE010BF1D1022914D004290AD039
:10258000062918BF704790ED0A2B00EE012B90ED45
:10259000080B02EE010B90ED062B00EE012B90EDE7
:1025A000040B02EE010B90ED022B00EE012B90EDDF
:1025B000000B02EE010B704731B504462DED040B04
:1025C0002DED068BB0EE419B07989DED060B20F09C
:1025D0000040B0F1795F0DDA51EC100BFFF768F8AD
:1025E000042808BF00F068F89DED060BBDEC068BD3
:1025F00005B030BD20EE008B1348052128EE00AB5E
:10260000B0EE480B7844FFF79FFF9FED111B8CB194
:102610009FED112B29EE022B0AEE402B9DED060BB0
:1026200018EE029B0AEE419B30EE490BBDEC068B87
:1026300005B030BD08EE001B9DED060B0AEE010B48
:10264000BDEC068B05B030BDE803000000000000C3
:10265000495555555555C5BF000000000000E03FE5
:102660009FED031B9FED042B81EE020B70470000D2
:10267000000000000000F03F00000000000000002B
:1026800030EE010B704700009FED031B81EE010B44
:102690007047000000000000000000000000000083
:1026A0009FED030B20EE000B7047000000000000C0
:1026B00000000000000000709FED030B20EE000BF7
:1026C0007047000000000000000000000000001043
:1026D00082B0CDE9000121F0004001909DED000B9A
:1026E00002B051EC100B7047FDF75AFFFDF75DFF8C
:1026F000FCE700B541EC100B2DED028B83B0B1EE81
:10270000C08B18EE100A18EE901A8DED008B002881
:1027100018BF0120084320F00040C0F17F6000F1A5
:10272000E040C00F14D010EE101A10EE900A8DED9C
:10273000000B002918BF0121084320F00040C0F120
:102740007F6000F1E040C00F04BF0120FDF7C1FE33
:1027500051EC180B03B0BDEC028B00BD02494FF0E9
:10276000000000F008B800BF0000F87F4FF0407094
:10277000E1EE100A70470CF00F03092B08BF082088
:1027800000F059800A2B0BD0082B18BF704708BFE8
:102790001CF0400F0AD04FF000004FF000017047CE
:1027A0001CF0400F18BF4FF0004070471CF0100F96
:1027B00008D020F0704300F07F4242EAD3014FEA94
:1027C0004370704700F0604021F07F4242EA00020F
:1027D00001F07F4040EA727070474FF0FF0C4CF4FC
:1027E000E06C1CEA11531CBF9CEA030C9445C2BF69
:1027F000DA4201EB02517047002B0DD0BCF1000F03
:102800000FD0002A01F00041A4BF41F0E04141F0A7
:102810007F614FF00000704701F000414FF0000071
:10282000704750EA01334FF09B0C18BF4CF0806C9E
:102830007FF494AF70471CF4801F11D01CF4E02F7C
:1028400003D06FEACC31490070474FF04050EFF3AE
:10285000008222F0704242EA000282F30088704750
:102860004FF0000070470000000000000000F03F43
:10287000000000000000F83F000000000000000021
:102880000000004003B8E23F00000000000000002C
:1028900006D0CF43EBFD4C3E033333333333E33FBA
:1028A000FFAB6FDBB66DDB3F4D268F515555D53FE6
:1028B00001411DA96074D13F65DBC9934A86CD3FB4
:1028C000EF4E454A287ECA3F3E5555555555C53FA2
:1028D00093BDBE166CC166BF2CDE25AF6A56113F94
:1028E000F16BD2C541BDBBBED0A4BE726937663E96
:1028F0004C5555555555A53F7751C1166CC156BF1E
:102900009015CB19A001FA3EAD529C804F7E92BE2D
:10291000C4B1B4BD9EEE213ED43888BEE9FAA8BD4C
:10292000000000000000000000004054FB21F93FBF
:102930003163621A61B4D03D0000601A61B4D03DC9
:102940007370032E8A19A33B0000002E8A19A33B43
:10295000C14920259A837B39000000000000000057
:102960006E83F9A22915444ED15727FCC0DD34F5FA
:10297000999562DB4190433CAB6351FE61C5BBDE80
:102980003A6E24B7E0D24D42EA2E49061C92D10994
:102990001CEB1DFE3EA729B1F53582E88444BB2E11
:1029A00026709CE9417E5FB439D69139F43953835E
:1029B0008B5F849C3B28F9BDFF97F81F0F9805DEBD
:1029C0008B112FEF1F6D0A5ACF7E366DB709CB27BB
:1029D000663F464F2DEA5F9EC7BA27757BF1E5EB50
:1029E000F739073DEA92528AB15FFB6B085D8D1F94
:1029F000A6F810111111813FD561C119A0012ABF9C
:102A00007DFEB157E31DC73EEB9C2B8AE6E55ABE1F
:102A10007CD5CF5A3AD9E53D782A0008000000203D
:102A20001000000030030008882A0008000000247D
:102A3000389B0700D4020008D0390008000000309D
:102A4000C09C0000D40200080C3B000800000000FD
:102A500070E30000300300087C1E0108000000380D
:102A6000A0130000D4020008882A000810000020EB
:102A7000209401004C03000810000020000000001A
:102A8000000000000000F03F01FF01FF01FF01FF17
:102A900001FF01FF01FF01FF01FF01FF01FF01FF36
:102AA00001FF01FF01FF01FF01FF01FF01FF01FF26
:102AB00001FF01FF01FF01FF01FF01FF01FF01FF16
:102AC00001FF01FF01FF01FF01FF01FF01FF01FF06
:1039C00001FF01FF01FF01FF01FF01FF01DA00001C
:1039D00001FF01FF01FF01FF01FF01FF01FF01FFE7
:1039E00001FF01FF01FF01FF01FF01FF01FF01FFD7
:1039F00001FF01FF01FF01FF01FF01FF01FF01FFC7
:103A000001FF01FF01FF01FF01FF01FF01FF01FFB6
:103A100001FF01FF01FF01FF01FF01FF01FF01FFA6
:103A200001FF01FF01FF01FF01FF01FF01FF01FF96
:103A300001FF01FF01FF01FF01FF01FF01FF01FF86
:103A400001FF01FF01FF01FF01FF01FF01FF01FF76
:103A500001FF01FF01FF01FF01FF01FF01FF01FF66
:103A600001FF01FF01FF01FF01FF01FF01FF01FF56
:103A700001FF01FF01FF01FF01FF01FF01FF01FF46
:103A800001FF01FF01FF01FF01FF01FF01FF01FF36
:103A900001FF01FF01FF01FF01FF01FF01FF01FF26
:103AA00001FF01FF01FF01FF01FF01FF01FF01FF16
:103AB00001FF01FF01FF01FF01FF01FF01FF01FF06
:103AC00001FF01FF01FF01FF01FF01FF01FF01FFF6
:103AD00001FF01FF01FF01FF01FF01FF01FF01FFE6
:103AE00001FF01FF01FF01FF01FF01FF01FF01FFD6
:103AF00001FF01FF01FF01FF01FF01FF01FF01FFC6
:103B000001FF01FF01FF01FF01FF015D40F2E95CE0
:103B1000C0F6000C604740F68D5CC0F6000C6047B4
:103B200040F2D53CC0F6000C604741F2017CC0F683
:103B3000000C604742F2A90CC0F6000C604740F24E
:103B40005F4CC0F6000C604741F2B17CC0F6000C3F
:103B5000604700006348002130B50B46D0F80020D4
:103B600003EBC30000EB432002EBC00090F83E00E3
:103B7000012813D103EB430000EBC30002EBC000AC
:103B800000F5C04080F8F016C0F8EC1680F858191F
:103B9000C0F8541980F8C01BC0F8BC1B5B1C062B76
:103BA000DEDB02F5C04090F8EA31012B0BD180F842
:103BB0000019C0F8FC1880F8681BC0F8641B80F876
:103BC000D01DC0F8CC1D01250023C0F8141200BF81
:103BD00003EB430404EBC30402EBC40404F5C04448
:103BE00094F8284304B900255B1C0B2BF0DB1DB1B6
:103BF00041F00102C0F8142290F8F0265AB190F872
:103C0000582942B190F8C02B2AB1D0F8142242F4BE
:103C10008072C0F8142290F848275AB190F8B02961
:103C200042B190F8182C2AB1D0F8142242F4007254
:103C3000C0F8142290F8A0275AB190F8082A42B18F
:103C400090F8702C2AB1D0F8142242F48062C0F8A7
:103C5000142290F8F8275AB190F8602A42B190F8EF
:103C6000C82C2AB1D0F8142242F40062C0F8142201
:103C700090F850285AB190F8B82A42B190F8202D07
:103C80002AB1D0F8142242F48052C0F8142290F8DD
:103C9000A8285AB190F8102B42B190F8782D2AB18B
:103CA000D0F8142242F40052C0F8142290F80029EF
:103CB0005AB190F8682B42B190F8D02D2AB1D0F8C3
:103CC000142242F48042C0F81422D0F8142202B127
:103CD000012180F81012D0F818121143C0F8181200
:103CE00030BD0000000000201C49F0B401240A6827
:103CF00000204FF4FA75034600EB400101EBC001D0
:103D000002EBC10101F5C041D1F82463AE4204D3F6
:103D1000C1F8245381F8284301E081F82833401C7E
:103D20000B28E9DB5FF0000000EB400101EBC00174
:103D300002EBC10101F5C041D1F8EC66AE4204D3FB
:103D4000C1F8EC5681F8F04601E081F8F036401CED
:103D50001528E9DBF0BCFFF7FDBE000000000020E5
:103D600010B501F09DFC00F077F801F0BDFC00F00B
:103D700009F80348816921F00101816110BD00004B
:103D800000A000402F492F4B10B520330A682E4861
:103D900022F00F020A600C682C4A44F00A040C60FE
:103DA000196841F099011960836940F6313143F097
:103DB0000303836183693F2443F486438361C261C3
:103DC000C160C0F880400222214940F233330968C3
:103DD00001F5FC7101F5C0410C8844F4A814C0F849
:103DE00084404C8844F43024C0F8C040C0F8C82057
:103DF000C0F8BC30174A8B88C0F8AC30C98841F491
:103E00002C11C0F8A010426501220021D0F8E0304A
:103E100002FA01F42343C0F8E030491C0B29F5DB1A
:103E2000426D4FF07F51032342F07F52426581651E
:103E3000C365132008F0B9FEBDE81040152008F056
:103E4000B4BE0000000C025800A00040030B0402A6
:103E5000000000200002080065482DE9F0430068DA
:103E600000F10C04814600F1180C00F1240800F167
:103E7000300100F13C0200F1480300F1540500F567
:103E8000C047603000F5C0464FF40070A7F822022A
:103E900009F16C0004F5C04400F5C04740F2012070
:103EA0000CF5C04CA4F8220209F1780000F5C044DA
:103EB00040F2022008F5C048ACF8220209F1840063
:103EC00000F5C04C40F2032001F5C041A8F82202E1
:103ED00009F1900000F5C0484FF40170A1F82202EA
:103EE00009F19C0002F5C04200F5C04140F20520F6
:103EF00003F5C043A2F8220209F1A80000F5C04270
:103F000040F2062005F5C045A3F8220209F1B400ED
:103F100000F5C0434FF40470A5F8220209F1C00077
:103F200000F5C04540F21120A6F8220209F1CC00AC
:103F300000F5C04640F21220A7F8220209F1D8008D
:103F400000F5C04740F21320A4F822024FF4057494
:103F5000ACF82242641CA8F8224240F21628A1F8CC
:103F60002282072409F1E40040F2F12809F1F00C63
:103F70004FF43C71A2F82212A3F82282891CA5F802
:103F800022124A1C00F5C040A6F822228B1CA7F87A
:103F900022320CF5C04C40F2F528091DA0F822820F
:103FA000134F01265FF00000ACF822124FF0605C66
:103FB00000EB40013A6885B245F0804302EB810195
:103FC000A1F5EF5101F5004102F5C0420E704C70B1
:103FD0008D804D884CEA05452B438B60D2F800124A
:103FE00041F82030401C1528E2DBBDE8F0830000DA
:103FF000000000205C4900EB40032DE9F043D1F8BC
:10400000009000EB400404EBC00409F5C0425B00E3
:1040100009EBC404D2F8085204F5C04155F82360F6
:104020000425C1F8246705EB8305D2F808727D5991
:104030000827C1F8285707EB8307D2F808C25CF8B5
:1040400007C00C27C1F82CC707EB8307D2F808C2BA
:104050005CF807C01027C1F830C707EB8307D2F818
:1040600008C25CF807704FF0140CC1F834770CEB01
:104070008303D2F808C207275CF80330B0FBF7FCD3
:10408000C1F83837C6F38A4307FB1C074FEAD67CD2
:1040900081F800C7C6F3407081F80107C1F8043702
:1040A000EE0F81F80867C5F3056081F80907C5F3CD
:1040B000405381F80A37C5F3005681F80B672B0C83
:1040C000C5F3034081F80C07A1F80E375FF0000339
:1040D00004EB830000F5E26000F5C0405B1C042B9C
:1040E000C56905704FEA152646704FEA154C80F8F1
:1040F00002C04FEA156880F80380E9DB052F4FF016
:10410000010310D891F81007012814D107EBC7005C
:1041100000EB472209EBC20090F8302080F84230D3
:1041200080F8312007E0062F05D191F8100701280B
:1041300001D182F8EE3104F5C04213461546002045
:10414000C1F8EC06D2F8F82604F5C044D3F8FC36E2
:10415000521CC5F8F82643F10003C4F8FC3681F878
:10416000E806BDE8F083000000000020574900EB9E
:1041700040032DE9F043D1F8009000EB400404EB3C
:10418000C00409F5C0425B0009EBC404D2F8085230
:1041900004F5C04155F823600425C1F8246705EBF8
:1041A0008305D2F808727D590827C1F8285707EB14
:1041B0008307D2F808C25CF807C00C27C1F82CC7E7
:1041C00007EB8307D2F808C25CF807C01027C1F8D4
:1041D00030C707EB8307D2F808C25CF807704FF0CE
:1041E000140CC1F834770CEB8303D2F808C207270C
:1041F0005CF80330B0FBF7FCC1F83837C6F38A43EC
:1042000007FB1C074FEAD67C81F800C7C6F3407055
:1042100081F80107C1F80437EE0F81F80867C5F38C
:10422000056081F80907C5F3405381F80A37C5F3E3
:10423000005681F80B672B0CC5F3034081F80C077F
:10424000A1F80E375FF0000304EB830000F5E26095
:1042500000F5C0405B1C042BC56905704FEA1526AC
:1042600046704FEA154C80F802C04FEA156880F896
:104270000380E9DB052F0AD807EBC70091F8102768
:1042800000EB472309EBC30080F8342005E0062F3C
:1042900003D191F8100782F8E20104F5C04003460B
:1042A00005460022C1F8EC26D0F8F80604F5C04413
:1042B000D3F8FC36401CC5F8F80643F10003C4F8F7
:1042C000FC3681F8E826BDE8F083000000000020FD
:1042D000A04900EB40032DE9F047D1F800A000EB26
:1042E000400403EBC0030AF5C04264000AEBC303B9
:1042F000D2F8085203F5C04155F824600425C1F8EE
:10430000246705EB8405D2F808727D590827C1F8A7
:10431000285707EB8407D2F808C25CF807C00C27BF
:10432000C1F82CC707EB8407D2F808C25CF807C0B5
:104330001027C1F830C707EB8407D2F808C25CF831
:1043400007704FF0140CC1F834770CEB8404D2F8EA
:1043500008C207275CF804C0B0FBF7F4C1F838C7FF
:1043600007FB1409F40F81F80047C6F3407781F882
:104370000177C6F38A46C1F80467EC0F81F8084755
:10438000C5F3056781F80977C5F3405681F80A67D8
:10439000C5F3005481F80B47C5F3034781F80C7748
:1043A0002D0CA1F80E57002403EB840505F5E265FA
:1043B00005F5C045641C042CEE692E704FEA1627E3
:1043C0006F704FEA164C85F802C04FEA166885F800
:1043D0000380E9DBB9F1050F4FF001047DD891F8B6
:1043E000115700EBC00C91F8106791F8132791F862
:1043F00012772D0402EB06689FED572B05EB07257E
:104400000CEB402708EB050001EE100A09EBC9068A
:1044100006EB49250AEBC7029FED510BB8EEC11B15
:1044200092ED4A3B0AEBC50021EE031B81EE023BF5
:1044300080ED243B91F8146791F8155792ED4C2BC1
:1044400005EB06252DB201EE105AB8EEC11B21EE88
:10445000021B81EE002B80ED262B91F8166791F858
:10446000175792ED502B05EB062212B201EE102ADF
:10447000B8EEC11B21EE021B81EE002B80ED2A2B32
:1044800091F8182700EE102AB8EE400B80ED2C0BA7
:1044900091F8192780F8342091F81A2780F83520F0
:1044A00091F81B2780F8362091F81C2780F83720D8
:1044B00091F81D2780F8382091F81E6702F0010559
:1044C00091F81F2702EB0622A0F8C02091F82027C0
:1044D00000EE102AB8EE400B00E006E080ED2C0B59
:1044E00080F8414080F84B501CE0B9F1060F19D11B
:1044F00091F8100782F8F20191F8110782F8F301A0
:1045000091F8120782F8F40191F8190782F8E20194
:1045100091F81C0782F8E30191F81D0782F8E40185
:1045200082F8ED4103F5C040044605460022C1F87B
:10453000EC26D0F8F80603F5C043D4F8FC46401C3E
:10454000C5F8F80644F10004C3F8FC4681F8E826F3
:10455000BDE8F087000000200000C0FFFFFFDF4142
:1045600000000000C0FFDF4070B5194C0126002597
:10457000D4F89800E840C00706D0E8B2FFF7A8FEDC
:1045800006FA05F0C4F898006D1C072DF0DB07252E
:10459000D4F89800E840C00706D0E8B2FFF7E6FD7F
:1045A00006FA05F0C4F898006D1C0E2DF0DB0E2500
:1045B000D4F89800E840C00706D0E8B2FFF71AFD2B
:1045C00006FA05F0C4F898006D1C152DF0DB70BDDF
:1045D00000A0004010B501F021F8FFF785FB14485A
:1045E00001680020024600EB420303EBC202401CBC
:1045F00001EBC20202F5C0420B28D2F8243303F1CA
:104600000103C2F82433EDDB0020024600EB420335
:1046100003EBC202401C01EBC20202F5C0421528A6
:10462000D2F8EC3603F10103C2F8EC36EDDB10BD35
:10463000000000202DE9F0435E4E01223068014663
:10464000583000F5C04090F8200301287DD002EBDF
:10465000420000EBC200002301EBC0041D4600BF76
:1046600005EBC50C0CEB452CE71801EBCC0C07F562
:10467000C0475B1C9CF833C06D1C9BB287F84DC3D0
:10468000062DEDDB2344B14601F5C04103F5C043DF
:1046900091F8E15183F84D535FF0000504EB850379
:1046A00003F5C0436D1C042D93F84E7393F84D63CE
:1046B00093F84FC393F8508306EB072606EB0C469E
:1046C00006EB0866C3F86863E8DB02EB4203D1F847
:1046D000046204F5C0444FF6FF7505EA43034946FA
:1046E0004FF00C0CD4F86073042446F8237004EBEC
:1046F0008307D9F80040082504EBC00804F5C0443E
:1047000008F5C04805EB8305D4F804421026D8F814
:10471000648306EB830644F807800C680CEB83087F
:10472000142704EBC00C04F5C0440CF5C04C07EB97
:104730008307D4F804420123DCF868C344F805C0B9
:104740000C681D4D04EBC00C00E031E004F5C044E2
:104750000CF5C04C03FA02F2D4F80442DCF86CC346
:1047600044F808C00C6804EBC00C04F5C0440CF518
:10477000C04CD4F80442DCF870C344F806C00C689E
:1047800004EBC00604F5C04406F5C046D4F8044264
:10479000D6F87463E651D9F8001001EBC00000F5BB
:1047A000C04080F82033D5F8D0001043C5F8D000C1
:1047B000BDE8F0830000002000A00040674B02220B
:1047C0002DE9F04318680146B03000F5C04090F87C
:1047D000200301287DD002EB4200994600EBC20085
:1047E000002401EBC003254603EB040C05EBC506D2
:1047F00006EB4526641C01EBC606A4B20CF5C04CC2
:104800001F1996F8308007F5C047641C8CF84D835B
:1048100096F832606D1CA4B287F84D63062DE3DB79
:104820001E1906F5C0460025641C86F84D53A5B236
:104830001D4401F5C04105F5C04591F8E06185F8DA
:104840004D63002503EB850404F5C0446D1C042D65
:1048500094F84E7394F84D6394F84FC394F85083D2
:1048600006EB072606EB0C4606EB0866C4F8686301
:10487000E8DB03F5C043D1F8044202EB42054946A8
:1048800004264FF00C0CD3F860734FF6FF7303EA65
:104890004503082505EB830544F82370D9F800404B
:1048A00006EB8307102604EBC00804F5C04408F5A6
:1048B000C04806EB8306D4F80442D8F8648344F871
:1048C000078014270C680CEB830807EB8307012390
:1048D00000E041E004EBC00C04F5C0440CF5C04C12
:1048E00003FA02F2D4F80442DCF868C344F805C0C5
:1048F0000C681B4D04EBC00C04F5C0440CF5C04C17
:10490000D4F80442DCF86CC344F808C00C6804EB2B
:10491000C00C04F5C0440CF5C04CD4F80442DCF8DB
:1049200070C344F806C00C6804EBC00604F5C0442C
:1049300006F5C046D4F80442D6F87463E651D9F8B7
:10494000001001EBC00000F5C04080F82033D5F81E
:10495000D0001043C5F8D000BDE8F083000000206F
:1049600000A000406F4900222DE9F0470C6804F5D3
:10497000C040814690F8200301287DD0002002EB42
:1049800042039FED691B8A46054603EBC20104EB17
:10499000C10300BF05EBC50606EB4526B0EE410B93
:1049A00004EBC6061F1896ED1A2B96ED503B07F543
:1049B000C047401C82EE034B80B203EB000C0CF5A9
:1049C000C04C401C6D1C80B2062D24EE002BBDEEA9
:1049D000C22B12EE108A4FEA282887F84D8396EDF5
:1049E0001A2B96ED503B82EE034B24EE000BFDEEAE
:1049F000C00B10EE906A8CF84D63CBDB1C1899F855
:104A0000F15104F5C044504684F84D535FF0000561
:104A100003EB850404F5C0446D1C042D94F84E731B
:104A200094F84D6394F84FC394F8508306EB07262F
:104A300006EB0C4606EB0866C4F86863E8DB03F592
:104A4000C043D9F8044202EB42054FF00C0C042796
:104A5000D3F860634FF6FF7303EA4503082507EBBD
:104A6000830744F823600468102605EB830504EBF4
:104A7000C10808F5C04800E052E004F5C044D8F889
:104A8000648306EB8306D4F8044244F80780046884
:104A90000CEB8308142704EBC10C04F5C0440CF59F
:104AA000C04C07EB8307D4F804420123DCF868C349
:104AB00003FA02F244F805C004681D4D04EBC10C72
:104AC00004F5C0440CF5C04CD4F80442DCF86CC3C7
:104AD00044F808C0046804EBC10C04F5C0440CF5AC
:104AE000C04CD4F80442DCF870C344F806C0046833
:104AF00004EBC10604F5C04406F5C046D4F80442F0
:104B0000D6F87463E651DAF8000000EBC10000F556
:104B1000C04080F82033D5F8D0001043C5F8D0004D
:104B2000BDE8F0870000002000000000C0FFDF406B
:104B300000A000401749F0B50026174DD1F800300D
:104B400002273046D5F8D810C140C9071DD000EB68
:104B5000400101EBC00103EBC10101F5C04292F835
:104B60002043012C11D19446144682F820739646B6
:104B7000C2F82463DCF83013D4F83443491CCEF86F
:104B8000301344F10004C2F83443401C0B28D9DB35
:104B9000F0BD00000000002000A0004051480322AA
:104BA0002DE9F04301680B4601F5847101F5C04120
:104BB00091F8201301297CD002EB4201814601EBE0
:104BC000C200002403EBC00505EB840101F5C041E0
:104BD000641C042C91F84E7391F84D6391F84FC307
:104BE00091F8508306EB072606EB0C4606EB0866A9
:104BF000C1F86863E8DB03F5C0434FF6FF7802EBCA
:104C000042074FF0040C05F5C0454946D3F804624D
:104C100008EA47030824D5F860530C2707EB8308FC
:104C200046F8235004EB8305D9F800400CEB8306CB
:104C300004EBC00C04F5C0440CF5C04C1027D4F8AC
:104C40000442DCF864C344F806C00C6807EB830632
:104C5000142704EBC00C04F5C0440CF5C04C07EB62
:104C60008307D4F804420123DCF868C303FA02F294
:104C700044F805C00C681C4D04EBC00C04F5C0449E
:104C80000CF5C04CD4F80442DCF86CC344F808C0FE
:104C90000C6804EBC00C04F5C0440CF5C04CD4F80F
:104CA0000442DCF870C344F806C00C6804EBC0068C
:104CB00000E015E004F5C04406F5C046D4F804420F
:104CC000D6F87463E651D9F8001001EBC00000F586
:104CD000C04080F82033D5F8D0001043C5F8D0008C
:104CE000BDE8F0830000002000A0004051480A22E7
:104CF0002DE9F04301680B4601F55C7101F5C041F7
:104D000091F8201301297CD002EB4201814601EB8E
:104D1000C200002403EBC00505EB840101F5C0418E
:104D2000641C042C91F84E7391F84D6391F84FC3B5
:104D300091F8508306EB072606EB0C4606EB086657
:104D4000C1F86863E8DB03F5C0434FF6FF7802EB78
:104D500042074FF0040C05F5C0454946D3F80462FC
:104D600008EA47030824D5F860530C2707EB8308AB
:104D700046F8235004EB8305D9F800400CEB83067A
:104D800004EBC00C04F5C0440CF5C04C1027D4F85B
:104D90000442DCF864C344F806C00C6807EB8306E1
:104DA000142704EBC00C04F5C0440CF5C04C07EB11
:104DB0008307D4F804420123DCF868C303FA02F243
:104DC00044F805C00C681C4D04EBC00C04F5C0444D
:104DD0000CF5C04CD4F80442DCF86CC344F808C0AD
:104DE0000C6804EBC00C04F5C0440CF5C04CD4F8BE
:104DF0000442DCF870C344F806C00C6804EBC0063B
:104E000000E015E004F5C04406F5C046D4F80442BD
:104E1000D6F87463E651D9F8001001EBC00000F534
:104E2000C04080F82033D5F8D0001043C5F8D0003A
:104E3000BDE8F0830000002000A00040514804229B
:104E40002DE9F04301680B46A1F5F55101F500414C
:104E500091F8201301297CD002EB4201814601EB3D
:104E6000C200002403EBC00505EB840101F5C0413D
:104E7000641C042C91F84E7391F84D6391F84FC364
:104E800091F8508306EB072606EB0C4606EB086606
:104E9000C1F86863E8DB03F5C0434FF6FF7802EB27
:104EA00042074FF0040C05F5C0454946D3F80462AB
:104EB00008EA47030824D5F860530C2707EB83085A
:104EC00046F8235004EB8305D9F800400CEB830629
:104ED00004EBC00C04F5C0440CF5C04C1027D4F80A
:104EE0000442DCF864C344F806C00C6807EB830690
:104EF000142704EBC00C04F5C0440CF5C04C07EBC0
:104F00008307D4F804420123DCF868C303FA02F2F1
:104F100044F805C00C681C4D04EBC00C04F5C044FB
:104F20000CF5C04CD4F80442DCF86CC344F808C05B
:104F30000C6804EBC00C04F5C0440CF5C04CD4F86C
:104F40000442DCF870C344F806C00C6804EBC006E9
:104F500000E015E004F5C04406F5C046D4F804426C
:104F6000D6F87463E651D9F8001001EBC00000F5E3
:104F7000C04080F82033D5F8D0001043C5F8D000E9
:104F8000BDE8F0830000002000A000405148052249
:104F90002DE9F04301680B4601F5DC7101F5C041D4
:104FA00091F8201301297CD002EB4201814601EBEC
:104FB000C200002403EBC00505EB840101F5C041EC
:104FC000641C042C91F84E7391F84D6391F84FC313
:104FD00091F8508306EB072606EB0C4606EB0866B5
:104FE000C1F86863E8DB03F5C0434FF6FF7802EBD6
:104FF00042074FF0040C05F5C0454946D3F804625A
:1050000008EA47030824D5F860530C2707EB830808
:1050100046F8235004EB8305D9F800400CEB8306D7
:1050200004EBC00C04F5C0440CF5C04C1027D4F8B8
:105030000442DCF864C344F806C00C6807EB83063E
:10504000142704EBC00C04F5C0440CF5C04C07EB6E
:105050008307D4F804420123DCF868C303FA02F2A0
:1050600044F805C00C681C4D04EBC00C04F5C044AA
:105070000CF5C04CD4F80442DCF86CC344F808C00A
:105080000C6804EBC00C04F5C0440CF5C04CD4F81B
:105090000442DCF870C344F806C00C6804EBC00698
:1050A00000E015E004F5C04406F5C046D4F804421B
:1050B000D6F87463E651D9F8001001EBC00000F592
:1050C000C04080F82033D5F8D0001043C5F8D00098
:1050D000BDE8F0830000002000A0004051480622F7
:1050E0002DE9F04301680B4601F5047101F5C0415B
:1050F00091F8201301297CD002EB4201814601EB9B
:10510000C200002403EBC00505EB840101F5C0419A
:10511000641C042C91F84E7391F84D6391F84FC3C1
:1051200091F8508306EB072606EB0C4606EB086663
:10513000C1F86863E8DB03F5C0434FF6FF7802EB84
:1051400042074FF0040C05F5C0454946D3F8046208
:1051500008EA47030824D5F860530C2707EB8308B7
:1051600046F8235004EB8305D9F800400CEB830686
:1051700004EBC00C04F5C0440CF5C04C1027D4F867
:105180000442DCF864C344F806C00C6807EB8306ED
:10519000142704EBC00C04F5C0440CF5C04C07EB1D
:1051A0008307D4F804420123DCF868C303FA02F24F
:1051B00044F805C00C681C4D04EBC00C04F5C04459
:1051C0000CF5C04CD4F80442DCF86CC344F808C0B9
:1051D0000C6804EBC00C04F5C0440CF5C04CD4F8CA
:1051E0000442DCF870C344F806C00C6804EBC00647
:1051F00000E015E004F5C04406F5C046D4F80442CA
:10520000D6F87463E651D9F8001001EBC00000F540
:10521000C04080F82033D5F8D0001043C5F8D00046
:10522000BDE8F0830000002000A0004051480722A4
:105230002DE9F04301680B4601F51A7101F5C041F3
:1052400091F8201301297CD002EB4201814601EB49
:10525000C200002403EBC00505EB840101F5C04149
:10526000641C042C91F84E7391F84D6391F84FC370
:1052700091F8508306EB072606EB0C4606EB086612
:10528000C1F86863E8DB03F5C0434FF6FF7802EB33
:1052900042074FF0040C05F5C0454946D3F80462B7
:1052A00008EA47030824D5F860530C2707EB830866
:1052B00046F8235004EB8305D9F800400CEB830635
:1052C00004EBC00C04F5C0440CF5C04C1027D4F816
:1052D0000442DCF864C344F806C00C6807EB83069C
:1052E000142704EBC00C04F5C0440CF5C04C07EBCC
:1052F0008307D4F804420123DCF868C303FA02F2FE
:1053000044F805C00C681C4D04EBC00C04F5C04407
:105310000CF5C04CD4F80442DCF86CC344F808C067
:105320000C6804EBC00C04F5C0440CF5C04CD4F878
:105330000442DCF870C344F806C00C6804EBC006F5
:1053400000E015E004F5C04406F5C046D4F8044278
:10535000D6F87463E651D9F8001001EBC00000F5EF
:10536000C04080F82033D5F8D0001043C5F8D000F5
:10537000BDE8F0830000002000A000405148082252
:105380002DE9F04301680B46A1F5EA5101F5004112
:1053900091F8201301297CD002EB4201814601EBF8
:1053A000C200002403EBC00505EB840101F5C041F8
:1053B000641C042C91F84E7391F84D6391F84FC31F
:1053C00091F8508306EB072606EB0C4606EB0866C1
:1053D000C1F86863E8DB03F5C0434FF6FF7802EBE2
:1053E00042074FF0040C05F5C0454946D3F8046266
:1053F00008EA47030824D5F860530C2707EB830815
:1054000046F8235004EB8305D9F800400CEB8306E3
:1054100004EBC00C04F5C0440CF5C04C1027D4F8C4
:105420000442DCF864C344F806C00C6807EB83064A
:10543000142704EBC00C04F5C0440CF5C04C07EB7A
:105440008307D4F804420123DCF868C303FA02F2AC
:1054500044F805C00C681C4D04EBC00C04F5C044B6
:105460000CF5C04CD4F80442DCF86CC344F808C016
:105470000C6804EBC00C04F5C0440CF5C04CD4F827
:105480000442DCF870C344F806C00C6804EBC006A4
:1054900000E015E004F5C04406F5C046D4F8044227
:1054A000D6F87463E651D9F8001001EBC00000F59E
:1054B000C04080F82033D5F8D0001043C5F8D000A4
:1054C000BDE8F0830000002000A000405148092200
:1054D0002DE9F04301680B4601F5467101F5C04125
:1054E00091F8201301297CD002EB4201814601EBA7
:1054F000C200002403EBC00505EB840101F5C041A7
:10550000641C042C91F84E7391F84D6391F84FC3CD
:1055100091F8508306EB072606EB0C4606EB08666F
:10552000C1F86863E8DB03F5C0434FF6FF7802EB90
:1055300042074FF0040C05F5C0454946D3F8046214
:1055400008EA47030824D5F860530C2707EB8308C3
:1055500046F8235004EB8305D9F800400CEB830692
:1055600004EBC00C04F5C0440CF5C04C1027D4F873
:105570000442DCF864C344F806C00C6807EB8306F9
:10558000142704EBC00C04F5C0440CF5C04C07EB29
:105590008307D4F804420123DCF868C303FA02F25B
:1055A00044F805C00C681C4D04EBC00C04F5C04465
:1055B0000CF5C04CD4F80442DCF86CC344F808C0C5
:1055C0000C6804EBC00C04F5C0440CF5C04CD4F8D6
:1055D0000442DCF870C344F806C00C6804EBC00653
:1055E00000E015E004F5C04406F5C046D4F80442D6
:1055F000D6F87463E651D9F8001001EBC00000F54D
:10560000C04080F82033D5F8D0001043C5F8D00052
:10561000BDE8F0830000002000A0004070B51F4CE2
:105620000B2500222068014600F5C040B0F81C326E
:105630005B1C9BB2B3FBF5F605FB1633A0F81C32DE
:1056400003EB430606EBC30301EBC30303F5C043BF
:1056500093F83833012B03D0521C0B2AE6DB70BDC4
:10566000B0F81C0200EB400202EBC00001EBC000EE
:1056700000F5C040D0F83C038047206846F21C216A
:105680000022095A01EB410303EBC10100EBC10009
:1056900000F5C04080F8382370BD000000000020F5
:1056A0000D484FF0000CF0B5006854270B4A4FF43A
:1056B000AE7600F5FC70094900F5C040084B543245
:1056C000084C4FF46A75A0F800C047808680C580FA
:1056D000083080E81E00F0BD0000002000AC004053
:1056E0005CAD0040A8AF004082480023F0B50168DF
:1056F0000124814A4FF4681501F5C0400A260727A6
:1057000080F83833C0F83C2301F5647280F84033E8
:1057100002F5C04280F8413380F84233C0F8443388
:1057200080F8483380F8493380F84A4380F84B4387
:1057300080F84C63C0E9D835704813705060102071
:10574000137253729372D060800413745374947400
:10575000D47417754FF45C17C2E90A0701F57A7023
:10576000674A00F5C0404FF0707703704260F02246
:10577000037243728372C2604FF440120374437425
:105780008474C474067501F5886606F5C046C0E9E0
:105790000A755C48A0253370706000203372737204
:1057A000B372F5603374AB047074B474F474307510
:1057B00001F5936000F5C040574DC6E90A32002359
:1057C0000370514B436000230372437283724FF4A2
:1057D000D073C3600023037443748474C47403756A
:1057E0004FF0D063C0E90A3201F59E6000F5C04079
:1057F00000230370454B436000230372437283729E
:1058000040F2A113C3600023037443748474C4740E
:1058100003753F4BC0E90A3201F5A96000F5C040AD
:10582000002303703B4B4360002303724372837277
:105830004FF4D173C3600023037443748474C4743D
:1058400003754FF0D163C0E90A3201F5B46303F583
:10585000C043002018705D6040F2A31518725872A2
:105860009872DD60187458749C74AD04DC741875FB
:10587000C3E90A5201F5BF63284D03F5C043187010
:105880005D604FF4D275187258729872DD60AD0485
:10589000187458749C74DC741875C3E90A5201F5C5
:1058A000CA631F4D03F5C04301F5D56101F5C04141
:1058B00018705D6040F2A515187258729872DD601C
:1058C000AD04187458749C74DC741875C3E90A52DA
:1058D000144B08704B604FF4D3730872487288728F
:1058E000CB60087448748C74CC7408759804C1E952
:1058F0000A02F0BD00000020590E0000290B000034
:10590000B10C000091100000311300008114000060
:1059100000008406D1150000211700007118000056
:10592000C1190000E11100002DE9F0417C4D00217A
:1059300001240B462A68117551759175D1769176BF
:10594000D17511765176117703EBC30000EB43203C
:1059500002EBC00090F83E60012E11D180F83710A4
:1059600080F8351080F8461080F8481080F8431011
:1059700080F8441080F8451080F8471080F84B10EC
:1059800090F8376080F8491080F84A100EB180F81E
:10599000494090F835600EB180F8494090F8466073
:1059A000012E01D180F84A4090F84860012E01D1C3
:1059B00080F84A4090F84360012E01D180F84A40B7
:1059C00090F84460012E01D180F84A4090F845607B
:1059D000012E01D180F84A4090F84760012E01D194
:1059E00080F84A4090F84B60012E00D1D47690F8B0
:1059F0004960012E00D1947690F84A00012800D128
:105A0000D4755B1C062B9FDB2868024600F5C0405E
:105A100090F8EA31012B05D090F8E31149B180F8F4
:105A2000EF410AE080F8E31180F8EF1180F8F011FF
:105A300009E090F8EF11012900D1947690F8F00177
:105A4000012800D1D47500F01BF9286846F2102116
:105A5000095C012900D10476C17D012912D0017EA3
:105A600001290FD0417E01290CD0017F012909D0E5
:105A700001F094F82868827E012A06D0817C0129F1
:105A800003D003E00475C474F4E74475C17E0129B2
:105A900000D18475C67C817C037D447D41EA46014A
:105AA000C57D067E41EA8301477E41EAC40141EAA1
:105AB000051190F81CC041EA4611038A41EA87119A
:105AC00041EAC21141EA0C21C1810B430382002249
:105AD000114602EBC10303EB4121521C00EBC10153
:105AE000062A91F8444091F8433091F8455091F8D6
:105AF000466043EA440391F8477091F848C043EA8E
:105B0000850343EAC6038C8F43EA071343EA4C1329
:105B10004B8744EA03048C87DADBBDE8F0810000A0
:105B2000000000205548012210B50021D0F80030B7
:105B300001EBC10000EB412003EBC00090ED2A0B0C
:105B400090ED3E1BB4EEC10BF1EE10FA06D390EDD2
:105B5000401BB4EEC10BF1EE10FA01DD80F84620D7
:105B600090ED220BB5EEC00BF1EE10FA01DD012431
:105B700000E00024B5EEC00B01EE104AF1EE10FA81
:105B8000B8EE413B01D2012400E0002402EE104AAD
:105B900090ED501BB8EE422B10EE023BB4EEC13B31
:105BA000F1EE10FA1BDDB5EEC00BF1EE10FA01DDDF
:105BB000012400E00024B5EEC00B02EE104AF1EE25
:105BC00010FAB8EE422B01D2012400E0002400EECE
:105BD000104AB8EE400B11EE002B80ED222B90ED19
:105BE0001C0B90ED321BB4EEC10BF1EE10FA06D394
:105BF00090ED341BB4EEC10BF1EE10FA01DD80F82C
:105C0000432090ED1E0B90ED361BB4EEC10BF1EE70
:105C100010FA06D390ED381BB4EEC10BF1EE10FA7A
:105C200001DD80F8442090ED200B90ED3A1BB4EE9E
:105C3000C10BF1EE10FA06D390ED3C1BB4EEC10B94
:105C4000F1EE10FA01DD80F8452000F5406490ED9A
:105C5000461B94EDE80BB4EEC10BF1EE10FA06D33F
:105C600090ED481BB4EEC10BF1EE10FA01DD80F8A7
:105C70004720491C0629FFF65BAF10BD000000203D
:105C800070B50D4C0025206890F82A00012810D12D
:105C900002F080FA68B120684FF4FA62C16A491CC8
:105CA000C162914203D9C2620121017770BD0577BB
:105CB00070BD2068C56270BD000000201349C30795
:105CC0004FF00102096801D081F84020830702D516
:105CD00041F288035A54430702D542F2D0035A5482
:105CE000030702D543F218135A54C30602D544F2EF
:105CF00060135A54830602D545F2A8135A5440063D
:105D000003D501F5C04181F8EC2170470000002067
:105D100030B4384C00204FEA000322689074D074ED
:105D2000107550759075D075107650769076D07647
:105D3000D0621077D081108203EBC30101EB4321C5
:105D40005B1C02EBC101062B81F8490081F84A0077
:105D500081F8460081F8480081F8430081F844004A
:105D600081F8450081F8470081F8350081F8360058
:105D700081F8370081F8380048878887DCDB2268A3
:105D8000114602F5F27202F5C042D072107302F8A9
:105D9000010C1070508090800A46002101EB4103F5
:105DA00003EBC103491C02EBC30303F5C0431529F0
:105DB00083F8F006C3F8EC06F0DBD4F800300021DD
:105DC00001EB410202EBC102491C03EBC20202F5E6
:105DD000C0420B2982F82803C2F82403F0DB2168B3
:105DE00001F5047101F5C04108704860886030BC5D
:105DF000FFF79ABD000000202DE9F04F3348202125
:105E00000668012540F2DF192C4646F001062B46B4
:105E10000A46066003274FF0A90AAC464FEA05067A
:105E2000D0F800805FEA4878FAD51B06DFF89C803E
:105E300043EA0443DFF898B034060E0144EA07440D
:105E400043EA4521214D44EA4C23DFF880C046EA6D
:105E500002371E4A0CF1280C383248241835CCF889
:105E6000007041EA090143EA0A0308F130084FF4DF
:105E700088664FF0400C2F1DC8F8001007F1040889
:105E800013602C603E60C8F800C0DBF8002042F0D0
:105E90003702CBF80020016841F080710160016891
:105EA0008901FCD5016841F0806101600168090148
:105EB000FCD506481030016841F00301016001681B
:105EC000C1F3C2010329FAD1BDE8F08F00440258A2
:105ED0000020005270B53A4C3A4D206820F0010085
:105EE0002060686920F002006861206820F480402A
:105EF000206002F0FFF8FFF717FD00F067F8324E60
:105F000030684079052808D001281FD0042824D003
:105F100002282DD0032832D037E0206840F480409A
:105F2000206001F011FB06F041FC02F03BFE3068FE
:105F300000214172007D012827D10024204600F075
:105F40003FFD641CE4B2062CF8D31EE0206840F04C
:105F50000100206000F06EFA17E0206840F00100B8
:105F60002060686940F00200686100F045FD0CE0C7
:105F7000686940F00200686100F0E4F905E06869D2
:105F800040F00200686100F007FCFFF7CBFDFFF76F
:105F9000CBFC01F081F93068012100F5C04080F8A8
:105FA000381300F003FE00F033FE02F0CBF8FEF7EA
:105FB00011FBFDF7ABFDBDE8704001F0A7BC000090
:105FC0001404025800100258000000202DE9F0418E
:105FD000414D01242DED028B2868017D012937D028
:105FE000417D012934D0002180F8071000F07AF8B3
:105FF00001F05EFA29680523C87901282AD00A7AB7
:106000002846012A29D04A7A04259FED348B012A9B
:1060100026D08A7A0226012A3ED0CA7A0327012A8C
:1060200058D00A79052A16D0012A17D0042A18D088
:10603000022A32D0032A07D149790446032901D024
:1060400002F0B0FD20684771BDEC028BBDE8F08125
:10605000C471CBE70B714B71F6E70C714C71F3E730
:106060000D7104464979042913D002F09BFD226882
:106070000021084601EBC00303EB4020491C02EB62
:10608000C000062980ED1C8B80ED1E8B80ED208BDF
:10609000EFDB20684571D7E70E7104464979022984
:1060A00015D002F07FFD22680020014600EBC103FD
:1060B00003EB4121401C02EBC101062891ED240BAA
:1060C00081ED1E8B81ED208B81ED1C0BEDDB2068BB
:1060D0004671B9E70F71AFE7000000200000000033
:1060E000000000002DE9F041954C00260222012518
:1060F000206800F5C041867191F8EA31012B05D185
:1061000081F8ED5181F8E22181F8EE515FF0000154
:1061100001EBC10303EB412300EBC30393F83E7093
:10612000012F07D183F8415083F8342083F842507F
:1061300083F83150491C0629EADB2068012300F569
:10614000C04191F8EE71012F00D0002391F8E211C7
:1061500001291BD0D1B1002101EBC10707EB412C74
:1061600000EBCC0797F842C0BCF1010F00D0002330
:1061700097F83470012F0BD057B1491CC9B20629CA
:10618000EAD34FF003072BB1857106E00023E2E765
:106190000023F2E7817901292DD1002101EBC10310
:1061A00003EB412300EBC30393F83EC0BCF1010FA6
:1061B00001D183F84C50491C0629EFDBD4F80000CC
:1061C0000123002101EBC10C0CEB412C00EBCC0CAA
:1061D0009CF84CC0BCF1000F00D10023491C0629DB
:1061E000F0DB43B14179012901D0052901D1827148
:1061F00004E087710CE08079022802D101F0CAFF27
:1062000020B120688079032802D02DE02068F0E7D3
:106210002168002000EBC00202EB402201EBC20229
:1062200092F83E30012B01D182F84B60401C0628C9
:10623000F0DB22680121002000EBC00303EB4027C4
:1062400002EBC70393F84B70012F05D003F5805381
:1062500093F82830012B00D10021401C0628EBDBED
:1062600011B10420907103E020688079042801D1E5
:1062700001F09AFF206800F5C04191F8EE21012A53
:106280000DD191F8E211022905D0032903D001298B
:1062900005D021B107E0817F21F0400102E0817F3C
:1062A00041F040018177002101EBC10202EB412363
:1062B00000EBC30292F84C30012B19D192F8423016
:1062C000012B15D192F83430022B01D0032B02D1CF
:1062D00092F84B403CB1012B0AD04BB192F84B20C5
:1062E000012A05D009E0827F05FA01F39A4303E011
:1062F000827F05FA01F31A438277491CC9B2062945
:10630000D2D3C17F19B9417F21F00101417790F8C3
:10631000201019B9417F21F00201417790F8211036
:1063200019B9417F21F004014177817F467711B986
:106330008179042902D00572BDE8F0810672FBE77D
:106340000000002070B5354D5FF0000404EBC40080
:1063500000EB4420296801EBC00090F834000328CA
:1063600002D0204600F018FB641CE4B2062CEDD3EA
:10637000286800F5C04090F8E201032801D000F041
:10638000FDFA2748002290F8BA10012902D0052909
:1063900015D01CE0B0F8F011B0F8B0434B1EA0F8D7
:1063A000C2106343C0E97D321E4801F00FF91D4859
:1063B000903001F00BF91C4801F008F907E090F863
:1063C000B810022926D080F8B92080F8BA2000F051
:1063D00041FA02F01DFF02F09BF82A6800209FEDB1
:1063E000131B014600EBC10303EB4121401C02EBF0
:1063F000C10101F5805301F5406493ED080B94ED64
:10640000DE2B062830EE020B20EE010B81ED220B75
:10641000E7DB70BD012180F8BA10D8E7000000204A
:10642000000001240002012420030124CDCCCCCCA7
:10643000CCCCF43F10B501F087F806F0B7F902F0C4
:10644000B1FB1B4B00219FED1B0B186841720A46E4
:1064500001EBC20404EB4222491C00EBC2020629F4
:1064600082ED220BF3DB1868807948B101280BD04C
:1064700002280DD003281AD1BDE8104000F0C2B8A0
:10648000BDE8104000F036B9BDE8104000F016B885
:106490000024204602F038FD204600F091FA641CEA
:1064A000E4B2062CF5D3BDE8104001F089BE10BD62
:1064B00000000020000000000000000070B5504CFB
:1064C0005FF0000505EBC50000EB4520216801EBFE
:1064D000C00101F5805090F828205AB991F84C205D
:1064E00042B991ED240B90ED1C1B284630EE010BB8
:1064F00002F0DEFC6D1CEDB2062DE3D35FF000056B
:10650000216805EBC50000EB452001EBC00041F21E
:106510002801095C012905D190F84C0010B92846E2
:1065200000F03AFA6D1CEDB2062DE9D300F0C4F983
:1065300002F06EFE01F0AAFF21680020431C00EB70
:10654000C00202EB402001EBC002D8B202F540636A
:1065500002F5805593EDDE0B95ED121B062830EE0B
:10656000010B82ED220BE9D3D4F800300125002283
:1065700002EBC20000EB422003EBC00000F58051AB
:1065800091F82860012E21D191ED100BB5EEC00BD2
:10659000F1EE10FA0AD290ED241B91ED1A2BB4EE15
:1065A000C21BF1EE10FA01D280F84C50B5EEC00BD0
:1065B000F1EE10FA0ADD90ED240B91ED1A1BB4EE0A
:1065C000C10BF1EE10FA01DD80F84C50521C062A86
:1065D000CEDB0025216805EBC50000EB452001EB73
:1065E000C00090F84C00012805D1284602F08CFC30
:1065F000284600F0E5F96D1CEDB2062DEAD370BD1A
:106600000000002070B53A4D5FF000042DED028BC4
:106610009FED358B04EBC400296800EB442001EBAF
:10662000C00041F22801095C41B990F84B000128F3
:1066300004D1B0EE480B204602F03AFC641CE4B2F0
:10664000062CE7D35FF00004286804EBC40101EBDB
:10665000442100EBC10000F5805090F8280001288B
:1066600002D1204600F098F9641CE4B2062CEBD36A
:1066700000F022F902F0CCFD01F008FF2A680020AA
:10668000431C00EBC00101EB402002EBC001D8B27B
:1066900001F5406301F5805493EDDE1B94ED120B80
:1066A000062831EE000B81ED220BE9D35FF00004E8
:1066B000296804EBC40000EB442001EBC00090F813
:1066C0004B1049B990F83400032805D1204602F058
:1066D0001BFC204600F074F9641CE4B2062CE7D3DE
:1066E000BDEC028B70BD0000000000000000000047
:1066F000000000202DE9F041264D002701262868E2
:1067000000F5C04090F8E21180F8E11190F8ED2119
:106710009AB1012A11D1012902D0022908D00CE036
:1067200080F8EE71022180F8E11180F8906304E0B6
:1067300090F8EE1109B980F8E8630024296804EBA9
:10674000C40000EB442001EBC00090F8342080F836
:10675000332090F84120BAB1012A15D190F83420A5
:10676000012A02D0022A06D00EE080F842702046AC
:1067700000F026F908E090F842202AB901F5C0415E
:1067800080F8306081F8E863641CE4B2062CD5D34D
:10679000BDE8F0810000002070B52A4D5FF00004D4
:1067A00004EBC40000EB4420296801EBC00090F822
:1067B0003400032802D0204600F0EEF8641CE4B256
:1067C000062CEDD3286800F5C04090F8E2010328BC
:1067D00001D000F0D3F81C48D0E97D21491CC0F855
:1067E000F811914203D3042180F8B91070BD00F074
:1067F00001FF00F081F802F00BFD01F089FE01F0CD
:10680000EBFC2A6800219FED111B084601EBC00339
:1068100003EB4020491C02EBC00000F5805300F55B
:10682000406493ED080B94EDDE3B90ED522B06296E
:1068300030EE030B30EE020B20EE010B80ED220B4D
:10684000E3DB70BD0000002000000124CDCCCCCCE7
:10685000CCCCF43F154A002110B59FED150B136801
:10686000084601EBC00404EB4020491C03EBC000C8
:10687000062990ED241B00F5406080EDD81B80EDCB
:10688000DA0B80EDDC0BEBDB12680020014600EB3D
:10689000C10303EB4121401C02EBC101062881ED3D
:1068A0001E0B81ED200BF1DB10BD0000000000206D
:1068B00000000000000000000E4800219FED0B0BBF
:1068C0000268084601EBC00303EB4020491C02EBC1
:1068D000C000062990ED241B00F5406080EDD81B18
:1068E00080EDDA0B80EDDC0BEBDB70470000000085
:1068F000000000000000002030B51E4C00201E49A2
:10690000D4F8005000EBC00202EB402201EBC003C0
:1069100005EBC20203F5803392ED240B02F54062D1
:10692000401C82EDD80B93EDB00B062882EDDA0BFC
:1069300093EDBC0B82EDDC0BE4DBD4F800400020CF
:1069400000EBC00301EBC00203EB402302F58032F1
:1069500004EBC30392EDA40B401C83ED1C0B92EDE2
:10696000B00B062883ED1E0B92EDBC0B83ED200BC4
:10697000E6DB30BD000000200000002405480322B3
:106980000121006800F5C04080F8E12180F89013F3
:106990007047000000000020084900EBC00303EB33
:1069A000402303220120096801EBC30301F5C04124
:1069B00083F8332081F89003704700000000002026
:1069C0000A4900EBC00303EB402002229FED080BB5
