:020000040800F2
:10000000D0910120950300089D0300089F0300087C
:10001000A1030008A3030008A503000800000000D6
:10002000000000000000000000000000A70300081E
:10003000A903000800000000AB030008813F000096
:10004000AF030008AF030008AF030008AF030008C8
:10005000AF030008AF030008AF030008AF030008B8
:10006000AF030008AF030008AF030008250600082F
:1000700041060008AF030008AF030008AF03000803
:10008000AF030008AF030008AF030008CD23000052
:10009000AF030008F5230000AF030008AF0300081A
:1000A000AF030008AF030008AF030008AF03000868
:1000B000AF030008AF030008AF030008AF03000858
:1000C000AF030008AF030008AF030008AF03000848
:1000D000AF030008AF0300086D180008951800086A
:1000E000AF030008AF03000800000000AF030008E2
:1000F00035180008AF030008AF030008AF0300087D
:10010000AF030008AF030008AF030008AF03000807
:10011000AF030008AF0300080D180008913F00006E
:10012000AF030008AF030008AF030008AF030008E7
:10013000AF030008AF030008AF030008AF030008D7
:10014000AF030008AF03000800000000000000003B
:10015000AF030008AF030008AF030008AF030008B7
:10016000AF030008AF030008AF030008AF030008A7
:10017000AF030008AF030008AF0300080000000051
:10018000AF030008AF030008AF030008AF03000887
:10019000AF030008AF030008AF030008AF03000877
:1001A000AF030008AF030008AF030008AF03000867
:1001B000AF030008AF030008AF030008AF03000857
:1001C000AF030008AF030008AF030008AF03000847
:1001D000AF030008AF030008AF030008AF03000837
:1001E000AF030008AF030008AF030008AF03000827
:1001F000AF030008AF030008AF030008AF03000817
:10020000AF030008AF030008AF030008AF03000806
:10021000AF030008AF030008AF030008AF030008F6
:10022000AF030008AF030008AF03000800000000A0
:10023000AF030008AF030008AF030008AF030008D6
:10024000AF030008AF030008AF030008AF030008C6
:10025000AF030008AF030008AF030008AF030008B6
:10026000AF030008AF030008AF030008AF030008A6
:10027000AF030008AF030008AF030008AF03000896
:10028000AF030008AF030008AF0300080000000040
:10029000AF030008AF03000800F002F800F06AF8AE
:1002A0000AA090E8000C82448344AAF10107DA45D1
:1002B00001D100F05FF8AFF2090EBAE80F0013F0B9
:1002C000010F18BFFB1A43F0010318471C1E000062
:1002D0006C1E00000A444FF0000C10F8013B13F0B4
:1002E000070408BF10F8014B1D1108BF10F8015B8F
:1002F000641E05D010F8016B641E01F8016BF9D182
:1003000013F0080F1EBF10F8014BAD1C0C1B09D1D8
:100310006D1E58BF01F801CBFAD505E014F8016B4A
:1003200001F8016B6D1EF9D59142D6D370470000DC
:10033000103A24BF78C878C1FAD8520724BF30C811
:1003400030C144BF04680C607047000000230024E3
:1003500000250026103A28BF78C1FBD8520728BFD5
:1003600030C148BF0B6070471FB501F028FE1FBDAC
:1003700010B510BD00F076F81146FFF7F5FF01F05B
:100380001BFE00F094F803B4FFF7F2FF03BC00F08B
:1003900097F800000948804709480047FEE7FEE754
:1003A000FEE7FEE7FEE7FEE7FEE7FEE7FEE7FEE725
:1003B00004480549054A064B704700000D17000820
:1003C00099020008D0920020D0910120D0A10020F5
:1003D000D0A1002010B5203AC0F00B80B1E8185031
:1003E000203AA0E81850B1E81850A0E81850BFF41F
:1003F000F5AF5FEA027C24BFB1E81850A0E81850BE
:1004000044BF18C918C0BDE810405FEA827C24BF11
:1004100051F8043B40F8043B08BF7047D20728BF9F
:1004200031F8023B48BF11F8012B28BF20F8023BEE
:1004300048BF00F8012B704770477047704710B5F0
:1004400000F008F8006810BD10B5044600F002F88E
:10045000046010BD0048704770920020004870474B
:10046000709200207546FFF7F9FFAE460500694619
:10047000534620F00700854618B020B5FFF798FFD7
:10048000BDE820404FF000064FF000074FF0000895
:100490004FF0000B21F00701AC46ACE8C009ACE816
:1004A000C009ACE8C009ACE8C0098D46704710B57A
:1004B0000446AFF300802046BDE81040FFF763BF5D
:1004C00001491820ABBEFEE726000200704743F248
:1004D000BD0CC0F2000C604742F2756CC0F2000C1B
:1004E000604742F23D3CC0F2000C604741F2D15CF3
:1004F000C0F2000C604741F27D5CC0F2000C604726
:1005000042F6A52CC0F2000C604741F6D93CC0F27F
:10051000000C604742F21D7CC0F2000C604742F2C2
:10052000151CC0F2000C6047144930B54EF660252A
:100530004C69002312492C1B124AA4B2A1F8A24C08
:10054000C578807805EB002080B2A1F8A40C844225
:1005500006D381F89D3C106820F00100106030BD8A
:1005600008480124074D001D81F89D4C18352B606B
:10057000016821F001010160146030BD00000240FB
:1005800000D001300C1C004000231A4601E08354C7
:10059000521C8A42FBD37047F0B5044641F2210554
:1005A00000204FF6FF76034610E0E25C80EA02206E
:1005B0000022070403D585EA400080B201E006EA84
:1005C0004000521CD2B2082AF3D35B1C8B42ECD3FE
:1005D000F0BD00000848D0F8A81C491CC0F8A81CB1
:1005E000642904D96422C0F8A82C012100E000216C
:1005F00080F8AC1C7047000000D0013008484EF66F
:100600006021026922F001020261826842F0200248
:1006100082604161016941F00101016170470000A0
:100620000000024010B5054C2068800605D5FFF794
:10063000E5FFA06840F02000A06010BD000002406F
:100640000B480168090512D50A49002291F8A63C19
:10065000A1F5E831C3EB831301EB031303F5E83392
:1006600083F8AD280A70816841F4006181607047A9
:100670000000024000D00130AFF300800C480021A0
:10068000012304220068883000F5C0404370817067
:100690000270C1700171C180018181720173417367
:1006A0008173C173017441748174C1747047000017
:1006B000000000200648002110B580F8AC1805495C
:1006C000C0F8981C00F0BEFFBDE8104000F084BFE9
:1006D00000D00130D90600082DE9F041C44C9B221E
:1006E000032004F57C75002322701F226070A37024
:1006F000E370A9782171297861716978A171A9885D
:10070000BC48BD4B090AE17129792172016801F5E4
:10071000C0404E7966728E89360AA6720E7BE672EA
:10072000CE89360A26738E7B66738E7EA673CE7E46
:10073000E6731E4603F5C65303F5D023B678267438
:100740001E68360E66741E68360CA6741E88360A3D
:10075000E6741B782375C97A617590F8B810A17595
:10076000D0F8BC10090EE175D0F8BC10090C217648
:10077000B0F8BC10090A617690F8BC10A176D0F8E8
:10078000C010090EE176D0F8C010A5F69E45090C00
:100790002177B0F8C010090A617790F8C0000023F3
:1007A000A077944803EB0321066806EB011696F840
:1007B0002C60A6540668521CD2B206EB011696F8BD
:1007C0002D60A6540668521CD2B206EB011696F8AC
:1007D0002E60A6540668521CD2B206EB011696F89B
:1007E0002F60A6540668521CD2B206EB011696F88A
:1007F0003060A6540668521CD2B206EB0116768E03
:10080000360AA6540668521CD2B206EB011696F8B8
:100810003260A6540668521CD2B206EB0116B68EA0
:10082000360AA6540668521CD2B206EB011696F898
:100830003460A6540668521CD2B206EB0116571C4F
:1008400096ED220BB7EEC00B10EE106A360EA654D2
:1008500010EE106AFAB2571C360CA65410EE102A8D
:10086000FEB2771C4FEA122C10EE102A04F806C0D4
:10087000FEB25B1CA2550268761C02EB0117F2B2B5
:1008800097ED240B571CB7EEC00B10EE106A360E16
:10089000A65410EE106AFAB2571C360CA65410EE8D
:1008A000102AFEB2771C4FEA122C04F806C0FEB2E2
:1008B00010EE102AA2550268761C02EB0117F2B264
:1008C00097ED280B571CB7EEC00B10EE106A360ED2
:1008D000A65410EE106AFAB2571CFFB2360CA6549A
:1008E00010EE102A7E1CF6B24FEA122C10EE102ADF
:1008F00004F807C0A2550268761C02EB011191EDC5
:100900002A0BF1B24E1CBCEEC00B062B10EE102AC7
:100910006254F2B2FFF646AF0368511CC9B203F548
:10092000C04393F88A30A35402684B1C02F5C042BE
:1009300092F8992062540268D9B24B1C02F5C04269
:1009400092F89A206254D9B203684A1C03F5C04356
:1009500093F89B306354D1B202684B1C02F5C0423D
:1009600092F88B206254D9B203684A1C03F5C04345
:1009700093F88C306354D1B202684B1C02F5C0422C
:10098000B2F88E20120A6254D9B203684A1C03F5E9
:10099000C04393F88E306354D1B202684B1C02F509
:1009A000C042B2F89020120A62540268D9B2481CC0
:1009B00002F5C042C7B2BE1C92F890206254300AC1
:1009C000A07039462046E670FFF7E6FD020A0146B0
:1009D000781CE255C2B201260023A15485F8AD6807
:1009E000501C85F8960C85F8AC38BDE8F081000005
:1009F000AED8013000000020000000242DE9F047AF
:100A0000634E0446B6F8A45CA91EFFF7C5FD611944
:100A1000042511F8012C11F8021C02EB012189B206
:100A200088427DD15B484FF00009C6F8A89C01219F
:100A300086F89F1C4946036801EB4102002003EB46
:100A40000218665D6A1C95B26A1C360614F805C069
:100A500095B26A1C92B2655D06EB0C4608EBC007C6
:100A600014F802C007F5D84706EB052505EB0C0680
:100A700000EE106A401C02F10102B7EEC00A95B206
:100A8000062887ED080BDCDB491C0729D4DB002294
:100A900002EB820000EBC201002003EBC10114F85D
:100AA00005806E1CB6B2751C4FEA086814F806C0C3
:100AB000AEB2751CADB2A65D08EB0C4C01EBC007E5
:100AC00014F8058007F5D8470CEB0626464400EEDF
:100AD000106A401C05F10105B7EEC00AADB2062848
:100AE00087ED5C0BDBDB0020665D05F1010C1FFA76
:100AF0008CFC0CF101054FEA0668AEB214F80CC08C
:100B0000751CADB2A65D01EBC007401C08EB0C4C98
:100B100014F80580062807F5D8470CEB062600E0F8
:100B200030E0464400EE106A05F10105ADB2B7EEC3
:100B3000C00A87ED6A0BD7DB681C655D80B2461C76
:100B40002D06275CB0B200F1010601F5D84114F87A
:100B500000C0B0B205EB0745521C265C05EB0C2526
:100B600000F101002E4400EE106A85B2072AB7EEAC
:100B7000C00A81ED680B8BDB83F81E90BDE8F0475F
:100B8000FFF7A5BC042086F89E0CBDE8F0870000A6
:100B900000D00130000000202DE9F047274D044629
:100BA000B5F8A46CB11EFFF7F7FCA119042211F8E7
:100BB000013C11F8021C03EB012189B2884238D1B3
:100BC0001F484FF00009C5F8A89C012185F89F1C1B
:100BD0004946036801EB0125052003EB0518A65CD7
:100BE000551CADB26A1C360614F805C095B26A1CD5
:100BF00092B2655D06EB0C4608EBC00714F802C024
:100C000007F5406706EB0525654400EE105A02F132
:100C1000010292B2B7EEC00A401E87EDC60BDED5C8
:100C2000491C0629D6DB83F80B9083F81C90BDE89D
:100C3000F087042085F89E0CF9E7000000D0013011
:100C4000000000202DE9F05F524E0446B6F8A45C87
:100C5000A91EFFF7A1FC6119042511F8012C11F858
:100C6000021C02EB012189B288427DD1DFF828B154
:100C70000021C6F8A81C4FF0010E86F89FEC0A462A
:100C8000DBF800A002EB022100200AEB0113675DF4
:100C9000691C89B24D1C3F0614F801C0A9B201F1CC
:100CA000010503EBC00614F80180A9B207EB0C475D
:100CB000401C655C07EB082701F101012F4400EEA1
:100CC000107A8DB21428B7EEC00A86ED560BDEDB23
:100CD0000020675D691C89B24D1C3F0614F801C0F5
:100CE000A9B201F1010503EBC00614F80180A9B215
:100CF00007EB0C47401C655C07EB082701F101017D
:100D00002F4400EE107A8DB21428B7EEC00A86ED9B
:100D10007E0BDEDB5FF00001002001EB810603EBC0
:100D2000461914F805806E1CB6B2751C4FEA0868A7
:100D3000A75DAEB206F10105ADB2A65D08EB0747AF
:100D400009EBC00C14F80580401C07EB062646444E
:100D500000EE106A05F10105ADB2B7EEC00A142825
:100D60008CEDA60BDDDB00E00FE0491C1429D3DB82
:100D7000521C062A86DB5C468AF80BE0FFF7ACFBC8
:100D8000216800200877BDE8F09F042086F89E0CBB
:100D9000F9E7000000D00130000000202DE9F0410B
:100DA000624D0446B5F8A46CB11EFFF7F5FBA2191D
:100DB000042112F8013C12F8022C03EB022292B239
:100DC00090427DD10026C5F8A86C012085F89F0CC3
:100DD000574832460368481C85B2675C681C02EBC2
:100DE000022114F805E085B203EB0110691C89B2F9
:100DF00014F805C03F0607EB0E45675C05EB0C25B4
:100E0000491C3D4400EE105A89B200F54060B7EE2F
:100E1000C00A01F10107521C062A80EDDA0B655C5D
:100E2000B9B201F1010714F801C0B9B24FEA056780
:100E300001F1010514F801E0A9B207EB0C45675C6C
:100E400005EB0E2501F101013D4400EE105A89B277
:100E500001F10107B7EEC00A80EDDC0B655CB9B2A9
:100E600001F1010C675C1FFA8CF101F1010E4FEAF0
:100E7000056514F801C01FFA8EF105EB0745675CA4
:100E800005EB0C2501F101013D4400EE105A89B239
:100E900001F10105B7EEC00A80EDDE0B675CA9B277
:100EA00001F10105ADB214F801C005F1010189B2EB
:100EB0004FEA0767655D07EB0C4714F801C000E0D7
:100EC00030E007EB0525654400EE105A01F1010101
:100ED00089B2B7EEC00A01F1010780EDF80B655C3D
:100EE000B9B201F1010C675C1FFA8CF101F1010E3E
:100EF0004FEA056514F801C01FFA8EF105EB0745AE
:100F0000675C05EB0C2501F101013D4400EE105A30
:100F100089B2B7EEC00A80EDFA0BFFF65CAF5E77E0
:100F2000BDE8F081042085F89E0CF9E700D001307F
:100F3000000000202DE9F041244D0446B5F8A46CD2
:100F4000B11EFFF729FBA11911F8012C11F8021CA1
:100F500002EB012189B2884233D10020C5F8A80CE8
:100F60001B48012185F89F1C43F26603227944F255
:100F7000760645F28607016802F0010042F2560249
:100F800081F8360041F246002579C5F34005455405
:100F90002079C0F3800050542079C0F3C000585429
:100FA0002079C0F3001070542079C0F340107854B9
:100FB000207901F5C041C0F3801081F89200BDE8AE
:100FC000F081042085F89E0CF9E7000000D0013084
:100FD000000000202DE9F05F6F4F0446B7F8A49C95
:100FE000A9F10201FFF7D8FA04EB090111F8012C6D
:100FF00011F8021C02EB012189B2884273D1002052
:10100000C7F8A80C2421A079A9F10E09257999FB2C
:10101000F1F34FEA002AE6794FEA052994F80A80AD
:1010200094F808C006EB0A056079E17A2E04627A2A
:10103000484401EB08214FF00C0502EB0C221FFA8B
:1010400080FB1FFA82F81FFA81FA1FFA83F9360C27
:1010500001D1FFF746FA514A022142F6E063B2F8A5
:1010600038C10CEB0900984203D987F89F1CBDE8F2
:10107000F09F642E02D8B8F1640F01D903201CE060
:1010800046B1D088301A00B2012801D1464501D3BB
:10109000042012E0BAF1000F0ED0414B012087F876
:1010A0009F0CA8F1010C1F68664587F480471F60FC
:1010B00006D11170507004E0052087F89F0CD6E728
:1010C00010703649A2F804B00C31D680A2F808801E
:1010D000A2F83AA17054D08802EB4001A1F87090B8
:1010E000B2F8383148E053E003EBC30002EB800173
:1010F0000020665D6D1C01EB4007ADB23602A7F81B
:101100003C61401C14F8058080B205F1010C1FFA07
:101110008CF506284644A7F83C61EAD30020665DBA
:101120006D1C01EB4007ADB23602A7F84861401CC8
:1011300014F8058080B205F1010C1FFA8CF5062821
:101140004644A7F84861EAD30020665D6D1C01EBB8
:101150004007ADB23602A7F85461401C14F8058070
:1011600080B205F1010C1FFA8CF506284644A7F859
:101170005461EAD35B1C9BB2B2F8381101EB090051
:101180009842B1D889B201EB0900A2F838016EE7A4
:10119000042087F89E0C6AE700D00130000000248C
:1011A000140402582DE9F047D94C012794F8AD0CEE
:1011B00038B1A4F5E835002615F8010F9B2804D0B6
:1011C0002EE084F8AD7CBDE8F087687801281DD05A
:1011D00002281BD0042819D0052817D0062815D0BE
:1011E000072813D0082811D009280FD00A280DD0BD
:1011F0000B280BD00C2809D00D2807D00E2805D0BD
:101200000F2803D0102801D011280BD12846FFF752
:101210008BF994F89D0C0128D5D028789B2801D013
:10122000022029E084F89E7C4FF00408687884F856
:10123000A00C012825D0022842D0042857D0052828
:1012400059D0DFF8D092062859D007287DD0082839
:101250007FD0092870D00A286FD00B286ED00C28B8
:101260006DD00D286CD00E286BD00F286AD01028B6
:1012700069D0112868D0032084F8A06C84F89E0CF3
:101280003DE1B4F8A49C2846A9F10201FFF784F9D6
:1012900005EB090111F8012C11F8021C02EB0121E8
:1012A00089B2884271D1C4F8A86C84F89F7C2879EF
:1012B000012801D1FFF71AF96879FFF71CF91EE13F
:1012C000B4F8A49C2846A9F10201FFF765F905EBE3
:1012D000090111F8012C11F8021C02EB012189B25D
:1012E000884252D1C4F8A86C84F89F7C07E1284654
:1012F000FFF770FE03E12846FFF7A4FCFFE0B4F817
:10130000A4AC2846AAF10201FFF746F905EB0A0151
:1013100011F8012C11F8021C02EB012189B288425C
:1013200033D1C4F8A86CC84684F89F7CD9F8000073
:10133000C772B9E009E00CE028E02BE048E061E08A
:101340007AE093E096E0B6E0B9E02846FFF726FDA4
:10135000D5E0B4F8A4AC2846AAF10201FFF71CF9C5
:1013600005EB0A0111F8012C11F8021C02EB012116
:1013700089B2884209D1C4F8A86C84F89F7CFFF731
:10138000BFF8D9F800004677B9E093E02846FFF7A8
:1013900035FBB4E0B4F8A4AC2846AAF10201FFF78B
:1013A000FBF805EB0A0111F8012C11F8021C02EB05
:1013B000012189B288427DD1C4F8A86C84F89F7C51
:1013C000FFF7A3F8D9F800008677FFF780F896E0DA
:1013D000B4F8A49C2846A9F10201FFF7DDF805EB5B
:1013E000090111F8012C11F8021C02EB012189B24C
:1013F00088425FD14849C4F8A86C84F89F7C28795A
:1014000048707CE0B4F8A4AC2846AAF10201FFF7CA
:10141000C3F805EB0A0111F8012C11F8021C02EBCC
:10142000012189B2884268D1C4F8A86C84F89F7CF5
:10143000D9F80000077262E0B4F8A4AC2846AAF11B
:101440000201FFF7A9F805EB0A0111F8012C11F8C8
:10145000021C02EB012189B288424ED1C4F8A86C6B
:1014600084F89F7CD9F80000067248E02846FFF710
:1014700093FB44E0B4F8A4AC2846AAF10201FFF7BC
:101480008BF805EB0A0111F8012C11F8021C02EB94
:10149000012189B2884230D1C4F8A86CC84684F8CA
:1014A0009F7CD9F80000C672FFF734F8D8F8000026
:1014B000067724E021E02846FFF73CFD1FE0B4F862
:1014C000A4AC2846AAF10201FFF766F805EB0A0171
:1014D00011F8012C11F8021C02EB012189B288429B
:1014E0000BD1C4F8A86C84F89F7CD9F80000297946
:1014F00000F5C04080F8981001E084F89E8C4EF60C
:1015000060212846FFF740F8BDE8F047FFF776B8BE
:1015100000D0013000000020000000242B482DE9FD
:10152000F047017800294ED100F5EC378946AC37F9
:10153000804600F5E8344E4694F8A60C401C10F0A6
:10154000FF0084F8A60C01D084F8A69C3D463878AC
:10155000012834D1D5F8EC03804795F8EA131C48EC
:10156000FFF712F80020424608E02918131803F587
:10157000E8338978401CC0B283F8C11495F8EA13A7
:101580008142F2D813480221826A22F0010282626B
:1015900095F8EA23C262826A42F0010282626970AF
:1015A000012184F89C9C84F89D9C84F89E9C84F87E
:1015B0009F9C84F8A09CA4F8A29CA4F8A41C761C70
:1015C00016F0FF06B8D0BDE8F0870000000000303C
:1015D000C1D40130000002402DE9F041174CEF2545
:1015E0002168002021F0010249F63F41226060623B
:1015F000A562E162E06840F00100E060362000F0A2
:1016000075F90F48216841F287330D4ADFF830C081
:1016100041F0010118322160161D0127ACF1100CB8
:1016200015603360CCF80070016821F001010160A1
:10163000BDE8F0412C2000F059B900000010004036
:10164000101C00402A492DE9F041086820F4702060
:1016500008600B68264A264843F420230C320B60AE
:10166000243000251168234C234B41F4A026234944
:10167000166002682D27DFF888C04EF66026DFF876
:1016800084E042F0770202602561A361E161666156
:10169000CCF80070206940EA0E0020610B2000F0B9
:1016A00025F915492E23164E4FF47A721648091D56
:1016B000361DA562134D2163C13D6063E262336054
:1016C000A06A2843A0620C2000F010F90A49C02249
:1016D000094D1D24183940F211400B1F243D0860AC
:1016E0001A602C602720BDE8F04100F0FFB8000030
:1016F000000C025800000240244800400100003065
:101700000008024011050300C1D401303548F0B58E
:10171000344903687839344A43F470030360086835
:1017200040F010000860106800F00F00072804D295
:10173000106820F00F00C01D10602C4900202B4CB9
:1017400010340B682A4D43F001030B6020600B68D6
:101750002B400B60136803F00F03072B04D91368A9
:1017600023F00F03DB1D1360204C224A1834224B58
:10177000261D371D20601D4C204D28343060261D4D
:101780003860371D23603B1D35601C1D3A60251DE8
:101790002E1D1860331D22602860326018600B68AF
:1017A0004FF0B042114C23F480230B606034206072
:1017B000D2F8E400124940F48040C2F8E40008681E
:1017C0006FF30F00B0F1005F03D20E490120C1F8A2
:1017D000080143F2D2000C49024B4A03803B0860E7
:1017E0001A60F0BD88ED00E000200052004402586D
:1017F0007FEDF6EA80020101000202020000FF0113
:101800000010005C008000510040005210B5074CF1
:101810002069C00709D00648012180F8AC18FFF7FD
:101820007DFE206920F00100206110BD0010004005
:1018300000D0013070B50B4C2068C00710D0201FBD
:10184000002602680521084D22F001020260AE70F8
:101850002970FEF7D3FE2E70206820F00100206072
:1018600070BD0000101C00409EDC0130074810B520
:101870000068C00609D506480068FFF793FC0348D6
:10188000001D016841F01001016010BD1C440040C2
:1018900024480040084810B50068C0060AD506482C
:1018A00008300068FFF77EFC0348001D016841F026
:1018B0001001016010BD00001C48004003B40198F5
:1018C0004100009850EAC12018BF04204A0D18BFFB
:1018D00040F0010040F2FF72B2EB515F08BF40F0F0
:1018E0000200012808BF052002B07047002809DB6C
:1018F000410900F01F028900012001F1E021904020
:10190000C1F800017047000010B529499FED261B62
:101910002DED020B84B0059820F000408842D8BF1E
:101920009DED040B2DDD2349884209D1049840B96F
:101930004FF00100FEF788FD00F01AFB06B010BD65
:1019400005DB9DED040B30EE000B06B010BD6846C4
:101950009DED040B00F088F810F0030004BF9DED2E
:10196000021B9DED000B0CD001280ED09DED021B3B
:101970009DED000B022810D0012000F0A5FA06B062
:1019800010BD00F0F9F906B010BD9DED021B9DEDF4
:10199000000B012000F098FA01E000F0EDF906B02C
:1019A000B1EE400B10BD0000000000000000000080
:1019B000FB21E93F0000F07F10B529499FED261B70
:1019C0002DED020B84B0059820F000408842DCBF6A
:1019D00000209DED040B2EDD2249884209D1049898
:1019E00040B94FF00100FEF72FFD00F0C1FA06B03C
:1019F00010BD05DB9DED040B30EE000B06B010BDF5
:101A000068469DED040B00F02FF810F003000DD098
:101A1000012814D09DED021B9DED000B022816D06D
:101A200000F0AAF906B0B1EE400B10BD9DED021B0F
:101A30009DED000B012000F047FA06B010BD9DEDB2
:101A4000021B9DED000B00F097F906B010BD0120C0
:101A500000F03AFAE6E70000000000000000000095
:101A6000FB21E93F0000F07F2DE9F14F04462DED09
:101A7000020B2DED048B94B09FED9D0B80ED020BBE
:101A8000199E9D4826F0004585420ADC9DED180B05
:101A9000002084ED000B14B0BDEC048B03B0BDE856
:101AA000F08F96489FED969B9FED978BA84225DD82
:101AB00097489FED991B9FED9A2B9DED180B002EDB
:101AC0000DDD30EE490B854212BF30EE480B30EE93
:101AD000410B30EE420B84ED000B0120DBE730EED2
:101AE000090B854212BF30EE080B30EE010B30EED1
:101AF000020B84ED000B4FF0FF30CCE78A48A84280
:101B000053DB9DED180B51EC100B00F049FA41EC42
:101B1000100BB0EE401B9FED862B9FED870B290D20
:101B2000DFF81CC201EE020B0120FDEEC00B10EE2F
:101B3000903A00EE903AB8EEE02BB0EE410B02EE98
:101B4000490B22EE081BFC44032830EE411B84EDB8
:101B5000001B1DD011EE902A00EB4015113DC2F381
:101B60000A528A1A954213DA0CEB0012B0EE403B8F
:101B700092ED000B401C20EE021B33EE410B33EEC6
:101B8000403B33EE411B92ED023B12EE031BDBE7C1
:101B9000002EA8BF1846BFF67EAF94ED000B58424A
:101BA000B1EE400B84ED000B75E7C6F3130040F473
:101BB000801EC6F30A50A0F2F530471100F01F0551
:101BC000C5F12000DDF860B0139000200890099066
:101BD00005200DF1080C5B49002D07EB000279444C
:101BE00008BF51F8221009D051F8223001EB8201D0
:101BF000AB404A68139922FA01F11943A1FB0E2662
:101C0000A1FB0B131A449A4234BF0123002303EBB8
:101C100006080CEB8003D3E901A60E448E4234BFC4
:101C20000121002192448A4411B1924502D903E076
:101C3000924501D2012100E00021C3E901A64144FF
:101C40004CF82010011EA0F10100C4DC04989DEDA9
:101C5000050A00F10050810F04989FED3B4B800076
:101C600001EE100ADDED060A9DED072AB8EEC13B34
:101C7000B8EE401BB8EE600BB8EE422B002021EE10
:101C8000041B9FED334B20EE040B9FED334B22EEF4
:101C9000042B30EE024B34EE014B34EE034B8DED52
:101CA000004B00909DED004B199834EE433B10F033
:101CB000004F33EE411B31EE400B32EE401B9DEDE9
:101CC000000B9FED272B20EE020B9FED272B01EE43
:101CD000020B9DED001B9FED262B01EE020B1CBF9E
:101CE0004942B1EE400B84ED000B0846D3E60000FC
:101CF0000000000000000000FB21E93F7CD9024009
:101D000000004054FB21F93F3163621A61B4D03DB9
:101D1000FB21F93F000000000000601A61B4D03DD3
:101D20007370032E8A19A33BFB2139410000000088
:101D300083C8C96D305FE43F000000000000E03F51
:101D4000AE04000046040000000000000000103E49
:101D5000000000000000103C000000000000103AED
:101D60003326A611460B113C182D4454FB21F93D96
:101D700000000054FB21F93D10B52DED040B2DEDB5
:101D8000068B82B0B0EE41AB09989FED299B20F005
:101D90000044B4F1795F0FDA9DED080BBDEEC00B86
:101DA00010EE100A002801BFB0EE490B02B0BDECE6
:101DB000068B04B008BF10BD9DED080B1E48062120
:101DC00020EE008BB0EE480B784400F045F820EE92
:101DD000080B9DED081B1C48844228EE000B01EE09
:101DE0004A0B9FED171B28EE011BBCBF31EE400BC9
:101DF00039EE400B16DB1548A042BCBF9FED142BFB
:101E00008DED002B06DBA4F5001001900020009062
:101E10009DED002B31EE421B39EE422B31EE400B93
:101E200032EE400B02B0BDEC068B04B010BD0000DA
:101E3000000000000000F03FFC0100000000000076
:101E4000000000000000E03F3333D33F0000E93FD3
:101E5000000000000000D23F491E00EBC102B0EEBE
:101E6000401B92ED000B31F006020DD0491E00EB35
:101E7000C102B0EE403B92ED002B31F00602B0EE15
:101E8000420B03EE010BF1D1022914D004290AD030
:101E9000062918BF704790ED0A2B00EE012B90ED3C
:101EA000080B02EE010B90ED062B00EE012B90EDDE
:101EB000040B02EE010B90ED022B00EE012B90EDD6
:101EC000000B02EE010B704731B504462DED040BFB
:101ED0002DED068BB0EE419B07989DED060B20F093
:101EE0000040B0F1795F0DDA51EC100BFFF7E6FC22
:101EF000042808BF00F048F89DED060BBDEC068BEA
:101F000005B030BD20EE008B1348052128EE00AB54
:101F1000B0EE480B7844FFF79FFF9FED111B8CB18B
:101F20009FED112B29EE022B0AEE402B9DED060BA7
:101F300018EE029B0AEE419B30EE490BBDEC068B7E
:101F400005B030BD08EE001B9DED060B0AEE010B3F
:101F5000BDEC068B05B030BDA801000000000000FC
:101F6000495555555555C5BF000000000000E03FDC
:101F70009FED031B81EE010B704700000000000085
:101F800000000000000000009FED030B20EE000B9E
:101F9000704700000000000000000000000000107A
:101FA00082B0CDE9000121F0004001909DED000BD1
:101FB00002B051EC100B7047FEF7B1FAFEE74FF09C
:101FC0004070E1EE100A70474C5555555555A53FE8
:101FD0007751C1166CC156BF9015CB19A001FA3EBE
:101FE000AD529C804F7E92BEC4B1B4BD9EEE213EE8
:101FF000D43888BEE9FAA8BD00004054FB21F93F5F
:102000003163621A61B4D03D0000601A61B4D03D02
:102010007370032E8A19A33B0000002E8A19A33B7C
:10202000C14920259A837B39000000000000000090
:102030006E83F9A22915444ED15727FCC0DD34F533
:10204000999562DB4190433CAB6351FE61C5BBDEB9
:102050003A6E24B7E0D24D42EA2E49061C92D109CD
:102060001CEB1DFE3EA729B1F53582E88444BB2E4A
:1020700026709CE9417E5FB439D69139F439538397
:102080008B5F849C3B28F9BDFF97F81F0F9805DEF6
:102090008B112FEF1F6D0A5ACF7E366DB709CB27F4
:1020A000663F464F2DEA5F9EC7BA27757BF1E5EB89
:1020B000F739073DEA92528AB15FFB6B085D8D1FCD
:1020C000A6F810111111813FD561C119A0012ABFD5
:1020D0007DFEB157E31DC73EEB9C2B8AE6E55ABE59
:1020E0007CD5CF5A3AD9E53D3821000800000020C0
:1020F00004000000300300083C2100080000002418
:10210000789A0600D4020008802E000800000030F3
:10211000B0DC0100D40200084032000800000000DA
:10212000F0920000300300083C2100080400002069
:10213000CC9101004C0300080800002001FF01FFC2
:1021400001FF01FF01FF01FF01FF01FF01FF01FF8F
:1021500001FF01FF01FF01FF01FF01FF01FF01FF7F
:1021600001FF01FF01FF01FF01FF01FF01FF01FF6F
:1021700001FF01FF01FF01FF01FF01FF01FF01FF5F
:102E700001FF01FF01FF01FF01FF01FF01FF011938
:102E800001FF01FF01FF01FF01FF01FF01FF01FF42
:102E900001FF01FF01FF01FF01FF01FF01FF01FF32
:102EA00001FF01FF01FF01FF01FF01FF01FF01FF22
:102EB00001FF01FF01FF01FF01FF01FF01FF01FF12
:1032300001FF01FF01FF01FF01FF01FF018E0000FF
:1032400040F2D55CC0F6000C604740F2796CC0F6E5
:10325000000C604740F27D6CC0F6000C604740F205
:10326000B56CC0F6000C604741F6091CC0F6000CB6
:10327000604741F6B91CC0F6000C604740F2D53CEF
:10328000C0F6000C604700004A4830B500240268D0
:103290000123214602F5C040C0F8BC4001EB4105C6
:1032A00005EBC10502EBC50505F5C04595F8D05104
:1032B00005B90023491C0B29F0DB1BB144F00101C7
:1032C000C0F8BC1090F8981559B190F8C81741B1E2
:1032D00090F8F81929B1D0F8BC1041F48071C0F809
:1032E000BC1090F8E81559B190F8181841B190F851
:1032F000481A29B1D0F8BC1041F40071C0F8BC10D4
:1033000090F8381659B190F8681841B190F8981AA9
:1033100029B1D0F8BC1041F48061C0F8BC1090F81D
:10332000881659B190F8B81841B190F8E81A29B147
:10333000D0F8BC1041F40061C0F8BC1090F8D81669
:1033400059B190F8081941B190F8381B29B1D0F85B
:10335000BC1041F48051C0F8BC1090F8281759B146
:1033600090F8581941B190F8881B29B1D0F8BC10D9
:1033700041F40051C0F8BC1090F8781759B190F89A
:10338000A81941B190F8D81B29B1D0F8BC1041F46C
:103390008041C0F8BC10D0F8BC1019B1012280F8EF
:1033A000B82001E080F8B840D0F8C0200A43C0F847
:1033B000C02030BD000000201B49F0B401240A6881
:1033C00000204FF4FA75034600EB400101EBC00109
:1033D00002EBC10101F5C041D1F8CC61AE4204D38A
:1033E000C1F8CC5181F8D04101E081F8D031401CC6
:1033F0000B28E9DB5FF0000000EB800102EB01111C
:1034000001F5C041D1F89465AE4204D3C1F894559A
:1034100081F8984501E081F89835401C1528EBDBD0
:10342000F0BCFFF731BF00000000002010B500F035
:10343000BFFF00F077F800F0DFFF00F009F8034865
:10344000816921F00101816110BD000000A00040F0
:103450002F492F4B10B520330A682E4822F00F0257
:103460000A600C682C4A44F00A040C60196841F0A8
:1034700099011960836940F6313143F00303836198
:1034800083693F2443F486438361C261C160C0F80D
:1034900080400222214940F222230968A1F5FB5114
:1034A00001F500410C8844F4A814C0F884404C880D
:1034B00044F43024C0F8C040C0F8C820C0F8BC3084
:1034C000174A8B88C0F8AC30C98841F42C11C0F879
:1034D000A010426501220021D0F8E03002FA01F488
:1034E0002343C0F8E030491C0B29F5DB426D4FF057
:1034F0007F51032342F07F5242658165C3651320EB
:1035000003F0BBFEBDE81040152003F0B6BE00007E
:10351000000C025800A00040030B04020000002031
:103520000002080064482DE9F043006800F10C0433
:10353000814600F1180C00F1240800F1300100F17F
:103540003C0200F1480300F1540500F5C04760302B
:1035500000F5C0464FF40070A7F8CA0009F16C00EE
:1035600004F5C04400F5C04740F201200CF5C04C02
:10357000A4F8CA0009F1780000F5C04440F2022026
:1035800008F5C048ACF8CA0009F1840000F5C04C49
:1035900040F2032001F5C041A8F8CA0009F19000EB
:1035A00000F5C0484FF40170A1F8CA0009F19C0071
:1035B00002F5C04200F5C04140F2052003F5C043CA
:1035C000A2F8CA0009F1A80000F5C04240F20620A6
:1035D00005F5C045A3F8CA0009F1B40000F5C043E1
:1035E0004FF40470A5F8CA0009F1C00000F5C04509
:1035F00040F21120A6F8CA0009F1CC0000F5C0463F
:1036000040F21220A7F8CA0009F1D80000F5C0471F
:1036100040F21320A4F8CA004FF40574ACF8CA4075
:10362000641CA8F8CA4040F21628A1F8CA800724F2
:1036300009F1E40040F2F12809F1F00C4FF43C717B
:10364000A2F8CA10A3F8CA80891CA5F8CA104A1C9F
:1036500000F5C040A6F8CA208B1CA7F8CA300CF5AC
:10366000C04C40F2F528091DA0F8CA80124F01266F
:103670005FF00000ACF8CA104FF0605C00EB400156
:103680003A6885B245F0804302EB8101C83101F50B
:10369000C04102F5C0420E704C708D804D884CEADE
:1036A00005452B438B60D2F8A81041F82030401C10
:1036B0001528E3DBBDE8F083000000205A4900EB49
:1036C00040032DE9F043D1F8009000EB80045B004B
:1036D00009F5C04209EB041404F5C041D2F8B0501A
:1036E00055F823600425C1F8C86505EB8305D2F8B9
:1036F000B0707D590827C1F8CC5507EB8307D2F885
:10370000B0C05CF807C00C27C1F8D0C507EB830731
:10371000D2F8B0C05CF807C01027C1F8D4C507EBD9
:103720008307D2F8B0C05CF807704FF0140CC1F8F2
:10373000D8750CEB8303D2F8B0C007275CF80330D0
:10374000B0FBF7FCC1F8DC35C6F38A4307FB1C0766
:103750004FEAD67C81F8A8C5C6F3407081F8A90568
:10376000C1F8AC35EE0F81F8B065C5F3056081F89E
:10377000B105C5F3405381F8B235C5F3005681F861
:10378000B3652B0CC5F3034081F8B405A1F8B63539
:103790005FF0000304EB830000F5B76000F5C04064
:1037A0005B1C042B856905704FEA152646704FEAAD
:1037B000154C80F802C04FEA156880F80380E9DBF9
:1037C000052F4FF001030ED891F8B805012812D14A
:1037D00007EB072209EB021090F8282080F8393017
:1037E00080F8292007E0062F05D191F8B8050128B7
:1037F00001D182F8953004F5C042134615460020E9
:10380000C1F89405D2F8A02504F5C044D3F8A43536
:10381000521CC5F8A02543F10003C4F8A43581F873
:103820009005BDE8F083000000000020544900EB43
:1038300080032DE9F043D1F8009000EB400509F535
:10384000C0426D0009EB0313D2F8B04003F5C0414C
:1038500054F825600424C1F8C86504EB8504D2F847
:10386000B0703C590827C1F8CC4507EB8507D2F862
:10387000B0C05CF807C00C27C1F8D0C507EB8507BE
:10388000D2F8B0C05CF807C01027C1F8D4C507EB68
:103890008507D2F8B0C05CF807704FF0140CC1F87F
:1038A000D8750CEB8505D2F8B0C007275CF805C0C9
:1038B000B0FBF7F5C1F8DCC507FB1505F70F81F87C
:1038C000A875C6F3407081F8A905C6F38A46C1F809
:1038D000AC65E70F81F8B075C4F3056081F8B105F8
:1038E000C4F3405681F8B265C4F3005781F8B3754C
:1038F000C4F3034081F8B405240CA1F8B6450024B4
:1039000003EB840000F5B76000F5C040641C042C94
:10391000866906704FEA162747704FEA164C80F802
:1039200002C04FEA166880F80380E9DB052D08D84D
:1039300005EB052491F8B82509EB041080F82C203C
:1039400005E0062D03D191F8B80582F88A0003F549
:10395000C042144615460020C1F89405D2F8A025AF
:1039600003F5C043D4F8A445521CC5F8A02544F182
:103970000004C3F8A44581F89005BDE8F083000079
:1039800000000020954900EB80032DE9F047D1F8B5
:1039900000A000EB40040AF5C04264000AEB0313E8
:1039A000D2F8B05003F5C04155F824600425C1F8A1
:1039B000C86505EB8405D2F8B0707D590827C1F8B9
:1039C000CC5507EB8407D2F8B0C05CF807C00C27D1
:1039D000C1F8D0C507EB8407D2F8B0C05CF807C0C7
:1039E0001027C1F8D4C507EB8407D2F8B0C05CF843
:1039F00007704FF0140CC1F8D8750CEB8404D2F8A2
:103A0000B0C007275CF80440B0FBF7FCC1F8DC4508
:103A1000C6F38A4407FB1C094FEAD67C81F8A8C587
:103A2000C6F3407781F8A975C1F8AC45EE0F81F86F
:103A3000B065C5F3056781F8B175C5F3405481F8E9
:103A4000B245C5F3005681F8B3652C0CC5F30347A6
:103A500081F8B4755FF00005A1F8B64503EB850465
:103A600004F5B76404F5C0446D1C042DA6692670E6
:103A70004FEA162767704FEA164C84F802C04FEAE7
:103A8000166884F80380E9DBB9F1050F4FF00104F3
:103A90006ED891F8B92500EB002C91F8B86591F833
:103AA000BB5591F8BA75120405EB06659FED4C2BDA
:103AB00002EB07270AEB0C1209EB09263D4401EE45
:103AC000105A92ED443B0AEB06109FED470BB8EEFF
:103AD000C11B21EE031B81EE023B80ED223B91F8DE
:103AE000BC6591F8BD5592ED462B05EB06252DB230
:103AF00001EE105AB8EEC11B21EE021B81EE002B25
:103B000080ED242B91F8BE6591F8BF5592ED4A2BBC
:103B100005EB062212B201EE102AB8EEC11B21EE0F
:103B2000021B81EE002B80ED282B91F8C02500EEC2
:103B3000102AB8EE400B80ED2A0B91F8C12580F8D1
:103B40002C2091F8C22580F82D2091F8C32580F80B
:103B50002E2091F8C42580F82F2091F8C52580F8F3
:103B6000302080F8384002F0010580F842501CE017
:103B7000B9F1060F19D191F8B80582F8990091F8BA
:103B8000B90582F89A0091F8BA0582F89B0091F87D
:103B9000C10582F88A0091F8C40582F88B0091F87B
:103BA000C50582F88C0082F8944003F5C0400446B5
:103BB00005460022C1F89425D0F8A00503F5C043BE
:103BC000D4F8A445401CC5F8A00544F10004C3F88E
:103BD000A44581F89025BDE8F08700000000002092
:103BE0000000C0FFFFFFDF4100000000C0FFDF401A
:103BF00070B5194C01260025D4F89800E840C0079C
:103C000006D0E8B2FFF7BEFE06FA05F0C4F8980049
:103C10006D1C072DF0DB0725D4F89800E840C0079D
:103C200006D0E8B2FFF702FE06FA05F0C4F89800E5
:103C30006D1C0E2DF0DB0E25D4F89800E840C0076F
:103C400006D0E8B2FFF73AFD06FA05F0C4F898008E
:103C50006D1C152DF0DB70BD00A0004010B500F00C
:103C600065FBFFF7A9FB134801680020024600EB43
:103C7000420303EBC202401C01EBC20202F5C04248
:103C80000B28D2F8CC3103F10103C2F8CC31EDDBC3
:103C90005FF0000000EB8002401C01EB021202F515
:103CA000C0421528D2F8943503F10103C2F89435C7
:103CB000F0DB10BD000000202DE9F0435B4E012237
:103CC00030680146583000F5C04090F8C80101281E
:103CD0007DD002EB420000EBC200002301EBC004E8
:103CE0001D4600BF05EB052704EB030C01EB07188D
:103CF0000CF5C04C5F1C98F82B806D1CBBB28CF887
:103D0000F581062DEEDB2344B14601F5C04103F5F4
:103D1000C04391F8895083F8F551002504EB8503E1
:103D200003F5C0436D1C042D93F8F67193F8F5610B
:103D300093F8F7C193F8F88106EB072606EB0C46DB
:103D400006EB0866C3F81062E8DBD1F8AC5004F566
:103D5000C04402EB82034FF00C0C04264946D4F811
:103D600008420CEB830845F82340D9F8004006EBE5
:103D70008306082704EBC00C04F5C0440CF5C04CC6
:103D800007EB8305D4F8AC401027DCF80CC244F8EC
:103D900006C00C6807EB8306142704EBC00C04F57F
:103DA000C0440CF5C04C07EB8307D4F8AC400123AA
:103DB000DCF810C244F805C00C681D4D04EBC00CC3
:103DC0000CF5C04C04F5C044DCF814C200E02BE054
:103DD000D4F8AC4003FA02F244F808C00C6804EBD3
:103DE000C00C04F5C0440CF5C04CD4F8AC40DCF871
:103DF00018C244F806C00C6804EBC00604F5C044C1
:103E000006F5C046D4F8AC40D6F81C62E651D9F8A5
:103E1000001001EBC00000F5C04080F8C831D5F8B3
:103E2000D0001043C5F8D000BDE8F08300000020AA
:103E300000A000402DE9F043644E022230680146A4
:103E4000B03000F5C04090F8C80101287DD002EBE9
:103E5000420000EBC200002301EBC0041D4600BF7E
:103E600005EB052704EB030C01EB07170CF5C04C21
:103E70005B1C97F828809BB28CF8F58104EB030C4F
:103E80000CF5C04C97F82A705B1C6D1C9BB28CF82B
:103E9000F571062DE4DBE718B1465B1C9BB207F514
:103EA000C047234401F5C04103F5C043002587F80E
:103EB000F55191F8885083F8F551002504EB8503FE
:103EC00003F5C0436D1C042D93F8F67193F8F5616A
:103ED00093F8F7C193F8F88106EB072606EB0C463A
:103EE00006EB0866C3F81062E8DBD1F8AC5004F5C5
:103EF000C04402EB82034FF00C0C04264946D4F870
:103F000008420CEB830845F82340D9F8004006EB43
:103F10008306082704EBC00C04F5C0440CF5C04C24
:103F200007EB8305D4F8AC401027DCF80CC244F84A
:103F300006C00C6807EB8306142707EB830704EB26
:103F4000C00C01230CF5C04C00E03DE004F5C0447A
:103F5000DCF810C203FA02F2D4F8AC4044F805C011
:103F60000C681B4D04EBC00C04F5C0440CF5C04CB0
:103F7000D4F8AC40DCF814C244F808C00C6804EB78
:103F8000C00C04F5C0440CF5C04CD4F8AC40DCF8CF
:103F900018C244F806C00C6804EBC00604F5C0441F
:103FA00006F5C046D4F8AC40D6F81C62E651D9F804
:103FB000001001EBC00000F5C04080F8C831D5F812
:103FC000D0001043C5F8D000BDE8F0830000002009
:103FD00000A000406C4900222DE9F0470B6803F572
:103FE000C040814690F8C80101287DD0002002EB36
:103FF00042049FED661B8A46054604EBC20103EBB3
:10400000C10400BF05EB0526B0EE410B03EB06161D
:10401000271896ED182B96ED4A3B07F5C047401C34
:1040200082EE034B80B204EB000C0CF5C04C401C3C
:104030006D1C80B2062D24EE002BBDEEC22B12EEBD
:10404000108A4FEA282887F8F58196ED182B96ED0F
:104050004A3B82EE034B24EE000BFDEEC00B10EE4C
:10406000906A8CF8F561CDDB231899F8985003F528
:10407000C043504683F8F5515FF0000504EB85031B
:1040800003F5C0436D1C042D93F8F67193F8F561A8
:1040900093F8F7C193F8F88106EB072606EB0C4678
:1040A00006EB0866C3F81062E8DBD9F8AC5004F5FB
:1040B000C04402EB82034FF00C0C0426D4F80842F3
:1040C0000CEB830845F823400468082707EB8305B9
:1040D00004EBC10C0CF5C04C102706EB8306DCF892
:1040E0000CC204F5C04400E04CE0D4F8AC4044F805
:1040F00006C0046807EB8306142704EBC10C04F523
:10410000C0440CF5C04C07EB8307D4F8AC40012346
:10411000DCF810C203FA02F244F805C004681D4D31
:1041200004EBC10C04F5C0440CF5C04CD4F8AC4011
:10413000DCF814C244F808C0046804EBC10C04F5B0
:10414000C0440CF5C04CD4F8AC40DCF818C244F8BC
:1041500006C0046804EBC10604F5C04406F5C04679
:10416000D4F8AC40D6F81C62E651DAF8000000EB57
:10417000C10000F5C04080F8C831D5F8D000104328
:10418000C5F8D000BDE8F087000000200000000066
:10419000C0FFDF4000A000401749F0B50026174DD2
:1041A000D1F8003002273046D5F8D810C140C907F1
:1041B0001DD000EB400101EBC00103EBC10101F593
:1041C000C04292F8C841012C11D19446144682F89D
:1041D000C8719646C2F8CC61DCF8D811D4F8DC413D
:1041E000491CCEF8D81144F10004C2F8DC41401C4F
:1041F0000B28D9DBF0BD00000000002000A000402B
:10420000484803222DE9F04301680D4601F5847109
:1042100001F5C04191F8C81101297DD002EB42019E
:10422000814601EBC200002305EBC00404EB8301CF
:1042300001F5C0415B1C042B91F8F67191F8F56112
:1042400091F8F7C191F8F88106EB072606EB0C46CA
:1042500006EB0866C1F81062E8DB05F5C045494683
:1042600004F5C0444FF0080C02EB8203D5F8AC70A3
:104270000C25D4F80862042404EB830447F8236077
:10428000D9F800700CEB83064FF0100C07EBC00858
:1042900007F5C04708F5C0480CEB830CD7F8AC70A5
:1042A000D8F80C8247F8048005EB83070B681E4D95
:1042B000012403EBC00803F5C04308F5C04804FA25
:1042C00002F2D3F8AC30D8F8108243F806800B68BD
:1042D00003EBC00603F5C04306F5C046D3F8AC3087
:1042E000D6F81462DE510B6803EBC00603F5C04339
:1042F00006F5C046D3F8AC30D6F8186243F80C6027
:10430000D9F8001001EBC00000F5C04080F8C841AA
:10431000D5F8D000104300E001E0C5F8D000BDE8BA
:10432000F08300000000002000A0004070B51F4C8A
:104330000B2500222068014600F5C040B0F8C430CB
:104340005B1C9BB2B3FBF5F605FB1633A0F8C4303B
:1043500003EB430606EBC30301EBC30303F5C043C2
:1043600093F8E031012B03D0521C0B2AE6DB70BD21
:10437000B0F8C40000EB400202EBC00001EBC0004B
:1043800000F5C040D0F8E4018047206846F2C4013F
:104390000022095A01EB410303EBC10100EBC1000C
:1043A00000F5C04080F8E02170BD00000000002052
:1043B0000D484FF0000CF0B5006854270B4A4FF43D
:1043C000AE76A0F5FB50094900F50040084B543289
:1043D000084C4FF45575A0F800C047808680C58012
:1043E000083080E81E00F0BD0000002000AC004056
:1043F0005CAD004054AF004034480021F0B5006887
:104400000124334B4FF4681500F5C0424FF0F00C17
:104410000A26072782F8E011C2F8E431A0F5E85334
:1044200082F8E811C83B82F8E91103F5004382F8ED
:10443000EA11C2F8EC1182F8F01182F8F11182F859
:10444000F24182F8F34182F8F461C2E98215214A0F
:1044500019705A601022197259729972DA609204B6
:10446000197459749C74DC741F754FF45C17C3E99C
:104470000A27A0F5E852184B703A02F5004200F501
:104480003A7000F5C040117053604FF44013117240
:1044900051729172C2F80CC0117451749474D47436
:1044A00016754FF07076C2E90A650C4A01704260D9
:1044B000A022017241728172C2609204017441743F
:1044C0008474C4740175C0E90A23F0BD00000020A3
:1044D000950D0000790A0000F50B0000C10F0000E7
:1044E0002DE9F0415D4E002430688474C474047575
:1044F0004476047644758475C475FEF7A1FE32686F
:104500000125002101EB012002EB001090F82F3073
:1045100080F8404080F841400BB180F8405090F85E
:104520002D300BB180F8405090F83D30012B01D177
:1045300080F8415090F83F30012B01D180F8415074
:1045400090F83A30012B01D180F8415090F83B307F
:10455000012B01D180F8415090F83C30012B01D162
:1045600080F8415090F83E30012B01D180F8415045
:1045700090F84230012B00D1557690F84030012B55
:1045800000D1157690F84100012800D15575491CDD
:104590000629B7DB306846F2B801095C012900D171
:1045A00085752F4909680474447584750476C17D46
:1045B000012909D000F04EFB3068017E012906D0A8
:1045C000017C012903D003E08574457400E0C574C3
:1045D0003068417E012900D10575457C017C847CD1
:1045E000C27C41EA4501437D857D41EA8401C67D67
:1045F00041EAC201077E41EA031141EA4511C4893B
:1046000041EA861141EAC71181810C43C48100222D
:1046100002EB0221521C00EB0111062A91F83B40EB
:1046200091F83A3091F83C5091F83D6043EA4403E8
:1046300091F83E7091F83FC043EA850343EAC60310
:104640008C8E43EA071343EA4C1321F8323F44EAC5
:1046500003044C80DCDBBDE8F0810000000000209A
:10466000100C02585448012210B50021D0F8003037
:1046700001EB012003EB001090ED280B90ED381BAF
:10468000B4EEC10BF1EE10FA06D390ED3A1BB4EE86
:10469000C10BF1EE10FA01DD80F83D2090ED200B0A
:1046A000B5EEC00BF1EE10FA01DD012400E00024AC
:1046B000B5EEC00B01EE104AF1EE10FAB8EE413B38
:1046C00001D2012400E0002402EE104A90ED4A1BC2
:1046D000B8EE422B10EE023BB4EEC13BF1EE10FA05
:1046E0001BDDB5EEC00BF1EE10FA01DD012400E098
:1046F0000024B5EEC00B02EE104AF1EE10FAB8EE4F
:10470000420B01D2012400E0002402EE104AB8EE70
:10471000422B11EE020B80ED200B90ED1A0B90ED69
:104720002C1BB4EEC10BF1EE10FA06D390ED2E1B4C
:10473000B4EEC10BF1EE10FA01DD80F83A2090EDF5
:104740001C0B90ED301BB4EEC10BF1EE10FA06D34A
:1047500090ED321BB4EEC10BF1EE10FA01DD80F8E2
:104760003B2090ED1E0B90ED341BB4EEC10BF1EE2F
:1047700010FA06D390ED361BB4EEC10BF1EE10FA31
:1047800001DD80F83C2000F5406490ED401B94ED85
:10479000E20BB4EEC10BF1EE10FA06D390ED421B22
:1047A000B4EEC10BF1EE10FA01DD80F83E20491C99
:1047B0000629FFF65DAF10BD000000201349C307B6
:1047C0004FF00102096801D081F83720830702D534
:1047D00041F247035A54430702D542F257035A5451
:1047E000030702D543F267035A54C30602D544F2C5
:1047F00077035A54830602D545F287035A5440067C
:1048000003D501F5C04181F89320704700000020D6
:1048100030B4354C00204FEA000322681074507405
:104820009074D074107550759075D0751076507660
:104830009081D08103EB03215B1C02EB0111062B5D
:1048400081F8400081F8410081F83D0081F83F0087
:1048500081F83A0081F83B0081F83C0081F83E0085
:1048600081F82D0081F82E0081F82F0081F83000AA
:1048700048868886DEDB21680B468C3101F5C04115
:104880005FF000028872C87201F8010C087048805D
:104890008880194602EB8203521C01EB031303F5D7
:1048A000C043152A83F89805C3F89405F2DBD4F8C1
:1048B0000030002101EB410202EBC102491C03EB75
:1048C000C20202F5C0420B2982F8D001C2F8CC0125
:1048D000F0DB2168B83101F5C0410870486088609C
:1048E00030BCFFF7FDBD0000000000202DE9F04FB7
:1048F000334820210668012540F2DF192C4646F096
:1049000001062B460A46066003274FF0A90AAC466B
:104910004FEA0506D0F800805FEA4878FAD51B0612
:10492000DFF89C8043EA0443DFF898B034060E01B8
:1049300044EA074443EA4521214D44EA4C23DFF889
:1049400080C046EA02371E4A0CF1280C383248244F
:104950001835CCF8007041EA090143EA0A0308F16E
:1049600030084FF488664FF0400C2F1DC8F8001037
:1049700007F1040813602C603E60C8F800C0DBF843
:10498000002042F03702CBF80020016841F080712E
:10499000016001688901FCD5016841F08061016016
:1049A00001680901FCD506481030016841F0030197
:1049B00001600168C1F3C2010329FAD1BDE8F08F9B
:1049C00000440258002000522DE9F0413F4D0124DF
:1049D0002DED028B2868817C012937D0C17C01290B
:1049E00034D0002180F8061000F076F800F080FD49
:1049F00029680523887901282AD0CA792846012AFE
:104A000029D00A7A04259FED328B012A26D04A7AD2
:104A10000226012A3CD08A7A0327012A54D00A7937
:104A2000052A16D0012A17D0042A18D0022A30D01D
:104A3000032A07D149790446032901D001F0FAF984
:104A400020684771BDEC028BBDE8F0818471CBE733
:104A50000B714B71F6E70C714C71F3E70D71044665
:104A60004979042911D001F0E5F9D4F8002000219A
:104A700001EB0120491C02EB0010062980ED1A8B86
:104A800080ED1C8B80ED1E8BF2DB20684571D9E731
:104A90000E7104464979022913D001F0CBF9D4F8FC
:104AA0000020002000EB0021401C02EB0111062831
:104AB00091ED220B81ED1C8B81ED1E8B81ED1A0B8C
:104AC000F0DB20684671BDE70F71B3E700000020FE
:104AD00000000000000000003E48F0B50068017FC3
:104AE00019B9817E21F001018176417F19B9817E5A
:104AF00021F002018176817F19B9817E21F00401C4
:104B0000817600F580564FF0000E00F5005500F557
:104B1000405400F5804386F852E000F5A04285F845
:104B200062E084F872E0012183F882E000F5C04C75
:104B300082F892E0022786F8481085F8581084F829
:104B4000681083F8781082F888108CF8941006F8B2
:104B5000391F05F8491F04F8591F03F8691F02F8A7
:104B6000791FF770EF70E770DF70D7705FF00002A9
:104B70008CF88A7002EB022400EB041393F82940AE
:104B8000012C15D193F82C40022C01D0032C02D11A
:104B900093F842503DB1012C0AD04CB193F8423009
:104BA000012B05D009E0C37E01FA02F4A34303E020
:104BB000C37E01FA02F42343C376521CD2B2062A02
:104BC000D8D3C27E80F81AE00AB1C171F0BD80F876
:104BD00007E0F0BD0000002030B51D4C002101228F
:104BE0000B4620684171C172827702774277C518FF
:104BF0005B1C062BEA77FADB2068037F012B03D1CD
:104C0000837E43F001038376437F012B03D1837EB0
:104C100043F002038376837F012B03D1837E43F02D
:104C2000040383760023C418E47F012C04D1C47EDE
:104C300002FA03F52C43C4765B1CDBB2062BF2D3DD
:104C40008174C174017641758175C17530BD0000F4
:104C500000000020024801680020487470470000EE
:104C600000000020154BF0B51968002501222846E8
:104C700001F5C04400EB002601EB061696F83770EC
:104C8000012F0AD1C7B207EB072701EB071787F8F7
:104C90002B2084F8382286F83750401C0628E9DBA0
:104CA000186800F5C04090F89310012905D180F8EC
:104CB000892080F8935080F83822F0BD0000002051
:104CC0002DE9F041534D01220021286801EB012418
:104CD00000EB041393F8363003B90022491C06296F
:104CE000F4DB46F2920100260127095CE9B1E2B14A
:104CF0005FF00004286804EB042100EB011080F849
:104D00003660E0B201F0DCF8641C062CF2DB2868A7
:104D100000F5C04080F89260FEF797FA286800F529
:104D2000C04080F8E872BDE8F08190F836100129A3
:104D300009D180F83660002001F0C2F8286800F53B
:104D4000C04080F84073286800F5805090F8461005
:104D5000012909D180F84660012001F0B1F82868E6
:104D600000F5C04080F89873286800F5005090F86E
:104D70005610012909D180F85660022001F0A0F8F0
:104D8000286800F5C04080F8F073286800F54050AE
:104D900090F86610012909D180F86660032001F0BF
:104DA0008FF8286800F5C04080F84874286800F53E
:104DB000804090F87610012909D180F876600420AF
:104DC00001F07EF8286800F5C04080F8A0742868DB
:104DD00000F5A04090F88610012909D180F886607E
:104DE000052001F06DF8286800F5C04080F8F874DF
:104DF000286800F5C04090F89210012993D180F8FE
:104E00009260FEF722FA286800F5C04080F85075DD
:104E100089E700000000002010B52DED088B9FED04
:104E2000D95B9FEDDA8BB0EE484BB0EE483B9FED7F
:104E3000D99BDA4C46F62040B0EE481BB0EE492B29
:104E4000B0EE480B2168084400F080FAB0EE485BF1
:104E50009FEDD3ABB0EE483BB0EE4A4B9FEDD22B6B
:104E6000206846F65041B0EE481BB0EE490B0844AE
:104E700000F06CFAB0EE485B9FEDCD9BB0EE483B86
:104E8000B0EE482BB0EE494BB0EE481B9FEDCA0B7D
:104E9000206800F5D94000F059FAB0EE485BB0EE5A
:104EA000484BB0EE493B9FEDC62BB0EE481B9FED43
:104EB000C60B206846F6B041084400F047FAB0EE51
:104EC000495B9FEDC34BB0EE483B9FEDC39BB0EEFB
:104ED000481BB0EE492B9FEDC2BB206846F6E0416F
:104EE000B0EE4B0B084400F031FA206846F6105142
:104EF000B0EE485BB0EE4A4BB0EE483BB0EE492B0B
:104F0000B0EE481BB0EE4B0B084400F01FFAB0EEB9
:104F1000485BB0EE484BB0EE483B9FEDB32B2068AA
:104F200046F64051B0EE481BB0EE480B084400F086
:104F30000DFAB0EE485BB0EE484BB0EE483B9FED4B
:104F4000AC2B9FEDAD1B206846F67051B0EE480BC0
:104F5000084400F0FBF9B0EE4A5BB0EE484BB0EE0F
:104F6000483B9FEDA72B9FEDA81B9FEDA90B206849
:104F700046F6D851084400F0E9F9B0EE4A5B9FEDDF
:104F8000A64BB0EE483B9FEDA62BB0EE481B9FED25
:104F9000A60B206846F64061084400F0D7F9B0EE51
:104FA0004A5BB0EE484BB0EE483B9FEDA12BB0EE14
:104FB000481B9FEDA10B206846F6A861084400F04D
:104FC000C5F9B0EE4A5BB0EE484BB0EE483B9FED02
:104FD0009C9BB0EE481BB0EE492B9FED9BBB20681D
:104FE00046F61071B0EE4B0B084400F0AFF92068A4
:104FF00046F67871B0EE4A5BB0EE484BB0EE483BF7
:10500000B0EE492BB0EE481BB0EE4B0B084400F05D
:105010009DF9206846F6E071B0EE485BB0EE484B73
:10502000B0EE483BB0EE482BB0EE481BB0EE480B5C
:10503000084400F08BF9206846F6A851B7EE005BF3
:10504000B0EE484BB7EE003BB0EE482BB0EE481B3D
:10505000B7EE000B084400F079F99FED7D5BB0EEF0
:10506000484B9FED7D3BB0EE482BB0EE481B9FEDCB
:105070007C0B206846F61061084400F067F99FED4C
:105080007A5BB0EE484B9FED7A3BB0EE482BB0EE2A
:10509000481B9FED790B206846F67861084400F0C4
:1050A00055F99FED775BB0EE484B9FED773BB0EE47
:1050B000482BB0EE481B9FED760B206846F6E0616A
:1050C000084400F043F99FED749BB0EE484BB0EEFE
:1050D000495B9FED73ABB0EE482BB0EE481BB0EED2
:1050E0004A3B9FED71BB206846F64871B0EE4B0B12
:1050F000084400F02BF9206846F6B071B0EE495B29
:10510000B0EE484BB0EE4A3BB0EE482BB0EE481B39
:10511000B0EE4B0B084400F019F99FED655BB0EE63
:10512000484B9FED653BB0EE482BB0EE481B9FED22
:10513000640B206847F21801084400F007F99FED5E
:10514000620BB6EE081B9FED622BB1EE0E3B9FED9E
:10515000624B9FED635B206800F5E04100F5D840AD
:1051600080ED681B80ED822B80ED9C3B80EDB64B83
:1051700080EDD00B80EDEA0B81ED045BBDEC088B7C
:1051800010BD0000E3361AC05B20C9BF000000005C
:105190000000000054E3A59BC420B03F00000020A5
:1051A0007A008BFCFA21F93F0E4FAF946588B33F2C
:1051B0007A008BFCFA210940C1CAA145B6F3E5BFCC
:1051C0007B14AE47E17A743F46B6F3FDD478E53FF1
:1051D0007A008BFCFA21F9BFFCA9F1D24D62B03FF5
:1051E000F2D24D621058A93F7FFB3A70CE88923FB1
:1051F000809F71E14048363FB37BF2B0506B8ABF6D
:10520000EC51B81E85EB913F79E9263108AC7CBFA3
:105210002D431CEBE2360ABF1F85EB51B81E094037
:1052200000AE64C74620AE3FC1CAA145B6F3D5BFA4
:10523000E9263108AC1CAA3F90F7AA9509BFD83FD0
:105240006891ED7C3F35AE3FDBF97E6ABC74933FDD
:1052500057B3CEF8BEB8743FFF5A5EB9DE36733F1F
:105260004E9A0645F300763F9C33A2B437F8EA3FE6
:1052700062D68BA19C68873F8F53742497FFEA3FC7
:10528000A301BC051214D73FA323B9FC87F47B3FCD
:10529000DF4F8D976E12D73F86C613419C87633FC1
:1052A000D0D6C1C1DEC4603FA35C1ABFF04A623FE2
:1052B000F168E388B5F8143FC9C7EE022505063F3B
:1052C0005D18E945ED7E053F5C8FC2F5285CFF3F28
:1052D0006666666666660E40333333333333134097
:1052E000CBA145B6F3FDB43F154830B50068C17C8D
:1052F00009B9817CB9B1022301249FED120B002171
:1053000000F5C04501EB0122491C00EB0212C9B2B5
:1053100082ED180B82F82B30062982ED200B85F8E0
:105320003842EFD330BD01EB0122491C00EB0212E1
:10533000C9B292ED200B062982ED180BF3D330BDD4
:1053400000000020000000000000000080EC0C0BBA
:105350007047000010B5FFF7C9FA4FF0E020404950
:105360004161F0213F4A82F8141D0021072281612A
:1053700002613D490A68081F42F060420A60026803
:10538000091D42F0030202600A68374842F01A021F
:105390000A600C3002683449344B18311A430260F9
:1053A0000A68001D42F002020A6002682E4942F4B7
:1053B000807202608C3908682B4A40F00050086007
:1053C000083A11682A4841F000411160016821F053
:1053D000030101600268274942F0010202600A6885
:1053E00022F00C020A600A6842F004020A600168B6
:1053F00021F040510160016841F080510160FFF7E8
:10540000EBFB00F0BBF800F0B1FD00F0A7FA00F0F4
:1054100069FCFDF71FFFFFF7FFFCFDF720FFFEF71C
:1054200005F800F06BFF1448016821F0C00101602D
:10543000016841F04001016002680F4922F44072A6
:1054400002600C31086840F480700860FFF702FCCD
:1054500000F016F8094901200968487110BD0000E4
:10546000FF5207000FE000E0DC440258B8000600DD
:105470000004025800100258000C025800000020DE
:1054800018480022F0B5174905680C31154BEF2478
:1054900040F2E736243325F0010707601D1D2F1D5C
:1054A0001A602C603E600B6843F001030B600E4BEA
:1054B0004FF40001C3F800110C49036843F00103E5
:1054C00003600868951E094B20F001000860243332
:1054D0001C1D261D1A6022603560086840F001001E
:1054E0000860F0BD0014004004E000E0000C004043
:1054F000204A214B104670B5417801249078002550
:105500001B6898B101284FF0030617D0022813D06A
:10551000032816D0042825D018B3012825D0022846
:1055200023D0042821D005281FD010E001291CD148
:10553000052015E096700AE0012915D00329F9D05D
:1055400013E0022909D001290ED0042907D05D7289
:10555000907803280BD09D7270BD022000E00420DB
:10556000907002E0012900D194705C72F0E79C72A7
:1055700070BD00000000002400000020164910B596
:105580008878002827D0002008704870024688706C
:105590008880C88008814881A1F83A01A1F83801C3
:1055A0008B1801EB4204521C1873642AA4F8700093
:1055B000F6D30A49C1F8BC08C1F8C00801F6C80012
:1055C00000F010F8064800F00DF80548BDE810405E
:1055D000903000F007B810BD0000002400900624B1
:1055E000589906249FED070B5FF0000100EBC10204
:1055F000491C82ED000B82ED0C0B062982ED180B85
:10560000F4D37047000000000000000010B5084C03
:10561000206D800503D5FEF7BFFD60152065206D68
:10562000000304D5FEF7E4FA4FF40020206510BD16
:1056300000A000401948016D890002D54FF00051CB
:105640000165016DC90002D54FF080510165016D02
:10565000090102D54FF000610165016D490102D5D4
:105660004FF080610165016D890102D54FF0007135
:105670000165016DC90102D54FF080710165016DB1
:10568000090202D54FF400010165016D490203D5FD
:10569000026C4FF4800101657047000000A00040DB
:1056A00030B59FED222B5FF000020446B7EE001BE1
:1056B0002DED028BA1B0B0EE408B6846002100EBCF
:1056C00042138A4203EBC10502D1B0EE410B01E067
:1056D000B0EE420B491C042985ED000BF1DB521C96
:1056E000042AEBDBB0EE480BFDF7BEFD8DED0A0B97
:1056F000B0EE480BFDF7BDFDB1EE400B8DED0C0B90
:10570000B0EE480BFDF7B5FD8DED120BB0EE480B7A
:10571000FDF7AAFD802269468DED140B2046FDF7AA
:10572000ADFD21B0BDEC028B30BD000000000000DB
:105730000000000030B59FED222B5FF00002044610
:10574000B7EE001B2DED028BA1B0B0EE408B68468A
:10575000002100EB42138A4203EBC10502D1B0EEF7
:10576000410B01E0B0EE420B491C042985ED000B12
:10577000F1DB521C042AEBDBB0EE480BFDF774FDA5
:105780008DED000BB0EE480BFDF773FD8DED040BB6
:10579000B0EE480BFDF76DFDB1EE400B8DED100B3B
:1057A000B0EE480BFDF760FD802269468DED140BCD
:1057B0002046FDF763FD21B0BDEC028B30BD00003B
:1057C000000000000000000030B59FED222B5FF0CC
:1057D00000020446B7EE001B2DED028BA1B0B0EE27
:1057E000408B6846002100EB42138A4203EBC1055F
:1057F00002D1B0EE410B01E0B0EE420B491C04298E
:1058000085ED000BF1DB521C042AEBDBB0EE480BFC
:10581000FDF72AFD8DED000BB0EE480BFDF729FDDD
:10582000B1EE400B8DED020BB0EE480BFDF721FD04
:105830008DED080BB0EE480BFDF716FD8022694692
:105840008DED0A0B2046FDF719FD21B0BDEC028B52
:1058500030BD0000000000000000000030B59FEDEA
:10586000134BA1B000226C46B7EE003B002104EBC5
:1058700042138A4203EBC10502D1B0EE435B01E063
:10588000B0EE445B491C042985ED005BF1DB521C42
:10589000042AEBDB8DED060B8DED0E1B80222146DD
:1058A0008DED162BFDF7EAFC21B030BD00000000A5
:1058B000000000002848002110B5046801EB012019
:1058C0005FF0000204EB001090ED561B90ED7E0B94
:1058D00080ED4E1B80ED501B80ED520B80ED540B84
:1058E00000EBC20390ED4E1B93ED560BB4EEC10BD3
:1058F000F1EE10FA01D280ED4E0B93ED560B90EDC8
:10590000501BB4EEC10BF1EE10FA01DD80ED500B2F
:10591000521C142AE4DB002290ED521B00EBC20360
:1059200093ED7E0BB4EEC10BF1EE10FA01D280EDD7
:10593000520B93ED7E0B90ED541BB4EEC10BF1EEC8
:1059400010FA01DD80ED540B521C142AE4DB491CD3
:105950000629B3DB10BD00000000002005480068E8
:10596000C07A18B1012803D100F068B900F004B87A
:10597000704700000000002010B567482DED108B27
:105980009EB000689FED65FB9FED661B9FED672B4A
:105990009FED683B9FED694B9FED6A5B00F54061B1
:1059A0009FED6A6B9FED6B7B9FED6C8B9FED6D9B0D
:1059B0009FED6EAB9FED6FBB9FED70CB9FED71DBED
:1059C0009FED72EB9FED730B8DED1C0B9FED730B39
:1059D0008DED1A0B9FED730B8DED180B9FED730B77
:1059E0008DED160B9FED730B8DED140B9FED730B6F
:1059F0008DED120B9FED730B8DED100B9FED730B67
:105A00008DED0E0B9FED730B8DED0C0B9FED730B5E
:105A10008DED0A0B9FED730B8DED080B9FED730B56
:105A20008DED060B9FED730B8DED040B9FED730B4E
:105A30008DED020B9FED730B8DED000B81EDC6FB21
:105A40009FED720B81EDC81B9FED721B81EDCA2B80
:105A50009FED722B81EDCC3B9FED723B81EDCE4BE8
:105A60009FED724B81EDD05B9FED725B00F5E053D3
:105A700003F54A7300F5305483EC0C6B04F54E7358
:105A800000F5705100F5984283EC06CB9DED1C6B40
:105A900084EDD46B9DED1A6B84EDD66B9DED186B88
:105AA000983884EDD86B9DED166B00F5C04081ED04
:105AB000D26B9DED146B81EDD46B9DED126B81ED7E
:105AC000D66B9DED106B81EDD86B9DED0E6B81ED6E
:105AD000DA6B9DED0C6B81EDDC6B9DED0A6B82ED5D
:105AE000D66B9DED086B82EDD86B9DED066B82ED5C
:105AF000DA6B9DED046B82EDDC6B9DED026B82ED4C
:105B0000DE6B9DED006B82EDE06B80EC0C0B1EB04C
:105B1000BDEC108B10BD0000000000204F40136151
:105B2000C3B320402BF697DD938748402BF697DDD3
:105B300093EF40C0569FABADD81F2D40E030D12031
:105B4000054F91BF2B137EA99F072C40B2BD16F4C1
:105B5000DE181A4035DF35E1694547401684EA39D9
:105B600006FE42C0F14D67491B0535406C7FCAF601
:105B7000FDD89BBF8586A3204BE33340671102A766
:105B8000A7A01740734F420F2F5F4740CC8BC61B17
:105B9000BCD049C04C9C8066B7EC42405694F63C61
:105BA0003CAE9DBFB0C31E2F17BC384093A75772A1
:105BB0008F590540414F920D8B25294046E5C0176E
:105BC0005EBB0DC0272C149794F0E4BFC3BE4F8971
:105BD0008A8198BFB788ED52819E39401880D72DB1
:105BE000751C074075D9C67A42F83240D5A4CB411E
:105BF000284B36C0735EB8521EF13040F4CDDB1F27
:105C0000CB2293BF057D01BA88133F4056BE99B1A0
:105C10008A3B08404A091E8533FB3540A86D391B75
:105C2000A42F34C0520AF7EB174C2940BEA203B789
:105C30009A9197BF976EE7F0DD1C3340F0B587B0BF
:105C4000264918226846FDF719FB254800216C46B5
:105C5000D0F800E001EB012300200EEB0315024613
:105C600054F8213005EBC20603EBC003401C93ED52
:105C7000000B521C142A86ED560BF1DB5FF000027C
:105C800054F8213003EBC00305EBC20693ED000B83
:105C9000401C521C142A86ED7E0BF1DB5FF00003E2
:105CA000002203EB830605EB461600BF54F8217073
:105CB00006EBC20C521C07EBC007401C97ED000B13
:105CC000142A8CEDA60BF1DB5B1C142BE8DB491CC2
:105CD0000629BFDBFFF7EEFD07B0F0BDD89200004C
:105CE00000000020F0B538489FED386B9FED397B00
:105CF0009FED3A5B9FED3B4B9FED3C0B9FED3D3B9A
:105D00009FED3E1B9FED3F2B2DED0A8B06689FED0F
:105D10003F8B06F5406E9FED3F9B8EEDDA6B8EED6F
:105D2000DC7B8EEDDE5B8EEDF88B06F5E0508EEDC4
:105D3000FA9B80EDDE6B9FED39AB80EDE07B9FED54
:105D400039BB80EDE25B80EDFCAB06F5305180EDB8
:105D5000FEBB81EDE26B9FED35CB81EDE47B06F57B
:105D6000405481EDE65B84ED00CB06F5705284ED86
:105D7000025B82EDE64B82EDE80B06F5804582ED95
:105D8000EA3B85ED041B06F5984385ED062B83ED74
:105D9000EA4B83EDEC0B06F5A04783EDEE3B87ED78
:105DA000081B06F5B84C87ED0A2B8CEDEE4B8CEDFD
:105DB000F00B30368CEDF23B06F5C04686EC041B4A
:105DC000BDEC0A8BF0BD00000000002000000000C8
:105DD0000040BF40000000000058CB400000000021
:105DE00000005440000000000040AF4000000000F0
:105DF0000070D7400000000000004E40000000008E
:105E0000000044C00000000000004440000000000A
:105E100000005EC00000000000005E4000000000C6
:105E2000000059C0000000000000594000000000C0
:105E3000000054C01F4870B50025D0F800402A4625
:105E40009FED1D1B02EB0220002304EB0011B0EEBE
:105E5000410B81ED120B81ED140B81ED160B81EDE1
:105E6000180B01F5406081ED4C0B80EDD20B80EDFD
:105E7000D40B80EDD60B80EDD80B80EDE20B80EDDE
:105E8000E40B80EDE60BC1F8A05F00BF01EBC30699
:105E900006F540665B1C052B86EDEA0BF6D380ED1C
:105EA000F40B521C80EDF60B062A80EDFC0BC9DBCF
:105EB00070BD000000000020000000000000000095
:105EC000274900EB002010B50022012309689FED4F
:105ED000250B01EB001000F5406180F8382080F8B8
:105EE000392080F8423080F8292080F8283080F866
:105EF0002C2080F82B30002380ED120B80ED140B4A
:105F000080ED160B80ED180B80ED4C0B81EDD20B64
:105F100081EDD40B81EDD60B81EDD80B81EDE20B39
:105F200081EDE40B81EDE60BC0F8A02F00EBC3047C
:105F300004F540645B1C052B84EDEA0BF6D381ED80
:105F4000F40B81EDF60B81EDFC0B00F5805380F82E
:105F5000F82F83ED060B83ED040B83ED080B10BDCA
:105F6000000000200000000000000000F0B54E48D6
:105F70000124072500232DED108B9FED4C4B9FED49
:105F80004D3B9FED4E5B9FED4F6B9FED507B9FED2B
:105F9000511B9FED528B9FED532B9FED549B9FED1B
:105FA00055AB9FED56BBD0F800601A4603EB0320BB
:105FB0009FED540B06EB0010B0EE00CB00F1C007D4
:105FC00080F8382000F5406180F8392080F84240A0
:105FD00080F8292080F8284080F82A5080ED120BA4
:105FE00080ED140B80ED160B80ED180B80ED2C4B23
:105FF00080ED2E3B80ED361B80ED388B80ED3A2B0B
:1060000080ED3C0B80ED443B80ED46CB80ED481BA2
:1060100080ED4A2B80ED4C0B9FED3CDB87EC065B63
:10602000383787EC069B002781EDD20B81EDD40B2E
:1060300081EDD60B81EDD80B81EDE0DB81EDE20B3C
:1060400081EDE40B81EDE60BC0F8A02F00EBC70C4F
:106050000CF5406C7F1C052F8CEDEA0BF6D381ED1F
:10606000F40B81EDF60B81EDFC0B00F5805780F809
:10607000F82FB3EE04CB87ED02CB87ED00DB87ED85
:10608000060B9FED24EB87ED040B87ED080B5B1CE3
:10609000B7EE00FB87ED0AEB062B87ED0CFB85DBEB
:1060A000BDEC108BF0BD0000000000207A008BFCDE
:1060B000FA2109C07A008BFCFA210940FCDEA63FD8
:1060C000FB2119C0FCDEA63FFB211940FCDEA63FE8
:1060D000FB2129C0FCDEA63FFB2129400000000077
:1060E000008076C0000000000080764000000000C4
:1060F00000E06F400AD7A3703D0AB7BF0AD7A3706C
:106100003D0AB73F0000000000000000FCA9F1D2EA
:106110004D62503F9A9999999999C93F30B59FED31
:10612000111B93B000226C46B7EE000B02EB42034A
:10613000002104EBC3038A4203EBC10502D1B0EE98
:10614000402B01E0B0EE412B491C032985ED002BCB
:10615000F1DB521C032AE9DB48222146FDF78EF8C9
:1061600013B030BD00000000000000000FB400229A
:10617000F0B593B01AAC6B4602EB4205002104EB7C
:10618000C50500BF01EB410605EBC10703EBC606E1
:1061900097ED000B06EBC206491C032986ED000BA8
:1061A000F0DB521C032AE7DB48221946FDF766F8AC
:1061B00013B0F0BC5DF814FB30B59FED101BA1B01F
:1061C00000226C46B7EE000B002104EB42138A421A
:1061D00003EBC10502D1B0EE402B01E0B0EE412B44
:1061E000491C042985ED002BF1DB521C042AEBDB52
:1061F00080222146FDF742F821B030BD00000000AA
:10620000000000000FB40022F0B593B01AAC6D4648
:1062100002EB420104EB421305EBC1065FF0000103
:1062200003EBC10C06EBC1079CED000B491C0329D5
:1062300087ED000BF4DB521C032AE9DB48222946D8
:10624000FDF71CF813B0F0BC5DF814FB0FB4002090
:1062500010B586B008AA694602EB401301EBC004F2
:1062600093ED060B401C032884ED000BF4DB9DEC42
:10627000060B06B010BC5DF814FB00000FB49FEDD8
:106280001D0B00222DE9F047A0B082460DF1A809B0
:10629000E8464AAC5FF0000109EB421508EB4216F4
:1062A00006EBC103B0EE401B5FF0000083ED001B66
:1062B00004EB401C05EBC0070CEBC10C97ED002B69
:1062C0009CED003B401C042802EE031B83ED001BE9
:1062D000EEDB491C0429E3DB521C042ADADB8022B2
:1062E00041465046FCF7CAFF20B0BDE8F0075DF814
:1062F00014FB000000000000000000002DE9F04F3A
:10630000FF4D0024ADF57D7D05F52F6805F6E84AC3
:1063100005F5607602A8FFF74FFF9DED020B05EB38
:10632000C41080ED000B9DED040B80ED020B9DED84
:10633000060B80ED040B9DED080B80ED060B9DED2B
:106340000A0B80ED080B9DED0C0B80ED0A0B9DED0B
:106350000E0B80ED0C0B9DED100B80ED0E0B9DEDEB
:10636000120B80ED100B9DED140B80ED120B9DEDCB
:10637000160B80ED140B9DED180B80ED160B9DEDAB
:106380001A0B80ED180B9DED1C0B80ED1A0B9DED8B
:106390001E0B80ED1C0B9DED200B80ED1E0B04A849
:1063A000FFF70AFF9DED040B06EBC410B14680ED2C
:1063B000000B9DED060B80ED020B9DED080B80EDB3
:1063C000040B9DED0A0B80ED060B9DED0C0B80ED93
:1063D000080B9DED0E0B80ED0A0B9DED100B80ED73
:1063E0000C0B9DED120B80ED0E0B9DED140B80ED53
:1063F000100B9DED160B80ED120B9DED180B80ED33
:10640000140B9DED1A0B80ED160B9DED1C0B80ED12
:10641000180B9DED1E0B80ED1A0B9DED200B80EDF2
:106420001C0B9DED220B80ED1E0B08A8FFF776FEDE
:1064300004EBC4079DED080B08EBC70080ED000BD3
:106440009DED0A0B80ED020B9DED0C0B80ED040B16
:106450009DED0E0B80ED060B9DED100B80ED080BF6
:106460009DED120B80ED0A0B9DED140B80ED0C0BD6
:106470009DED160B80ED0E0B9DED180B80ED100BB6
:106480000CA8FFF74BFE9DED0C0B0AEBC700641C3C
:1064900080ED000B9DED0E0B072C80ED020B9DEDAA
:1064A000100B80ED040B9DED120B80ED060B9DEDA6
:1064B000140B80ED080B9DED160B80ED0A0B9DED86
:1064C000180B80ED0C0B9DED1A0B80ED0E0B9DED66
:1064D0001C0B80ED100BFFF61DAF9FED8A0B9FED9F
:1064E0008B1B8C4800218D4D80ED000B80ED020B45
:1064F00080ED041B8848046801EB41030020AA4694
:1065000005EB031204EB031303EBC00606F5D846B4
:1065100002EBC00796ED080B401C062887ED000B28
:10652000F2DB491C0729E7DBDFF8E8815FF00001B7
:1065300008F11808A8F5B47B01EB410201EB8100DA
:1065400000EBC1030BEB021508EB0216002004EB75
:10655000C30200BF02EBC00303F5D84305EBC0073D
:1065600093ED760B06EBC00C87ED000B93ED840BDF
:10657000401C06288CED000BECDB664802F5D84287
:10658000303800EBC10092ED820B491C062980EDEA
:10659000000BD1DB624B002202EB420102EBC20096
:1065A00008EB011103EBC00091ED000B521C80EDD4
:1065B000000B91ED020B062A80ED020B91ED040B0E
:1065C00080ED040B91ED020B80ED060B91ED060BB7
:1065D00080ED080B91ED080B80ED0A0B91ED040B9B
:1065E00080ED0C0B91ED080B80ED0E0B91ED0A0B7D
:1065F00080ED100BD0DB4B4F42A8A290002662A882
:10660000CDF884020DF5027806EB46011EA80AEBD0
:10661000011595ED042B95ED021B95ED000BFFF791
:106620001DF99DED1E0B07EBC61480A884ED000B31
:106630009DED200B84ED020B9DED220B84ED040BF0
:106640009DED240B84ED060B9DED260B84ED080BD0
:106650009DED280B84ED0A0B9DED2A0B84ED0C0BB0
:106660009DED2C0B84ED0E0B9DED2E0B84ED100B90
:106670009DED300B84ED120B9DED320B84ED140B70
:106680009DED340B84ED160B9DED360B84ED180B50
:106690009DED380B84ED1A0B9DED3A0B84ED1C0B30
:1066A0009DED3C0B84ED1E0B95ED0A0BFFF78CF86E
:1066B00094ED000B8DED400B94ED020B8DED420B34
:1066C00094ED040B8DED440B94ED060B8DED460B14
:1066D00094ED080B8DED480B94ED0A0B8DED4A0BF4
:1066E00094ED0C0B8DED4C0B94ED0E0B8DED4E0BD4
:1066F00094ED100B8DED500B94ED120B14E0000097
:106700005879002000000000000000001F85EB51B8
:10671000B89E2340F072002000000020507000203E
:1067200028740020D87500208DED520B94ED140BC9
:1067300080228DED540B94ED160B80A98DED560B38
:1067400094ED180B1EA88DED580B94ED1A0B8DEDE2
:106750005A0B94ED1C0B8DED5C0B94ED1E0B8DED27
:106760005E0BFCF78BFDA29978226846FCF786FD4C
:10677000DDE9402360A8FFF781FD9DED600B80A857
:1067800084ED000B9DED620B84ED020B9DED640B1F
:1067900084ED040B9DED660B84ED060B9DED680BFF
:1067A00084ED080B9DED6A0B84ED0A0B9DED6C0BDF
:1067B00084ED0C0B9DED6E0B84ED0E0B9DED700BBF
:1067C00084ED100B9DED720B84ED120B9DED740B9F
:1067D00084ED140B9DED760B84ED160B9DED780B7F
:1067E00084ED180B9DED7A0B84ED1A0B9DED7C0B5F
:1067F00084ED1C0B9DED7E0B84ED1E0B95ED080BBF
:10680000FEF798FF94ED000B80228DED600B94ED68
:10681000020B80A98DED620B94ED040B1EA88DED8B
:10682000640B94ED060B8DED660B94ED080B8DED6E
:10683000680B94ED0A0B8DED6A0B94ED0C0B8DED4E
:106840006C0B94ED0E0B8DED6E0B94ED100B8DED2E
:10685000700B94ED120B8DED720B94ED140B8DED0E
:10686000740B94ED160B8DED760B94ED180B8DEDEE
:10687000780B94ED1A0B8DED7A0B94ED1C0B8DEDCE
:106880007C0B94ED1E0B8DED7E0BFCF7F7FCA199B4
:1068900078226846FCF7F2FCDDE9602340A8FFF7A8
:1068A000EDFC9DED400B60A884ED000B9DED420BCF
:1068B00084ED020B9DED440B84ED040B9DED460B26
:1068C00084ED060B9DED480B84ED080B9DED4A0B06
:1068D00084ED0A0B9DED4C0B84ED0C0B9DED4E0BE6
:1068E00084ED0E0B9DED500B84ED100B9DED520BC6
:1068F00084ED120B9DED540B84ED140B9DED560BA6
:1069000084ED160B9DED580B84ED180B9DED5A0B85
:1069100084ED1A0B9DED5C0B84ED1C0B9DED5E0B65
:1069200084ED1E0B95ED060BFEF7BAFE94ED000B01
:1069300080228DED800B94ED020B60A98DED820B12
:1069400094ED040B1EA88DED840B94ED060B8DEDDC
:10695000860B94ED080B8DED880B94ED0A0B8DEDF5
:106960008A0B94ED0C0B8DED8C0B94ED0E0B8DEDD5
:106970008E0B94ED100B8DED900B94ED120B8DEDB5
:10698000920B94ED140B8DED940B94ED160B8DED95
:10699000960B94ED180B8DED980B94ED1A0B8DED75
:1069A0009A0B94ED1C0B8DED9C0B94ED1E0B8DED55
:1069B0009E0BFCF763FC782241466846FCF75EFCC0
:1069C000DDE9802340A8FFF759FC9DED400B761CC4
:1069D00084ED000B9DED420B072E84ED020B9DED27
:1069E000440B84ED040B9DED460B84ED060B9DEDF1
:1069F000480B84ED080B9DED4A0B84ED0A0B9DEDD1
:106A00004C0B84ED0C0B9DED4E0B84ED0E0B9DEDB0
:106A1000500B84ED100B9DED520B84ED120B9DED90
:106A2000540B84ED140B9DED560B84ED160B9DED70
:106A3000580B84ED180B9DED5A0B84ED1A0B9DED50
:106A40005C0B84ED1C0B9DED5E0B84ED1E0BFFF6C5
:106A5000DBAD42A8A79062A8A69082A8A59020A826
:106A6000A490AEA8A390CEA8A2900026CA46ECA8F7
:106A7000CDF8840206EB46081EA80BEB081595ED31
:106A8000042B95ED021B95ED000BFEF7E7FE9DED47
:106A90001E0B0AEBC61480A884ED000B9DED200BA5
:106AA00084ED020B9DED220B84ED040B9DED240B78
:106AB00084ED060B9DED260B84ED080B9DED280B58
:106AC00084ED0A0B9DED2A0B84ED0C0B9DED2C0B38
:106AD00084ED0E0B9DED2E0B84ED100B9DED300B18
:106AE00084ED120B9DED320B84ED140B9DED340BF8
:106AF00084ED160B9DED360B84ED180B9DED380BD8
:106B000084ED1A0B9DED3A0B84ED1C0B9DED3C0BB7
:106B100084ED1E0B95ED0A0BFEF756FE94ED000B6F
:106B200080228DED400B94ED020B80A98DED420B80
:106B300094ED040B1EA88DED440B94ED060B8DED2A
