:020000040800F2
:1000000078970120950300089D0300089F030008CE
:10001000A1030008A3030008A503000800000000D6
:10002000000000000000000000000000A70300081E
:10003000A903000800000000AB0300087D91000048
:10004000AF030008AF030008AF030008AF030008C8
:10005000AF030008AF030008AF030008AF030008B8
:10006000AF030008AF030008AF030008B5050008A0
:10007000D1050008AF030008453D0000AF030008AC
:10008000AF030008AF030008AF0300084D430000B2
:10009000AF03000875430000AF030008AF0300087A
:1000A000AF030008AF030008AF030008AF03000868
:1000B000AF030008AF030008AF030008AF03000858
:1000C000AF030008AF030008AF030008AF03000848
:1000D000AF030008AF03000825190008CDA90000F0
:1000E000AF030008AF03000800000000AF030008E2
:1000F000AF030008AF030008AF030008AF03000818
:10010000AF030008AF030008FD180008AF030008A4
:10011000AF030008AF030008AF030008B1A9000057
:10012000AF030008AF030008AF030008AF030008E7
:10013000AF030008AF030008AF030008AF030008D7
:10014000AF030008AF03000800000000000000003B
:10015000AF030008AF030008AF030008AF030008B7
:10016000AF030008AF030008AF030008AF030008A7
:10017000AF030008AF030008AF0300080000000051
:10018000AF030008AF030008AF030008AF03000887
:10019000AF030008AF030008AF030008AF03000877
:1001A000AF030008AF030008AF030008AF03000867
:1001B000AF030008AF030008AF030008AF03000857
:1001C000AF030008AF030008AF030008AF03000847
:1001D000AF030008AF030008AF030008AF03000837
:1001E000AF030008AF030008AF030008AF03000827
:1001F000AF030008AF030008AF030008AF03000817
:10020000AF030008AF030008AF030008AF03000806
:10021000AF030008AF030008AF030008AF030008F6
:10022000AF030008AF030008AF03000800000000A0
:10023000AF030008AF030008AF030008AF030008D6
:10024000AF030008AF030008AF030008AF030008C6
:10025000AF030008AF030008AF030008AF030008B6
:10026000AF030008AF030008AF030008AF030008A6
:10027000AF030008AF030008AF030008AF03000896
:10028000AF030008AF030008AF0300080000000040
:10029000AF030008AF03000800F002F800F06AF8AE
:1002A0000AA090E8000C82448344AAF10107DA45D1
:1002B00001D100F05FF8AFF2090EBAE80F0013F0B9
:1002C000010F18BFFB1A43F0010318474C3100001F
:1002D000AC3100000A444FF0000C10F8013B13F061
:1002E000070408BF10F8014B1D1108BF10F8015B8F
:1002F000641E05D010F8016B641E01F8016BF9D182
:1003000013F0080F1EBF10F8014BAD1C0C1B09D1D8
:100310006D1E58BF01F801CBFAD505E014F8016B4A
:1003200001F8016B6D1EF9D59142D6D370470000DC
:10033000103A24BF78C878C1FAD8520724BF30C811
:1003400030C144BF04680C607047000000230024E3
:1003500000250026103A28BF78C1FBD8520728BFD5
:1003600030C148BF0B6070471FB502F08BFE1FBD48
:1003700010B510BD00F0BCF81146FFF7F5FF02F014
:100380003FFE00F0DAF803B4FFF7F2FF03BC00F021
:10039000DDF800000948804709480047FEE7FEE70E
:1003A000FEE7FEE7FEE7FEE7FEE7FEE7FEE7FEE725
:1003B00004480549054A064B70470000FD17000830
:1003C00099020008789800207897012078A70020EB
:1003D00078A70020032A40F2308010F0030C00F0D0
:1003E000158011F8013BBCF1020F624498BF11F86F
:1003F00001CB00F8013B38BF11F8013BA2F1040228
:1004000098BF00F801CB38BF00F8013B11F003039F
:1004100000F02580083AC0F0088051F8043B083A03
:1004200051F804CBA0E80810F5E7121D5CBF51F8A5
:10043000043B40F8043BAFF30080D20724BF11F81F
:10044000013B11F801CB48BF11F8012B24BF00F884
:10045000013B00F801CB48BF00F8012B704710B5F5
:10046000203AC0F00B80B1E81850203AA0E81850AC
:10047000B1E81850A0E81850BFF4F5AF5FEA027C6D
:1004800024BFB1E81850A0E8185044BF18C918C0DC
:10049000BDE810405FEA827C24BF51F8043B40F87D
:1004A000043B08BF7047D20728BF31F8023B48BF62
:1004B00011F8012B28BF20F8023B48BF00F8012BA0
:1004C000704770477047704710B500F009F8006832
:1004D00010BD10B5044600F003F8046010BD000024
:1004E000004870471898002000487047189800206E
:1004F0007546FFF7F9FFAE4605006946534620F002
:100500000700854618B020B5FFF752FFBDE8204030
:100510004FF000064FF000074FF000084FF0000BBF
:1005200021F00701AC46ACE8C009ACE8C009ACE872
:10053000C009ACE8C0098D46704710B50446AFF35A
:1005400000802046BDE81040FFF71DBF014918207C
:10055000ABBEFEE726000200704745F2C12CC0F298
:10056000000C604743F23D3CC0F2000C604748F28B
:10057000B92CC0F2000C604744F6297CC0F2000C94
:10058000604742F2412CC0F2000C604742F2ED1C81
:10059000C0F2000C604743F2990CC0F2000C6047B7
:1005A00043F66D0CC0F2000C60474AF6C90CC0F26D
:1005B000000C604710B5054C2068800605D500F09A
:1005C00037FEA06840F02000A06010BD000002408F
:1005D00004480168090503D5816841F40061816020
:1005E000704700000000024010B500F007F800F06E
:1005F00051F8BDE8104000F0CFB900002348B0F832
:100600008E0908B1012100E000212148006880F82E
:10061000EE121E49B1F8901909B1012200E0002242
:1006200041F236310A541949B1F8921909B101223F
:1006300000E0002242F27E310A541449B1F89419C4
:1006400009B1012200E0002243F2C6310A540F49E9
:10065000B1F8961909B1012200E0002244F20E41DE
:100660000A540A49B1F8981909B1012200E00022A0
:1006700045F256410A540549B1F89A1901B10121D0
:1006800000F5C04080F89A14704700000000003860
:10069000000000202DE9F05FBB484FF0010BB0F8DF
:1006A0003E1ABA48012901D180F8E9B8B649B1F833
:1006B000401A012902D1022180F8E918B249B1F8A3
:1006C000421A012902D1032180F8E918AE49B1F894
:1006D000441A012902D1AE4A82F802B0AA49AD4EAD
:1006E000B1F8461AA0F8EC18A748B0F8481A3068D4
:1006F000012901D180F80DB04FF00009A249B1F8ED
:100700004A1A012901D180F80D909F48B0F84C0A8F
:10071000012804D1FFF721FF316881F824909A481D
:10072000B0F84E0A012801D100F0DEFF9648B0F87B
:10073000500A012806D1FFF715FFFFF718FF3168AF
:1007400081F825909048B0F8520A012801D100F0B4
:1007500037FF8D48B0F8540A012808D130684C465C
:1007600080F81090FFF708FF306880F8234040F2CF
:10077000391E85488246B0F8561A012930D1D6F87C
:10078000002000214FF4487301EBC10000EB41242D
:10079000002002EBC40500BF03F101080AEB430C83
:1007A0001FFA88F305EBC0070AEB4304BCF8E6C761
:1007B0005B1C07F58057B4F8E647401C9BB204EB7E
:1007C0000C4400EE104A0628B7EEC00A87ED780BFD
:1007D000E2DB491C0629D7DB82F8109082F82390CF
:1007E0000AEB4E000EF101075446B0F8E607012867
:1007F00007D1316881F810B0FFF7BEFE316881F88B
:10080000239004EB4700791CB0F8E607012804D1D7
:10081000326802F5C04282F8A1B4481C04EB4101E1
:10082000B1F8E617012904D1326802F5C04282F816
:10083000A194451C04EB4000B0F8E607012801D163
:10084000FFF79FFE04EB45006F1CB0F8E607012898
:1008500001D1FFF79BFE04EB47007E1CB0F8E607D2
:10086000012802D10220FFF791FE04EB4600751C1F
:10087000B0F8E607012802D10420FFF787FE04EB59
:100880004501681C85B2B1F8E607012802D10820AD
:10089000FFF77CFE04EB4501681C85B2B1F8E60762
:1008A000012802D11020FFF771FE04EB4501681CFE
:1008B00085B2B1F8E607012802D12020FFF766FED5
:1008C00004EB4501681C85B2B1F8E607012802D1A6
:1008D0004020FFF75BFE04EB4501681C85B2B1F8D0
:1008E000E607012801D1FFF756FE04EB4501681C1D
:1008F00085B2B1F8E607012802D10220FFF74BFECE
:1009000004EB4501681C85B2B1F8E607012802D165
:100910000420FFF740FE04EB4501681C85B2B1F8E6
:10092000E607012802D10820FFF735FE04EB450158
:10093000681C85B2B1F8E607012802D11020FFF744
:100940002AFE04EB4501681C85B2B1F8E6070128D0
:1009500002D12020FFF71FFE04EB4500B0F8E607A8
:10096000012802D14020FFF716FE4FF49670494649
:100970004FF4A57304EB4005421C90B29842A5F8D1
:10098000E617F7D9BDE8F09F0000003800F000241A
:100990000000002400000020FE482DE9F04300681C
:1009A0000F25FD4AFD4B00F5C0411646447A03F57C
:1009B0007043A2F8E647448AA6F8E847848AA6F876
:1009C000EA4790F82140A6F8EC4790F82240A6F8B4
:1009D000EE4793F8EA48A6F8F047F04C6478A6F89A
:1009E000F247D3F8283A1C0CA6F8F4471446A4F8AA
:1009F000F637037CA4F8F83791F8C034A4F8FA3736
:100A0000D1F8C4341B0CA4F8FC37B1F8C434A4F8F2
:100A1000FE37D1F8C8341B0CA4F80038B1F8C8343C
:100A2000A4F8023800246E1C04EBC40303EB442337
:100A3000B6B202EB450800EBC303751C02EB460798
:100A4000AEB293F8E4C2751CA8F8E6C702EB460CF8
:100A500093F8E582AEB2A7F8E687751C93F8E682B4
:100A6000ADB2ACF8E68702EB460793F8E7826E1C5E
:100A700002EB450CB5B2A7F8E6876E1C93F8E88246
:100A800002EB4507ACF8E687B5B2B3F8EAC26E1CD4
:100A9000B6B2A7F8E6C702EB4508751C02EB460C98
:100AA000B3F8EC62A8F8E667ADB293EDD00B6E1C1C
:100AB00002EB4508B7EEC00B1FFA86F909F10106F3
:100AC000B6B210EE105A2F0CACF8E67710EE105AB2
:100AD00002EB4907A8F8E657751C93EDD20B02EB21
:100AE0004608ADB2B7EEC00B10EE106A4FEA164CD6
:100AF000A7F8E6C710EE106A02EB450CA8F8E66707
:100B00006E1C93EDD60BB6B2B7EEC00B02EB4608E7
:100B100010EE105A2F0CACF8E67710EE105AA8F829
:100B2000E657761C93EDD80BB3B2641CBCEEC00B39
:100B300002EB43075B1C9DB2062C10EE106AA7F86F
:100B4000E667FFF670AF6C1C91F8926402EB450506
:100B5000A4B20023A5F8E66702EB4405661CB4B214
:100B600091F8A264A5F8E667661C02EB4405B4B2EE
:100B700091F8A364A5F8E667651C02EB4406ACB2E5
:100B800091F8A454A6F8E65702EB4405661CB4B2EB
:100B900091F89364A5F8E667651C02EB4406ACB2D5
:100BA00091F89454A6F8E657661C02EB4405B4B2DB
:100BB000B1F89664A5F8E66702EB4405661CB1F847
:100BC0009814B4B2A5F8E617611C02EB440489B28C
:100BD000A4F8E6374C1CA4B202EB410102EB440539
:100BE000A1F8E637611C8CB2A5F8E637651C02EB6C
:100BF0004404ADB200F5E041A4F8E6376C1CA4B2A1
:100C000002EB450502EB4406641CA4B2A5F8E637E6
:100C1000A6F8E63702EB4406B1F83855641CA4B2D6
:100C2000A6F8E65702EB4406B1F84A55641CA6F84C
:100C3000E657A4B2B1F8085502EB4406641CA4B20E
:100C4000A6F8E65702EB4406B1F80A55641CA4B2B4
:100C5000A6F8E65702EB4406B1F80C55641CA4B2A2
:100C6000A6F8E65702EB4406B1F80E55641CA4B290
:100C7000A6F8E65702EB4406B1F82055641CA4B26E
:100C8000A6F8E65702EB4406B1F82255641CA4B25C
:100C9000A6F8E657661C02EB4407B1F82455B4B237
:100CA000A7F8E657651CB1F82665A9B202EB440423
:100CB00002EB4105491CA4F8E66789B2A5F8E637BE
:100CC0004B1C90ED260B02EB41049BB2B7EEC00B20
:100CD00002EB43055B1C10EE101A0E0CA4F8E6673D
:100CE00010EE101AA5F8E61799B290ED2E0B4B1CDA
:100CF00002EB4104B7EEC00B9BB202EB43065B1C58
:100D000010EE101A0D0CA4F8E65710EE101AA6F803
:100D1000E61799B290ED360B4B1C02EB4104B7EE8F
:100D2000C00B99B202EB4106491C89B210EE103A91
:100D30001D0CA4F8E65710EE103A02EB4104A6F899
:100D4000E6374B1C90ED400B99B2B7EEC00B02EBAF
:100D50004106491C89B210EE103A1D0CA4F8E65762
:100D600010EE103A02EB4104A6F8E6374B1C90ED6A
:100D7000420B9BB2B7EEC00B02EB430610EE101A0B
:100D80000D0CA4F8E65710EE101A5B1CA6F8E61737
:100D900099B205E0000000200000003800000024A7
:100DA00090ED440B4B1C02EB4104B7EEC00B99B223
:100DB00002EB4106491C89B210EE103A1D0CA4F852
:100DC000E65710EE103A02EB4104A6F8E6374B1C4A
:100DD00090ED460B99B2B7EEC00B02EB4106491CF1
:100DE00089B210EE103A1D0CA4F8E65710EE103A36
:100DF00002EB4104A6F8E6374B1C90ED200B9BB2AA
:100E0000B7EEC00B02EB43065B1C10EE101A0D0C84
:100E1000A4F8E65710EE101AA6F8E61799B290ED6E
:100E2000220B4B1C02EB4104B7EEC00B9BB202EB52
:100E300043065B1C10EE101A0D0CA4F8E65710EEDA
:100E4000101AA6F8E61799B290ED240B4B1C02EB92
:100E50004104B7EEC00B99B202EB4106491C89B2BE
:100E600010EE103A1D0CA4F8E65710EE103A02EB03
:100E70004104A6F8E6374B1C90ED280B9BB2B7EE69
:100E8000C00B02EB430610EE101A0D0CA4F8E65747
:100E900010EE101A5B1CA6F8E61799B290ED2A0B1B
:100EA0004B1C02EB4104B7EEC00B9BB202EB4306B6
:100EB0005B1C10EE101A0D0CA4F8E65710EE101A79
:100EC000A6F8E61799B290ED2C0B4B1C02EB4104EF
:100ED000B7EEC00B99B202EB4106491C89B210EE85
:100EE000103A1D0CA4F8E65710EE103A02EB41043C
:100EF000A6F8E6374B1C90ED300B9BB2B7EEC00B5B
:100F000002EB43065B1C10EE101A0D0CA4F8E6571A
:100F100010EE101AA6F8E61799B290ED320B4B1CA2
:100F200002EB4104B7EEC00B9BB202EB43065B1C25
:100F300010EE101A0D0CA4F8E65710EE101AA6F8D1
:100F4000E61799B290ED340B481C02EB4103B7EE63
:100F5000C00B81B202EB410110EE100A040CA3F8A1
:100F6000E64710EE100AA1F8E607BDE8F08300237B
:100F70001A4601E08354521C8A42FBD3704700009A
:100F8000284870B5274A03680C32264923F4705369
:100F9000036020310368244C00254FF47A7643F433
:100FA000205303601368214843F4A05313600B6877
:100FB0001F4A43F0EE630B6025612B21A0611D48A1
:100FC000E2616661016020691B49084320610B20D2
:100FD00000F0E2FC15491948091DA5622C22154BA9
:100FE00021631B1D6063E6621A60A06A1249C13961
:100FF0000843A0620C2000F0CFFC0D48C021104C2B
:1010000008380A4D03680948B4FBF3F31838021F87
:101010001D24243D036011602C602620BDE8704033
:1010200000F0BABC000C025800000240244400400A
:10103000080000380008024011050300F0030038E2
:10104000000E27072DE9F04100F08CFAFFF798FF1A
:101050000E490E480C300A6800230C4CEF2522F094
:1010600001020A602434261D4FF47A7706F1040C3D
:1010700023603560CCF80070016841F00101016027
:10108000BDE8F041322000F087BC0000000C0040B9
:1010900070B5002305464FF6FF704AF201040CE0DC
:1010A000EA5C50400822C6074FEA500000D060407A
:1010B000521E12F0FF02F6D15B1C8B42F0D370BDC2
:1010C0002DE9F041594D2C4695F8D80714F8081F22
:1010D000814230D16178204640F2DC57062968D041
:1010E00004DC01290BD0032925D145E04F480F2905
:1010F000807B00F107001FD010291CD170E0062171
:10110000FFF7C6FFE279A17901EB022189B288429B
:1011100011D1012085F8E007A178E0782379627980
:1011200000EB012002EB03210844401E80B264283A
:1011300073D200F0C7F875E0C6B220463146FFF71B
:10114000A7FFA119A25D497802EB012189B288426B
:1011500068D10F2085F8E007A178E07823796279DB
:1011600000EB012102EB03200844401E80B26428FA
:1011700053D200F061F955E00621FFF789FFE279CB
:10118000A17901EB022189B288424BD1032085F875
:10119000E007A178E0782379627900EB012102EB86
:1011A00003200844401E80B2B84236D200F0CEF888
:1011B00038E00621FFF76CFFE279A17901EB02210B
:1011C00089B288422ED1062085F8E007A178E07820
:1011D00000EB012080B2B8421FD200F0FBF821E002
:1011E000C6B220463146FFF753FFA119A25D4978E8
:1011F00002EB012189B2884214D1102085F8E00762
:10120000A178E0782379627900EB012102EB0320D9
:101210000844401E80B2B84202D300F02FF801E02B
:1012200000F060F9BDE8F04100F002B800000038BD
:1012300008484FF47A71026922F001020261826863
:1012400042F0200282604161016941F001010161C7
:10125000704700000000024007498A6A22F001023C
:101260008A628A6842F400628A60C862886A40F0D2
:1012700001008862704700000000024070B5104D08
:1012800002204FF47A7105F57C7485F8D90705F5CD
:10129000FB652046FFF76BFE287803212070287A33
:1012A000803060706878A0702046FFF7F1FE020A77
:1012B000E07022710521BDE870400846FFF7CCBF01
:1012C000000000382DE9F0411F4D4FF47A71A5F56B
:1012D0007C742846FFF74BFE237B2046627BE17A35
:1012E000A67A02EB032290F8D877D21D2F70032440
:1012F00090F8E03701EB0621C2F3C7026B7089B2A8
:10130000AA70012A02D0022A06D010E0B0F8E40741
:101310000424C840E8700AE0B0F8E42701F10803AB
:101320000524CA40EA70B0F8E407D8402871214685
:101330002846FFF7ADFE611C020A2855A01C6A541E
:10134000BDE8F041FFF788BFF00300382DE9F04118
:101350001F4C4FF47A71A4F57C752046FFF707FE09
:101360006A7B29462B7BE87AAE7A02EB032291F85E
:10137000D857FF23257000EB062080B2861803257E
:1013800003EA420391F8E027761E6270B6B2A370BA
:101390000DE001EB40036A1C92B2B3F8E6773F0A16
:1013A000675593F8E657531CA5549DB2401CB042B4
:1013B000EFDD29462046FFF76BFE691C020A6055E7
:1013C00088B2411C2254BDE8F04188B2FFF744BF07
:1013D000F003003870B5174D4FF47A71A5F57A74A3
:1013E0002846FFF7C4FDA278A4F10801E07823792C
:1013F00000EB022080B21A0201EB400301EB400037
:10140000A3F8E627B0F8E61762791144A0F8E617CA
:101410000020215C2954401C0628FADB06212846BE
:10142000FFF736FEA871010AE9710820BDE8704097
:10143000FFF712BFF00300382DE9F047284D4FF4B5
:101440007A71A5F57A742846FFF791FD94F802C0E9
:10145000A4F1080327790020E278667902EB0C2CCE
:10146000A17906EB0727B3F8E4271FFA8CF6374477
:10147000A7F101071FFA87FC012902D0022902D037
:1014800007E0E07903E0217AE07900EB0120B04049
:1014900080B24FF0010900273946B14205DB6145B2
:1014A00003DC09FA01F84744BFB2491C1029F4DBF8
:1014B000BA4338400243A3F8E4270020215C2954B2
:1014C000401C0628FADB06212846FFF7E1FDA8713B
:1014D000010AE9710820BDE8F047FFF7BDBE000032
:1014E000F00300382DE9F0411D4D4FF47A71A5F558
:1014F0007A742846FFF73BFDA2780720E178A4F133
:1015000008072679637901EB022189B203EB0622F1
:101510000A44521E92B20FE0235C401C07EB4106C6
:1015200080B21B02A6F8E63714F800C0401C80B257
:10153000491C6344A6F8E6379142EDDD0020215CAA
:101540002954401C0628FADB06212846FFF7A0FD97
:10155000A871010AE9710820BDE8F041FFF77CBEDF
:10156000F003003870B54FF47A7412482146FFF743
:10157000FEFC11482146FFF7FAFC104B4FF4E13016
:101580000C490022B3FBF0F308390124C1E9000340
:1015900081F8E02740F2DC5381F8D8471046A1F8E3
:1015A000E427441C01EB4005A0B29842A5F8E627C9
:1015B000F7D370BD08000038F003003840420F0038
:1015C000474A0023F0B447494FF4FA70D2F800407C
:1015D00003EB4305002204EB051500BF00F1010CED
:1015E00001EB40071FFA8CF005EBC20601EB400C43
:1015F000B7F8E677401C06F5E046BCF8E6C7521C93
:1016000080B20CEB074700EE107A062AB7EEC00A4C
:1016100086ED340BE2DB5B1C072BD9DB5FF00005AA
:1016200005EB850202EBC503002204EBC30300BFF8
:1016300000F1010C01EB40061FFA8CF003EBC2072E
:1016400001EB400CB6F8E667401C07F5E047BCF834
:10165000E6C7521C80B20CEB064600EE106A062A62
:10166000B7EEC00A87ED880BE2DB0022461C01EBD7
:10167000400CB0B203EBC207BCF8E66701EB400CCC
:10168000401C07F5E047BCF8E6C7521C80B20CEBE3
:10169000064600EE106A062AB7EEC00A87ED960BE2
:1016A000E4DB421C01EB400690B203F5E043B6F8E0
:1016B000E62701EB4006401C6D1CB6F8E66780B2D9
:1016C000072D06EB024200EE102AB7EEC00A83EDAA
:1016D000940BA5DB002084F82500F0BCFEF747BF83
:1016E000000000200000003842490022F0B54248C6
:1016F0004FF4C8730D685C1C00EB4306A3B202EB09
:10170000C201B6F8E64700EB43065B1C9BB2B6F895
:10171000E66701EB4221521C06EB044400EE104A3E
:1017200003F1010600EB4304B7EEC00AB3B205EBC8
:10173000C10100EB430601F5805103F1010381ED86
:101740008C0BB4F8E6479BB2B6F8E66703F10107E5
:10175000062A06EB044400EE104A00EB4306BBB237
:10176000B7EEC00A00EB430703F101039BB203F19C
:10177000010C81ED8E0BB6F8E647B7F8E6674FEA45
:1017800004473E4400EE106A00EB43041FFA8CF35A
:10179000B7EEC00A00EB430603F101039BB281EDF3
:1017A000900BB4F8E647B6F8E67700EB43064FEA4D
:1017B000044C674400EE107A03F10104A3B2B7EEC3
:1017C000C00A00EB430703F101039BB281EDAA0BB2
:1017D000B6F8E647B7F8E66706EB044400EE104AB1
:1017E000B7EEC00A81EDAC0B85DB002085F8240044
:1017F000F0BD000000000020000000383548F0B5C2
:10180000344903687839344A43F470030360086844
:1018100040F010000860106800F00F00072804D2A4
:10182000106820F00F00C01D10602C4900202B4CC8
:1018300010340B682A4D43F001030B6020600B68E5
:101840002B400B60136803F00F03072B04D91368B8
:1018500023F00F03DB1D1360204C224A1834224B67
:10186000261D371D20601D4C204D28343060261D5C
:101870003860371D23603B1D35601C1D3A60251DF7
:101880002E1D1860331D22602860326018600B68BE
:101890004FF0B042114C23F480230B606034206081
:1018A000D2F8E400124940F48040C2F8E40008682D
:1018B0006FF30F00B0F1005F03D20E490120C1F8B1
:1018C000080143F2D2000C49024B4A03803B0860F6
:1018D0001A60F0BD88ED00E000200052004402587C
:1018E0007FEDF6EA80020101000202020000FF0122
:1018F0000010005C008000510040005210B5084C00
:101900002068C0070BD006481038016821F001019B
:101910000160FFF7D5FB206820F00100206010BDBA
:10192000100C00400C480068C00613D50B48006836
:101930000B480146007A91F8D817884204D109482B
:10194000016841F0010101600348001D016841F098
:1019500010010160704700001C4400402448004012
:1019600000000038000C004003B4019841000098CA
:1019700050EAC12018BF04204A0D18BF40F00100F2
:1019800040F2FF72B2EB515F08BF40F00200012845
:1019900008BF052002B07047002809DB410900F0AC
:1019A0001F028900012001F1E0219040C1F80001EF
:1019B000704700000000000010B5694A2DED020BD1
:1019C0002DED0C8B82B00F9921F000409FED66CB7E
:1019D00090422CDBA0F140530E9AA3F17F631A438F
:1019E0000FD06349884202DC16D10E98A0B19DED5C
:1019F0000E0B02B0BDEC0C8B02B0BDE8104001F044
:101A0000BFBA0029CCBF9FED5C0BB0EE4C0B02B00F
:101A1000BDEC0C8B02B010BD0120FEF75AFD02B0E8
:101A2000BDEC0C8B02B0BDE8104001F0B1BA544AD5
:101A30009FED558B9FED569B90422ADA56499FEDBC
:101A400058BB8142A8BFB0EE4B0BE0DA9DED0E0B08
:101A50005548062120EE00ABB0EE4A0B784401F069
:101A6000F3F920EE0ACB5148B0EE4A0B042178443A
:101A700001F0EAF90AEE008B9DED0E1B8CEE080BCF
:101A800001EE409B9DED0E0B30EE490B3BEE400B03
:101A9000BDE79FED470B9FED48BB9DED0E1B002959
:101AA00026DA31EE081B4648062121EE00ABB0EEE7
:101AB0004A0B784401F0C8F920EE0ADB4148B0EE49
:101AC0004A0B0421784401F0BFF90AEE008B51EC77
:101AD0001A0B01F09AFA8DEE081B41EC100B11EE77
:101AE000009B30EE091BB0EE4C0B01EE4B0B8EE76A
:101AF00038EE411B21EE009B51EC190B01F085FAE9
:101B000041EC1C0B00208DED00CB00909DED001BE7
:101B10009DED002BB0EE490B2B4801EE420B062148
:101B20003CEE011B80EE01ABB0EE490B784401F0B6
:101B30008BF920EE09DB2548B0EE490B04217844EF
:101B400001F082F909EE008B8DEE080B00EE0CAB74
:101B50009DED000B30EE0A0B20EE0B0B57E700005B
:101B60000000F03F00000000182D4454FB21094004
:101B70000000F07F000000000000000000000000F6
:101B80000000E03F00000000000000000000F03F07
:101B9000075C143326A6913C0000603C0000000066
:101BA000182D4454FB21F93F201700003E17000078
:101BB000000000000000E03F0000000000000040C6
:101BC000CA160000E8160000501600006E1600004D
:101BD00070B565482DED020B2DED048B059D25F0AC
:101BE0000044A04218DC6148844202DC0AD1049817
:101BF00040B19DED040BBDEC048B02B0BDE870401C
:101C000001F0BEB9002DCCBF9FED590B9FED5A0BD3
:101C1000BDEC048B02B070BD5948A04215DD594897
:101C2000A042D8BF4FF0FF3455DD9DED040B51ECC1
:101C3000100BFFF799FE042808BF01F0C1F99DEDD4
:101C4000040BBDEC048B02B070BD9DED040B51EC98
:101C5000100B01F0C9F9CDE904014B489FED4C0B85
:101C6000A0421CDD4C48A0420BDD9DED042B00245E
:101C70009FED4B1B12EE010B32EE011B80EE012B90
:101C800027E09DED041B9DED042B012431EE401B4C
:101C900032EE000B81EE002B8DED042B1BE0424851
:101CA000A0420FDD9DED042B02249FED411B9DED15
:101CB000043B32EE412B03EE010B82EE001B8DED57
:101CC000041B08E09DED040B9FED3B1B032481EEFC
:101CD000002B8DED042B9DED040B3948062120EEE1
:101CE000009B29EE098BB0EE480B784401F0ACF86C
:101CF00020EE099B3348B0EE480B0521784401F0F3
:101D0000A3F820EE080B002C0BDA9DED042B39EE26
:101D1000001B9DED040BBDEC048B02B002EE410BE9
:101D200070BD2948784439EE000B00EBC4009DEDEE
:101D3000042B90ED001B254812EE001B9DED040BBB
:101D400031EE400B784400EBC400002D90ED001BF9
:101D500031EE400BB8BFB1EE400BBDEC048B02B0CE
:101D600070BD000000000000000010440000F07F83
:101D7000182D4454FB21F93F182D4454FB21F9BF81
:101D80000000DC3F0000203E0000F33F00000000A8
:101D9000000000000000F03F0000E63F00000000EF
:101DA0000000000000000040008003400000000030
:101DB000000000000000F83F000000000000F0BF3D
:101DC000D2150000981500005015000010150000F5
:101DD00070B5614E2DED040B2DED048B82B0DDF856
:101DE00024C0DDE907235C422CF000411C4341EA9A
:101DF000D474069D22F00040B44205D86C422C43B6
:101E000040EAD474B4420BD99DED081B9DED060B3E
:101E100002B0BDEC048B04B0BDE8704001F0B3B873
:101E2000ACF14054A4F17F641C430BD0022404EABB
:101E3000AC7444EAD27405439FED498B9FED4A2B65
:101E40000DD016E09DED060B51EC100B01F0C4F81F
:101E500041EC100B02B0BDEC048B04B070BD002C43
:101E600014BF012C9DED060BF4D0022C2ED0032CB8
:101E70002FD00B439FED3E1B9FED3F0B0AD0B1428D
:101E80001DD1B04209D121F0804120F0804009915C
:101E9000079014E0002ADDDA15E0394B7B44002C72
:101EA00008BF93ED000BD5D0012C04BF93ED000BC0
:101EB000B1EE400BCED0022C08D0032C09D0B0429A
:101EC0000AD1002AC6DAB0EE410BC3E7B0EE480BE8
:101ED000C0E7B0EE420BBDE7401A00159FED2A9B0C
:101EE0003C28C8BF8DED000B15DCBCF1000FBCBF5A
:101EF00010F13C0F8DED009B0DDB9DED061B9DED64
:101F0000082B81EE020B51EC100B01F06DF801F083
:101F100063F8CDE9000194B1012C0CD09DED001BBC
:101F20009FED1B0B022C31EE400B0CBF38EE400B2B
:101F300030EE480B8EE7019880F0004001909DED57
:101F4000000BB4EE490BF1EE10FA04BF0220FEF7CD
:101F5000C0FA9DED000B7DE70000F07F000000005F
:101F6000182D4454FB210940182D4454FB2109C06D
:101F7000182D4454FB21F9BF182D4454FB21F93F7F
:101F800080140000000000000000000000000000BD
:101F9000075C143326A6A13C10B529499FED261BEA
:101FA0002DED020B84B0059820F000408842D8BF88
:101FB0009DED040B2DDD2349884209D1049840B9D9
:101FC0004FF00100FEF785FA00F0E2FF06B010BD09
:101FD00005DB9DED040B30EE000B06B010BD68462E
:101FE0009DED040B00F038FD10F0030004BF9DEDE3
:101FF000021B9DED000B0CD001280ED09DED021BA5
:102000009DED000B022810D0012000F055FF06B016
:1020100010BD00F0A9FE06B010BD9DED021B9DEDA8
:10202000000B012000F048FF01E000F09DFE06B02B
:10203000B1EE400B10BD00000000000000000000E9
:10204000FB21E93F0000F07F2DE9F04D2DED040B61
:102050002DED0A8B9AB0DDE92550279CDDF890A084
:1020600025F0004624F00048BAF1000F14BF01210A
:10207000002101EB4502F84953184A1093422AD334
:10208000002814BF0123002303EB44030B44F3494E
:102090008B4220D358EA00019FEDF19B72D0DFF80C
:1020A000C8B35D4503D1BAF1000F05D184E0BAF1A0
:1020B000000F08BF002100D0012101EB450111F5FF
:1020C000001F08D8002814BF0121002101EB4401A2
:1020D00011F5001F0BD99DED261B9DED240B1AB0A9
:1020E000BDEC0A8B04B0BDE8F04D00F04CBF0027FA
:1020F000002DBCBFDD49884521DADD498845A8BFF0
:1021000002271CDAC3451ADCDA4901EB28511429ED
:1021100008DDC1F1340220FA02F101FA02F2824232
:102120000DD108E058B9C1F1140228FA02F101FA00
:1021300002F2424503D101F00101C1F1020756EA62
:102140000A0120D1002C1EDA002D18BF022F01D069
:10215000012F0AD00220FEF7BCF91AB0BDEC0A8BA1
:1021600004B0BDE8F04D00F0FBBE0220FEF7B1F96F
:1021700000F0F6FEB1EE400B1AB0BDEC0A8B04B0D5
:10218000BDE8F08D18E09FEDBCAB9FEDBD8B002846
:102190007DD1B64880451CD105F1804010F58010F6
:1021A00008BFBAF1000F07D0B34508DC002CA8BF68
:1021B0009DED260BE0DA07E0B0EE490BDCE7002CE2
:1021C000B8BF9DED260BD5DBAF48784490ED000BF2
:1021D000D2E7D84548D1002C43DA2EB186423AD115
:1021E000BAF1000F3DD126E0BAF1000F13D0022062
:1021F000FEF76FF900F0D8FE8DED020B9DED240B7C
:102200008DED000B10EE900A039961F31E00039010
:102210009DED020BB0E78DED02AB9DED240B1AEEA8
:10222000901A10EE900A8DED000B61F31E000390E2
:102230009DED020BA0E78DED028B9DED240B18EEBA
:10224000901A10EE900A8DED000B61F31E000390C2
:102250009DED020B90E704DA9DED241B89EE010B46
:102260008AE79DED240B87E786421ADAB4F1804FA6
:1022700004BF9DED240B20EE000B3FF47DAFA4F1D5
:102280000050B0F1FF500CD1002D0ADB00E008E057
:102290009DED240B51EC100B00F0B7FE41EC100B40
:1022A0006AE79DED240B51EC100B00F09DFEBAF196
:1022B000000FCDE90E0140D19FED750B46B3A6F19D
:1022C000E040B0F17F600ED05E4536D1002D00DADF
:1022D00097B3022F0CBF01204FF0FF3000EE100A21
:1022E000B8EEC00B48E7002D01DD002C0DDA002D03
:1022F00001DD002C1DDB002D14DA002C12DB012F78
:1023000008BF9FED650B3FF437AFB0EE4A0B33E7E4
:10231000022F18BF002D0CD0012F0AD1002DFFF67F
:102320002BAF06E0002DB8BF002C06DA012F3FF4DA
:1023300023AFB0EE480B1FE719E0012000EBE5707A
:1023400050EA070113D0791EB0EE498B084308BF4D
:102350009FED538B5448002580457ADD53495448FE
:10236000884514DDB0420DDB002C19DB2CE0012088
:10237000FEF7AFF81AB0BDEC0A8B04B0BDE8F04D23
:1023800000F006BEB34502DC002C09DC1CE08642EE
:1023900002DA002C18DA03E05E4528DD002C13DD9C
:1023A0000220FEF796F800F0FFFD8DED020B28EEFF
:1023B0000A0B8DED000B10EE900A039961F31E00DD
:1023C00003909DED020BD7E60220FEF782F800F0A5
:1023D000F7FD10EE901A18EE900A8DED020B8DEDC0
:1023E000008B61F31E0003909DED020BC4E69DED92
:1023F0000E0B9FED313B30EE490B8DED040B20EEC3
:10240000002B9DED041B9FED2E0B01EE430B9DED6C
:10241000043B9FED2D1B03EE401B9DED040B9FED38
:102420002E3B22EE012B9FED2A1B20EE011B20EEFE
:10243000030B9FED2B3B02EE430B31EE002B8DED9A
:10244000022B02959DED022B32EE411B30EE411B1B
:1024500021E149E000000000FFFF1F00FFFF0F0027
:10246000000000000000F03F0000F03F0000F07F9F
:102470000000404301FCFFFF000000000000F07F6F
:1024800000000000000000005211000000000000E9
:102490000000000000000080000000000000F0FFCD
:1024A000000000000000F0BF0000E0410000F04329
:1024B000FFFFEF3F00000000000000000000D03FE1
:1024C000555555555555D53F000000000000E03FDB
:1024D000000000604715F73F44DF5DF80BAE543E47
:1024E000FE822B654715F73F0020B6F5801F0BDAFB
:1024F0009DED0E0B9FEDEC1B6FF0340020EE010BF9
:1025000010EE906A8DED0E0BE94A00EB2650C6F3F3
:102510001301A0F2FF3741F07F6040F0405091423C
:10252000D8BF002408DDE34A8A42C8BF012403DC87
:102530000024A0F580107F1CDF49794401EBC40121
:102540000F9091ED001B9DED0E2B9DED0E0BDB49C9
:1025500031EE023B30EE410B89EE032B20EE02AB55
:102560008DED02AB7944029591ED003B4FF00051A7
:1025700041EA600000EB84408DED043B00F5002053
:1025800005909DED043B9DED044B2AEE0ACB33EE06
:10259000411B9DED0E3BCA48062133EE411B9DEDCC
:1025A000023B03EE440B03EE410B20EE02BBB0EE08
:1025B0004C0B784400F048FC2CEE0C1B20EE010B79
:1025C0009DED021B31EE0A1B0BEE010B9DED021B74
:1025D00021EE011B9FEDBC2B31EE023B33EE003BA5
:1025E0008DED043B04959DED043B33EE422B32EE22
:1025F000411B30EE412B9DED020B9DED041B20EEA7
:10260000011B9DED040B2BEE000B02EE0A0B31EECD
:10261000002B8DED022B02959DED022B32EE411B1E
:1026200030EE410B9DED021B9FEDA92B21EE021B0D
:102630009DED022B9FEDA83B22EE032B9FEDA83BC7
:10264000A94800EE032B784400EBC40090ED000B8A
:10265000A64832EE000B02EE107AB8EEC22B8DEDDA
:10266000042B31EE003B784400EBC4009DED044B9D
:1026700090ED002B33EE023B33EE043B8DED023B3D
:1026800002959DED023B33EE443B33EE422B32EE9E
:10269000411B30EE411B9DED260B954A8DED000B45
:1026A00000959DED260B9DED002B30EE420B9DED30
:1026B000022B20EE020B9DED262B02EE010B9DED71
:1026C000001B9DED022B21EE021B8DED021B30EE57
:1026D000011B11EE900A11EE101A8DED001B9042B5
:1026E00024DB821A11430ED19FED831B9DED002B3D
:1026F0009DED023B30EE011B32EE432BB4EEC21BCC
:10270000F1EE10FA26DD0220FDF7E3FE00F04CFCAE
:1027100010EE901A18EE900A8DED020B8DED008BE5
:1027200061F31E0003909DED020B25E5744B20F034
:1027300000429A420ED3734A024411437FF444AEDE
:102740009DED022B31EE421BB4EEC01BF1EE10FAF0
:10275000BFF63AAE20F000416B4A6C4B002402EB0E
:1027600021529942D8BF9DED021B27DD511C4FF429
:10277000801222FA01F10144654BC1F30A527B44F5
:10278000A2F2FF3293ED001B624B8DED041BD34090
:1027900021EA0303C1F3130141F48011C2F11402D1
:1027A00021FA02F405930028B8BF64429DED021B94
:1027B0009DED042B31EE421B8DED021B30EE011B13
:1027C0008DED041B04959DED041B9FED532B9DED9A
:1027D000023B21EE021B9DED042B32EE432B30EE2B
:1027E000420B9FED4F2B20EE020B9DED042B9FED36
:1027F0004E3B4F48052102EE030B31EE002B8DEDD1
:10280000002B32EE411B30EE41AB9DED000B20EE74
:10281000000B8DED040B784400F016FB9DED001BC2
:102820009DED042B02EE401B8DED021B9DED000B78
:1028300020EE010B9FED402B31EE422B80EE021B70
:102840009DED002BB0EE4A0B02EE0A0B31EE400B71
:102850009DED001B30EE410B39EE400B10EE900A5F
:102860008DED000B00EB045001150029C8BF01904D
:1028700013DC224651EC100B00F03BFCFFF774F820
:10288000042808BF00F09CFB22469DED000B51EC94
:10289000100B00F02EFCCDE900019DED000B28EEA1
:1028A000000B69E40000000000000000000040434D
:1028B0008E9803007AB60B00920C0000B80D000051
:1028C0004A0C00000000000000000000000008406A
:1028D000000000E009C7EE3FF5015B14E02F3EBEAB
:1028E000FD033ADC09C7EE3FA60B0000760B0000A3
:1028F0000000904000000000FE822B654715973CC9
:1029000000CC904000346F3F01FCFFFF0000E03F2F
:102910009E0B0000FFFF0F0000000000432EE63F6B
:10292000EF39FAFE422EE63F396CA80C615C20BEFE
:10293000160A000000000000000000000000004037
:1029400010B529499FED261B2DED020B84B005988B
:1029500020F000408842DCBF00209DED040B2EDDFE
:102960002249884209D1049840B94FF00100FDF78F
:10297000B0FD00F00DFB06B010BD05DB9DED040BB6
:1029800030EE000B06B010BD68469DED040B00F064
:1029900063F810F003000DD0012814D09DED021B48
:1029A0009DED000B022816D000F0DEF906B0B1EE66
:1029B000400B10BD9DED021B9DED000B012000F0B2
:1029C0007BFA06B010BD9DED021B9DED000B00F0E3
:1029D000CBF906B010BD012000F06EFAE6E700006A
:1029E0000000000000000000FB21E93F0000F07F34
:1029F00000B52DED028BB1EEC08B83B018EE100A3E
:102A000018EE901A8DED008B002818BF01200843A6
:102A100020F00040C0F17F6000F1E040C00F14D012
:102A200010EE101A10EE900A8DED000B002918BF61
:102A30000121084320F00040C0F17F6000F1E04038
:102A4000C00F04BF0120FDF744FDB0EE480B03B0FA
:102A5000BDEC028B00BD00002DE9F14F04462DEDC9
:102A6000020B2DED048B94B09FED9D0B80ED020BBE
:102A7000199E9D4826F0004585420ADC9DED180B05
:102A8000002084ED000B14B0BDEC048B03B0BDE856
:102A9000F08F96489FED969B9FED978BA84225DD82
:102AA00097489FED991B9FED9A2B9DED180B002EDB
:102AB0000DDD30EE490B854212BF30EE480B30EE93
:102AC000410B30EE420B84ED000B0120DBE730EED2
:102AD000090B854212BF30EE080B30EE010B30EED1
:102AE000020B84ED000B4FF0FF30CCE78A48A84280
:102AF00053DB9DED180B51EC100B00F075FA41EC17
:102B0000100BB0EE401B9FED862B9FED870B290D20
:102B1000DFF81CC201EE020B0120FDEEC00B10EE2F
:102B2000903A00EE903AB8EEE02BB0EE410B02EE98
:102B3000490B22EE081BFC44032830EE411B84EDB8
:102B4000001B1DD011EE902A00EB4015113DC2F381
:102B50000A528A1A954213DA0CEB0012B0EE403B8F
:102B600092ED000B401C20EE021B33EE410B33EEC6
:102B7000403B33EE411B92ED023B12EE031BDBE7C1
:102B8000002EA8BF1846BFF67EAF94ED000B58424A
:102B9000B1EE400B84ED000B75E7C6F3130040F473
:102BA000801EC6F30A50A0F2F530471100F01F0551
:102BB000C5F12000DDF860B0139000200890099066
:102BC00005200DF1080C5B49002D07EB000279444C
:102BD00008BF51F8221009D051F8223001EB8201D0
:102BE000AB404A68139922FA01F11943A1FB0E2662
:102BF000A1FB0B131A449A4234BF0123002303EBB9
:102C000006080CEB8003D3E901A60E448E4234BFC4
:102C10000121002192448A4411B1924502D903E076
:102C2000924501D2012100E00021C3E901A64144FF
:102C30004CF82010011EA0F10100C4DC04989DEDA9
:102C4000050A00F10050810F04989FED3B4B800076
:102C500001EE100ADDED060A9DED072AB8EEC13B34
:102C6000B8EE401BB8EE600BB8EE422B002021EE10
:102C7000041B9FED334B20EE040B9FED334B22EEF4
:102C8000042B30EE024B34EE014B34EE034B8DED52
:102C9000004B00909DED004B199834EE433B10F033
:102CA000004F33EE411B31EE400B32EE401B9DEDE9
:102CB000000B9FED272B20EE020B9FED272B01EE43
:102CC000020B9DED001B9FED262B01EE020B1CBF9E
:102CD0004942B1EE400B84ED000B0846D3E60000FC
:102CE0000000000000000000FB21E93F7CD9024009
:102CF00000004054FB21F93F3163621A61B4D03DBA
:102D0000FB21F93F000000000000601A61B4D03DD3
:102D10007370032E8A19A33BFB2139410000000088
:102D200083C8C96D305FE43F000000000000E03F51
:102D3000EE07000086070000000000000000103EC3
:102D4000000000000000103C000000000000103AED
:102D50003326A611460B113C182D4454FB21F93D96
:102D600000000054FB21F93D10B52DED040B2DEDB5
:102D7000068B82B0B0EE41AB09989FED299B20F005
:102D80000044B4F1795F0FDA9DED080BBDEEC00B86
:102D900010EE100A002801BFB0EE490B02B0BDECE6
:102DA000068B04B008BF10BD9DED080B1E48062120
:102DB00020EE008BB0EE480B784400F045F820EE92
:102DC000080B9DED081B1C48844228EE000B01EE09
:102DD0004A0B9FED171B28EE011BBCBF31EE400BC9
:102DE00039EE400B16DB1548A042BCBF9FED142BFB
:102DF0008DED002B06DBA4F5001001900020009063
:102E00009DED002B31EE421B39EE422B31EE400B93
:102E100032EE400B02B0BDEC068B04B010BD0000DA
:102E2000000000000000F03F34050000000000003A
:102E3000000000000000E03F3333D33F0000E93FD3
:102E4000000000000000D23F491E00EBC102B0EEBE
:102E5000401B92ED000B31F006020DD0491E00EB35
:102E6000C102B0EE403B92ED002B31F00602B0EE15
:102E7000420B03EE010BF1D1022914D004290AD030
:102E8000062918BF704790ED0A2B00EE012B90ED3C
:102E9000080B02EE010B90ED062B00EE012B90EDDE
:102EA000040B02EE010B90ED022B00EE012B90EDD6
:102EB000000B02EE010B704731B504462DED040BFB
:102EC0002DED068BB0EE419B07989DED060B20F093
:102ED0000040B0F1795F0DDA51EC100BFEF744FDC4
:102EE000042808BF00F06CF89DED060BBDEC068BC6
:102EF00005B030BD20EE008B1348052128EE00AB55
:102F0000B0EE480B7844FFF79FFF9FED111B8CB18B
:102F10009FED112B29EE022B0AEE402B9DED060BA7
:102F200018EE029B0AEE419B30EE490BBDEC068B7E
:102F300005B030BD08EE001B9DED060B0AEE010B3F
:102F4000BDEC068B05B030BDE804000000000000B9
:102F5000495555555555C5BF000000000000E03FDC
:102F60009FED031B9FED042B81EE020B70470000C9
:102F7000000000000000F03F000000000000000022
:102F800030EE000B704730EE010B70470000000080
:102F90009FED031B81EE010B704700000000000055
:102FA00000000000000000009FED030B20EE000B6E
:102FB00070470000000000000000000000000070EA
:102FC0009FED030B20EE000B704700000000000097
:102FD000000000000000001010B541EC100BFEF7DF
:102FE000F7FD51EC100B10BD82B0CDE9000121F0CE
:102FF000004001909DED000B02B051EC100B7047AA
:10300000FDF7CEFAFDF7D1FAFCE700B541EC100B65
:103010002DED028B83B0B1EEC08B18EE100A18EEC6
:10302000901A8DED008B002818BF0120084320F076
:103030000040C0F17F6000F1E040C00F14D010EEFE
:10304000101A10EE900A8DED000B002918BF012117
:10305000084320F00040C0F17F6000F1E040C00F65
:1030600004BF0120FDF735FA51EC180B03B0BDEC9D
:10307000028B00BD02494FF0000000F008B800BF0D
:103080000000F87F4FF04070E1EE100A70470CF03E
:103090000F03092B08BF082000F059800A2B0BD022
:1030A000082B18BF704708BF1CF0400F0AD04FF024
:1030B00000004FF0000170471CF0400F18BF4FF0A8
:1030C000004070471CF0100F08D020F0704300F053
:1030D0007F4242EAD3014FEA4370704700F06040FC
:1030E00021F07F4242EA000201F07F4040EA727024
:1030F00070474FF0FF0C4CF4E06C1CEA11531CBFFE
:103100009CEA030C9445C2BFDA4201EB02517047BE
:10311000002B0DD0BCF1000F0FD0002A01F00041B0
:10312000A4BF41F0E04141F07F614FF000007047E3
:1031300001F000414FF00000704750EA01334FF0BA
:103140009B0C18BF4CF0806C7FF494AF70471CF45C
:10315000801F11D01CF4E02F03D06FEACC3149005E
:1031600070474FF04050EFF3008222F0704242EA85
:10317000000282F3008870474FF0000070470000A3
:10318000555555555555C53F7D6FEB0312D6D4BFE8
:103190005544880E55C1C93F3B8F68B52882A4BFEE
:1031A00088B20175E0EF493F09F7FD0DE13D023FAF
:1031B0004B2D8A1C273A03C0C88A599CE52A004037
:1031C00059018D1B6C06E6BF82922EB1C5B8B33F84
:1031D000000000000000F03F000000000000F83F89
:1031E00000000000000000000000004003B8E23FC3
:1031F000000000000000000006D0CF43EBFD4C3E75
:10320000033333333333E33FFFAB6FDBB66DDB3F69
:103210004D268F515555D53F01411DA96074D13FB1
:1032200065DBC9934A86CD3FEF4E454A287ECA3FAB
:103230003E5555555555C53F93BDBE166CC166BF2D
:103240002CDE25AF6A56113FF16BD2C541BDBBBE26
:10325000D0A4BE726937663E4FBB610567ACDD3FE7
:10326000182D4454FB21E93F9BF681D20B73EF3FAD
:10327000182D4454FB21F93FE2652F227F2B7A3C25
:10328000075C143326A6813CBDCBF07A8807703CDE
:10329000075C143326A6913CC4EB98999999C9BF51
:1032A000711623FEC671BCBF6D9A74AFF2B0B3BF86
:1032B0009AFDDE522DDEADBF2F6C6A2C44B4A2BF46
:1032C0000D5555555555D53FFF8300922449C23FB2
:1032D0006E204CC5CD45B73F513DD0A0660DB13FE6
:1032E000EB0D76244B7BA93F11DA22E33AAD903FF8
:1032F0004C5555555555A53F7751C1166CC156BF14
:103300009015CB19A001FA3EAD529C804F7E92BE23
:10331000C4B1B4BD9EEE213ED43888BEE9FAA8BD42
:10332000000000000000000000004054FB21F93FB5
:103330003163621A61B4D03D0000601A61B4D03DBF
:103340007370032E8A19A33B0000002E8A19A33B39
:10335000C14920259A837B3900000000000000004D
:103360006E83F9A22915444ED15727FCC0DD34F5F0
:10337000999562DB4190433CAB6351FE61C5BBDE76
:103380003A6E24B7E0D24D42EA2E49061C92D1098A
:103390001CEB1DFE3EA729B1F53582E88444BB2E07
:1033A00026709CE9417E5FB439D69139F439538354
:1033B0008B5F849C3B28F9BDFF97F81F0F9805DEB3
:1033C0008B112FEF1F6D0A5ACF7E366DB709CB27B1
:1033D000663F464F2DEA5F9EC7BA27757BF1E5EB46
:1033E000F739073DEA92528AB15FFB6B085D8D1F8A
:1033F000A6F810111111813FD561C119A0012ABF92
:103400007DFEB157E31DC73EEB9C2B8AE6E55ABE15
:103410007CD5CF5A3AD9E53D783400080000002029
:103420004800000030030008C034000800000024F9
:1034300068930700D4020008F84300080000003039
:10344000C09C0000D40200083445000800000000C1
:1034500038FE0000300300086C430108000000380B
:10346000A0130000D4020008C03400084800002067
:10347000309701004C0300084800002000000000C5
:10348000000000000000000000000000000000003C
:10349000000000000000000000000000000000002C
:1034A000000000000000000000000000000000001C
:1034B0000000000000000000000000000000F03FDD
:1034C00001FF01FF01FF01FF01FF01FF01FF01FFFC
:1034D00001FF01FF01FF01FF01FF01FF01FF01FFEC
:1034E00001FF01FF01FF01FF01FF01FF01FF01FFDC
:1034F00001FF01FF01FF01FF01FF01FF01FF01FFCC
:1043F00001FF01FF01FF310001FF01FF01FF01FF8C
:1044000001FF01FF01FF01FF01FF01FF01FF01FFAC
:1044100001FF01FF01FF01FF01FF01FF01FF01FF9C
:1044200001FF01FF01FF01FF01FF01FF01FF01FF8C
:1044300001FF01FF01FF01FF01FF01FF01FF01FF7C
:1044400001FF01FF01FF01FF01FF01FF01FF01FF6C
:1044500001FF01FF01FF01FF01FF01FF01FF01FF5C
:1044600001FF01FF01FF01FF01FF01FF01FF01FF4C
:1044700001FF01FF01FF01FF01FF01FF01FF01FF3C
:1044800001FF01FF01FF01FF01FF01FF01FF01FF2C
:1044900001FF01FF01FF01FF01FF01FF01FF01FF1C
:1044A00001FF01FF01FF01FF01FF01FF01FF01FF0C
:1044B00001FF01FF01FF01FF01FF01FF01FF01FFFC
:1044C00001FF01FF01FF01FF01FF01FF01FF01FFEC
:1044D00001FF01FF01FF01FF01FF01FF01FF01FFDC
:1044E00001FF01FF01FF01FF01FF01FF01FF01FFCC
:1044F00001FF01FF01FF01FF01FF01FF01FF01FFBC
:1045000001FF01FF01FF01FF01FF01FF01FF01FFAB
:1045100001FF01FF01FF01FF01FF01FF01FF01FF9B
:1045200001FF01FF01FF01FF01FF01FF01FF01FF8B
:1045300001FF015D40F2E95CC0F6000C604741F20A
:10454000450CC0F6000C604740F2D53CC0F6000CAC
:10455000604741F6997CC0F6000C604742F6411C6A
:10456000C0F6000C604740F25F4CC0F6000C60479C
:1045700042F2490CC0F6000C604742F6F11CC0F64E
:10458000000C604741F6D15CC0F6000C604741F674
:10459000B91CC0F6000C60476448002170B50B469A
:1045A000D0F8002003EBC30000EB432002EBC00077
:1045B00090F8EE02012813D103EB430000EBC30097
:1045C00002EBC00000F5C04080F8A019C0F89C19AB
:1045D00080F8081CC0F8041C80F8701EC0F86C1E1F
:1045E0005B1C062BDEDB514B02F5C04090F89A4471
:1045F0001B68012C03F5E0430AD180F8B01BC0F81A
:10460000AC1B80F8181EC0F8141E83F88010D96700
:1046100001250024C0F8C41404EB440606EBC406CC
:1046200002EBC60606F5C04696F8D86506B9002521
:10463000641C0B2CF0DB1DB141F00102C0F8C42456
:1046400090F8A0295AB190F8082C42B190F8702E39
:104650002AB1D0F8C42442F48072C0F8C42490F87F
:10466000F8295AB190F8602C42B190F8C82E2AB1BE
:10467000D0F8C42442F40072C0F8C42490F8502A40
:104680005AB190F8B82C42B190F8202F2AB1D0F846
:10469000C42442F48062C0F8C42490F8A82A5AB115
:1046A00090F8102D42B190F8782F2AB1D0F8C42498
:1046B00042F40062C0F8C42490F8002B5AB190F87C
:1046C000682D42B190F8D02F2AB1D0F8C42442F41A
:1046D0008052C0F8C42490F8582B5AB190F8C02DDD
:1046E00042B193F828202AB1D0F8C42442F40052F1
:1046F000C0F8C42490F8B02B5AB190F8182E42B1EB
:1047000093F880202AB1D0F8C42442F48042C0F843
:10471000C424D0F8C42402B1012180F8C014D0F818
:10472000C8141143C0F8C81470BD00000000002078
:104730001C49F0B401240A6800204FF4FA750346BE
:1047400000EB400101EBC00102EBC10101F5C041EA
:10475000D1F8D465AE4204D3C1F8D45581F8D84518
:1047600001E081F8D835401C0B28E9DB5FF0000040
:1047700000EB400101EBC00102EBC10101F5C041BA
:10478000D1F89C69AE4204D3C1F89C5981F8A04984
:1047900001E081F8A039401C1528E9DBF0BCFFF7E7
:1047A000FBBE00000000002010B501F0A3FC00F0EB
:1047B00077F801F0C3FC00F009F80348816921F0A3
:1047C0000101816110BD000000A000402F492F4B66
:1047D00010B520330A682E4822F00F020A600C68D8
:1047E0002C4A44F00A040C60196841F099011960E0
:1047F000836940F6313143F00303836183693F24C9
:1048000043F486438361C261C160C0F880400222E4
:10481000214940F23333096801F5956101F5C04142
:104820000C8844F4A814C0F884404C8844F4302424
:10483000C0F8C040C0F8C820C0F8BC30174A8B8808
:10484000C0F8AC30C98841F42C11C0F8A010426502
:1048500001220021D0F8E03002FA01F42343C0F82D
:10486000E030491C0B29F5DB426D4FF07F510323EB
:1048700042F07F5242658165C36513200AF010FC47
:10488000BDE8104015200AF00BBC0000000C0258D7
:1048900000A00040030B04020000002000020800FA
:1048A00065482DE9F043006800F10C04814600F1F1
:1048B000180C00F1240800F1300100F13C0200F175
:1048C000480300F1540500F5C047603000F5C046CC
:1048D0004FF40070A7F8D20409F16C0004F5C0444D
:1048E00000F5C04740F201200CF5C04CA4F8D204FA
:1048F00009F1780000F5C04440F2022008F5C048F4
:10490000ACF8D20409F1840000F5C04C40F2032059
:1049100001F5C041A8F8D20409F1900000F5C048A3
:104920004FF40170A1F8D20409F19C0002F5C042D5
:1049300000F5C04140F2052003F5C043A2F8D204BF
:1049400009F1A80000F5C04240F2062005F5C04577
:10495000A3F8D20409F1B40000F5C0434FF4047089
:10496000A5F8D20409F1C00000F5C04540F21120BD
:10497000A6F8D20409F1CC0000F5C04640F212209E
:10498000A7F8D20409F1D80000F5C04740F213207F
:10499000A4F8D2044FF40574ACF8D244641CA8F80F
:1049A000D24440F21628A1F8D284072409F1E40089
:1049B00040F2F12809F1F00C4FF43C71A2F8D21446
:1049C000A3F8D284891CA5F8D2144A1C00F5C04073
:1049D000A6F8D2248B1CA7F8D2340CF5C04C40F2B8
:1049E000F528091DA0F8D284134F01265FF00000BE
:1049F000ACF8D2144FF0605C00EB40013A6885B22D
:104A000045F0804302EB810101F59A6101F5C04157
:104A100002F5C0420E704C708D804D884CEA054501
:104A20002B438B60D2F8B01441F82030401C15287D
:104A3000E2DBBDE8F0830000000000205B4900EBF2
:104A400040032DE9F043D1F8009003EBC003C0EB25
:104A5000C00409F5C04209EBC30303F5C041D2F815
:104A6000B85455F824600425C1F8D46905EB8405D1
:104A7000D2F8B8747D590827C1F8D85907EB8407D4
:104A8000D2F8B8C45CF807C00C27C1F8DCC907EB42
:104A90008407D2F8B8C45CF807C01027C1F8E0C991
:104AA00007EB8407D2F8B8C45CF807704FF0140C19
:104AB000C1F8E4790CEB8404D2F8B8C407275CF899
:104AC0000440B0FBF7FCC1F8E849C6F38A4407FB91
:104AD0001C074FEAD67C81F8B0C9C6F3407081F854
:104AE000B109C1F8B449EE0F81F8B869C5F30560A2
:104AF00081F8B909C5F3405481F8BA49C5F30056A5
:104B000081F8BB692C0CC5F3034081F8BC09002077
:104B1000A1F8BE4903EB8004A4F5B25404F50044A7
:104B2000401C0528E56925704FEA152666704FEA96
:104B3000154C84F802C04FEA156884F80380E9DB5D
:104B4000052F4FF0010410D891F8C009012814D1A5
:104B500007EBC70000EB472209EBC20090F8E02208
:104B600080F8F24280F8E12207E0062F05D191F8A3
:104B7000C009012801D182F89E4403F5C0421446C1
:104B800015460020C1F89C09D2F8A82903F5C043B6
:104B9000D4F8AC49521CC5F8A82944F10004C3F864
:104BA000AC4981F89809BDE8F083000000000020BE
:104BB000564900EB40032DE9F043D1F8009003EB98
:104BC000C004C0EBC00309F5C04209EBC40404F5FE
:104BD000C041D2F8B85455F823600425C1F8D4690F
:104BE00005EB8305D2F8B8747D590827C1F8D85968
:104BF00007EB8307D2F8B8C45CF807C00C27C1F8EC
:104C0000DCC907EB8307D2F8B8C45CF807C01027EB
:104C1000C1F8E0C907EB8307D2F8B8C45CF80770A5
:104C20004FF0140CC1F8E4790CEB8303D2F8B8C44C
:104C300007275CF80330B0FBF7FCC1F8E839C6F38E
:104C40008A4307FB1C074FEAD67C81F8B0C9C6F33C
:104C5000407081F8B109C1F8B439EE0F81F8B86934
:104C6000C5F3056081F8B909C5F3405381F8BA3935
:104C7000C5F3005681F8BB692B0CC5F3034081F8DE
:104C8000BC09A1F8BE39002304EB8300A0F5B250A3
:104C900000F500405B1C052BC56905704FEA152621
:104CA00046704FEA154C80F802C04FEA156880F84C
:104CB0000380E9DB052F0AD807EBC70091F8C0296C
:104CC00000EB472309EBC30080F8E42205E0062F40
:104CD00003D191F8C00982F8920404F5C04213464A
:104CE00015460020C1F89C09D2F8A82904F5C04453
:104CF000D3F8AC39521CC5F8A82943F10003C4F815
:104D0000AC3981F89809BDE8F0830000000000206C
:104D1000A54900EB40032DE9F047D1F800A003EBD3
:104D2000C004C0EBC0030AF5C0420AEBC40404F59A
:104D3000C041D2F8B85455F823600425C1F8D469AD
:104D400005EB8305D2F8B8747D590827C1F8D85906
:104D500007EB8307D2F8B8C45CF807C00C27C1F88A
:104D6000DCC907EB8307D2F8B8C45CF807C010278A
:104D7000C1F8E0C907EB8307D2F8B8C45CF807C0F4
:104D80001427C1F8E4C907EB8307D2F8B8C45CF86C
:104D900007704FF0180CC1F8E8790CEB8303D2F8D8
:104DA000B8C407275CF80330B0FBF7FCC1F8EC3956
:104DB000C6F38A4307FB1C094FEAD67C81F8B0C9C9
:104DC000C6F3407781F8B179C1F8B439EE0F81F8B4
:104DD000B869C5F3056781F8B979C5F3405381F81F
:104DE000BA39C5F3005681F8BB692B0CC5F30347EC
:104DF00081F8BC795FF00005A1F8BE3904EB8503AA
:104E0000A3F5B25303F500436D1C052DDE691E703A
:104E10004FEA16275F704FEA164C83F802C04FEA3C
:104E2000166883F80380E9DBB9F1050F4FF0010341
:104E30007DD891F8C15900EBC00C91F8C06991F888
:104E4000C32991F8C2792D0402EB06689FED572B18
:104E500005EB07250CEB402708EB050001EE100AD7
:104E600009EBC90606EB49250AEBC7029FED510B7A
:104E7000B8EEC11B92EDF63B0AEBC50021EE031B19
:104E800081EE023B80EDD03B91F8C46991F8C559A1
:104E900092EDF82B05EB06252DB201EE105AB8EE77
:104EA000C11B21EE021B81EE002B80EDD22B91F86D
:104EB000C66991F8C75992EDFC2B05EB062212B298
:104EC00001EE102AB8EEC11B21EE021B81EE002B71
:104ED00080EDD62B91F8C82900EE102AB8EE400BD1
:104EE00080EDD80B91F8C92980F8E42291F8CA29FD
:104EF00080F8E52291F8CB2980F8E62291F8CC29B8
:104F000080F8E72291F8CD2980F8E82291F8CE695F
:104F100002F0010591F8CF2902EB0622A0F87023D8
:104F200091F8D02900EE102AB8EE400B00E006E020
:104F300080EDD80B80F8F13280F8FB521CE0B9F11B
:104F4000060F19D191F8C00982F8A20491F8C1099D
:104F500082F8A30491F8C20982F8A40491F8C9095F
:104F600082F8920491F8CC0982F8930491F8CD0963
:104F700082F8940482F89D3404F5C0421346154625
:104F80000020C1F89C09D2F8A82904F5C044D3F840
:104F9000AC39521CC5F8A82943F10003C4F8AC3958
:104FA00081F89809BDE8F087000000200000C0FFEC
:104FB000FFFFDF4100000000C0FFDF4070B5194C6B
:104FC00001260025D4F89800E840C00706D0E8B2D2
:104FD000FFF79EFE06FA05F0C4F898006D1C072D39
:104FE000F0DB0725D4F89800E840C00706D0E8B207
:104FF000FFF7DEFD06FA05F0C4F898006D1C0E2DD3
:10500000F0DB0E25D4F89800E840C00706D0E8B2DF
:10501000FFF714FD06FA05F0C4F898006D1C152D75
:10502000F0DB70BD00A0004010B501F021F8FFF7E3
:105030007FFB144801680020024600EB420303EBAB
:10504000C202401C01EBC20202F5C0420B28D2F89A
:10505000D43503F10103C2F8D435EDDB002002465C
:1050600000EB420303EBC202401C01EBC20202F55B
:10507000C0421528D2F89C3903F10103C2F89C39CB
:10508000EDDB10BD000000202DE9F0435E4E012253
:1050900030680146583000F5C04090F8D00501282E
:1050A0007DD002EB420000EBC200002301EBC00404
:1050B0001D4600BF05EBC50C0CEB452CE71801EBBA
:1050C000CC0C07F5C0475B1C9CF8E3C26D1C9BB27F
:1050D00087F8FDC5062DEDDB2344B14601F5C0413F
:1050E00003F5C04391F8915483F8FD555FF0000536
:1050F00004EB850303F5C0436D1C042D93F8FE7586
:1051000093F8FD6593F8FFC593F8008606EB072634
:1051100006EB0C4606EB0866C3F81866E8DB02EB04
:105120004203D1F8B46404F5C0444FF6FF7505EAB4
:10513000430349464FF00C0CD4F81076042446F88B
:10514000237004EB8307D9F80040082504EBC0085E
:1051500004F5C04408F5C04805EB8305D4F8B44411
:105160001026D8F8148606EB830644F807800C68EE
:105170000CEB8308142704EBC00C04F5C0440CF5B9
:10518000C04C07EB8307D4F8B4440123DCF818C6FD
:1051900044F805C00C681D4D04EBC00C00E031E084
:1051A00004F5C0440CF5C04C03FA02F2D4F8B44440
:1051B000DCF81CC644F808C00C6804EBC00C04F50D
:1051C000C0440CF5C04CD4F8B444DCF820C644F814
:1051D00006C00C6804EBC00604F5C04406F5C046E2
:1051E000D4F8B444D6F82466E651D9F8001001EB9F
:1051F000C00000F5C04080F8D035D5F8D00010438D
:10520000C5F8D000BDE8F0830000002000A00040F9
:10521000674B02222DE9F04318680146B03000F5D3
:10522000C04090F8D00501287DD002EB420099469D
:1052300000EBC200002401EBC003254603EB040C85
:1052400005EBC50606EB4526641C01EBC606A4B2B9
:105250000CF5C04C1F1996F8E08207F5C047641C96
:105260008CF8FD8596F8E2626D1CA4B287F8FD65A6
:10527000062DE3DB1E1906F5C0460025641C86F8E2
:10528000FD55A5B21D4401F5C04105F5C04591F895
:10529000906485F8FD65002503EB850404F5C044A2
:1052A0006D1C042D94F8FE7594F8FD6594F8FFC507
:1052B00094F8008606EB072606EB0C4606EB08661C
:1052C000C4F81866E8DB03F5C043D1F8B44402EB38
:1052D0004205494604264FF00C0CD3F810764FF6E1
:1052E000FF7303EA4503082505EB830544F82370A3
:1052F000D9F8004006EB8307102604EBC00804F53C
:10530000C04408F5C04806EB8306D4F8B444D8F886
:10531000148644F8078014270C680CEB830807EB0D
:105320008307012300E041E004EBC00C04F5C04416
:105330000CF5C04C03FA02F2D4F8B444DCF818C6F9
:1053400044F805C00C681B4D04EBC00C04F5C044C8
:105350000CF5C04CD4F8B444DCF81CC644F808C0C2
:105360000C6804EBC00C04F5C0440CF5C04CD4F838
:10537000B444DCF820C644F806C00C6804EBC00650
:1053800004F5C04406F5C046D4F8B444D6F8246603
:10539000E651D9F8001001EBC00000F5C04080F8DC
:1053A000D035D5F8D0001043C5F8D000BDE8F08363
:1053B0000000002000A000406F4900222DE9F047C6
:1053C0000C6804F5C040814690F8D00501287DD0D6
:1053D000002002EB42039FED691B8A46054603EB62
:1053E000C20104EBC10300BF05EBC50606EB452671
:1053F000B0EE410B04EBC6061F1896EDC62B96EDDA
:10540000FC3B07F5C047401C82EE034B80B203EB28
:10541000000C0CF5C04C401C6D1C80B2062D24EE17
:10542000002BBDEEC22B12EE108A4FEA282887F817
:10543000FD8596EDC62B96EDFC3B82EE034B24EEEC
:10544000000BFDEEC00B10EE906A8CF8FD65CBDB17
:105450001C1899F8A15404F5C044504684F8FD5531
:105460005FF0000503EB850404F5C0446D1C042DBA
:1054700094F8FE7594F8FD6594F8FFC594F80086DD
:1054800006EB072606EB0C4606EB0866C4F8186622
:10549000E8DB03F5C043D9F8B44402EB42054FF012
:1054A0000C0C0427D3F810664FF6FF7303EA45038C
:1054B000082507EB830744F823600468102605EBF2
:1054C000830504EBC10808F5C04800E052E004F58C
:1054D000C044D8F8148606EB8306D4F8B44444F8E4
:1054E000078004680CEB8308142704EBC10C04F557
:1054F000C0440CF5C04C07EB8307D4F8B444012337
:10550000DCF818C603FA02F244F805C004681D4D21
:1055100004EBC10C04F5C0440CF5C04CD4F8B44401
:10552000DCF81CC644F808C0046804EBC10C04F5A0
:10553000C0440CF5C04CD4F8B444DCF820C644F8A0
:1055400006C0046804EBC10604F5C04406F5C04675
:10555000D4F8B444D6F82466E651DAF8000000EB3B
:10556000C10000F5C04080F8D035D5F8D000104318
:10557000C5F8D000BDE8F087000000200000000062
:10558000C0FFDF4000A000401749F0B50026174DCE
:10559000D1F8003002273046D5F8D810C140C907ED
:1055A0001DD000EB400101EBC00103EBC10101F58F
:1055B000C04292F8D045012C11D19446144682F88D
:1055C000D0759646C2F8D465DCF8E015D4F8E44509
:1055D000491CCEF8E01544F10004C2F8E445401C33
:1055E0000B28D9DBF0BD00000000002000A0004027
:1055F000514803222DE9F04301680B4601F58471FF
:1056000001F5C04191F8D01501297CD002EB42018F
:10561000814601EBC200002403EBC00505EB8401C9
:1056200001F5C041641C042C91F8FE7591F8FD65EC
:1056300091F8FFC591F8008606EB072606EB0C46AD
:1056400006EB0866C1F81866E8DB03F5C0434FF6C1
:10565000FF7802EB42074FF0040C05F5C0454946C0
:10566000D3F8B46408EA47030824D5F810560C2789
:1056700007EB830846F8235004EB8305D9F8004074
:105680000CEB830604EBC00C04F5C0440CF5C04CD5
:105690001027D4F8B444DCF814C644F806C00C68EB
:1056A00007EB8306142704EBC00C04F5C0440CF58B
:1056B000C04C07EB8307D4F8B4440123DCF818C6C8
:1056C00003FA02F244F805C00C681C4D04EBC00C50
:1056D00004F5C0440CF5C04CD4F8B444DCF81CC646
:1056E00044F808C00C6804EBC00C04F5C0440CF589
:1056F000C04CD4F8B444DCF820C644F806C00C68AA
:1057000004EBC00600E015E004F5C04406F5C04611
:10571000D4F8B444D6F82466E651D9F8001001EB69
:10572000C00000F5C04080F8D035D5F8D000104357
:10573000C5F8D000BDE8F0830000002000A00040C4
:1057400051480A222DE9F04301680B4601F55C71CE
:1057500001F5C04191F8D01501297CD002EB42013E
:10576000814601EBC200002403EBC00505EB840178
:1057700001F5C041641C042C91F8FE7591F8FD659B
:1057800091F8FFC591F8008606EB072606EB0C465C
:1057900006EB0866C1F81866E8DB03F5C0434FF670
:1057A000FF7802EB42074FF0040C05F5C04549466F
:1057B000D3F8B46408EA47030824D5F810560C2738
:1057C00007EB830846F8235004EB8305D9F8004023
:1057D0000CEB830604EBC00C04F5C0440CF5C04C84
:1057E0001027D4F8B444DCF814C644F806C00C689A
:1057F00007EB8306142704EBC00C04F5C0440CF53A
:10580000C04C07EB8307D4F8B4440123DCF818C676
:1058100003FA02F244F805C00C681C4D04EBC00CFE
:1058200004F5C0440CF5C04CD4F8B444DCF81CC6F4
:1058300044F808C00C6804EBC00C04F5C0440CF537
:10584000C04CD4F8B444DCF820C644F806C00C6858
:1058500004EBC00600E015E004F5C04406F5C046C0
:10586000D4F8B444D6F82466E651D9F8001001EB18
:10587000C00000F5C04080F8D035D5F8D000104306
:10588000C5F8D000BDE8F0830000002000A0004073
:10589000514804222DE9F04301680B46A1F5F5516A
:1058A00001F5004191F8D01501297CD002EB4201AD
:1058B000814601EBC200002403EBC00505EB840127
:1058C00001F5C041641C042C91F8FE7591F8FD654A
:1058D00091F8FFC591F8008606EB072606EB0C460B
:1058E00006EB0866C1F81866E8DB03F5C0434FF61F
:1058F000FF7802EB42074FF0040C05F5C04549461E
:10590000D3F8B46408EA47030824D5F810560C27E6
:1059100007EB830846F8235004EB8305D9F80040D1
:105920000CEB830604EBC00C04F5C0440CF5C04C32
:105930001027D4F8B444DCF814C644F806C00C6848
:1059400007EB8306142704EBC00C04F5C0440CF5E8
:10595000C04C07EB8307D4F8B4440123DCF818C625
:1059600003FA02F244F805C00C681C4D04EBC00CAD
:1059700004F5C0440CF5C04CD4F8B444DCF81CC6A3
:1059800044F808C00C6804EBC00C04F5C0440CF5E6
:10599000C04CD4F8B444DCF820C644F806C00C6807
:1059A00004EBC00600E015E004F5C04406F5C0466F
:1059B000D4F8B444D6F82466E651D9F8001001EBC7
:1059C000C00000F5C04080F8D035D5F8D0001043B5
:1059D000C5F8D000BDE8F0830000002000A0004022
:1059E000514805222DE9F04301680B4601F5DC71B1
:1059F00001F5C04191F8D01501297CD002EB42019C
:105A0000814601EBC200002403EBC00505EB8401D5
:105A100001F5C041641C042C91F8FE7591F8FD65F8
:105A200091F8FFC591F8008606EB072606EB0C46B9
:105A300006EB0866C1F81866E8DB03F5C0434FF6CD
:105A4000FF7802EB42074FF0040C05F5C0454946CC
:105A5000D3F8B46408EA47030824D5F810560C2795
:105A600007EB830846F8235004EB8305D9F8004080
:105A70000CEB830604EBC00C04F5C0440CF5C04CE1
:105A80001027D4F8B444DCF814C644F806C00C68F7
:105A900007EB8306142704EBC00C04F5C0440CF597
:105AA000C04C07EB8307D4F8B4440123DCF818C6D4
:105AB00003FA02F244F805C00C681C4D04EBC00C5C
:105AC00004F5C0440CF5C04CD4F8B444DCF81CC652
:105AD00044F808C00C6804EBC00C04F5C0440CF595
:105AE000C04CD4F8B444DCF820C644F806C00C68B6
:105AF00004EBC00600E015E004F5C04406F5C0461E
:105B0000D4F8B444D6F82466E651D9F8001001EB75
:105B1000C00000F5C04080F8D035D5F8D000104363
:105B2000C5F8D000BDE8F0830000002000A00040D0
:105B3000514806222DE9F04301680B4601F5047136
:105B400001F5C04191F8D01501297CD002EB42014A
:105B5000814601EBC200002403EBC00505EB840184
:105B600001F5C041641C042C91F8FE7591F8FD65A7
:105B700091F8FFC591F8008606EB072606EB0C4668
:105B800006EB0866C1F81866E8DB03F5C0434FF67C
:105B9000FF7802EB42074FF0040C05F5C04549467B
:105BA000D3F8B46408EA47030824D5F810560C2744
:105BB00007EB830846F8235004EB8305D9F800402F
:105BC0000CEB830604EBC00C04F5C0440CF5C04C90
:105BD0001027D4F8B444DCF814C644F806C00C68A6
:105BE00007EB8306142704EBC00C04F5C0440CF546
:105BF000C04C07EB8307D4F8B4440123DCF818C683
:105C000003FA02F244F805C00C681C4D04EBC00C0A
:105C100004F5C0440CF5C04CD4F8B444DCF81CC600
:105C200044F808C00C6804EBC00C04F5C0440CF543
:105C3000C04CD4F8B444DCF820C644F806C00C6864
:105C400004EBC00600E015E004F5C04406F5C046CC
:105C5000D4F8B444D6F82466E651D9F8001001EB24
:105C6000C00000F5C04080F8D035D5F8D000104312
:105C7000C5F8D000BDE8F0830000002000A000407F
:105C8000514807222DE9F04301680B4601F51A71CE
:105C900001F5C04191F8D01501297CD002EB4201F9
:105CA000814601EBC200002403EBC00505EB840133
:105CB00001F5C041641C042C91F8FE7591F8FD6556
:105CC00091F8FFC591F8008606EB072606EB0C4617
:105CD00006EB0866C1F81866E8DB03F5C0434FF62B
:105CE000FF7802EB42074FF0040C05F5C04549462A
:105CF000D3F8B46408EA47030824D5F810560C27F3
:105D000007EB830846F8235004EB8305D9F80040DD
:105D10000CEB830604EBC00C04F5C0440CF5C04C3E
:105D20001027D4F8B444DCF814C644F806C00C6854
:105D300007EB8306142704EBC00C04F5C0440CF5F4
:105D4000C04C07EB8307D4F8B4440123DCF818C631
:105D500003FA02F244F805C00C681C4D04EBC00CB9
:105D600004F5C0440CF5C04CD4F8B444DCF81CC6AF
:105D700044F808C00C6804EBC00C04F5C0440CF5F2
:105D8000C04CD4F8B444DCF820C644F806C00C6813
:105D900004EBC00600E015E004F5C04406F5C0467B
:105DA000D4F8B444D6F82466E651D9F8001001EBD3
:105DB000C00000F5C04080F8D035D5F8D0001043C1
:105DC000C5F8D000BDE8F0830000002000A000402E
:105DD000514808222DE9F04301680B46A1F5EA512C
:105DE00001F5004191F8D01501297CD002EB420168
:105DF000814601EBC200002403EBC00505EB8401E2
:105E000001F5C041641C042C91F8FE7591F8FD6504
:105E100091F8FFC591F8008606EB072606EB0C46C5
:105E200006EB0866C1F81866E8DB03F5C0434FF6D9
:105E3000FF7802EB42074FF0040C05F5C0454946D8
:105E4000D3F8B46408EA47030824D5F810560C27A1
:105E500007EB830846F8235004EB8305D9F800408C
:105E60000CEB830604EBC00C04F5C0440CF5C04CED
:105E70001027D4F8B444DCF814C644F806C00C6803
:105E800007EB8306142704EBC00C04F5C0440CF5A3
:105E9000C04C07EB8307D4F8B4440123DCF818C6E0
:105EA00003FA02F244F805C00C681C4D04EBC00C68
:105EB00004F5C0440CF5C04CD4F8B444DCF81CC65E
:105EC00044F808C00C6804EBC00C04F5C0440CF5A1
:105ED000C04CD4F8B444DCF820C644F806C00C68C2
:105EE00004EBC00600E015E004F5C04406F5C0462A
:105EF000D4F8B444D6F82466E651D9F8001001EB82
:105F0000C00000F5C04080F8D035D5F8D00010436F
:105F1000C5F8D000BDE8F0830000002000A00040DC
:105F2000514809222DE9F04301680B4601F54671FD
:105F300001F5C04191F8D01501297CD002EB420156
:105F4000814601EBC200002403EBC00505EB840190
:105F500001F5C041641C042C91F8FE7591F8FD65B3
:105F600091F8FFC591F8008606EB072606EB0C4674
:105F700006EB0866C1F81866E8DB03F5C0434FF688
:105F8000FF7802EB42074FF0040C05F5C045494687
:105F9000D3F8B46408EA47030824D5F810560C2750
:105FA00007EB830846F8235004EB8305D9F800403B
:105FB0000CEB830604EBC00C04F5C0440CF5C04C9C
:105FC0001027D4F8B444DCF814C644F806C00C68B2
:105FD00007EB8306142704EBC00C04F5C0440CF552
:105FE000C04C07EB8307D4F8B4440123DCF818C68F
:105FF00003FA02F244F805C00C681C4D04EBC00C17
:1060000004F5C0440CF5C04CD4F8B444DCF81CC60C
:1060100044F808C00C6804EBC00C04F5C0440CF54F
:10602000C04CD4F8B444DCF820C644F806C00C6870
:1060300004EBC00600E015E004F5C04406F5C046D8
:10604000D4F8B444D6F82466E651D9F8001001EB30
:10605000C00000F5C04080F8D035D5F8D00010431E
:10606000C5F8D000BDE8F0830000002000A000408B
:1060700070B51F4C0B2500222068014600F5C0407A
:10608000B0F8CC345B1C9BB2B3FBF5F605FB1633C2
:10609000A0F8CC3403EB430606EBC30301EBC303C8
:1060A00003F5C04393F8E835012B03D0521C0B2AAB
:1060B000E6DB70BDB0F8CC0400EB400202EBC000A0
:1060C00001EBC00000F5C040D0F8EC058047206827
:1060D00046F2CC410022095A01EB410303EBC10116
:1060E00000EBC10000F5C04080F8E82570BD00005D
:1060F000000000200D484FF0000CF0B50068542758
:106100000B4A4FF4AE7600F59560094900F5C040A2
:10611000084B5432084C4FF46A75A0F800C0478011
:106120008680C580083080E81E00F0BD0000002099
:1061300000AC00405CAD0040A8AF004082480023A6
:10614000F0B501680124814A0A2601F5C0404FF4E8
:106150006815072780F8E835C0F8EC2501F5C86216
:1061600080F8F03502F5C04280F8F13580F8F2355C
:10617000C0F8F43580F8F83580F8F93580F8FA453C
:1061800080F8FB4580F8FC6500F5BD60C0E90A3584
:106190006F48137050601020137253729372D06066
:1061A0008004137453749474D47417754FF45C178B
:1061B000C2E90A0701F5D360664A00F5C0404FF016
:1061C000707703704260F022037243728372C26080
:1061D0004FF44012037443748474C474067501F55B
:1061E000DE6606F5C046C0E90A755B48A025337037
:1061F0007060002033727372B372F5603374AB0455
:106200007074B474F474307501F5E96000F5C04041
:10621000564DC6E90A3200230370504B43600023F9
:106220000372437283724FF4D073C360002303740C
:1062300043748474C47403754FF0D063C0E90A32A8
:1062400001F5F46000F5C04000230370444B436047
:10625000002303724372837240F2A113C3600023D0
:10626000037443748474C47403753E4BC0E90A32EA
:1062700001F5FF6000F5C040002303703A4B436016
:1062800000230372437283724FF4D173C3600023FF
:10629000037443748474C47403754FF0D163C0E90C
:1062A0000A3201F5056303F5C043002018705D60F4
:1062B00040F2A315187258729872DD601874587401
:1062C000AD049C74DC741875C3E90A5201F6A80386
:1062D000274D03F5C04301F6581101F5C041187070
:1062E0005D604FF4D275187258729872DD60AD041B
:1062F000187458749C74DC741875C3E90A525833C6
:106300001C4D18705D6040F2A51518725872987295
:10631000DD60AD04187458749C74DC741875C3E99E
:106320000A52154B08704B604FF4D37308724872D1
:106330008872CB60087448748C74CC7408759804A7
:10634000C1E90A02F0BD000000000020850E000037
:10635000550B0000DD0C0000BD1000005D130000B7
:10636000AD14000000008406FD1500004D1700006C
:106370009D180000ED1900000D1200002DE9F041FC
:106380007F4D002101244FEA01032A6811765176DE
:106390009176D1779177D1761177517782F8201065
:1063A00003EBC30000EB432002EBC00090F8EE6269
:1063B000012E11D180F8E71280F8E51280F8F6126C
:1063C00080F8F81280F8F31280F8F41280F8F512D1
:1063D00080F8F71280F8FB1290F8E76280F8F91263
:1063E00080F8FA120EB180F8F94290F8E5620EB129
:1063F00080F8F94290F8F662012E01D180F8FA4255
:1064000090F8F862012E01D180F8FA4290F8F36218
:10641000012E01D180F8FA4290F8F462012E01D1E8
:1064200080F8FA4290F8F562012E01D180F8FA4224
:1064300090F8F762012E01D180F8FA4290F8FB62E1
:10644000012E00D1D47790F8F962012E00D1947713
:1064500090F8FA02012800D1D4765B1C062B9FDB52
:106460002868024600F5C04090F89A34012B05D008
:1064700090F8931449B180F89F440AE080F893148F
:1064800080F89F1480F8A01409E090F89F14012967
:1064900000D1947790F8A004012800D1D47600F0C0
:1064A0001FF9286846F2C041095C012900D1047730
:1064B000C17E012913D0017F012910D0417F01291C
:1064C0000DD090F82010012909D001F0B7F8286804
:1064D000827F012A06D0817D012903D003E0047662
:1064E000C475F4E74476C17F012900D18476C67D66
:1064F000817D037E447E41EA4601C57E067F41EAF6
:106500008301477F41EAC40141EA051190F820C0A8
:1065100041EA4611838A41EA871141EAC21141EA00
:106520000C2141820B4383820022114602EBC103FE
:1065300003EB4121521C00EBC101062A91F8F44201
:1065400091F8F33291F8F55291F8F66243EA440378
:1065500091F8F77291F8F8C243EA850343EAC6035B
:10656000B1F8EC4243EA071343EA4C13A1F8EA32CC
:1065700044EA0304A1F8EC42D7DBBDE8F081000057
:10658000000000205548012210B50021D0F800304D
:1065900001EBC10000EB412003EBC00090EDD60BF6
:1065A00090EDEA1BB4EEC10BF1EE10FA06D390EDBC
:1065B000EC1BB4EEC10BF1EE10FA01DD80F8F6220F
:1065C00090EDCE0BB5EEC00BF1EE10FA01DD01241B
:1065D00000E00024B5EEC00B01EE104AF1EE10FA17
:1065E000B8EE413B01D2012400E0002402EE104A43
:1065F00090EDFC1BB8EE422B10EE023BB4EEC13B1B
:10660000F1EE10FA1BDDB5EEC00BF1EE10FA01DD74
:10661000012400E00024B5EEC00B02EE104AF1EEBA
:1066200010FAB8EE422B01D2012400E0002400EE63
:10663000104AB8EE400B11EE002B80EDCE2B90ED02
:10664000C80B90EDDE1BB4EEC10BF1EE10FA06D3D1
:1066500090EDE01BB4EEC10BF1EE10FA01DD80F815
:10666000F32290EDCA0B90EDE21BB4EEC10BF1EEFC
:1066700010FA06D390EDE41BB4EEC10BF1EE10FA64
:1066800001DD80F8F42290EDCC0B90EDE61BB4EE2A
:10669000C10BF1EE10FA06D390EDE81BB4EEC10B7E
:1066A000F1EE10FA01DD80F8F52200F5805490ED4E
:1066B000F21B94ED940BB4EEC10BF1EE10FA06D37D
:1066C00090EDF41BB4EEC10BF1EE10FA01DD80F891
:1066D000F722491C0629FFF65BAF10BD0000002021
:1066E00070B50E4C0025206890F82E00012812D1BC
:1066F00002F0A2FA78B120684FF4FA62016B491CEB
:106700000163914204D90263012180F8201070BD19
:1067100080F8205070BD2068056370BD0000002027
:106720001349C3074FF00102096801D081F8F02234
:10673000830702D541F238335A54430702D54FF448
:106740000E535A54030702D543F2C8335A54C306B2
:1067500002D544F210435A54830602D545F25843F9
:106760005A54400603D501F5C04181F89C24704776
:106770000000002030B4394C002003462268907598
:10678000D075107650769076D076107750779077D7
:10679000D077106382F820005082908203EBC3010F
:1067A00001EB43215B1C02EBC101062B81F8F902CE
:1067B00081F8FA0281F8F60281F8F80281F8F30212
:1067C00081F8F40281F8F50281F8F70281F8E50218
:1067D00081F8E60281F8E70281F8E802A1F8EA020E
:1067E000A1F8EC02DADB2268114602F2944202F5CB
:1067F000C042D072107302F8010C1070508090806B
:106800000A46002101EB410303EBC103491C02EBE3
:10681000C30303F5C043152983F8A009C3F89C09F5
:10682000F0DBD4F80030002101EB410202EBC102A1
:10683000491C03EBC20202F5C0420B2982F8D805BD
:10684000C2F8D405F0DB2168A1F5DA5101F5004169
:1068500008704860886030BCFFF790BD00000020E1
:106860002DE9F04F334820210668012540F2DF1959
:106870002C4646F001062B460A46066003274FF0D9
:10688000A90AAC464FEA0506D0F800805FEA4878CE
:10689000FAD51B06DFF89C8043EA0443DFF898B082
:1068A00034060E0144EA074443EA4521214D44EAF7
:1068B0004C23DFF880C046EA02371E4A0CF1280C50
:1068C000383248241835CCF8007041EA090143EA0F
:1068D0000A0308F130084FF488664FF0400C2F1D72
:1068E000C8F8001007F1040813602C603E60C8F877
:1068F00000C0DBF8002042F03702CBF8002001682E
:1069000041F08071016001688901FCD5016841F0A6
:106910008061016001680901FCD5064810300168FA
:1069200041F0030101600168C1F3C2010329FAD1FA
:10693000BDE8F08F004402580020005270B53B4C77
:106940003B4D206820F001002060686920F00200C3
:106950006861206820F48040206002F01DF9FFF794
:106960000DFD00F069F804F08DFA324E3068407A7F
:10697000052808D001281FD0042824D002282DD0B3
:10698000032832D037E0206840F48040206001F0D6
:1069900029FB08F00BF902F0CFFF306800214173AA
:1069A000007E012827D10024204600F04FFD641C02
:1069B000E4B2062CF8D31EE0206840F0010020600D
:1069C00000F082FA17E0206840F00100206068695A
