:020000040800F2
:10000000B8330120950300089D0300089F030008F2
:10001000A1030008A3030008A503000800000000D6
:10002000000000000000000000000000A70300081E
:10003000A903000800000000AB030008F947000016
:10004000AF030008AF030008AF030008AF030008C8
:10005000AF030008AF030008AF030008AF030008B8
:10006000AF030008AF030008AF030008250600082F
:1000700041060008AF030008AF030008AF03000803
:10008000AF030008AF030008AF03000861180000C9
:10009000AF030008C1180000AF030008AF03000859
:1000A000AF030008AF030008AF030008AF03000868
:1000B000AF030008AF030008AF030008AF03000858
:1000C000AF030008AF030008AF030008AF03000848
:1000D000AF030008AF030008E91400081115000879
:1000E000AF030008AF03000800000000AF030008E2
:1000F000B1140008AF030008AF030008AF03000805
:10010000AF030008AF030008AF030008AF03000807
:10011000AF030008AF030008891400080948000075
:10012000AF030008AF030008AF030008AF030008E7
:10013000AF030008AF030008AF030008AF030008D7
:10014000AF030008AF03000800000000000000003B
:10015000AF030008AF030008AF030008AF030008B7
:10016000AF030008AF030008AF030008AF030008A7
:10017000AF030008AF030008AF0300080000000051
:10018000AF030008AF030008AF030008AF03000887
:10019000AF030008AF030008AF030008AF03000877
:1001A000AF030008AF030008AF030008AF03000867
:1001B000AF030008AF030008AF030008AF03000857
:1001C000AF030008AF030008AF030008AF03000847
:1001D000AF030008AF030008AF030008AF03000837
:1001E000AF030008AF030008AF030008AF03000827
:1001F000AF030008AF030008AF030008AF03000817
:10020000AF030008AF030008AF030008AF03000806
:10021000AF030008AF030008AF030008AF030008F6
:10022000AF030008AF030008AF03000800000000A0
:10023000AF030008AF030008AF030008AF030008D6
:10024000AF030008AF030008AF030008AF030008C6
:10025000AF030008AF030008AF030008AF030008B6
:10026000AF030008AF030008AF030008AF030008A6
:10027000AF030008AF030008AF030008AF03000896
:10028000AF030008AF030008AF0300080000000040
:10029000AF030008AF03000800F002F800F06AF8AE
:1002A0000AA090E8000C82448344AAF10107DA45D1
:1002B00001D100F05FF8AFF2090EBAE80F0013F0B9
:1002C000010F18BFFB1A43F0010318479C1A0000E6
:1002D000EC1A00000A444FF0000C10F8013B13F038
:1002E000070408BF10F8014B1D1108BF10F8015B8F
:1002F000641E05D010F8016B641E01F8016BF9D182
:1003000013F0080F1EBF10F8014BAD1C0C1B09D1D8
:100310006D1E58BF01F801CBFAD505E014F8016B4A
:1003200001F8016B6D1EF9D59142D6D370470000DC
:10033000103A24BF78C878C1FAD8520724BF30C811
:1003400030C144BF04680C607047000000230024E3
:1003500000250026103A28BF78C1FBD8520728BFD5
:1003600030C148BF0B6070471FB501F068FC1FBD6E
:1003700010B510BD00F076F81146FFF7F5FF01F05B
:100380005BFC00F094F803B4FFF7F2FF03BC00F04D
:1003900097F800000948804709480047FEE7FEE754
:1003A000FEE7FEE7FEE7FEE7FEE7FEE7FEE7FEE725
:1003B00004480549054A064B70470000A51300088C
:1003C00099020008B8AB0020B8330120B8B3002070
:1003D000B8B3002010B5203AC0F00B80B1E8185037
:1003E000203AA0E81850B1E81850A0E81850BFF41F
:1003F000F5AF5FEA027C24BFB1E81850A0E81850BE
:1004000044BF18C918C0BDE810405FEA827C24BF11
:1004100051F8043B40F8043B08BF7047D20728BF9F
:1004200031F8023B48BF11F8012B28BF20F8023BEE
:1004300048BF00F8012B704770477047704710B5F0
:1004400000F008F8006810BD10B5044600F002F88E
:10045000046010BD0048704758AB0020004870474A
:1004600058AB00207546FFF7F9FFAE460500694618
:10047000534620F00700854618B020B5FFF798FFD7
:10048000BDE820404FF000064FF000074FF0000895
:100490004FF0000B21F00701AC46ACE8C009ACE816
:1004A000C009ACE8C009ACE8C0098D46704710B57A
:1004B0000446AFF300802046BDE81040FFF763BF5D
:1004C00001491820ABBEFEE726000200704741F646
:1004D000F15CC0F2000C604742F2450CC0F2000C27
:1004E000604741F2C55CC0F2000C604740F6A91CB1
:1004F000C0F2000C604740F6752CC0F2000C60475B
:1005000041F6996CC0F2000C604741F6457CC0F2A0
:10051000000C604740F6716CC0F2000C604741F27D
:10052000FD2CC0F2000C6047144930B54EF6602532
:100530004C69002312492C1B124AA4B2A1F8A24C08
:10054000C578807805EB002080B2A1F8A40C844225
:1005500006D381F89D3C106820F00100106030BD8A
:1005600008480124074D001D81F89D4C18352B606B
:10057000016821F001010160146030BD00000240FB
:1005800000D001300C1C004000231A4601E08354C7
:10059000521C8A42FBD37047F0B5044641F2210554
:1005A00000204FF6FF76034610E0E25C80EA02206E
:1005B0000022070403D585EA400080B201E006EA84
:1005C0004000521CD2B2082AF3D35B1C8B42ECD3FE
:1005D000F0BD00000848D0F8A81C491CC0F8A81CB1
:1005E000642904D96422C0F8A82C012100E000216C
:1005F00080F8AC1C7047000000D0013008484EF66F
:100600006021026922F001020261826842F0200248
:1006100082604161016941F00101016170470000A0
:100620000000024010B5054C2068800605D5FFF794
:10063000E5FFA06840F02000A06010BD000002406F
:100640000B480168090512D50A49002291F8A63C19
:10065000A1F5E831C3EB831301EB031303F5E83392
:1006600083F8AD280A70816841F4006181607047A9
:100670000000024000D001300648002110B580F88B
:10068000AC180549C0F8981C00F028FEBDE81040E1
:1006900000F0EEBD00D001309D0600082DE9F041CC
:1006A0009A4C9B22032004F57C76002322701E25A1
:1006B0006070A370E370B1782171317861717178E5
:1006C000A171B1889248934A090AE1713179217286
:1006D000016801F500404B796372CB881B0AA37255
:1006E0008B79E3720B891B0A23730B7A63738B7C00
:1006F000A373C97CE173114602F5C65202F5D022FC
:10070000897821741168090E61741168090CA1744B
:100710001188090AE1741178217590F858126175F1
:10072000D0F85C12090EA175D0F85C12090CE175C5
:10073000B0F85C12090A217690F85C126176D0F864
:100740006012090EA176D0F86012A6F69E46704A95
:10075000090CE176B0F86012090A217790F860027E
:100760006077002040F25B111368414303EB0113F3
:1007700093F82130635513686D1C03EB0117EBB23E
:1007800097F82250E55415685B1CDBB205EB0115A8
:1007900095F82350E55415685B1CDBB205EB011599
:1007A00095F82450E55415685B1CDBB205EB011588
:1007B00095F82550E55415685B1CDBB205EB011577
:1007C000ED8C2D0AE55415685B1CDBB205EB0115B9
:1007D00095F82650E55415685B1CDBB205EB011556
:1007E0002D8D2D0AE55415685B1CDBB205EB011558
:1007F00095F82850E55415685B1CDBB205EB011534
:100800005F1C95ED1E0BB7EEC00B10EE105A2D0EAF
:10081000E55410EE105AFBB25F1C2D0CE55410EE9F
:10082000103AFDB26F1C4FEA132C04F805C0FDB25C
:1008300010EE103A401C635513686D1C03EB011752
:10084000EBB297ED200B5F1CB7EEC00B10EE105A09
:100850002D0EE55410EE105AFBB25F1C2D0CE55422
:1008600010EE103AFDB26F1C4FEA132C04F805C0CD
:10087000FDB210EE103A635513686D1C03EB0117BF
:10088000EBB297ED240B5F1CB7EEC00B10EE105AC5
:100890002D0EE55410EE105AFBB25F1CFFB22D0C6A
:1008A000E55410EE103A7D1CEDB24FEA132C10EE19
:1008B000103A04F807C0635513686D1C03EB01116F
:1008C00091ED260BE9B24D1CBCEEC00B0628EDB233
:1008D00010EE103A6354FFF645AFA81C010AA17050
:1008E0002946E0702046FFF757FE020A0146681CC1
:1008F0006255C2B201250023A15486F8AD58501CA0
:1009000086F8960C86F8AC38BDE8F081AED8013098
:1009100000000020000000242DE9F047614E04464D
:10092000B6F8A45CA91EFFF737FE6119042511F87B
:10093000012C11F8021C02EB012189B288427DD101
:1009400059484FF00009C6F8A89C012186F89F1C61
:100950004946036801EB4102002003EB0218665D83
:100960006A1C95B26A1C360614F805C095B26A1C5A
:1009700092B2655D06EB0C4608EBC00714F802C0A6
:1009800007F5044706EB052505EB0C0600EE106A9B
:10099000401C02F10102B7EEC00A95B2062887EDAD
:1009A0002E0BDCDB491C0729D4DB002202EB820082
:1009B00000EBC201002003EBC10114F805806E1C9E
:1009C000B6B2751C4FEA086814F806C0AEB2751CC2
:1009D000ADB2A65D08EB0C4C01EBC00714F8058026
:1009E00007F504470CEB0626464400EE106A401C4F
:1009F00005F10105B7EEC00AADB2062887ED820BFE
:100A0000DBDB0020665D05F1010C1FFA8CFC0CF1AC
:100A100001054FEA0668AEB214F80CC0751CADB201
:100A2000A65D01EBC007401C08EB0C4C14F80580D8
:100A3000062807F504470CEB062600E02EE04644A6
:100A400000EE106A05F10105ADB2B7EEC00A87ED00
:100A5000900BD7DB681C655D80B2461C2D06275CB9
:100A6000B0B200F1010601F5044114F800C0B0B2C3
:100A700005EB0745521C265C05EB0C2500F1010037
:100A80002E4400EE106A85B2072AB7EEC00A81ED47
:100A90008E0B8BDB83F81690BDE8F087042086F878
:100AA0009E0CF9E700D00130000000202DE9F05F36
:100AB000524E0446B6F8A45CA91EFFF76DFD6119FD
:100AC000042511F8012C11F8021C02EB012189B256
:100AD00088427CD1DFF828B101210020C6F8A80C9B
:100AE00086F89F1CDBF800A040F25B1100FB01F2CE
:100AF00000210AEB02136A1C655D92B202F1010C3F
:100B00002D06A75C1FFA8CF202F1010803EBC10667
:100B100014F802C01FFA88F205EB0745491CA75CD0
:100B200005EB0C2502F101022F4400EE107A95B27C
:100B30001429B7EEC00A86ED520BDCDB0021675D9D
:100B40006A1C92B2551C3F0614F802C0AAB202F108
:100B5000010503EBC10614F80280AAB207EB0C47AB
:100B6000491CA55C07EB082702F101022F4400EEA7
:100B7000107A95B21429B7EEC00A86ED7A0BDEDB47
:100B80005FF00002002102EB820603EB461914F825
:100B900005806E1CB6B2751C4FEA0868A75DAEB240
:100BA00006F10105ADB2A65D08EB074709EBC10CE4
:100BB00014F80580491C07EB0626464400EE106A2F
:100BC00005F10105ADB2B7EEC00A142900E010E04E
:100BD0008CEDA20BDBDB521C142AD3DB401C062855
:100BE00082DBFFF774FCDBF8001000200875BDE81D
:100BF000F09F042086F89E0CF9E7000000D0013039
:100C0000000000202DE9F041644E0446B6F8A45CD3
:100C1000A91EFFF7C1FC6119042511F8012C11F878
:100C2000021C02EB012189B288427DD14FF00008FD
:100C3000C6F8A88C012186F89F1CFFF74DFC584888
:100C400000220668681C80B240F25B13615D451C9F
:100C500002FB03F714F800C0A8B2431C9BB2255C4A
:100C6000090601EB0C4106EB0710E75C01EB0525DB
:100C70003D4400EE105A03F101039BB2B7EEC00AE7
:100C800000F5406103F10105ADB2521C062A81ED69
:100C9000CA0BE75C05F1010314F805C09DB205F12C
:100CA00001039BB2655D4FEA076707EB0C4714F839
:100CB00003C003F1010307EB0525654400EE105A5C
:100CC0009BB203F10105B7EEC00AADB281EDCC0BCA
:100CD000E75C05F1010314F805C09DB205F10103BD
:100CE0009BB2655D4FEA076707EB0C4714F803C03A
:100CF00003F1010307EB0525654400EE105A9BB292
:100D0000B7EEC00A81EDCE0B03F10101E55C89B2BB
:100D100001F101034FEA0565675C99B201F1010C2D
:100D2000635C05EB074500E034E01FFA8CF105EB4E
:100D3000032300F5A050675C01F1010189B23B4437
:100D400000EE103A01F10105B7EEC00A80ED6E0B1E
:100D5000635CA9B201F10105675CA9B201F101056B
:100D60004FEA036314F801C0A9B203EB0743655CC3
:100D700003EB0C2301F101012B4400EE103A8DB27C
:100D8000B7EEC00A80ED700BFFF65CAF86F81580F9
:100D9000BDE8F081042086F89E0CF9E700D0013010
:100DA000000000202DE9F05F6F4F0446B7F8A49CC7
:100DB000A9F10201FFF7F0FB04EB090111F8012C86
:100DC00011F8021C02EB012189B2884273D1002084
:100DD000C7F8A80C2421A079A9F10E09257999FB5F
:100DE000F1F34FEA002AE6794FEA052994F80A80E0
:100DF00094F808C006EB0A056079E17A2E04627A5D
:100E0000484401EB08214FF00C0502EB0C221FFABD
:100E100080FB1FFA82F81FFA81FA1FFA83F9360C59
:100E200001D1FFF75EFB514A022142F6E063B2F8BE
:100E300038C10CEB0900984203D987F89F1CBDE824
:100E4000F09F642E02D8B8F1640F01D903201CE092
:100E500046B1D088301A00B2012801D1464501D3ED
:100E6000042012E0BAF1000F0ED0414B012087F8A8
:100E70009F0CA8F1010C1F68664587F480471F602E
:100E800006D11170507004E0052087F89F0CD6E75A
:100E900010703649A2F804B00C31D680A2F8088050
:100EA000A2F83AA17054D08802EB4001A1F87090EA
:100EB000B2F8383148E053E003EBC30002EB8001A5
:100EC0000020665D6D1C01EB4007ADB23602A7F84D
:100ED0003C61401C14F8058080B205F1010C1FFA3A
:100EE0008CF506284644A7F83C61EAD30020665DED
:100EF0006D1C01EB4007ADB23602A7F84861401CFB
:100F000014F8058080B205F1010C1FFA8CF5062853
:100F10004644A7F84861EAD30020665D6D1C01EBEA
:100F20004007ADB23602A7F85461401C14F80580A2
:100F300080B205F1010C1FFA8CF506284644A7F88B
:100F40005461EAD35B1C9BB2B2F8381101EB090083
:100F50009842B1D889B201EB0900A2F838016EE7D6
:100F6000042087F89E0C6AE700D0013000000024BE
:100F7000140402582DE9F0478B4C012794F8AD0C6E
:100F800038B1A4F5E835002615F8010F9B2804D0E8
:100F900022E084F8AD7CBDE8F0876878012811D0A4
:100FA00002280FD004280DD005280BD0062809D020
:100FB000072807D0082805D0092803D00A2801D01F
:100FC0000B280BD12846FFF7AFFA94F89D0C0128A7
:100FD000E1D028789B2801D002201DE084F89E7C77
:100FE0004FF00408687884F8A00C012819D0022872
:100FF00030D0042847D0052849D0DFF8B0A1062812
:1010000049D0072865D0082867D009287ED00A284B
:101010007DD00B287CD0032084F8A06C84F89E0C33
:10102000B8E0B4F8A49C2846A9F10201FFF7B4FA8D
:1010300005EB090111F8012C11F8021C02EB01214A
:1010400089B2884265D1C4F8A86C84F89F7CFFF708
:101050004DFA9FE0B4F8A49C2846A9F10201FFF7DD
:101060009BFA05EB090111F8012C11F8021C02EBA7
:10107000012189B288424CD1C4F8A86C84F89F7CC5
:10108000FFF739FA86E02846FFF78CFE82E0284613
:10109000FFF70CFD7EE0B4F8A49C2846A9F10201FC
:1010A000FFF77AFA05EB090111F8012C11F8021C7F
:1010B00002EB012189B288426AD1C4F8A86C84F895
:1010C0009F7CFFF709FAFFF71BFADAF800000675B4
:1010D00060E02846FFF796FD5CE0B4F8A49C284643
:1010E000A9F10201FFF758FA05EB090111F8012CEB
:1010F00011F8021C02EB012189B2884248D1C4F8E0
:10110000A86C84F89F7CFFF700FA03E006E009E092
:1011100024E03DE0DAF8000046753BE02846FFF7A2
:10112000FBFB37E0B4F8A49C2846A9F10201FFF7C5
:1011300033FA05EB090111F8012C11F8021C02EB3E
:10114000012189B2884223D1C4F8A86C84F89F7C1D
:10115000FFF7E0F9DAF8000086751BE0B4F8A49C0C
:101160002846A9F10201FFF717FA05EB090111F86A
:10117000012C11F8021C02EB012189B2884207D12F
:101180000B49C4F8A86C84F89F7C2879487001E06A
:1011900084F89E8C4EF660212846FFF7F5F9BDE8ED
:1011A000F047FFF72BBA000000D00130000000200C
:1011B000000000242B482DE9F047017800294ED18A
:1011C00000F5EC378946AC37804600F5E8344E46EA
:1011D00094F8A60C401C10F0FF0084F8A60C01D077
:1011E00084F8A69C3D463878012834D1D5F8EC0324
:1011F000804795F8EA131C48FFF7C6F900204246DD
:1012000008E02918131803F5E8338978401CC0B2A8
:1012100083F8C11495F8EA138142F2D813480221E9
:10122000826A22F00102826295F8EA23C262826A2F
:1012300042F0010282626970012184F89C9C84F86A
:101240009D9C84F89E9C84F89F9C84F8A09CA4F8A4
:10125000A29CA4F8A41C761C16F0FF06B8D0BDE82A
:10126000F087000000000030C1D4013000000240CF
:101270002DE9F041174CEF252168002021F00102F3
:1012800049F63F4122606062A562E162E06840F099
:101290000100E060362000F067F90F48216841F254
:1012A00087330D4ADFF830C041F001011832216068
:1012B000161D0127ACF1100C15603360CCF80070DE
:1012C000016821F001010160BDE8F0412C2000F02F
:1012D0004BB9000000100040101C00402A492DE9C5
:1012E000F041086820F4702008600B68264A264800
:1012F00043F420230C320B60243000251168234C6A
:10130000234B41F4A0262349166002682D27DFF8FD
:1013100088C04EF66026DFF884E042F07702026073
:101320002561A361E1616661CCF80070206940EA43
:101330000E0020610B2000F017F915492E23164EE0
:101340004FF47A721648091D361DA562134D2163AC
:10135000C13D6063E2623360A06A2843A0620C2052
:1013600000F002F90A49C022094D1D24183940F243
:1013700011400B1F243D08601A602C602720BDE837
:10138000F04100F0F1B80000000C025800000240EB
:10139000244800400100003000080240110503000D
:1013A000C1D401302E48F0B52E4A016841F47001D5
:1013B0000160106800F00F00072804D2106820F0C8
:1013C0000F00C01D106028490020274C10340B6806
:1013D000264D43F001030B6020600B682B400B602F
:1013E000136803F00F03072B04D9136823F00F03CE
:1013F000DB1D13601C4C1E4A18341E4B261D371D66
:101400002060194C1C4D28343060261D3860371D73
:1014100023603B1D35601C1D3A60251D2E1D186084
:10142000331D22602860326018600A680E4B134C2E
:1014300022F4802260330A60186020686FF30F0086
:10144000B0F1005F03D20E490120C1F8080143F258
:10145000D2000C49024B4A03803B08601A60F0BD81
:1014600088ED00E000200052004402587FEDF6EACB
:1014700080020101000202020000FF010010005C76
:10148000008000510040005210B5074C2069C00791
:1014900009D00648012180F8AC18FFF78BFE2069BF
:1014A00020F00100206110BD0010004000D001308C
:1014B00070B50B4C2068C00710D0201F00260268B2
:1014C0000521084D22F001020260AE702970FFF77D
:1014D00095F82E70206820F00100206070BD00009B
:1014E000101C00409EDC0130074810B50068C006A3
:1014F00009D506480068FFF73DFD0348001D016857
:1015000041F01001016010BD1C440040244800401F
:10151000084810B50068C0060AD5064808300068BB
:10152000FFF728FD0348001D016841F0100101602C
:1015300010BD00001C48004003B401984100009811
:1015400050EAC12018BF04204A0D18BF40F0010026
:1015500040F2FF72B2EB515F08BF40F00200012879
:1015600008BF052002B07047002809DB410900F0E0
:101570001F028900012001F1E0219040C1F8000123
:10158000704700000000000010B529499FED261BA0
:101590002DED020B84B0059820F000408842D8BFA2
:1015A0009DED040B2DDD2349884209D1049840B9F3
:1015B0004FF00100FEF748FF00F01AFB06B010BD27
:1015C00005DB9DED040B30EE000B06B010BD684648
:1015D0009DED040B00F088F810F0030004BF9DEDB2
:1015E000021B9DED000B0CD001280ED09DED021BBF
:1015F0009DED000B022810D0012000F0A5FA06B0E6
:1016000010BD00F0F9F906B010BD9DED021B9DED77
:10161000000B012000F098FA01E000F0EDF906B0AF
:10162000B1EE400B10BD0000000000000000000003
:10163000FB21E93F0000F07F10B529499FED261BF3
:101640002DED020B84B0059820F000408842DCBFED
:1016500000209DED040B2EDD2249884209D104981B
:1016600040B94FF00100FEF7EFFE00F0C1FA06B0FE
:1016700010BD05DB9DED040B30EE000B06B010BD78
:1016800068469DED040B00F02FF810F003000DD01C
:10169000012814D09DED021B9DED000B022816D0F1
:1016A00000F0AAF906B0B1EE400B10BD9DED021B93
:1016B0009DED000B012000F047FA06B010BD9DED36
:1016C000021B9DED000B00F097F906B010BD012044
:1016D00000F03AFAE6E70000000000000000000019
:1016E000FB21E93F0000F07F2DE9F14F04462DED8D
:1016F000020B2DED048B94B09FED9D0B80ED020B42
:10170000199E9D4826F0004585420ADC9DED180B88
:10171000002084ED000B14B0BDEC048B03B0BDE8D9
:10172000F08F96489FED969B9FED978BA84225DD05
:1017300097489FED991B9FED9A2B9DED180B002E5E
:101740000DDD30EE490B854212BF30EE480B30EE16
:10175000410B30EE420B84ED000B0120DBE730EE55
:10176000090B854212BF30EE080B30EE010B30EE54
:10177000020B84ED000B4FF0FF30CCE78A48A84203
:1017800053DB9DED180B51EC100B00F049FA41ECC6
:10179000100BB0EE401B9FED862B9FED870B290DA4
:1017A000DFF81CC201EE020B0120FDEEC00B10EEB3
:1017B000903A00EE903AB8EEE02BB0EE410B02EE1C
:1017C000490B22EE081BFC44032830EE411B84ED3C
:1017D000001B1DD011EE902A00EB4015113DC2F305
:1017E0000A528A1A954213DA0CEB0012B0EE403B13
:1017F00092ED000B401C20EE021B33EE410B33EE4A
:10180000403B33EE411B92ED023B12EE031BDBE744
:10181000002EA8BF1846BFF67EAF94ED000B5842CD
:10182000B1EE400B84ED000B75E7C6F3130040F4F6
:10183000801EC6F30A50A0F2F530471100F01F05D4
:10184000C5F12000DDF860B01390002008900990E9
:1018500005200DF1080C5B49002D07EB00027944CF
:1018600008BF51F8221009D051F8223001EB820153
:10187000AB404A68139922FA01F11943A1FB0E26E5
:10188000A1FB0B131A449A4234BF0123002303EB3C
:1018900006080CEB8003D3E901A60E448E4234BF48
:1018A0000121002192448A4411B1924502D903E0FA
:1018B000924501D2012100E00021C3E901A6414483
:1018C0004CF82010011EA0F10100C4DC04989DED2D
:1018D000050A00F10050810F04989FED3B4B8000FA
:1018E00001EE100ADDED060A9DED072AB8EEC13BB8
:1018F000B8EE401BB8EE600BB8EE422B002021EE94
:10190000041B9FED334B20EE040B9FED334B22EE77
:10191000042B30EE024B34EE014B34EE034B8DEDD5
:10192000004B00909DED004B199834EE433B10F0B6
:10193000004F33EE411B31EE400B32EE401B9DED6C
:10194000000B9FED272B20EE020B9FED272B01EEC6
:10195000020B9DED001B9FED262B01EE020B1CBF21
:101960004942B1EE400B84ED000B0846D3E600007F
:101970000000000000000000FB21E93F7CD902408C
:1019800000004054FB21F93F3163621A61B4D03D3D
:10199000FB21F93F000000000000601A61B4D03D57
:1019A0007370032E8A19A33BFB213941000000000C
:1019B00083C8C96D305FE43F000000000000E03FD5
:1019C000AE04000046040000000000000000103ECD
:1019D000000000000000103C000000000000103A71
:1019E0003326A611460B113C182D4454FB21F93D1A
:1019F00000000054FB21F93D10B52DED040B2DED39
:101A0000068B82B0B0EE41AB09989FED299B20F088
:101A10000044B4F1795F0FDA9DED080BBDEEC00B09
:101A200010EE100A002801BFB0EE490B02B0BDEC69
:101A3000068B04B008BF10BD9DED080B1E480621A3
:101A400020EE008BB0EE480B784400F045F820EE15
:101A5000080B9DED081B1C48844228EE000B01EE8C
:101A60004A0B9FED171B28EE011BBCBF31EE400B4C
:101A700039EE400B16DB1548A042BCBF9FED142B7E
:101A80008DED002B06DBA4F50010019000200090E6
:101A90009DED002B31EE421B39EE422B31EE400B17
:101AA00032EE400B02B0BDEC068B04B010BD00005E
:101AB000000000000000F03FFC01000000000000FA
:101AC000000000000000E03F3333D33F0000E93F57
:101AD000000000000000D23F491E00EBC102B0EE42
:101AE000401B92ED000B31F006020DD0491E00EBB9
:101AF000C102B0EE403B92ED002B31F00602B0EE99
:101B0000420B03EE010BF1D1022914D004290AD0B3
:101B1000062918BF704790ED0A2B00EE012B90EDBF
:101B2000080B02EE010B90ED062B00EE012B90ED61
:101B3000040B02EE010B90ED022B00EE012B90ED59
:101B4000000B02EE010B704731B504462DED040B7E
:101B50002DED068BB0EE419B07989DED060B20F016
:101B60000040B0F1795F0DDA51EC100BFFF7E4FCA7
:101B7000042808BF00F048F89DED060BBDEC068B6D
:101B800005B030BD20EE008B1348052128EE00ABD8
:101B9000B0EE480B7844FFF79FFF9FED111B8CB10F
:101BA0009FED112B29EE022B0AEE402B9DED060B2B
:101BB00018EE029B0AEE419B30EE490BBDEC068B02
:101BC00005B030BD08EE001B9DED060B0AEE010BC3
:101BD000BDEC068B05B030BDA80100000000000080
:101BE000495555555555C5BF000000000000E03F60
:101BF0009FED031B81EE010B704700000000000009
:101C000000000000000000009FED030B20EE000B21
:101C100070470000000000000000000000000010FD
:101C200082B0CDE9000121F0004001909DED000B54
:101C300002B051EC100B7047FEF771FCFEE74FF05D
:101C40004070E1EE100A70474C5555555555A53F6B
:101C50007751C1166CC156BF9015CB19A001FA3E41
:101C6000AD529C804F7E92BEC4B1B4BD9EEE213E6B
:101C7000D43888BEE9FAA8BD00004054FB21F93FE2
:101C80003163621A61B4D03D0000601A61B4D03D86
:101C90007370032E8A19A33B0000002E8A19A33B00
:101CA000C14920259A837B39000000000000000014
:101CB0006E83F9A22915444ED15727FCC0DD34F5B7
:101CC000999562DB4190433CAB6351FE61C5BBDE3D
:101CD0003A6E24B7E0D24D42EA2E49061C92D10951
:101CE0001CEB1DFE3EA729B1F53582E88444BB2ECE
:101CF00026709CE9417E5FB439D69139F43953831B
:101D00008B5F849C3B28F9BDFF97F81F0F9805DE79
:101D10008B112FEF1F6D0A5ACF7E366DB709CB2777
:101D2000663F464F2DEA5F9EC7BA27757BF1E5EB0C
:101D3000F739073DEA92528AB15FFB6B085D8D1F50
:101D4000A6F810111111813FD561C119A0012ABF58
:101D50007DFEB157E31DC73EEB9C2B8AE6E55ABEDC
:101D60007CD5CF5A3AD9E53DB81D000800000020C7
:101D70000400000030030008BC1D0008000000241F
:101D8000789A0600D4020008002B000800000030FA
:101D9000B0DC0100D4020008C02E000800000000E2
:101DA000E09B000030030008BC1D00080400002078
:101DB000B43301004C0300080800002001FF01FFBC
:101DC00001FF01FF01FF01FF01FF01FF01FF01FF13
:101DD00001FF01FF01FF01FF01FF01FF01FF01FF03
:101DE00001FF01FF01FF01FF01FF01FF01FF01FFF3
:101DF00001FF01FF01FF01FF01FF01FF01FF01FFE3
:102AF00001FF01FF01FF01FF01FF01FF01FF0119BC
:102B000001FF01FF01FF01FF01FF01FF01FF01FFC5
:102B100001FF01FF01FF01FF01FF01FF01FF01FFB5
:102B200001FF01FF01FF01FF01FF01FF01FF01FFA5
:102B300001FF01FF01FF01FF01FF01FF01FF01FF95
:102EB00001FF01FF01FF01FF01FF01FF018E000083
:102EC00040F2D55CC0F6000C604740F2796CC0F669
:102ED000000C604740F2D53CC0F6000C604741F260
:102EE000895CC0F6000C604741F2396CC0F6000CFA
:102EF00060470000274800210122006800F50040DB
:102F0000C0F85C1290F8B8320BB1C0F85C2290F8AF
:102F100010332BB1D0F85C3243F48073C0F85C32CC
:102F200090F858332BB1D0F85C3243F40073C0F8FA
:102F30005C3290F8A0332BB1D0F85C3243F480635C
:102F4000C0F85C3290F8E8332BB1D0F85C3243F42F
:102F50000063C0F85C3290F830342BB1D0F85C32AA
:102F600043F48053C0F85C3290F87834002BD0F8EA
:102F70005C3203D043F40053C0F85C3213B180F8E4
:102F8000581201E080F85822D0F860121943C0F8B6
:102F9000601270470000002015480022F0B405249C
:102FA0000568012305F50040D0F8B412052904D3C3
:102FB000C0F8B44280F8B83201E080F8B8220020AE
:102FC00000EBC00105EBC10101F50041D1F80C6334
:102FD000052E04D3C1F80C4381F8103301E081F8C9
:102FE0001023401C0628EBDBF0BCFFF783BF00007A
:102FF0000000002010B500F097FA00F06DF800F026
:1030000009F80348816921F00101816110BD0000C8
:1030100000A000402B4970B52A4C0A6820342A4889
:1030200022F00F020A600A6842F00A03274A0B6086
:10303000216840F6313341F09901216081693F24D4
:1030400041F0030181618569214945F48645856127
:10305000C261C360C0F880400322096840F21114C5
:1030600001F5107101F500410B8843F4C023C0F84D
:1030700084304B8843F48033C0F8C030C0F8C82097
:10308000C0F8BC40134B8C88C0F8AC40C98841F4F0
:103090006811C0F8A0104365D0F8E01041F00101BC
:1030A000C0F8E010416D4FF07F5341F07F51416512
:1030B0008365C265132004F098FBBDE870401520BD
:1030C00004F093BB000C025800A00040030B040264
:1030D00000000020000208001A4AD023F0B5106852
:1030E000A027B02600F2662000F50040C025E024AD
:1030F0000780F021868101260583072783844FF00E
:10310000605C048681870020136885B200EB400173
:1031100045F0804403EB810101F5197101F500418F
:1031200003F500430E704F708D804D884CEA0545C5
:103130002C438C60D3F8481241F82040401C0628EC
:10314000E2DBF0BD000000202DE9F04F7E484FF09B
:103150000009D0F800E07D48D0F8980020FA09F086
:10316000C0077DD00EF5004B09EBC90209EB8903BE
:10317000DBF850129BB20EEBC20A0AF5004008229F
:1031800051F823700C2102EB830CC0F83C7304242B
:1031900001EB8302DBF8501204EB8306102505EBEC
:1031A000830351F80680FC0FC0F84083C7F34075D5
:1031B000DBF85012C7F38A464FEAD87751F80C1063
:1031C000C8F3056CC0F84413DBF850128958C8F3F3
:1031D0004052C0F84813DBF85012C958C8F30053E6
:1031E000C0F84C13C8F3034180F820434FEA184459
:1031F00080F82153C0F8246380F8287380F829C32D
:1032000080F82A235FF0000280F82B3380F82C131B
:10321000A0F82E430AEB820101F54C7101F5004143
:10322000521C032A4B690B704FEA13244C704FEA6F
:1032300013458D704FEA1366CE70EBDB40F25B14E2
:1032400090F8303390F8312309FB04F102EB0322AC
:1032500012B201EE102A9FED3E0B0EEB011100E0C1
:1032600069E0B8EEC11B91ED402B48F2183721EE12
:10327000021B81EE002B81ED1E2B90F8323390F86B
:10328000332391ED422B02EB032212B201EE102AFE
:10329000B8EEC11B21EE021B81EE002B81ED202B2D
:1032A00090F8343390F8352391ED462B02EB03224E
:1032B00012B201EE102AB8EEC11B21EE021B81EE04
:1032C000002B81ED242B90F8362300EE102AB8EE67
:1032D000400B81ED260B90F8372381F8212090F8E0
:1032E000382381F8222090F8392381F8232090F8A0
:1032F0003A2381F82420002290F83B3381F82530CE
:1033000048F2183348F21C31C0F80C2300F5427023
:1033100053F80A3051F80A105B1C41F10004391DC2
:1033200047F80A30094B012641F80A4006FA09F627
:103330000270C3F8986009F10109B9F1060FFFF6B0
:103340000AAFBDE8F08F00000000002000A00040A0
:1033500000000000C0FFDF4010B500F01FF8FFF7CD
:103360001BFE0D48006800F50041D1F8B422521C44
:10337000C1F8B4225FF0000101EBC102491C00EB6F
:10338000C20202F500420629D2F80C3303F1010310
:10339000C2F80C33F0DB10BD000000202DE9F04F27
:1033A0005D4B002189461868024600F5004090F800
:1033B000B042012C7DD080F8C812AA2580F8C9122D
:1033C0000B2680F8CA12AF04C0F8CC524FF46C152B
:1033D00080F8D0124FF0010E80F8D112002480F84E
:1033E000D2E29A4680F8D3E2234680F8D462C0E95C
:1033F000BB7509EB49059FED492B05EBC90B02EBAA
:10340000CB0100BF40F25B15B0EE420B5D430E19DD
:1034100006F5004602EB0515641C95ED141B95EDB1
:10342000463BA4B201EB040781EE034B04F1010417
:10343000A4B207F5004701EB040C0CF5004C5B1C33
:1034400004F10104A4B2062B24EE001BBDEEC11B47
:1034500011EE108A4FEA282886F8D58295ED141BC4
:1034600095ED463B81EE034B24EE000BFDEEC00BC9
:1034700010EE906A87F8D56295F820508CF8D552F6
:10348000C0DB002301EB830202F2D52202F50042E9
:103490005B1C052B56781478977892F803C004EBE0
:1034A000062404EB074404EB0C64C2F81F40E9DB7C
:1034B00000E02EE0D0F84C0201F50041194B0EFA65
:1034C00009F4D1F8EC120160DAF8000000EBCB014E
:1034D00000F5137000F5004001F53C7101F5004165
:1034E00005680E686E6006684D68B56006688D6890
:1034F000F5600668CD68356106680D69756100681C
:103500004D69856101F840ECD3F8D0002043C3F841
:10351000D000BDE8F08F0000000000200000000097
:10352000C0FFDF4000A000400D484FF0000CF0B598
:10353000006818270B4A342600F51070094B00F577
:103540000040084CAC2507491832A0F800C03433BD
:103550004780AC348680C580083080E81E00F0BD0E
:103560000000002000AC0040074940F25B139FEDD3
:10357000070B10FB03F00222096801EB001080F832
:10358000202080ED140B7047000000200000000098
:10359000000000000D480021D0F8003040F25B1020
:1035A0004843491C062903EB001202F5406092EDE6
:1035B0001E0B80EDC20B92ED180B80EDC40B92ED4B
:1035C0001A0B80EDC60BE9DB01F0BEBE0000002047
:1035D0002DE9F041654D0026286806734673467450
:1035E0008673C6730674FFF76BFC2A6801240021FA
:1035F00040F25B10484302EB001090F8243080F852
:10360000306080F831600BB180F8304090F82230A3
:103610000BB180F8304090F82D30012B01D180F8AB
:10362000314090F82F30012B01D180F8314090F8D3
:103630002A30012B01D180F8314090F82B30012B3A
:1036400001D180F8314090F82C30012B01D180F865
:10365000314090F82E30012B01D180F8314090F8A4
:103660003030012B00D1547490F83100012800D182
:103670009473491C0629BBDB2868002101EBC103B8
:1036800000EBC30202F5004292F81023012A00D198
:10369000C473491C0629F1DB48F2B821095C0129F1
:1036A00000D1C47332490A680021D20600D4012136
:1036B000827B8172012A0FD0C17B01290CD0017C51
:1036C000012909D000F026FB2868427C012A0CD091
:1036D000817A012909D009E025490473091D0A6886
:1036E00022F008020A60C472EEE74473C67A817A57
:1036F000047B437B41EA4601857BC67B41EA84012A
:10370000077C41EAC30141EA0511048941EA4611F7
:1037100041EA871141EAC211C1800C4304810022B1
:1037200040F25B115143521C062A00EB011191F843
:103730002B4091F82A3091F82C5091F82D6043EAF3
:10374000440391F82E7091F82FC043EA850343EAB1
:10375000C6030C8D43EA071343EA4C13CB8444EAB7
:1037600003040C85DCDBBDE8F081000000000020D4
:10377000100C02583B48012230B50021D0F800302F
:1037800040F25B10484303EB001000F5A05500F534
:10379000406495ED720B94EDC81B90ED482B30EE14
:1037A000010B30EE020B80ED1C0B90ED341BB4EEE0
:1037B000C10BF1EE10FA06D390ED361BB4EEC10B3F
:1037C000F1EE10FA01DD80F82D2090ED160B90ED52
:1037D000281BB4EEC10BF1EE10FA06D390ED2A1BB4
:1037E000B4EEC10BF1EE10FA01DD80F82A2090ED65
:1037F000180B90ED2C1BB4EEC10BF1EE10FA06D3B2
:1038000090ED2E1BB4EEC10BF1EE10FA01DD80F845
:103810002B2090ED1A0B90ED301BB4EEC10BF1EEA6
:1038200010FA06D390ED321BB4EEC10BF1EE10FA94
:1038300001DD80F82C2094EDD20B90ED3C1BB4EE12
:10384000C10BF1EE10FA06D390ED3E1BB4EEC10BA6
:10385000F1EE10FA01DD80F82E20491C06298FDBDD
:1038600030BD00000000002010B500F03BF800F073
:1038700005F8BDE81040FFF7ABBE0000184B002074
:1038800010B50246D3F8004040F25B115143521C80
:10389000062A04EB011181F8300081F8310081F82B
:1038A0002D0081F82F0081F82A0081F82B0081F883
:1038B0002C0081F82E00E7DB1A68002101EBC1041F
:1038C000491C02EBC40404F50044062984F81003E3
:1038D000F4DB196801F5004181F8B80210BD000061
:1038E000000000201248002210B59FED0F0B11467A
:1038F000D0F8003040F25B104843491C03EB001045
:1039000000F5406480F8242020300629827080ED84
:103910000E0B80ED100B80ED120B80ED140B84ED7F
:10392000D20BE7DB10BD000000000000000000002B
:103930000000002010B5FFF7D5FFFFF79FFF0948F3
:103940000022016810460A8140F25B134343401C89
:10395000062801EB03131A85F6DBBDE81040FFF7DC
:1039600037BE0000000000202DE9F04F3348202131
:103970000668012540F2DF192C4646F001062B4669
:103980000A46066003274FF0A90AAC464FEA05062F
:10399000D0F800805FEA4878FAD51B06DFF89C80F3
:1039A00043EA0443DFF898B034060E0144EA0744C2
:1039B00043EA4521214D44EA4C23DFF880C046EA22
:1039C00002371E4A0CF1280C383248241835CCF83E
:1039D000007041EA090143EA0A0308F130084FF494
:1039E00088664FF0400C2F1DC8F8001007F104083E
:1039F00013602C603E60C8F800C0DBF8002042F085
:103A00003702CBF80020016841F080710160016845
:103A10008901FCD5016841F08061016001680901FC
:103A2000FCD506481030016841F0030101600168CF
:103A3000C1F3C2010329FAD1BDE8F08F0044025856
:103A4000002000522DE9F041364E0020344C306009
:103A5000354D206820F001002060686920F00200E8
:103A60006861206820F480402060FFF7B1FD00F01D
:103A700067F82E490868407900284FD02C4F01285C
:103A800005D00228884613D0032833D038E02068B8
:103A900040F001002060B87808B100F0F3FC002489
:103AA0002046FFF761FD641CE4B2062CF8D327E042
:103AB000686940F00200686100F04CFCB8780328A7
:103AC00008D000242046FFF74FFD641CE4B2062C0A
:103AD000F8D315E0D8F800100322002040F25B1361
:103AE0004343401CC0B201EB0313062883F8202097
:103AF000F4D305E0206840F48040206000F094F8A2
:103B0000FFF72AFC30689FED0B1B00EE100A0B48F4
:103B1000B8EE400B80EE012B80ED002BBDE8F0816C
:103B200014040258240C0040001002580000002029
:103B3000000000240000000000006E40E888002023
:103B400070B5174D03242868017B012917D0417BEC
:103B5000012914D00021017100F024F82868022204
:103B6000417901290DD002294FF0010312D0032918
:103B700004D10179012910D0022905D070BD04714A
:103B8000EAE70179022901D1427170BD0329FCD114
:103B9000447170BD01790129F8D1437170BD0000F5
:103BA000000000201F4810B500680179032935D0B6
:103BB000017D19B9817C21F001018174417D19B920
:103BC000817C21F002018174817D19B9817C21F011
:103BD000040181740122002140F25B1304464B432F
:103BE00000EB031393F82130022B03D03BB1012BE0
:103BF00005D00AE0C37C02FA01F4A34303E0C37CCE
:103C000002FA01F423430446C374491CC9B20629CD
:103C1000E2D3817C09B9C17C09B1227110BD0221B6
:103C2000217110BD0000002070B52DED028B00F059
:103C300029FC174D2868007B012807D10024204665
:103C4000FFF792FC641CE4B2062CF8D32868407B92
:103C5000012814D101269FED0F8B002440F25B1048
:103C60002968604301EB001090F83010012909D059
:103C70002046FFF779FC641CE4B2062CEED3BDECC1
:103C8000028B70BD80F8206080ED148BF3E700009C
:103C900000000020000000000000000030B51C4CB7
:103CA000012100221346206842718175017541751A
:103CB000C5185B1C062BE975FADB2068037D012B18
:103CC00003D1837C43F001038374437D012B03D133
:103CD000837C43F002038374837D012B03D1837CB7
:103CE00043F0040383740023C418E47D012C04D141
:103CF000C47C01FA03F52C43C4745B1CDBB2062BB5
:103D0000F2D30273427342748273C273027430BD81
:103D10000000002004480021026842F0080202600E
:103D200002480068C1727047140C0258000000205D
:103D300010B52DED0A8B9FEDD85B9FEDD98BB0EEC2
:103D4000484BB0EE483B9FEDD82BD94C48F2B840D9
:103D5000B0EE481BB0EE480B2168084400F02AFA88
:103D6000B0EE485B9FEDD3ABB0EE483BB0EE4A4BB4
:103D70009FEDD2BBB0EE481BB0EE4B2B9FEDD1CBED
:103D8000206848F2E841B0EE4C0B084400F012FA0B
:103D9000B0EE485B9FEDCD9BB0EE483BB0EE482BBC
:103DA000B0EE494BB0EE481B9FEDCA0B206848F2BD
:103DB0001851084400F0FEF9B0EE485BB0EE484BF5
:103DC000B0EE493B9FEDC52BB0EE481B9FEDC50BF8
:103DD000206848F24851084400F0ECF9B0EE495B25
:103DE0009FEDC24B206848F27851B0EE483BB0EEF0
:103DF0004C2BB0EE481BB0EE4B0B084400F0DAF948
:103E0000206848F2A851B0EE485BB0EE4A4BB0EEE5
:103E1000483BB0EE4C2BB0EE481BB0EE4B0B0844C9
:103E200000F0C8F9B0EE485BB0EE484BB0EE483B4E
:103E30009FEDB02B206848F2D851B0EE481BB0EE91
:103E4000480B084400F0B6F9B0EE485BB0EE484BC2
:103E5000B0EE483B9FEDA92B9FEDAA1B206848F2CE
:103E60000861B0EE480B084400F0A4F9B0EE4A5BDC
:103E7000B0EE484BB0EE483B9FEDA42BB0EE481B94
:103E80009FEDA49B206848F27061B0EE490B084496
:103E900000F090F9B0EE4A5BB0EE484BB0EE483B14
:103EA0009FED9E2BB0EE481B9FED9E0B206848F2C5
:103EB000D861084400F07EF9B0EE4A5BB0EE484BA2
:103EC000B0EE483B9FED992BB0EE481B9FED990B50
:103ED000206848F24071084400F06CF9B0EE4A5B8B
:103EE000B0EE484BB0EE483B9FED94BB206848F2E3
:103EF000A871B0EE481BB0EE4B2BB0EE490B084456
:103F000000F058F9206848F61001B0EE4A5BB0EEB8
:103F1000484BB0EE483BB0EE4B2BB0EE481BB0EE3A
:103F2000490B084400F046F9206848F67801B0EEE5
:103F3000485BB0EE484BB0EE483BB0EE482BB0EEDD
:103F4000481BB0EE480B084400F034F9206848F2F2
:103F50004061B7EE005BB0EE484BB7EE003BB0EE11
:103F6000482BB0EE481BB7EE000B084400F022F9D6
:103F70009FED749BB0EE484BB0EE495B9FED73AB89
:103F8000B0EE482BB0EE481BB0EE4A3B9FED71BB44
:103F9000206848F2A861B0EE4B0B084400F00AF923
:103FA0009FED6E0BB0EE484BB0EE405B9FED6D3B6E
:103FB000206848F21071B0EE482BB0EE481B084460
:103FC00000F0F8F89FED695BB0EE484B9FED693B60
:103FD000B0EE482BB0EE481B9FED680B206848F20E
:103FE0007871084400F0E6F8206848F2E071B0EE1D
:103FF000495BB0EE484BB0EE4A3BB0EE482BB0EE1A
:10400000481BB0EE4B0B084400F0D4F8206848F68B
:104010004801B0EE495BB0EE484BB0EE4A3BB0EE23
:10402000482BB0EE481BB0EE4B0B084400F0C2F832
:104030009FED545BB0EE484B9FED543BB0EE482BE8
:10404000B0EE481B9FED530B206848F6B0010844C2
:1040500000F0B0F8206801469FED500BB6EE081B4B
:104060009FED502BB0EE0B3B9FED504B00F5044005
:1040700001F5084180ED8E1B80EDA80B80EDC22B71
:1040800080EDDC3B80EDF60B81ED100B81ED2A4BD2
:10409000BDEC0A8B10BD0000E3361AC05B20C9BF1F
:1040A000000000000000000054E3A59BC420B03FC6
:1040B000000000207A008BFCFA21F93FF2D24D6219
:1040C0001058A93FFCA9F1D24D62B03F7A008BFC99
:1040D000FA21094021B0726891EDDCBF4DF38E5397
:1040E0007424973F21B0726891EDDC3F7A008BFC1D
:1040F000FA21F9BF7FFB3A70CE88923F809F71E131
:104100004048363FB37BF2B0506B8ABF62105839DB
:10411000B4C8A63FDBF97E6ABC74933FD26F5F07D9
:10412000CE19A13F21B0726891EDCCBF2575029ADE
:10413000081BAE3F742497FF907ED33F6891ED7CBF
:104140003F35AE3F86C613419C87633FD0D6C1C181
:10415000DEC4603FA35C1ABFF04A623F2AA913D0B5
:1041600044D8C83FE14389963C9E763F4FAF946563
:104170008863BD3FE7ABE4637781723F60764F1E93
:10418000166ABD3FF168E388B5F8143FC9C7EE026F
:104190002505063F5D18E945ED7E053F5C8FC2F5BC
:1041A000285CFF3FA4703D0AD7A31240CBA145B6BF
:1041B000F3FDB43F80EC0C0B7047000010B5FFF727
:1041C000D3FB4FF0E0203F494161F0213E4A82F8A5
:1041D000141D00210722816102613C490A68081F01
:1041E00042F060420A600268091D42F00302026068
:1041F0000A68364842F01A020A600C3002683349F5
:10420000334B18311A4302600A68001D42F0020263
:104210000A6002682D4942F4807202608C39086895
:104220002A4A40F000500860083A1168294841F0D5
:1042300000411160016821F0030101600268264914
:1042400042F0010202600A6822F00C020A600A6869
:1042500042F004020A60016821F0405101600168E7
:1042600041F080510160FFF719FD00F00BF900F0FB
:1042700049FE00F071FD00F0C5FDFFF759FDFEF7A6
:1042800024FEFEF7B7FE02F0B5FA1448016821F0EB
:10429000C0010160016841F04001016002680F49FE
:1042A00022F4407202600C31086840F480700860AB
:1042B000FFF730FD00F016F8094901200968487140
:1042C00010BD0000FF5207000FE000E0DC44025880
:1042D000B80006000004025800100258000C0258F2
:1042E0000000002018480022F0B5174905680C317D
:1042F000154BEF2440F2E736243325F00107076021
:104300001D1D2F1D1A602C603E600B6843F00103D9
:104310000B600E4B4FF40001C3F800110C49036809
:1043200043F0010303600868951E094B20F001006B
:10433000086024331C1D261D1A6022603560086841
:1043400040F001000860F0BD0014004004E000E00F
:10435000000C004010B500F069F830488278002A5F
:1043600012D0012A4FF0000300F5D2210DD0022A0D
:104370000AD0032A20D0042A1AD0052A04D10178B1
:10438000022947D04370837010BDB0F8382101F680
:10439000BC014281B0F83A01424321480CC100F00F
:1043A000A1F81F48903000F09DF81E4800F09AF8E0
:1043B000BDE8104000F0A6BD01F6BC01D1E9003215
:1043C000521C4A609A4202D30421417007E000F077
:1043D0009DF8FFF7DFF800F0DBFB00F011FBFFF7C3
:1043E000C9F9FFF7F5F810480168487B0028CBD1E0
:1043F000087B0028C8D100BF40F25B12431C504329
:1044000001EB0012D8B292ED1C0B062882ED140BC2
:10441000F2D310BD0121817010BD00000000002406
:10442000C8980624E899062400000020144910B515
:1044300008468A78407872B1012A4FF003040ED002
:10444000022A4FF001030ED0032A10D0042A01D112
:1044500001280AD010BD0128FCD105200DE0032859
:10446000F8D18C7010BD0128F9D18B7010BD0228D5
:1044700003D00128F9D00428F8D1887010BD0000BD
:10448000000000241449002010B50246087048704E
:1044900088708880C88008814881A1F83A01A1F815
:1044A00038018B1801EB4204521C1873642AA4F8DB
:1044B0007000F6D30949C1F8BC08C1F8C00801F67C
:1044C000C80000F00FF8064800F00CF80448BDE8FA
:1044D0001040903000F006B8000000240090062440
:1044E000589906249FED070B5FF0000100EBC10215
:1044F000491C82ED000B82ED0C0B062982ED180B96
:10450000F4D3704700000000000000002DE9F047E0
:10451000DFF8FC8192B0B8F83A1100297DD008F597
:10452000D222D2F8C008D2F8BC38421C9A4274D2C7
:10453000B0FBF1F2B0FBF1F301FB120198B28CB2C7
:1045400000EBC000242208EB8005684605F59E714B
:10455000FEF7C0FC242205F5B07109A8FEF7BAFCED
:104560006C4809ABEA469FED6C0B0268002091464F
:1045700040F25B153AF910C008EBC00100FB05F6EC
:1045800001EE10CA0AEB400502EB0616B8EEC11B9D
:1045900096ED2A2B01F5D32103EB400721EE021BF8
:1045A00081EE002B81ED322BB5F90CC096ED2E2B50
:1045B00001EE10CAB8EEC11B21EE021B81EE002BEA
:1045C00081ED3E2BB5F9185096ED2E2B01EE105AC9
:1045D000B8EEC11B21EE021B81EE002B81ED4A2BB0
:1045E00033F91050401C96ED2A2B01EE105A062884
:1045F000B8EEC11B21EE021B81EE002B81ED7A2B60
:10460000B7F90C5096ED2E2B01EE105AB8EEC11BE7
:1046100021EE021B81EE002B00E075E081ED862B80
:10462000B7F9185096ED2E2B01EE105AB8EEC11BBB
:1046300021EE021B81EE002B81ED922B98DB0021F5
:10464000B8F83A2100EE104A08EBC10000F5D3207B
:10465000B8EE406BB8EE403BB8EE404B90ED7A1BA5
:1046600090ED320B05EE102A491C31EE402BB8EECE
:10467000455B062982EE057B27EE062B30EE020B0A
:1046800080ED560B90ED3E0BB8F83A2131EE401B11
:1046900002EE102AB8EE422B81EE025B25EE031BE0
:1046A00030EE010B80ED620B90ED921B90ED4A0B0A
:1046B000B8F83A2131EE401B02EE102AB8EE422B38
:1046C00081EE023B23EE041B30EE010B80ED6E0BFE
:1046D000B6DB5FF000004A4640F25B1308EBC00116
:1046E000434301F5D321401C91ED560B02EB03131C
:1046F000062883ED160B91ED620B83ED180B91EDFF
:104700006E0B83ED1A0BE7DB12B0BDE8F0870000FB
:10471000000000240000002000000000C0FFDF4077
:1047200070B5154C206D80051DD5D4F8D800C00794
:1047300016D0124802220021006800F5004300F55F
:10474000004083F8B0221A46C3F8B41203F5307360
:104750000ACB491CC2F8C01243F10003C0F8C432AE
:104760004FF400702065206D000304D5FEF7ECFCCB
:104770004FF40020206570BD00A000400000002024
:104780001948016D890002D54FF000510165016D96
:10479000C90002D54FF080510165016D090102D5B4
:1047A0004FF000610165016D490102D54FF0806154
:1047B0000165016D890102D54FF000710165016D40
:1047C000C90102D54FF080710165016D090202D562
:1047D0004FF400010165016D490203D5026C4FF4ED
:1047E000800101657047000000A0004030B59FEDDA
:1047F000222B5FF000020446B7EE001B2DED028B6A
:10480000A1B0B0EE408B6846002100EB42138A4213
:1048100003EBC10502D1B0EE410B01E0B0EE420B5B
:10482000491C042985ED000BF1DB521C042AEBDB4B
:10483000B0EE480BFEF753FB8DED0A0BB0EE480BC4
:10484000FEF752FBB1EE400B8DED0C0BB0EE480BBA
:10485000FEF74AFB8DED120BB0EE480BFEF73FFB67
:10486000802269468DED140B2046FEF733FB21B004
:10487000BDEC028B30BD0000000000000000000015
:1048800030B59FED222B5FF000020446B7EE001B0F
:104890002DED028BA1B0B0EE408B6846002100EBFD
:1048A00042138A4203EBC10502D1B0EE410B01E095
:1048B000B0EE420B491C042985ED000BF1DB521CC4
:1048C000042AEBDBB0EE480BFEF709FB8DED000B85
:1048D000B0EE480BFEF708FB8DED040BB0EE480B75
:1048E000FEF702FBB1EE400B8DED100BB0EE480B66
:1048F000FEF7F5FA802269468DED140B2046FEF78F
:10490000E9FA21B0BDEC028B30BD000000000000D0
:104910000000000030B59FED222B5FF0000204463E
:10492000B7EE001B2DED028BA1B0B0EE408B6846B8
:10493000002100EB42138A4203EBC10502D1B0EE25
:10494000410B01E0B0EE420B491C042985ED000B40
:10495000F1DB521C042AEBDBB0EE480BFEF7BFFA8A
:104960008DED000BB0EE480BFEF7BEFAB1EE400B3A
:104970008DED020BB0EE480BFEF7B6FA8DED080B8D
:10498000B0EE480BFEF7ABFA802269468DED0A0BBC
:104990002046FEF79FFA21B0BDEC028B30BD00002F
:1049A000000000000000000030B59FED134BA1B0E7
:1049B00000226C46B7EE003B002104EB42138A4212
:1049C00003EBC10502D1B0EE435B01E0B0EE445B06
:1049D000491C042985ED005BF1DB521C042AEBDB4A
:1049E0008DED060B8DED0E1B802221468DED162BD5
:1049F000FEF770FA21B030BD00000000000000009A
:104A00002DE9F04361480123002421462DED068B5A
:104A1000D0F8002040F25B10484302EB001090ED0C
:104A2000200B90ED4A1B80F82F40B4EEC10BF1EE45
:104A300010FA57D390ED4C1BB4EEC10BF1EE10FA07
:104A400050DC90ED261B90ED4E2BB4EEC21BF1EE28
:104A500010FA47D390ED502BB4EEC21BF1EE10FAD2
:104A600040DC4FF0140C5FF000066546E146E0467E
:104A700000EBC60797ED522BB4EEC02BF1EE10FA07
:104A800009D297ED542BB4EEC02BF1EE10FA02DDF3
:104A9000751CB44602E0761C132EE9DB5FF00006BD
:104AA00000EBC60797ED7A2BB4EEC12BF1EE10FAAE
:104AB0000AD297ED7C2BB4EEC12BF1EE10FA03DD98
:104AC00006F10108B14602E0761C132EE8DBBCF1CA
:104AD000140F07DA142D05DAB9F1140F02DAB8F160
:104AE000140F0ADB40F25B10414302EB011080F827
:104AF0002F30BDEC068BBDE8F08300EBCC060CEB51
:104B00008C0705EB850C00EBC50596ED524B95ED3A
:104B1000526B00EB471707EBC90536EE446B00EB11
:104B20004C1C0CEBC80607EBC80795EDA23B97EDB4
:104B3000A25B96EDA22B30EE440B35EE437BB0EE3C
:104B4000C66B32EE429B00EBC90500EBC80695ED43
:104B50007A5B96ED7A8B491C31EE451B87EE06ABEE
:104B6000062989EE064B0AEE003B38EE456B04EE53
:104B7000002BB0EEC64B32EE432B82EE040B00EE60
:104B8000013B80ED483BFFF645AFB2E70000002057
:104B900070B54248C8249FED424B0022D0F8003047
:104BA00040F25B10504303EB001101F5406091EDC2
:104BB000160B91ED1E1B30EE410B80EDD20BD1F8A0
:104BC000605F01EBC50505F5406585EDDA0BD1F8B1
:104BD000605F6D1CB5FBF4F604FB1655C1F8605F11
:104BE0005FF0000590EDD40B80EDD60B80EDD44B3B
:104BF00001EBC50606F5406690EDD42B96EDDA1B69
:104C00006D1CC82D31EE021B80EDD41BF0D390ED4E
:104C1000D42B9FED253B01F5A05182EE031B80EDC7
:104C2000D41B31EE400B90EDD03B80EE031B81EDA9
:104C30006A1B90EDD22B91ED6C0B02EE030B81ED14
:104C40006C0B91ED6E3BB4EEC30BF1EE10FA02D398
:104C500091ED6C3B01E081ED6C3B91ED700BB4EE9E
:104C6000C03BF1EE10FA01DD81ED6C0B90EDCA6BEB
:104C700090EDCC0B91ED6C5B26EE022B20EE050B3C
:104C800090EDCE3B521C062A23EE011B32EE000BA8
:104C900030EE010B81ED720B82DB70BD0000002055
:104CA000000000000000000000000000000069405B
:104CB0002848002110B5036840F25B1048430022E9
:104CC00003EB001090ED521B90ED7A0B80ED4A1B28
:104CD00080ED4C1B80ED4E0B80ED500B00EBC204C1
:104CE00090ED4A1B94ED520BB4EEC10BF1EE10FAAD
:104CF00001D280ED4A0B94ED520B90ED4C1BB4EEBB
:104D0000C10BF1EE10FA01DD80ED4C0B521C142AA0
:104D1000E4DB002290ED4E1B00EBC20494ED7A0B15
:104D2000B4EEC10BF1EE10FA01D280ED4E0B94ED12
:104D30007A0B90ED501BB4EEC10BF1EE10FA01DDD1
:104D400080ED500B521C142AE4DB491C0629B3DB0E
:104D500010BD000000000020F0B587B027491822E0
:104D60006846FEF7B7F826486C46D0F800E0002009
:104D700040F25B13002143430A460EEB031500BFCC
:104D800054F8203005EBC206521C03EBC103491C4A
:104D900093ED000B142A86ED520BF1DB5FF000025D
:104DA00054F8203003EBC10305EBC20693ED000B72
:104DB000491C521C142A86ED7A0BF1DB5FF00003CC
:104DC000002203EB830605EB461600BF54F8207063
:104DD00006EBC20C521C07EBC107491C97ED000BF8
:104DE000142A8CEDA20BF1DB5B1C142BE8DB401CBE
:104DF0000628BDDBFFF75CFF07B0F0BDC89B0000D5
:104E00000000002030B538489FED386B9FED391B0E
:104E1000B3EE045BB2EE044B2DED068BBAEE048BC1
:104E2000B3EE097BBBEE099B00689FED342B00F5C8
:104E3000406300F5A05183EDCA6B83EDCC1B83ED7D
:104E4000CE5B81ED6E8B81ED704B00F5105400F55B
:104E5000205284ED366B84ED381B84ED3A7B82ED75
:104E6000DA9B82EDDC7B00F5605500F5804385ED33
:104E7000A22B85EDA41B85EDA65BBBEE04AB83EDF9
:104E800046AB83ED485B00F5A041B2EE0E0B81ED21
:104E90000E2B81ED101B00F5A844BAEE0E3B81ED00
:104EA000120B84EDB23B00F5C84284EDB40B82EDE9
:104EB0007A2B82ED7C1B00F5D84582ED7E4B85ED8B
:104EC0001E3B00F5F04385ED200B83EDE62B83EDD3
:104ED000E81B00F5004083EDEA4B80ED8A3B80ED56
:104EE0008C0BBDEC068B30BD0000002000000000E4
:104EF00000407A4000000000000064400000000014
:104F000000C0774030B5414800242DED0C8B9FED5B
:104F1000405B9FED411B9FED426B9FED432B9FED4F
:104F2000447B9FED453B9FED468B9FED474B9FEDAF
:104F3000489B9FED49AB9FED4ABB9FED4BCB9FED4F
:104F40004C0BD0F80030224640F25B10B0EE40DB54
:104F5000504303EB001000F5406180ED0E0B80ED37
:104F6000100B80ED120B80ED140B80ED1E0B80ED0D
:104F7000200B80ED220B80ED240B80ED260B80EDC5
:104F8000285B80ED2A1B80ED2C6B80ED2E2B80EDB5
:104F9000307B80ED323B80ED348B80ED364B80ED05
:104FA000380B80ED480B81EDC20B81EDC40B81ED18
:104FB000C60B81EDC80B81EDD0CB81EDD20B81ED1D
:104FC000D40B00F5807585EC081B183D85EC069B1D
:104FD00081EDD60B0021C0F8604F00BF00EBC1058A
:104FE00005F54065491CC82985EDDADBF6D300F5E7
:104FF000A050521C80ED6ADB80ED6CDB062A80ED50
:1050000072DBA1DBBDEC0C8B30BD0000000000208A
:105010007A008BFCFA2109C07A008BFCFA21094046
:10502000FCDEA63FFB2119C0FCDEA63FFB21194098
:10503000FCDEA63FFB2129C0FCDEA63FFB21294068
:1050400000000000000070C0000000000000704080
:105050000000000000E06F400AD7A3703D0AB7BF10
:105060000AD7A3703D0AB73FFCA9F1D24D62503F69
:10507000000000000000000030B59FED111B93B050
:1050800000226C46B7EE000B02EB4203002104EB5A
:10509000C3038A4203EBC10502D1B0EE402B01E00D
:1050A000B0EE412B491C032985ED002BF1DB521C8E
:1050B000032AE9DB48222146FDF70CFF13B030BD7F
:1050C00000000000000000000FB40022F0B593B013
:1050D0001AAC6B4602EB4205002104EBC50500BF8C
:1050E00001EB410605EBC10703EBC60697ED000B8C
:1050F00006EBC206491C032986ED000BF0DB521CAF
:10510000032AE7DB48221946FDF7E4FE13B0F0BCA2
:105110005DF814FB0FB49FED1F0B00222DE9F04743
:1051200092B082460DF17009E8462EAC02EB4200C7
:10513000002109EBC00508EBC00600BF06EBC10368
:10514000B0EE401B5FF0000083ED001B00EB400C55
:1051500005EBC00704EBCC0C0CEBC10C97ED002B5E
:105160009CED003B401C032802EE031B83ED001B5B
:10517000ECDB491C0329E1DB521C032AD6DB482265
:1051800041465046FDF7A6FE12B0BDE8F0075DF8B7
:1051900014FB000000000000000000000FB45FF0EE
:1051A00000012DED060BF0B587B09FED140B12AE8C
:1051B0006D460CAC05EBC10201EB4103002082ED12
:1051C000000B06EBC30300BF03EBC00C04EBC007EE
:1051D0009CED002B92ED001B97ED003B401C03283B
:1051E00002EE031B82ED001BEEDB491C0329E1DB11
:1051F0009DEC060B07B0F0BC5DF82CFB0000000036
:105200000000000030B59FED101BA1B000226C46DD
:10521000B7EE000B002104EB42138A4203EBC105F9
:1052200002D1B0EE402B01E0B0EE412B491C042925
:1052300085ED002BF1DB521C042AEBDB802221469A
:10524000FDF748FE21B030BD000000000000000066
:105250000FB40022F0B593B01AAC6D4602EB4201D8
:1052600004EB421305EBC1065FF0000103EBC10C38
:1052700006EBC1079CED000B491C032987ED000BD1
:10528000F4DB521C032AE9DB48222946FDF722FE03
:1052900013B0F0BC5DF814FB0FB4002010B586B05D
:1052A00008AA694602EB401301EBC00493ED060B1C
:1052B000401C032884ED000BF4DB9DEC060B06B0CC
:1052C00010BC5DF814FB00000FB49FED1D0B002215
:1052D0002DE9F047A0B082460DF1A809E8464AAC96
:1052E0005FF0000109EB421508EB421606EBC10323
:1052F000B0EE401B5FF0000083ED001B04EB401C90
:1053000005EBC0070CEBC10C97ED002B9CED003BAF
:10531000401C042802EE031B83ED001BEEDB491C3E
:105320000429E3DB521C042ADADB80224146504682
:10533000FDF7D0FD20B0BDE8F0075DF814FB0000DC
:1053400000000000000000002DE9F04F2DED0C8B57
:10535000ADF6041DFE4B00200DF5F9640DF5F36864
:10536000D3F8002040F25B1104EBC006414308EB88
:10537000C0070DF5FF6502EB011101F5406105EB7A
:10538000C00C91EDC20B401C86ED000B91EDC40BDF
:10539000062887ED000B91EDC60B8CED000BE1DBD1
:1053A000EC4F00250DF5147807F5607604EBC50089
:1053B00090ED000BD4A8FFF7ADFA07EBC5108022E3
:1053C00090ED000BD4A98DED920B90ED020B8DEDBD
:1053D000940B90ED040B8DED960B90ED060B8DED7F
:1053E000980B90ED080B8DED9A0B90ED0A0B8DED5F
:1053F0009C0B90ED0C0B8DED9E0B90ED0E0B8DED3F
:10540000A00B90ED100B8DEDA20B90ED120B8DED1E
:10541000A40B90ED140B8DEDA60B90ED160B8DEDFE
:10542000A80B90ED180B8DEDAA0B90ED1A0B8DEDDE
:10543000AC0B90ED1C0B8DEDAE0B90ED1E0B1EA872
:105440008DEDB00BFDF746FD782241466846FDF72D
:1054500041FDDDE99223B2A8FFF736FF9DEDB20BC7
:1054600006EBC5106D1C80ED000B9DEDB40B062DF9
:1054700080ED020B9DEDB60B80ED040B9DEDB80B9E
:1054800080ED060B9DEDBA0B80ED080B9DEDBC0B7E
:1054900080ED0A0B9DEDBE0B80ED0C0B9DEDC00B5E
:1054A00080ED0E0B9DEDC20B80ED100B9DEDC40B3E
:1054B00080ED120B9DEDC60B80ED140B9DEDC80B1E
:1054C00080ED160B9DEDCA0B80ED180B9DEDCC0BFE
:1054D00080ED1A0B9DEDCE0B80ED1C0B9DEDD00BDE
:1054E00080ED1E0BFFF662AF97EDC00B9A4C0025C6
:1054F00086EDC00B97EDC20B86EDC20B97EDC40B8A
:1055000086EDC40B97EDC60B86EDC60B97EDC80B69
:1055100086EDC80B97EDCA0B86EDCA0B97EDCC0B49
:1055200086EDCC0B97EDCE0B86EDCE0B97EDD00B29
:1055300086EDD00B97EDD20B86EDD20B97EDD40B09
:1055400086EDD40B97EDD60B86EDD60B97EDD80BE9
:1055500086EDD80B97EDDA0B86EDDA0B97EDDC0BC9
:1055600086EDDC0B97EDDE0B0DF5147786EDDE0B8B
:1055700006EBC5103946782290ED000B8DED920BAD
:1055800090ED020B8DED940B90ED040B8DED960BD1
:1055900090ED060B8DED980B90ED080B8DED9A0BB1
:1055A00090ED0A0B8DED9C0B90ED0C0B8DED9E0B91
:1055B00090ED0E0B8DEDA00B90ED100B8DEDA20B71
:1055C00090ED120B8DEDA40B90ED140B8DEDA60B51
:1055D00090ED160B8DEDA80B90ED180B8DEDAA0B31
:1055E00090ED1A0B8DEDAC0B90ED1C0B8DEDAE0B11
:1055F00090ED1E0B68468DEDB00BFDF76BFCDDE901
:10560000922322A8FFF724FE05EBC5009DED220B97
:1056100004EBC0006D1C80ED000B9DED240B072DED
:1056200080ED020B9DED260B80ED040B9DED280B0C
:1056300080ED060B9DED2A0B80ED080B9DED2C0BEC
:1056400080ED0A0B9DED2E0B80ED0C0B9DED300BCC
:1056500080ED0E0B9DED320B80ED100B88DB3F4E85
:1056600000251CA8FFF708FD05EBC5009DED1C0BF0
:1056700006EBC0006D1C80ED000B9DED1E0B072D91
:1056800080ED020B9DED200B80ED040B9DED220BB8
:1056900080ED060B9DED240B80ED080B9DED260B98
:1056A00080ED0A0B9DED280B80ED0C0B9DED2A0B78
:1056B00080ED0E0B9DED2C0B80ED100BD1DB00254A
:1056C000A0460DF514792F4605EBC50007EBC70280
:1056D00006EBC00408EBC20094ED000B8DED920BBD
:1056E00094ED020B8DED940B94ED040B8DED960B68
:1056F00094ED060B8DED980B94ED080B8DED9A0B48
:1057000094ED0A0B8DED9C0B94ED0C0B8DED9E0B27
:1057100094ED0E0B8DEDA00B94ED100B8DEDA20B07
:1057200090ED000B8DEDA40B90ED020B8DEDA60B13
:1057300090ED040B8DEDA80B90ED060B8DEDAA0BF3
:1057400090ED080B8DEDAC0B90ED0A0B08E000001E
:1057500000000020C08E002040990020309D0020D5
:105760008DEDAE0B90ED0C0B48228DEDB00B90ED56
:105770000E0BA4A98DEDB20B90ED100B10A88DEDC2
:10578000B40BFDF7A7FB402249466846FDF7A2FB94
:10579000DDE9922322A8FFF7BDFC9DED220B7F1CC3
:1057A00084ED000B9DED240B84ED020B9DED260B8B
:1057B00084ED040B9DED280B84ED060B9DED2A0B6B
:1057C00084ED080B9DED2C0B84ED0A0B9DED2E0B4B
:1057D00084ED0C0B9DED300B84ED0E0B9DED320B2B
:1057E00084ED100BAF427FF76FAF6D1C4FF00007D9
:1057F000072DF7DB94A83C90A6A83B90B8A83A9058
:10580000CAA83990DFF804B412A838900DF5C96918
:1058100026A83790FE4807EBC706482200EBC604CF
:10582000A0F5FC7094ED000B00EBC6008DED920B23
:1058300094ED020BA4A98DED940B94ED040B8DED6A
:10584000960B94ED060B8DED980B94ED080B8DEDFA
:105850009A0B94ED0A0B8DED9C0B94ED0C0B8DEDDA
:105860009E0B94ED0E0B8DEDA00B94ED100B8DEDBA
:10587000A20B90ED000B8DEDA40B90ED020B8DEDC6
:10588000A60B90ED040B8DEDA80B90ED060B8DEDA6
:10589000AA0B90ED080B8DEDAC0B90ED0A0B8DED86
:1058A000AE0B90ED0C0B8DEDB00B90ED0E0B8DED66
:1058B000B20B90ED100B10A88DEDB40BFDF70AFBA9
:1058C0003C9940226846FDF705FBDDE9922322A8BA
:1058D000FFF720FCCF4840229DED220B00EBC605D0
:1058E000A0F5BD6085ED000B9DED240B00EBC6001F
:1058F00085ED020B9DED260B85ED040B9DED280B30
:1059000085ED060B9DED2A0B85ED080B9DED2C0B0F
:1059100085ED0A0B9DED2E0B85ED0C0B9DED300BEF
:1059200085ED0E0B9DED320B85ED100B90ED000B10
:105930008DEDA40B90ED020B8DEDA60B90ED040BFD
:105940008DEDA80B90ED060B8DEDAA0B90ED080BDD
:105950008DEDAC0B90ED0A0B8DEDAE0B90ED0C0BBD
:105960008DEDB00B90ED0E0B8DEDB20B90ED100B9D
:1059700068468DEDB40B3B99FDF7ACFADDE9A42345
:1059800092A8FFF7A1FB9DED920B0BEBC600402206
:1059900080ED000B9DED940B80ED020B9DED960BC1
:1059A00080ED040B9DED980B80ED060B9DED9A0BA1
:1059B00080ED080B9DED9C0B80ED0A0B9DED9E0B81
:1059C00080ED0C0B9DEDA00B80ED0E0B9DEDA20B61
:1059D00080ED100B94ED000B68468DEDB60B94ED49
:1059E000020B8DEDB80B94ED040B8DEDBA0B94ED1D
:1059F000060B8DEDBC0B94ED080B8DEDBE0B94EDFD
:105A00000A0B8DEDC00B94ED0C0B8DEDC20B94EDDC
:105A10000E0B8DEDC40B94ED100B8DEDC60B3A996A
:105A2000FDF758FADDE9B62322A8FFF74DFBDFF8B2
:105A3000E88140229DED220B08EBC60080ED000BB3
:105A40009DED240B80ED020B9DED260B80ED040BEC
:105A50009DED280B80ED060B9DED2A0B80ED080BCC
:105A60009DED2C0B80ED0A0B9DED2E0B80ED0C0BAC
:105A70009DED300B80ED0E0B9DED320B80ED100B8C
:105A800095ED000B68468DEDC80B95ED020B8DED85
:105A9000CA0B95ED040B8DEDCC0B95ED060B8DED42
:105AA000CE0B95ED080B8DEDD00B95ED0A0B8DED22
:105AB000D20B95ED0C0B8DEDD40B95ED0E0B8DED02
:105AC000D60B95ED100B8DEDD80B3999FDF702FA39
:105AD000DDE9C8231EA8FFF7F7FA08F5FC709DED75
:105AE0001E0B00EBC600402280ED000B9DED200B4D
:105AF00080ED020B9DED220B80ED040B9DED240B40
:105B000080ED060B9DED260B80ED080B9DED280B1F
:105B100080ED0A0B9DED2A0B80ED0C0B9DED2C0BFF
:105B200080ED0E0B9DED2E0B80ED100B94ED000B18
:105B300068468DED100B94ED020B8DED120B94ED7C
:105B4000040B8DED140B94ED060B8DED160B94EDFF
:105B5000080B8DED180B94ED0A0B8DED1A0B94EDDF
:105B60000C0B8DED1C0B94ED0E0B8DED1E0B94EDBF
:105B7000100B8DED200B3899FDF7ACF9DDE9102302
:105B800022A8FFF7A1FA25483822379990ED009B0B
:105B900090ED028B90ED04AB6846FDF79BF922ADCA
:105BA000B0EE4A2BB0EE481B95E80F00B0EE490B63
:105BB000FFF7F4FA07EB470108F57C7000EBC10032
:105BC00009EBC10580ED000B80ED021B80ED042B7D
:105BD00094ED000B8DED060B94ED020B8DED080B93
:105BE00094ED040B8DED0A0B94ED060B8DED0C0B73
:105BF00094ED080B8DED0E0B94ED0A0B8DED100B53
:105C000094ED0C0B8DED120B0AE0000020A100209A
:105C1000309D0020289F002010A50020D88B002058
:105C200094ED0E0B48228DED140B94ED100B06A98C
:105C30008DED160BDAA8FDF74DF900206A46DAABB8
:105C400000EB400102EBC00403EBC101401C91EDED
:105C5000040B032884ED000BF2DB9DEC060B7F1C8C
:105C6000072F85EC060BFFF6D5AD12A8399024A8B6
:105C70003890002696A83790FE4806EBC60A3822D0
:105C800000EBCA04684694ED000B8DED0E0B94ED0D
:105C9000020B8DED100B94ED040B8DED120B94EDBA
:105CA000060B8DED140B94ED080B8DED160B94ED9A
:105CB0000A0B8DED180B94ED0C0B8DED1A0B94ED7A
:105CC0000E0B8DED1C0B94ED100B8DED1E0B399909
:105CD000FDF700F906EB46070DF5C96000EBC700BC
:105CE0000EAD804690ED042B90ED021B90ED000B65
:105CF00095E80F00FFF752FA0DF5F36000EBC609C7
:105D00000DF5886199ED003B01EBC70501F054FDED
:105D100085EC060B002E3ADD0BEBCA00382290ED25
:105D2000000B12A98DED0E0B90ED020B8DED100BFB
:105D300090ED040B8DED120B90ED060B8DED140B19
:105D400090ED080B8DED160B90ED0A0B8DED180BF9
:105D500090ED0C0B8DED1A0B90ED0E0B8DED1C0BD9
:105D600090ED100B68468DED1E0BFDF7B3F8A5F115
:105D700018000DF1380C90EC060B9CE80F00FFF7B3
:105D80000DFA95EC063B01F0ADFC85EC060B3822D4
:105D9000684694ED000B8DED200B94ED020B8DED1C
:105DA000220B94ED040B8DED240B94ED060B8DED81
:105DB000260B94ED080B8DED280B94ED0A0B8DED61
:105DC0002A0B94ED0C0B8DED2C0B94ED0E0B8DED41
:105DD0002E0B94ED100B8DED300B3899FDF77AF802
:105DE0000DF1800C98ED042B98ED021B9CE80F0040
:105DF00098ED000BFFF7D2F999ED003B01F0DCFCC8
:105E0000B0EE425BB0EE403BB0EE414B95EC060B82
:105E100001F085FC0DF5FF6000EBC600B0EE428B93
:105E2000B0EE40ABB0EE419B90ED003B98ED042B03
:105E300098ED021B98ED000B01F0BEFCB0EE42BBEA
:105E400094ED002BB0EE40DB8DED922B94ED020B28
:105E5000382268468DED940B94ED040BB0EE41CBE7
:105E60008DED960B94ED060B8DED980B94ED080BD4
:105E70008DED9A0B94ED0A0B8DED9C0B94ED0C0BB4
:105E80008DED9E0B94ED0E0B8DEDA00B94ED100B94
:105E90008DEDA20B3799FDF71DF80DF5127CB0EED4
:105EA0004B2BB0EE4C1B9CE80F00B0EE4D0BFFF7F8
:105EB00075F90DF5B46000EBC704B0EE485BB0EEC9
:105EC000494BB0EE4A3BA04601F00CFC84EC060BBB
:105ED000002E3ADD0BEBCA00382290ED000B12A920
:105EE0008DED0E0B90ED020B8DED100B90ED040B74
:105EF0008DED120B90ED060B8DED140B90ED080B54
:105F00008DED160B90ED0A0B8DED180B90ED0C0B33
:105F10008DED1A0B90ED0E0B8DED1C0B90ED100B13
:105F200068468DED1E0BFCF7D5FFA8F118000EACEE
:105F300090EC060B94E80F00FFF730F998EC063B65
:105F4000444601F0CFFB84EC060B4B4800EBC70442
:105F500095EC060B94ED003B94ED024B94ED045B45
:105F600001F0DDFBB0EE425BB0EE414BB0EE403BEA
:105F700095EC060B01F0D3FBB0EE428BB0EE409BEC
:105F8000B0EE41AB94ED003B94ED024B94ED045B1D
:105F900098ED042B98ED021B98ED000B01F0BFFB70
:105FA0000DF5DE6000EBC704B0EE485BB0EE4A4B87
:105FB000B0EE493BA14601F095FB84EC060B002EA8
:105FC0003ADD0BEBCA00382290ED000B12A98DEDE3
:105FD0000E0B90ED020B8DED100B90ED040B8DED83
:105FE000120B90ED060B8DED140B90ED080B8DED63
:105FF000160B90ED0A0B8DED180B90ED0C0B8DED43
:106000001A0B90ED0E0B8DED1C0B90ED100B6846EE
:106010008DED1E0BFCF75EFFA9F118000EAC90ECA5
:10602000060B94E80F00FFF7B9F899EC063B4C46D5
:1060300001F058FB84EC060B0F48903000EBC704CE
:1060400095EC060B94ED003B94ED024B94ED045B54
:1060500001F065FBB0EE425BB0EE403BB0EE414B71
:1060600095EC060B01F05BFBB0EE428B94ED003B30
:1060700004E0000010A50020A8A90020B0EE409B7D
:10608000B0EE41AB94ED024B94ED045B98ED042B24
:1060900098ED021B98ED000B01F041FB0DF59D659D
:1060A000B0EE485BB0EE4A4BB0EE493B05EBC7049F
:1060B00001F018FB84EC060B002E39DD0BEBCA0057
:1060C000382290ED000B12A98DED0E0B90ED020B16
:1060D0008DED100B90ED040B8DED120B90ED060B7A
:1060E0008DED140B90ED080B8DED160B90ED0A0B5A
:1060F0008DED180B90ED0C0B8DED1A0B90ED0E0B3A
:106100008DED1C0B90ED100B68468DED1E0BFCF712
:10611000E1FEA9F118000EAF90EC060B97E80F0016
:10612000FFF73CF894EC063B01F0DCFA84EC060B3C
:10613000761C062EFFF6A0AD01F028FB62A880ECCD
:10614000060B01F023FB8CA9DFF86C95DFF86CB52A
:1061500005243EAFAA46A9F57C6881EC060B12A87F
:10616000CDF8B40004EB44050BEBC40609EBC50005
:1061700096ED003B90ED000B90ED021B90ED042B93
:1061800001F01AFB0AEBC500B0EE42ABB0EE40CB1B
:10619000B0EE41BB90EC060B96ED003B01F00CFB22
:1061A00004EBC400B0EE409B08EBC000382290ED39
:1061B000120BB0EE428B8DED0E0B90ED140BB0EE8A
:1061C00041DB8DED100B90ED160B8DED120B90ED6C
:1061D000180B8DED140B90ED1A0B8DED160B90ED49
:1061E0001C0B8DED180B90ED1E0B8DED1A0B90ED29
:1061F000200B8DED1C0B90ED220B68468DED1E0BD8
:106200002D99FCF767FE07EBC50505F118000EAEEA
:1062100090EC060B96E80F00FEF7C0FFB0EE485B6F
:10622000B0EE4D4BB0EE493B01F05CFAB0EE4A5B8C
:10623000B0EE4B4BB0EE4C3B01F08AFA85EC060B0E
:10624000641E8FD5BAA8CDF89805CCA8CDF89405D2
:10625000DCA8CDF890050DF6C8003D9096A83C90BE
:1062600026A83B90EEA83A900DF638003990A8A8E1
:1062700038900DF580603790DFF844B40DF5086074
:1062800036900DF5D07A14A84FF00508CDF8D4005B
:1062900008EB48070BEBC70090ED003B90ED024B7D
:1062A00090ED045B3EA800EBC700814690ED042B07
:1062B00090ED021B90ED000B01F031FAB0EE428B35
:1062C000B0EE40ABB0EE419BFE4808EBC80638226A
:1062D00000EBC604684694ED120B8DEDB60B94ED01
:1062E000140B8DEDB80B94ED160B8DEDBA0B94EDF0
:1062F000180B8DEDBC0B94ED1A0B8DEDBE0B94EDD0
:106300001C0B8DEDC00B94ED1E0B8DEDC20B94EDAF
:10631000200B8DEDC40B94ED220B8DEDC60BDDF83B
:106320009815FCF7D7FD0AEBC70505F118000DF528
:10633000367C90EC060B9CE80F00FEF72FFFB0EECA
:10634000485BB0EE494BB0EE4A3B01F001FA85ECF8
:10635000060B3822684694ED120B8DEDC80B94EDB8
:10636000140B8DEDCA0B94ED160B8DEDCC0B94ED4B
:10637000180B8DEDCE0B94ED1A0B8DEDD00B94ED2B
:106380001C0B8DEDD20B94ED1E0B8DEDD40B94ED0B
:10639000200B8DEDD60B94ED220B8DEDD80BDDF897
:1063A0009415FCF797FD09F11800C8AC90EC060BAA
:1063B00094E80F00FEF7F2FEC148903000EBC700F2
:1063C00090ED003B90ED024B90ED045B01F0A7F9DE
:1063D000B0EE425BB0EE414BB0EE403B95EC060BAD
:1063E00001F080F9B848402200EBC604684685EC0D
:1063F000060B94ED000B8DEDDA0B94ED020B8DED99
:10640000DC0B94ED040B8DEDDE0B94ED060B8DEDA6
:10641000E00B94ED080B8DEDE20B94ED0A0B8DED86
:10642000E40B94ED0C0B8DEDE60B94ED0E0B8DED66
:10643000E80B94ED100B8DEDEA0BDDF89015FCF7F1
:1064400049FDDDE9DA230DF6B800FEF73DFE3D9982
:1064500038226846FCF73EFD0DF5B46000EBC7003E
:106460000DF6B80990EC060B99E80F00FEF796FEC2
:1064700096483822B0EE40AB00EBC6066846B0EE58
:10648000428B96ED003BB0EE419B8DED923B96ED3D
:10649000020B8DED940B96ED040B8DED960B96EDA6
:1064A000063B8DED983B96ED083B8DED9A3B96EDC6
:1064B0000A0B8DED9C0B96ED0C0B8DED9E0B96ED66
:1064C0000E0B8DEDA00B96ED103B8DEDA23B3C9994
:1064D000FCF700FD0DF51279B0EE482BB0EE491B2C
:1064E00099E80F00B0EE4A0BFEF758FE94ED003B22
:1064F000B0EE40AB8DED223B94ED020B38226846A6
:106500008DED240B94ED040BB0EE428B8DED260B3C
:1065100094ED060BB0EE419B8DED280B94ED083BFE
:106520008DED2A3B94ED0A0B8DED2C0B94ED0C0BAD
:106530008DED2E0B94ED0E0B8DED300B94ED103B8D
:106540008DED323B3B99FCF7C5FC0DF18809B0EEAF
:10655000482BB0EE491B99E80F00B0EE4A0BFEF74E
:106560001DFEB0EE425BB0EE414BB0EE403B95EC11
:10657000060B01F0B7F885EC060B4022684694ED57
:10658000000B8DEDEC0B94ED020B8DEDEE0B94ED0D
:10659000040B8DEDF00B94ED060B8DEDF20B94EDED
:1065A000080B8DEDF40B94ED0A0B8DEDF60B94EDCD
:1065B0000C0B8DEDF80B94ED0E0B8DEDFA0B94EDAD
:1065C000100B8DEDFC0B3A99FCF784FCDDE9EC2314
:1065D0000DF62800FEF778FD399938226846FCF759
:1065E00079FC0DF5886000EBC7070DF6280997ECDC
:1065F000060B99E80F00FEF7D1FDB0EE408B96ED4B
:10660000000BB0EE42AB8DEDA40B96ED020B3822E1
:1066100068468DEDA60B96ED040BB0EE419B8DED1B
:10662000A80B96ED062B8DEDAA2B96ED080B8DEDA4
:10663000AC0B96ED0A0B8DEDAE0B96ED0C2B8DEDA4
:10664000B02B96ED0E2B8DEDB22B96ED102B8DED24
:10665000B42B3899FCF73EFCA4AEB0EE4A2BB0EE5A
:10666000491B96E80F00B0EE480BFEF797FDB0EE21
:1066700040AB94ED000B0DF580608DEDFE0B94EDBD
:10668000020BB0EE428B80ED000B94ED040BB0EEEC
:10669000419B80ED020B94ED060B80ED040B94ED15
:1066A000080B80ED060B94ED0A0B80ED080B94EDC2
:1066B0000C0B80ED0A0B0BE000A90020A88B00203A
:1066C00038AA002040990020389B0020108D00201F
:1066D00094ED0E0B402280ED0C0B94ED100B80ED31
:1066E0000E0B37996846FCF7F5FBDDE9FE230DF547
:1066F0000760FEF7E9FC369938226846FCF7EAFBAA
:106700000DF5076697EC060B96E80F00FEF746FDC1
:10671000B0EE485BB0EE494BB0EE4A3B00F0FFFFF5
:10672000B0EE428B94ED002BB0EE409B8DED102B24
:1067300094ED020B382268468DED120B94ED040B9C
:10674000B0EE41AB8DED140B94ED060B8DED160BF9
:1067500094ED080B8DED180B94ED0A0B8DED1A0BD3
:1067600094ED0C0B8DED1C0B94ED0E0B8DED1E0BB3
:1067700094ED100B8DED200B3599FCF7ABFB10ACB5
:10678000B0EE482BB0EE4A1B94E80F00B0EE490B78
:10679000FEF704FDB0EE425BB0EE414BB0EE403B85
:1067A00095EC060B00F09EFF85EC060BA8F10100AE
:1067B0005FEA00087FF56CAD0D4854460168002083
:1067C00040F25B1300EB4002434304EBC202401C67
:1067D00001EB031392ED040B03F54063062883EDF0
:1067E000C80BEDDB0DF6041DBDEC0C8BBDE8F08F86
:1067F000000000202DE9F04FFF4D0024ADF57D7D18
:1068000005F52F6805F6E84A05F5607602A8FEF75B
:10681000F9FC9DED020B05EBC41080ED000B9DED26
:10682000040B80ED020B9DED060B80ED040B9DED3E
:10683000080B80ED060B9DED0A0B80ED080B9DED1E
:106840000C0B80ED0A0B9DED0E0B80ED0C0B9DEDFE
:10685000100B80ED0E0B9DED120B80ED100B9DEDDE
:10686000140B80ED120B9DED160B80ED140B9DEDBE
:10687000180B80ED160B9DED1A0B80ED180B9DED9E
:106880001C0B80ED1A0B9DED1E0B80ED1C0B9DED7E
:10689000200B80ED1E0B04A8FEF7B4FC9DED040B4D
:1068A00006EBC410B14680ED000B9DED060B80EDAC
:1068B000020B9DED080B80ED040B9DED0A0B80EDA6
:1068C000060B9DED0C0B80ED080B9DED0E0B80ED86
:1068D0000A0B9DED100B80ED0C0B9DED120B80ED66
:1068E0000E0B9DED140B80ED100B9DED160B80ED46
:1068F000120B9DED180B80ED140B9DED1A0B80ED26
:10690000160B9DED1C0B80ED180B9DED1E0B80ED05
:106910001A0B9DED200B80ED1C0B9DED220B80EDE5
:106920001E0B08A8FEF7A8FB04EBC4079DED080B9F
:1069300008EBC70080ED000B9DED0A0B80ED020B0C
:106940009DED0C0B80ED040B9DED0E0B80ED060B09
:106950009DED100B80ED080B9DED120B80ED0A0BE9
:106960009DED140B80ED0C0B9DED160B80ED0E0BC9
:106970009DED180B80ED100B0CA8FEF77DFB9DED37
:106980000C0B0AEBC700641C80ED000B9DED0E0B99
:10699000072C80ED020B9DED100B80ED040B9DED9F
:1069A000120B80ED060B9DED140B80ED080B9DED99
:1069B000160B80ED0A0B9DED180B80ED0C0B9DED79
:1069C0001A0B80ED0E0B9DED1C0B80ED100BFFF6EE
:1069D0001DAF9FED8A0B9FED8B1B8C4800218D4DC9
:1069E00080ED000B80ED020B80ED041B88480468ED
:1069F00001EB41030020AA4605EB031204EB03134D
:106A000003EBC00606F5044602EBC00796ED2E0B1D
:106A1000401C062887ED000BF2DB491C0729E7DB49
:106A2000DFF8E8815FF0000108F11808A8F5B47BF1
:106A300001EB410201EB810000EBC1030BEB0215FE
:106A400008EB0216002004EBC30200BF02EBC003F8
:106A500003F5044305EBC00793ED9C0B06EBC00C5C
:106A600087ED000B93EDAA0B401C06288CED000B64
:106A7000ECDB664802F50442303800EBC10092EDD1
:106A8000A80B491C062980ED000BD1DB624B0022CC
:106A900002EB420102EBC20008EB011103EBC00064
:106AA00091ED000B521C80ED000B91ED020B062ABC
:106AB00080ED020B91ED040B80ED040B91ED020BC8
:106AC00080ED060B91ED060B80ED080B91ED080BA8
:106AD00080ED0A0B91ED040B80ED0C0B91ED080B92
:106AE00080ED0E0B91ED0A0B80ED100BD0DB4B4FC0
:106AF00042A8A290002662A8CDF884020DF5027883
:106B000006EB46011EA80AEB011595ED042B95ED49
:106B1000021B95ED000BFDF747FF9DED1E0B07EBEC
:106B2000C61480A884ED000B9DED200B84ED020BB4
:106B30009DED220B84ED040B9DED240B84ED060BE3
