:020000040800F2
:1000000030340120950300089D0300089F03000879
:10001000A1030008A3030008A503000800000000D6
:10002000000000000000000000000000A70300081E
:10003000A903000800000000AB030008214C0000E9
:10004000AF030008AF030008AF030008AF030008C8
:10005000AF030008AF030008AF030008AF030008B8
:10006000AF030008AF030008AF030008250600082F
:1000700041060008AF030008AF030008AF03000803
:10008000AF030008AF030008AF030008791B0000AE
:10009000AF030008D91B0000AF030008AF0300083E
:1000A000AF030008AF030008AF030008AF03000868
:1000B000AF030008AF030008AF030008AF03000858
:1000C000AF030008AF030008AF030008AF03000848
:1000D000AF030008AF030008751600089D1600085E
:1000E000AF030008AF03000800000000AF030008E2
:1000F0003D160008AF030008AF030008AF03000877
:10010000AF030008AF030008AF030008AF03000807
:10011000AF030008AF03000815160008314C0000BB
:10012000AF030008AF030008AF030008AF030008E7
:10013000AF030008AF030008AF030008AF030008D7
:10014000AF030008AF03000800000000000000003B
:10015000AF030008AF030008AF030008AF030008B7
:10016000AF030008AF030008AF030008AF030008A7
:10017000AF030008AF030008AF0300080000000051
:10018000AF030008AF030008AF030008AF03000887
:10019000AF030008AF030008AF030008AF03000877
:1001A000AF030008AF030008AF030008AF03000867
:1001B000AF030008AF030008AF030008AF03000857
:1001C000AF030008AF030008AF030008AF03000847
:1001D000AF030008AF030008AF030008AF03000837
:1001E000AF030008AF030008AF030008AF03000827
:1001F000AF030008AF030008AF030008AF03000817
:10020000AF030008AF030008AF030008AF03000806
:10021000AF030008AF030008AF030008AF030008F6
:10022000AF030008AF030008AF03000800000000A0
:10023000AF030008AF030008AF030008AF030008D6
:10024000AF030008AF030008AF030008AF030008C6
:10025000AF030008AF030008AF030008AF030008B6
:10026000AF030008AF030008AF030008AF030008A6
:10027000AF030008AF030008AF030008AF03000896
:10028000AF030008AF030008AF0300080000000040
:10029000AF030008AF03000800F002F800F06AF8AE
:1002A0000AA090E8000C82448344AAF10107DA45D1
:1002B00001D100F05FF8AFF2090EBAE80F0013F0B9
:1002C000010F18BFFB1A43F001031847241C00005C
:1002D000741C00000A444FF0000C10F8013B13F0AE
:1002E000070408BF10F8014B1D1108BF10F8015B8F
:1002F000641E05D010F8016B641E01F8016BF9D182
:1003000013F0080F1EBF10F8014BAD1C0C1B09D1D8
:100310006D1E58BF01F801CBFAD505E014F8016B4A
:1003200001F8016B6D1EF9D59142D6D370470000DC
:10033000103A24BF78C878C1FAD8520724BF30C811
:1003400030C144BF04680C607047000000230024E3
:1003500000250026103A28BF78C1FBD8520728BFD5
:1003600030C148BF0B6070471FB501F02CFD1FBDA9
:1003700010B510BD00F076F81146FFF7F5FF01F05B
:100380001FFD00F094F803B4FFF7F2FF03BC00F088
:1003900097F800000948804709480047FEE7FEE754
:1003A000FEE7FEE7FEE7FEE7FEE7FEE7FEE7FEE725
:1003B00004480549054A064B7047000031150008FE
:1003C0009902000830AC00203034012030B4002005
:1003D00030B4002010B5203AC0F00B80B1E81850BE
:1003E000203AA0E81850B1E81850A0E81850BFF41F
:1003F000F5AF5FEA027C24BFB1E81850A0E81850BE
:1004000044BF18C918C0BDE810405FEA827C24BF11
:1004100051F8043B40F8043B08BF7047D20728BF9F
:1004200031F8023B48BF11F8012B28BF20F8023BEE
:1004300048BF00F8012B704770477047704710B5F0
:1004400000F008F8006810BD10B5044600F002F88E
:10045000046010BD00487047D0AB002000487047D2
:10046000D0AB00207546FFF7F9FFAE4605006946A0
:10047000534620F00700854618B020B5FFF798FFD7
:10048000BDE820404FF000064FF000074FF0000895
:100490004FF0000B21F00701AC46ACE8C009ACE816
:1004A000C009ACE8C009ACE8C0098D46704710B57A
:1004B0000446AFF300802046BDE81040FFF763BF5D
:1004C00001491820ABBEFEE726000200704743F644
:1004D0005D5CC0F2000C604742F2D11CC0F2000C1F
:1004E000604741F60D1CC0F2000C604740F6291C25
:1004F000C0F2000C604740F6F51CC0F2000C6047EB
:1005000042F27D3CC0F2000C604741F2092CC0F27F
:10051000000C604742F2792CC0F2000C604741F2B7
:10052000E96CC0F2000C6047144930B54EF6602506
:100530004C69002312492C1B124AA4B2A1F8A24C08
:10054000C578807805EB002080B2A1F8A40C844225
:1005500006D381F89D3C106820F00100106030BD8A
:1005600008480124074D001D81F89D4C18352B606B
:10057000016821F001010160146030BD00000240FB
:1005800000D001300C1C004000231A4601E08354C7
:10059000521C8A42FBD37047F0B5044641F2210554
:1005A00000204FF6FF76034610E0E25C80EA02206E
:1005B0000022070403D585EA400080B201E006EA84
:1005C0004000521CD2B2082AF3D35B1C8B42ECD3FE
:1005D000F0BD00000848D0F8A81C491CC0F8A81CB1
:1005E000642904D96422C0F8A82C012100E000216C
:1005F00080F8AC1C7047000000D0013008484EF66F
:100600006021026922F001020261826842F0200248
:1006100082604161016941F00101016170470000A0
:100620000000024010B5054C2068800605D5FFF794
:10063000E5FFA06840F02000A06010BD000002406F
:100640000B480168090512D50A49002291F8A63C19
:10065000A1F5E831C3EB831301EB031303F5E83392
:1006600083F8AD280A70816841F4006181607047A9
:100670000000024000D001300648002110B580F88B
:10068000AC180549C0F8981C00F0EEFEBDE810401B
:1006900000F0B4BE00D001309D0600082DE9F04105
:1006A0009B4C9B22032004F57C76002322701F259F
:1006B0006070A370E370B1782171317861717178E5
:1006C000A171B1889348944A090AE1713179217284
:1006D000016801F500404B7963728B891B0AA37294
:1006E0000B7BE372CB891B0A23738B7B63730B7EBB
:1006F000A3734B7EE373134602F5C65202F5D02274
:100700009B78237413681B0E637413681B0CA3740B
:1007100013881B0AE37412782275C97A617590F800
:100720002013A175D0F82413090EE175D0F8241315
:10073000090C2176B0F82413090A617690F8241385
:10074000A176D0F82813090EE176D0F82813A6F682
:100750009E46704A090C2177B0F82813090A617780
:1007600090F82803A077002040F25D111368414300
:1007700003EB011393F82930635513686D1C03EBE9
:100780000117EBB297F82A50E55415685B1CDBB2F1
:1007900005EB011595F82B50E55415685B1CDBB291
:1007A00005EB011595F82C50E55415685B1CDBB280
:1007B00005EB011595F82D50E55415685B1CDBB26F
:1007C00005EB0115ED8D2D0AE55415685B1CDBB2B8
:1007D00005EB011595F82E50E55415685B1CDBB24E
:1007E00005EB01152D8E2D0AE55415685B1CDBB257
:1007F00005EB011595F83050E55415685B1CDBB22C
:1008000005EB01155F1C95ED200BB7EEC00B10EE4C
:10081000105A2D0EE55410EE105AFBB25F1C2D0C31
:10082000E55410EE103AFDB26F1C4FEA132C04F899
:1008300005C0FDB210EE103A401C635513686D1CE4
:1008400003EB0117EBB297ED220B5F1CB7EEC00B69
:1008500010EE105A2D0EE55410EE105AFBB25F1C2C
:100860002D0CE55410EE103AFDB26F1C4FEA132C1C
:1008700004F805C0FDB210EE103A635513686D1C04
:1008800003EB0117EBB297ED260B5F1CB7EEC00B25
:1008900010EE105A2D0EE55410EE105AFBB25F1CEC
:1008A000FFB22D0CE55410EE103A7D1CEDB24FEA6C
:1008B000132C10EE103A04F807C0635513686D1C32
:1008C00003EB011191ED280BE9B24D1CBCEEC00BFE
:1008D0000628EDB210EE103A6354FFF645AFA81C9F
:1008E000010AA1702946E0702046FFF755FE020A72
:1008F0000146681C6255C2B201250023A15486F846
:10090000AD58501C86F8960C86F8AC38BDE8F081DE
:10091000AED8013000000020000000242DE9F0478F
:10092000634E0446B6F8A45CA91EFFF735FE6119B4
:10093000042511F8012C11F8021C02EB012189B2E7
:1009400088427DD15B484FF00009C6F8A89C012180
:1009500086F89F1C4946036801EB4102002003EB27
:100960000218665D6A1C95B26A1C360614F805C04A
:1009700095B26A1C92B2655D06EB0C4608EBC007A7
:1009800014F802C007F5044706EB052505EB0C0635
:1009900000EE106A401C02F10102B7EEC00A95B2E7
:1009A000062887ED600BDCDB491C0729D4DB00221D
:1009B00002EB820000EBC201002003EBC10114F83E
:1009C00005806E1CB6B2751C4FEA086814F806C0A4
:1009D000AEB2751CADB2A65D08EB0C4C01EBC007C6
:1009E00014F8058007F504470CEB0626464400EE94
:1009F000106A401C05F10105B7EEC00AADB2062829
:100A000087EDB40BDBDB0020665D05F1010C1FFAFE
:100A10008CFC0CF101054FEA0668AEB214F80CC06C
:100A2000751CADB2A65D01EBC007401C08EB0C4C79
:100A300014F80580062807F504470CEB062600E0AD
:100A400030E0464400EE106A05F10105ADB2B7EEA4
:100A5000C00A87EDC20BD7DB681C655D80B2461CFF
:100A60002D06275CB0B200F1010601F5044114F82F
:100A700000C0B0B205EB0745521C265C05EB0C2507
:100A800000F101002E4400EE106A85B2072AB7EE8D
:100A9000C00A81EDC00B8BDB83F81C90BDE8F047EA
:100AA000FFF715BD042086F89E0CBDE8F087000016
:100AB00000D00130000000202DE9F047274D04460A
:100AC000B5F8A46CB11EFFF767FDA119042211F857
:100AD000013C11F8021C03EB012189B2884239D193
:100AE0001F484FF00009C5F8A89C012185F89F1CFC
:100AF0004946036840F25D154D43032003EB05189A
:100B0000A65C551CADB26A1C360614F805C095B239
:100B10006A1C92B2655D06EB0C4608EBC00714F840
:100B200002C007F5406706EB0525654400EE105A44
:100B300002F1010292B2B7EEC00A401E87EDC40B6B
:100B4000DED5491C0629D5DB83F80B9083F81A9073
:100B5000BDE8F087042085F89E0CF9E700D001304D
:100B6000000000202DE9F05F524E0446B6F8A45C68
:100B7000A91EFFF711FD6119042511F8012C11F8C8
:100B8000021C02EB012189B288427DD1DFF828B135
:100B90000021C6F8A81C4FF0010E86F89FEC08460D
:100BA000DBF800A040F25D1100FB01F200210AEB2E
:100BB0000213675D6A1C92B2551C3F0614F802C00E
:100BC000AAB202F1010503EBC10614F80280AAB231
:100BD00007EB0C47491CA55C07EB082702F1010253
:100BE0002F4400EE107A95B21429B7EEC00A86EDB4
:100BF000540BDEDB0021675D6A1C92B2551C3F0678
:100C000014F802C0AAB202F1010503EBC10614F800
:100C10000280AAB207EB0C47491CA55C07EB08272A
:100C200002F101022F4400EE107A95B21429B7EEBA
:100C3000C00A86ED7C0BDEDB5FF00002002102EBD8
:100C4000820603EB4619665D6F1CBFB27D1C4FEA3E
:100C50000668AEB2E75D06F10105ADB2A65D08EB30
:100C6000074709EBC10C14F80580491C07EB062661
:100C7000464400EE106A05F10105ADB2B7EEC00AB8
:100C800014298CEDA40B00E010E0DCDB521C142ACC
:100C9000D4DB401C062885DB5C468AF80BE0FFF7B6
:100CA0001BFC216800208876BDE8F09F042086F8B0
:100CB0009E0CF9E700D00130000000202DE9F04142
:100CC000634D0446B5F8A46CB11EFFF765FCA2198C
:100CD000042112F8013C12F8022C03EB022292B21A
:100CE00090427DD14FF0000EC5F8A8EC012085F8A8
:100CF0009F0C584872460668481C80B2655C411CCF
:100D000040F25D1389B214F800C02F0602FB03F015
:100D10004B1C655C9BB207EB0C4101EB0525E75CC6
:100D200003F101039BB23D4400EE105A06EB0010A4
:100D300000F54061B7EEC00A03F10105ADB2521CE7
:100D4000062A81EDD40BE75C05F1010314F805C018
:100D50009DB205F101039BB2655D4FEA076707EBA2
:100D60000C4714F803C003F1010307EB05256544A4
:100D700000EE105A9BB203F10105B7EEC00AADB206
:100D800081EDD60BE75C05F1010314F805C09DB2B7
:100D900005F101039BB2655D4FEA076707EB0C475E
:100DA00014F803C003F1010307EB0525654400EEC9
:100DB000105A9BB2B7EEC00A81EDD80B03F10101C6
:100DC000E55C8BB203F101014FEA0565E75C8BB28C
:100DD00003F1010189B2E35C05EB0745675C00E0C4
:100DE00031E005EB03233B4400EE103A01F1010131
:100DF00089B2B7EEC00A00F5A05001F1010380ED01
:100E0000780B655C99B201F10103675C99B201F15D
:100E1000010C4FEA0565635C1FFA8CF105EB074591
:100E2000675C05EB032301F101013B4400EE103A3E
:100E300089B2B7EEC00A80ED7A0BFFF65DAF86F897
:100E40001BE0BDE8F081042085F89E0CF9E7000066
:100E500000D00130000000202DE9F05F6F4F044604
:100E6000B7F8A49CA9F10201FFF796FB04EB090176
:100E700011F8012C11F8021C02EB012189B2884201
:100E800073D10020C7F8A80C2421A079A9F10E097C
:100E9000257999FBF1F34FEA002AE6794FEA052913
:100EA00094F80A8094F808C006EB0A056079E17AA4
:100EB0002E04627A484401EB08214FF00C0502EB46
:100EC0000C221FFA80FB1FFA82F81FFA81FA1FFA20
:100ED00083F9360C01D1FFF704FB514A022142F697
:100EE000E063B2F838C10CEB0900984203D987F8E7
:100EF0009F1CBDE8F09F642E02D8B8F1640F01D9A1
:100F000003201CE046B1D088301A00B2012801D17C
:100F1000464501D3042012E0BAF1000F0ED0414B38
:100F2000012087F89F0CA8F1010C1F68664587F423
:100F300080471F6006D11170507004E0052087F8CB
:100F40009F0CD6E710703649A2F804B00C31D68059
:100F5000A2F80880A2F83AA17054D08802EB4001B0
:100F6000A1F87090B2F8383148E053E003EBC300C9
:100F700002EB80010020665D6D1C01EB4007ADB205
:100F80003602A7F83C61401C14F8058080B205F1D8
:100F9000010C1FFA8CF506284644A7F83C61EAD3F9
:100FA0000020665D6D1C01EB4007ADB23602A7F86C
:100FB0004861401C14F8058080B205F1010C1FFA4D
:100FC0008CF506284644A7F84861EAD30020665D00
:100FD0006D1C01EB4007ADB23602A7F85461401C0E
:100FE00014F8058080B205F1010C1FFA8CF5062873
:100FF0004644A7F85461EAD35B1C9BB2B2F838119F
:1010000001EB09009842B1D889B201EB0900A2F8BE
:1010100038016EE7042087F89E0C6AE700D00130A3
:1010200000000024140402582DE9F047C14C0127A8
:1010300094F8AD0C38B1A4F5E835002615F8010F89
:101040009B2804D02AE084F8AD7CBDE8F08768785E
:10105000012819D0022817D0042815D0052813D04C
:10106000062811D007280FD008280DD009280BD04A
:101070000A2809D00B2807D00C2805D00D2803D04A
:101080000E2801D00F280BD12846FFF74DFA94F80F
:101090009D0C0128D9D028789B2801D0022025E07A
:1010A00084F89E7C4FF00408687884F8A00C01282E
:1010B00021D0022838D004284FD0052851D0DFF89D
:1010C0007892062851D007286AD008286CD00928C1
:1010D0007DD00A287CD00B287BD00C287AD00D2814
:1010E00079D00E2878D00F2877D0032084F8A06C10
:1010F00084F89E0C15E1B4F8A49C2846A9F10201DD
:10110000FFF74AFA05EB090111F8012C11F8021C4E
:1011100002EB012189B288427ED1C4F8A86C84F820
:101120009F7CFFF7E3F9FCE0B4F8A49C2846A9F102
:101130000201FFF731FA05EB090111F8012C11F852
:10114000021C02EB012189B2884265D1C4F8A86C67
:1011500084F89F7CFFF7CFF9E3E02846FFF77CFE99
:10116000DFE02846FFF7FEFCDBE0B4F8A4AC28463D
:10117000AAF10201FFF710FA05EB0A0111F8012CA0
:1011800011F8021C02EB012189B2884244D1C4F853
:10119000A86CC84684F89F7CD9F80000C772B7E0F5
:1011A0002846FFF78BFDBCE0B4F8A4AC2846AAF1B2
:1011B0000201FFF7F1F905EB0A0111F8012C11F812
:1011C000021C02EB012189B2884225D106E00FE022
:1011D00012E031E04AE063E07CE07FE0C4F8A86C14
:1011E00084F89F7CFFF78CF9D9F80000C67698E068
:1011F0002846FFF793FB94E0B4F8A4AC2846AAF184
:101200000201FFF7C9F905EB0A0111F8012C11F8E9
:10121000021C02EB012100E080E089B288427ED10D
:10122000C4F8A86C84F89F7CFFF76FF9D9F8000028
:101230000677FFF74CF974E0B4F8A49C2846A9F1AE
:101240000201FFF7A9F905EB090111F8012C11F8CA
:10125000021C02EB012189B2884260D13749C4F8EF
:10126000A86C84F89F7C287948705AE0B4F8A4AC44
:101270002846AAF10201FFF78FF905EB0A0111F8E0
:10128000012C11F8021C02EB012189B2884246D1DF
:10129000C4F8A86C84F89F7CD9F80000077240E07D
:1012A000B4F8A4AC2846AAF10201FFF775F905EBE2
:1012B0000A0111F8012C11F8021C02EB012189B27C
:1012C00088422CD1C4F8A86C84F89F7CD9F800001F
:1012D000067226E02846FFF7EFFB22E0B4F8A4AC44
:1012E0002846AAF10201FFF757F905EB0A0111F8A8
:1012F000012C11F8021C02EB012189B288420ED1A7
:10130000C4F8A86CC84684F89F7CD9F80000C6725F
:10131000FFF700F9D8F80000867602E0FFE784F8CE
:101320009E8C4EF660212846FFF72EF9BDE8F04767
:10133000FFF764B900D00130000000200000002455
:101340002B482DE9F047017800294ED100F5EC3704
:101350008946AC37804600F5E8344E4694F8A60C32
:10136000401C10F0FF0084F8A60C01D084F8A69C65
:101370003D463878012834D1D5F8EC03804795F8FC
:10138000EA131C48FFF700F90020424608E029183C
:10139000131803F5E8338978401CC0B283F8C114F0
:1013A00095F8EA138142F2D813480221826A22F0AA
:1013B0000102826295F8EA23C262826A42F0010267
:1013C00082626970012184F89C9C84F89D9C84F859
:1013D0009E9C84F89F9C84F8A09CA4F8A29CA4F8EE
:1013E000A41C761C16F0FF06B8D0BDE8F0870000FC
:1013F00000000030C1D40130000002402DE9F0416E
:10140000174CEF252168002021F0010249F63F41E9
:1014100022606062A562E162E06840F00100E06085
:10142000362000F067F90F48216841F287330D4AF2
:10143000DFF830C041F0010118322160161D01278C
:10144000ACF1100C15603360CCF80070016821F02D
:1014500001010160BDE8F0412C2000F04BB9000013
:1014600000100040101C00402A492DE9F041086896
:1014700020F4702008600B68264A264843F4202395
:101480000C320B60243000251168234C234B41F4AF
:10149000A0262349166002682D27DFF888C04EF683
:1014A0006026DFF884E042F0770202602561A361E4
:1014B000E1616661CCF80070206940EA0E002061AD
:1014C0000B2000F017F915492E23164E4FF47A72AF
:1014D0001648091D361DA562134D2163C13D606389
:1014E000E2623360A06A2843A0620C2000F002F997
:1014F0000A49C022094D1D24183940F211400B1F22
:10150000243D08601A602C602720BDE8F04100F0FF
:10151000F1B80000000C02580000024024480040CE
:10152000010000300008024011050300C1D4013061
:101530002E48F0B52E4A016841F470010160106830
:1015400000F00F00072804D2106820F00F00C01D23
:10155000106028490020274C10340B68264D43F0BA
:1015600001030B6020600B682B400B60136803F0D5
:101570000F03072B04D9136823F00F03DB1D13603F
:101580001C4C1E4A18341E4B261D371D2060194C5A
:101590001C4D28343060261D3860371D23603B1DEC
:1015A00035601C1D3A60251D2E1D1860331D2260FC
:1015B0002860326018600A680E4B134C22F48022B7
:1015C00060330A60186020686FF30F00B0F1005FAD
:1015D00003D20E490120C1F8080143F2D2000C49A0
:1015E000024B4A03803B08601A60F0BD88ED00E0C2
:1015F00000200052004402587FEDF6EA800201010B
:10160000000202020000FF010010005C0080005197
:101610000040005210B5074C2069C00709D00648A9
:10162000012180F8AC18FFF78BFE206920F0010043
:10163000206110BD0010004000D0013070B50B4C8F
:101640002068C00710D0201F002602680521084D21
:1016500022F001020260AE702970FEF7CFFF2E70FB
:10166000206820F00100206070BD0000101C0040C8
:101670009EDC0130074810B50068C00609D5064851
:101680000068FFF7D1FC0348001D016841F010011C
:10169000016010BD1C44004024480040084810B5BB
:1016A0000068C0060AD5064808300068FFF7BCFC91
:1016B0000348001D016841F01001016010BD0000E9
:1016C0001C48004003B401984100009850EAC12032
:1016D00018BF04204A0D18BF40F0010040F2FF720D
:1016E000B2EB515F08BF40F00200012808BF05209F
:1016F00002B07047002809DB410900F01F02890091
:10170000012001F1E0219040C1F800017047000084
:1017100010B529499FED261B2DED020B84B00598CD
:1017200020F000408842D8BF9DED040B2DDD2349F9
:10173000884209D1049840B94FF00100FEF784FEB9
:1017400000F01AFB06B010BD05DB9DED040B30EE7A
:10175000000B06B010BD68469DED040B00F088F844
:1017600010F0030004BF9DED021B9DED000B0CD09B
:1017700001280ED09DED021B9DED000B022810D01C
:10178000012000F0A5FA06B010BD00F0F9F906B08E
:1017900010BD9DED021B9DED000B012000F098FA9D
:1017A00001E000F0EDF906B0B1EE400B10BD000015
:1017B0000000000000000000FB21E93F0000F07F76
:1017C00010B529499FED261B2DED020B84B005981D
:1017D00020F000408842DCBF00209DED040B2EDD90
:1017E0002249884209D1049840B94FF00100FEF720
:1017F0002BFE00F0C1FA06B010BD05DB9DED040B19
:1018000030EE000B06B010BD68469DED040B00F0F5
:101810002FF810F003000DD0012814D09DED021B0D
:101820009DED000B022816D000F0AAF906B0B1EE2B
:10183000400B10BD9DED021B9DED000B012000F043
:1018400047FA06B010BD9DED021B9DED000B00F0A8
:1018500097F906B010BD012000F03AFAE6E7000063
:101860000000000000000000FB21E93F0000F07FC5
:101870002DE9F14F04462DED020B2DED048B94B0B4
:101880009FED9D0B80ED020B199E9D4826F00045B3
:1018900085420ADC9DED180B002084ED000B14B08E
:1018A000BDEC048B03B0BDE8F08F96489FED969B8E
:1018B0009FED978BA84225DD97489FED991B9FEDE3
:1018C0009A2B9DED180B002E0DDD30EE490B854255
:1018D00012BF30EE480B30EE410B30EE420B84ED80
:1018E000000B0120DBE730EE090B854212BF30EE22
:1018F000080B30EE010B30EE020B84ED000B4FF0C5
:10190000FF30CCE78A48A84253DB9DED180B51EC21
:10191000100B00F049FA41EC100BB0EE401B9FEDAC
:10192000862B9FED870B290DDFF81CC201EE020B01
:101930000120FDEEC00B10EE903A00EE903AB8EEAA
:10194000E02BB0EE410B02EE490B22EE081BFC44EB
:10195000032830EE411B84ED001B1DD011EE902AB0
:1019600000EB4015113DC2F30A528A1A954213DA70
:101970000CEB0012B0EE403B92ED000B401C20EE51
:10198000021B33EE410B33EE403B33EE411B92ED35
:10199000023B12EE031BDBE7002EA8BF1846BFF682
:1019A0007EAF94ED000B5842B1EE400B84ED000B7E
:1019B00075E7C6F3130040F4801EC6F30A50A0F288
:1019C000F530471100F01F05C5F12000DDF860B0CB
:1019D000139000200890099005200DF1080C5B4938
:1019E000002D07EB0002794408BF51F8221009D0FE
:1019F00051F8223001EB8201AB404A68139922FA78
:101A000001F11943A1FB0E26A1FB0B131A449A42C4
:101A100034BF0123002303EB06080CEB8003D3E95A
:101A200001A60E448E4234BF0121002192448A4413
:101A300011B1924502D903E0924501D2012100E0A3
:101A40000021C3E901A641444CF82010011EA0F179
:101A50000100C4DC04989DED050A00F10050810FDF
:101A600004989FED3B4B800001EE100ADDED060A65
:101A70009DED072AB8EEC13BB8EE401BB8EE600BF7
:101A8000B8EE422B002021EE041B9FED334B20EEDD
:101A9000040B9FED334B22EE042B30EE024B34EE61
:101AA000014B34EE034B8DED004B00909DED004B50
:101AB000199834EE433B10F0004F33EE411B31EEEA
:101AC000400B32EE401B9DED000B9FED272B20EECF
:101AD000020B9FED272B01EE020B9DED001B9FEDEE
:101AE000262B01EE020B1CBF4942B1EE400B84EDE8
:101AF000000B0846D3E600000000000000000000D4
:101B0000FB21E93F7CD9024000004054FB21F93F12
:101B10003163621A61B4D03DFB21F93F000000003F
:101B20000000601A61B4D03D7370032E8A19A33B84
:101B3000FB2139410000000083C8C96D305FE43FDC
:101B4000000000000000E03FAE040000460400007A
:101B5000000000000000103E000000000000103CEB
:101B6000000000000000103A3326A611460B113C7D
:101B7000182D4454FB21F93D00000054FB21F93D90
:101B800010B52DED040B2DED068B82B0B0EE41AB00
:101B900009989FED299B20F00044B4F1795F0FDA9A
:101BA0009DED080BBDEEC00B10EE100A002801BF22
:101BB000B0EE490B02B0BDEC068B04B008BF10BDFF
:101BC0009DED080B1E48062120EE008BB0EE480B61
:101BD000784400F045F820EE080B9DED081B1C48EA
:101BE000844228EE000B01EE4A0B9FED171B28EEF6
:101BF000011BBCBF31EE400B39EE400B16DB154824
:101C0000A042BCBF9FED142B8DED002B06DBA4F58D
:101C100000100190002000909DED002B31EE421B42
:101C200039EE422B31EE400B32EE400B02B0BDECF0
:101C3000068B04B010BD0000000000000000F03F63
:101C4000FC01000000000000000000000000E03F78
:101C50003333D33F0000E93F000000000000D23FD3
:101C6000491E00EBC102B0EE401B92ED000B31F0BB
:101C700006020DD0491E00EBC102B0EE403B92EDD2
:101C8000002B31F00602B0EE420B03EE010BF1D156
:101C9000022914D004290AD0062918BF704790EDF4
:101CA0000A2B00EE012B90ED080B02EE010B90EDDC
:101CB000062B00EE012B90ED040B02EE010B90EDD4
:101CC000022B00EE012B90ED000B02EE010B704792
:101CD00031B504462DED040B2DED068BB0EE419B86
:101CE00007989DED060B20F00040B0F1795F0DDA0A
:101CF00051EC100BFFF7E6FC042808BF00F048F891
:101D00009DED060BBDEC068B05B030BD20EE008BC3
:101D10001348052128EE00ABB0EE480B7844FFF7DE
:101D20009FFF9FED111B8CB19FED112B29EE022B14
:101D30000AEE402B9DED060B18EE029B0AEE419B2E
:101D400030EE490BBDEC068B05B030BD08EE001B34
:101D50009DED060B0AEE010BBDEC068B05B030BD08
:101D6000A801000000000000495555555555C5BF54
:101D7000000000000000E03F9FED031B81EE010B1F
:101D8000704700000000000000000000000000009C
:101D90009FED030B20EE000B7047000000000000D9
:101DA000000000000000001082B0CDE9000121F029
:101DB000004001909DED000B02B051EC100B7047FC
:101DC000FEF7ADFBFEE74FF04070E1EE100A704702
:101DD0004C5555555555A53F7751C1166CC156BF49
:101DE0009015CB19A001FA3EAD529C804F7E92BE59
:101DF000C4B1B4BD9EEE213ED43888BEE9FAA8BD78
:101E000000004054FB21F93F3163621A61B4D03DB8
:101E10000000601A61B4D03D7370032E8A19A33B91
:101E20000000002E8A19A33BC14920259A837B39E3
:101E300000000000000000006E83F9A22915444E46
:101E4000D15727FCC0DD34F5999562DB4190433CC6
:101E5000AB6351FE61C5BBDE3A6E24B7E0D24D42A2
:101E6000EA2E49061C92D1091CEB1DFE3EA729B1A2
:101E7000F53582E88444BB2E26709CE9417E5FB430
:101E800039D69139F43953838B5F849C3B28F9BD53
:101E9000FF97F81F0F9805DE8B112FEF1F6D0A5A61
:101EA000CF7E366DB709CB27663F464F2DEA5F9E42
:101EB000C7BA27757BF1E5EBF739073DEA92528AFD
:101EC000B15FFB6B085D8D1FA6F810111111813FEA
:101ED000D561C119A0012ABF7DFEB157E31DC73EE0
:101EE000EB9C2B8AE6E55ABE7CD5CF5A3AD9E53D24
:101EF000401F00080000002004000000300300081C
:101F0000441F000800000024789A0600D40200084C
:101F1000882C000800000030B0DC0100D40200086A
:101F2000483000080000000008A00000300300084E
:101F3000441F0008040000202C3401004C0300085A
:101F40000800002001FF01FF01FF01FF01FF01FF69
:101F500001FF01FF01FF01FF01FF01FF01FF01FF81
:101F600001FF01FF01FF01FF01FF01FF01FF01FF71
:101F700001FF01FF01FF01FF01FF01FF01FF01FF61
:101F800001FF01FF01FF01FF01FF01FF01FF01FF51
:102C800001FF01FF01FF011901FF01FF01FF01FF2A
:102C900001FF01FF01FF01FF01FF01FF01FF01FF34
:102CA00001FF01FF01FF01FF01FF01FF01FF01FF24
:102CB00001FF01FF01FF01FF01FF01FF01FF01FF14
:102CC00001FF01FF01FF01FF01FF01FF01FF01FF04
:1030400001FF01FF018E000040F2D55CC0F6000CCC
:10305000604740F2796CC0F6000C604740F2D53C06
:10306000C0F6000C604741F2117CC0F6000C6047CE
:1030700041F2C17CC0F6000C6047000027480021E7
:103080000122006800F50040C0F8241390F8803356
:103090000BB1C0F8242390F8D8332BB1D0F82433E7
:1030A00043F48073C0F8243390F820342BB1D0F867
:1030B000243343F40073C0F8243390F868342BB100
:1030C000D0F8243343F48063C0F8243390F8B0344C
:1030D0002BB1D0F8243343F40063C0F8243390F8C4
:1030E000F8342BB1D0F8243343F48053C0F82433A0
:1030F00090F84035002BD0F8243303D043F400532C
:10310000C0F8243313B180F8201301E080F82023A5
:10311000D0F828131943C0F8281370470000002086
:1031200015480022F0B405240568012305F5004088
:10313000D0F87C13052904D3C0F87C4380F8803391
:1031400001E080F88023002000EBC00105EBC10105
:1031500001F50041D1F8D463052E04D3C1F8D4435E
:1031600081F8D83301E081F8D823401C0628EBDB36
:10317000F0BCFFF783BF00000000002010B500F096
:1031800097FA00F06DF800F009F80348816921F022
:103190000101816110BD000000A000402B4970B505
:1031A0002A4C0A6820342A4822F00F020A600A6872
:1031B00042F00A03274A0B60216840F6313341F0A0
:1031C0009901216081693F2441F003018161856992
:1031D000214945F486458561C261C360C0F88040DD
:1031E0000322096840F2111401F5427101F5004112
:1031F0000B8843F4C023C0F884304B8843F48033F9
:10320000C0F8C030C0F8C820C0F8BC40134B8C8850
:10321000C0F8AC40C98841F46811C0F8A0104365FB
:10322000D0F8E01041F00101C0F8E010416D4FF01E
:103230007F5341F07F5141658365C265132004F0DF
:10324000ACFDBDE87040152004F0A7BD000C02588D
:1032500000A00040030B0402000000200002080050
:103260001A4AD023F0B51068A027B02600F22E30FD
:1032700000F50040C025E0240780F021868101266A
:103280000583072783844FF0605C048681870020D4
:10329000136885B200EB400145F0804403EB8101E7
:1032A00001F54B7101F5004103F500430E704F70BD
:1032B0008D804D884CEA05452C438C60D3F8101363
:1032C00041F82040401C0628E2DBF0BD0000002051
:1032D0002DE9F04F7E484FF00009D0F800E07D481E
:1032E000D0F8980020FA09F0C0077DD00EF5004B09
:1032F00009EBC90209EB8903DBF818139BB20EEB4B
:10330000C20A0AF50040082251F823700C2102EB92
:10331000830CC0F80474042401EB8302DBF8181357
:1033200004EB8306102505EB830351F80680FC0FA0
:10333000C0F80884C7F34075DBF81813C7F38A4652
:103340004FEAD87751F80C10C8F3056CC0F80C148C
:10335000DBF818138958C8F34052C0F81014DBF892
:103360001813C958C8F30053C0F81414C8F3034124
:1033700080F8E8434FEA184480F8E953C0F8EC635A
:1033800080F8F07380F8F1C380F8F2235FF0000258
:1033900080F8F33380F8F413A0F8F6430AEB8201C7
:1033A00001F57E7101F50041521C032A4B690B7037
:1033B0004FEA13244C704FEA13458D704FEA1366A1
:1033C000CE70EBDB40F25D1490F8F83390F8F923FF
:1033D00009FB04F102EB032212B201EE102A9FED69
:1033E0003E0B0EEB011100E069E0B8EEC11B91ED60
:1033F000422B48F2E03721EE021B81EE002B81EDDB
:10340000202B90F8FA3390F8FB2391ED442B02EB3C
:10341000032212B201EE102AB8EEC11B21EE021BEC
:1034200081EE002B81ED222B90F8FC3390F8FD23E8
:1034300091ED482B02EB032212B201EE102AB8EEF6
:10344000C11B21EE021B81EE002B81ED262B90F893
:10345000FE2300EE102AB8EE400B81ED280B90F809
:10346000FF2381F8292090F8002481F82A2090F881
:10347000012481F82B2090F8022481F82C200022CE
:1034800090F8033481F82D3048F2E03348F2E4310B
:10349000C0F8D42300F5747053F80A3051F80A10BC
:1034A0005B1C41F10004391D47F80A30094B012625
:1034B00041F80A4006FA09F60270C3F8986009F16B
:1034C0000109B9F1060FFFF60AAFBDE8F08F000061
:1034D0000000002000A0004000000000C0FFDF400E
:1034E00010B500F01FF8FFF71BFE0D48006800F54F
:1034F0000041D1F87C23521CC1F87C235FF000010D
:1035000001EBC102491C00EBC20202F50042062990
:10351000D2F8D43303F10103C2F8D433F0DB10BD89
:10352000000000202DE9F04F5D4B0021894618680E
:10353000024600F5004090F87843012C7DD080F8D9
:103540009013AA2580F891130B2680F89213AF04EC
:10355000C0F894534FF46C1580F898134FF0010E97
:1035600080F89913002480F89AE39A4680F89BE348
:10357000234680F89C63C0E9ED7509EB49059FED92
:10358000492B05EBC90B02EBCB0100BF40F25D15E7
:10359000B0EE420B5D430E1906F5004602EB051531
:1035A000641C95ED161B95ED483BA4B201EB040796
:1035B00081EE034B04F10104A4B207F5004701EBCF
:1035C000040C0CF5004C5B1C04F10104A4B2062BA6
:1035D00024EE001BBDEEC11B11EE108A4FEA282815
:1035E00086F89D8395ED161B95ED483B81EE034BC8
:1035F00024EE000BFDEEC00B10EE906A87F89D6381
:1036000095F828508CF89D53C0DB002301EB830212
:1036100002F29D3202F500425B1C052B56781478AD
:10362000977892F803C004EB062404EB074404EBFC
:103630000C64C2F81F40E9DB00E02EE0D0F8140370
:1036400001F50041194B0EFA09F4D1F8B4130160E9
:10365000DAF8000000EBCB0100F5457000F5004002
:1036600001F56E7101F5004105680E686E6006682F
:103670004D68B56006688D68F5600668CD6835618F
:1036800006680D69756100684D69856101F840EC57
:10369000D3F8D0002043C3F8D000BDE8F08F00007D
:1036A0000000002000000000C0FFDF4000A000403C
:1036B0000D484FF0000CF0B5006818270B4A34266F
:1036C00000F54270094B00F50040084CAC25074955
:1036D0001832A0F800C034334780AC348680C580EF
:1036E000083080E81E00F0BD0000002000AC004063
:1036F0002DE9F041654D002628688674C674C675AC
:10370000067546758675FFF79FFC2A68012400211F
:1037100040F25D10484302EB001090F82C3080F826
:10372000386080F839600BB180F8384090F82A3062
:103730000BB180F8384090F83530012B01D180F87A
:10374000394090F83730012B01D180F8394090F89A
:103750003230012B01D180F8394090F83330012B01
:1037600001D180F8394090F83430012B01D180F834
:10377000394090F83630012B01D180F8394090F86B
:103780003830012B00D1D47590F83900012800D1D0
:103790001475491C0629BBDB2868002101EBC10315
:1037A00000EBC30202F5004292F8D823012A00D1AF
:1037B0004475491C0629F1DB48F28031095C012976
:1037C00000D1447532490A680021D20600D4012193
:1037D000027D0174012A0FD0417D01290CD0817D29
:1037E000012909D000F026FD2868C27D012A0CD0ED
:1037F000017C012909D009E025498474091D0A6862
:1038000022F008020A604474EEE7C474467C017C2E
:10381000847CC37C41EA4601057D467D41EA840102
:10382000877D41EAC30141EA0511C48941EA461195
:1038300041EA871141EAC21181810C43C48100220F
:1038400040F25D115143521C062A00EB011191F820
:10385000334091F8323091F8345091F8356043EAB2
:10386000440391F8367091F837C043EA850343EA80
:10387000C6030C8E43EA071343EA4C13CB8544EA94
:1038800003040C86DCDBBDE8F081000000000020B2
:10389000100C02583548012210B50021D0F8003034
:1038A00040F25D10484303EB001090ED1E0B90EDCD
:1038B000361BB4EEC10BF1EE10FA06D390ED381BB7
:1038C000B4EEC10BF1EE10FA01DD80F8352090ED79
:1038D000180B90ED2A1BB4EEC10BF1EE10FA06D3D3
:1038E00090ED2C1BB4EEC10BF1EE10FA01DD80F867
:1038F000322090ED1A0B90ED2E1BB4EEC10BF1EEC1
:1039000010FA06D390ED301BB4EEC10BF1EE10FAB5
:1039100001DD80F8332090ED1C0B90ED321BB4EEEE
:10392000C10BF1EE10FA06D390ED341BB4EEC10BCF
:10393000F1EE10FA01DD80F8342000F5406490EDDE
:103940003E1B94EDDC0BB4EEC10BF1EE10FA06D386
:1039500090ED401BB4EEC10BF1EE10FA01DD80F8E2
:103960003620491C06299BDB10BD0000000000200A
:1039700010B500F03BF800F005F8BDE81040FFF787
:10398000B7BE0000184B002010B50246D3F8004027
:1039900040F25D115143521C062A04EB011181F8DB
:1039A000380081F8390081F8350081F8370081F856
:1039B000320081F8330081F8340081F83600E7DB0B
:1039C0001A68002101EBC104491C02EBC40404F590
:1039D0000044062984F8D803F4DB196801F5004196
:1039E00081F8800310BD0000000000201248002272
:1039F00010B59FED0F0B1146D0F8003040F25D106E
:103A00004843491C03EB001000F5406480F82C206B
:103A100028300629827080ED0E0B80ED100B80EDB2
:103A2000120B80ED140B84EDDC0BE7DB10BD000006
:103A300000000000000000000000002010B5FFF7AB
:103A4000D5FFFFF79FFF0948002201681046CA8191
:103A500040F25D134343401C062801EB03131A8612
:103A6000F6DBBDE81040FFF743BE00000000002079
:103A70002DE9F04F334820210668012540F2DF1977
:103A80002C4646F001062B460A46066003274FF0F7
:103A9000A90AAC464FEA0506D0F800805FEA4878EC
:103AA000FAD51B06DFF89C8043EA0443DFF898B0A0
:103AB00034060E0144EA074443EA4521214D44EA15
:103AC0004C23DFF880C046EA02371E4A0CF1280C6E
:103AD000383248241835CCF8007041EA090143EA2D
:103AE0000A0308F130084FF488664FF0400C2F1D90
:103AF000C8F8001007F1040813602C603E60C8F895
:103B000000C0DBF8002042F03702CBF8002001684B
:103B100041F08071016001688901FCD5016841F0C4
:103B20008061016001680901FCD506481030016818
:103B300041F0030101600168C1F3C2010329FAD118
:103B4000BDE8F08F004402580020005270B5444C8C
:103B5000444D206820F001002060686920F00200D8
:103B60006861206820F480402060FFF7C1FD00F00C
:103B700081F83D4E30684079052808D001280DD0E5
:103B800004282ED0022854D0032859D05EE02068A3
:103B900040F48040206000F037F957E0206840F0A2
:103BA0000100206000F0D6FE01F08CFC316800209E
:103BB00004460872204600F0E9FA641CE4B2062CC0
:103BC000F8D3D6F8001000209FED280B40F25D12CC
:103BD0004243401C062801EB021282ED1E0BF5DB6E
:103BE00034E0206840F001002060686940F0020085
:103BF000686100F0AFFE0024204600F0B9FA641CB2
:103C0000E4B2062CF8D300F057FA01F075FED6F8AE
:103C10000020002040F25D114143401C062802EBC9
:103C2000011101F5406393EDD20B81ED1E0BF1DB29
:103C30000CE0686940F00200686100F037F905E0C7
:103C4000686940F00200686100F086F9FFF722FE23
:103C5000FFF74EFD00F03EFDBDE87040FFF740BCB1
:103C60001404025800100258000000200000000058
:103C7000000000002DE9F041404D01242DED028BA4
:103C80002868817C012937D0C17C012934D00021EA
:103C900080F8061000F078F800F016FE2968052379
:103CA000887901282AD0CA792846012A29D00A7A97
:103CB00004259FED338B012A26D04A7A0226012A59
:103CC0003DD08A7A0327012A55D00A79052A16D0D1
:103CD000012A17D0042A18D0022A31D0032A07D18A
:103CE00049790446032901D001F0ECFB20684771B3
:103CF000BDEC028BBDE8F0818471CBE70B714B7199
:103D0000F6E70C714C71F3E70D710446497904290B
:103D100012D001F0D7FBD4F80020002140F25D1052
:103D20004843491C062902EB001080ED188B80EDFA
:103D30001A8B80ED1C8BF1DB20684571D8E70E7182
:103D400004464979022913D001F0BCFB2268002007
:103D500040F25D114143401C062802EB011191ED38
:103D6000200B81ED1A8B81ED1C8B81ED180BEFDBA5
:103D700020684671BCE70F71B2E700000000002028
:103D800000000000000000001E4810B50068817EA1
:103D900019B9017E21F001010176C17E19B9017EB8
:103DA00021F002010176017F19B9017E21F00401A1
:103DB000017601225FF0000140F25D1304464B439F
:103DC00000EB031393F82930022B03D03BB1012BF6
:103DD00005D00AE0437E02FA01F4A34303E0437EE8
:103DE00002FA01F4234304464376491CC9B206296A
:103DF000E2D3017E09B9417E09B1E27110BD002113
:103E0000E17110BD0000002070B52DED028B00F0B7
:103E1000A1FD01F057FB224C002120680172807C3B
:103E200001281BD10025284600F0B0F96D1CEDB229
:103E3000062DF8D35FF00005206805EBC50100EB07
:103E4000C10000F5004090F8D803012802D12846AF
:103E500001F0C6F96D1CEDB2062DEDD32068C07CD3
:103E6000012814D101269FED0F8B002540F25D1033
:103E70002168684301EB001090F83810012909D03F
:103E8000284600F083F96D1CEDB2062DEED3BDEC93
:103E9000028B70BD80F8286080ED168BF3E7000080
:103EA00000000020000000000000000010B5002409
:103EB000204600F05DF9641CE4B2062CF8D32248D9
:103EC00000218278012A02D0052A17D01BE0B0F821
:103ED00038314381B0F83A011C4A4343C2F8BC3838
:103EE00002F6C800C2F8C01800F068FD184800F0DB
:103EF00065FD1748903000F061FD04E00278022A69
:103F00001FD04170817000F069F801F0F5FC01F0FC
:103F1000D7F8104900200A6840F25D114143401C67
:103F2000062802EB011101F5A05301F5406493ED61
:103F30007C0B94EDD21B30EE010B81ED1E0BEBDB05
:103F400010BD0121DEE700000000002400900624DF
:103F5000589906240000002010B50024204600F0E7
:103F600007F9641CE4B2062CF8D31948D0E9002103
:103F7000491C4160914203D316490420487010BD8A
:103F800000F030FD00F058F801F0B6FC01F098F8B0
:103F900000F086FF10490020D1F8002040F25D11AA
:103FA0004143401C062802EB011101F5A05301F525
:103FB000406493ED7C1B94EDD22B91ED4A0B31EED6
:103FC000021B31EE000B81ED1E0BE7DB10BD000084
:103FD000BC9806240000002400000020134A0020A2
:103FE0009FED130BD2F8003040F25D114143401CAD
:103FF000062803EB011191ED201B01F5406181EDD5
:10400000CC1B81EDCE0B81EDD00BEDDB12680020D7
:1040100040F25D114143401C062802EB011181ED85
:104020001A0B81ED1C0BF3DB704700000000002031
:10403000000000000000000030B51D4C00201D49AC
:10404000D4F8005040F25D1201EBC003424303F587
:10405000D323401C05EB0212062892ED200B02F53B
:10406000406282EDCC0B93ED620B82EDCE0B93EDB3
:104070006E0B82EDD00BE5DB2468002040F25D136F
:1040800001EBC002434302F5D322401C92ED560BD4
:1040900004EB0313062883ED180B92ED620B83EDFE
:1040A0001A0B92ED6E0B83ED1C0BE7DB30BD0000AD
:1040B00000000020000000241E4A002030B59FEDC3
:1040C0001E0B136840F25D114143401C062803EBB0
:1040D000011191ED201B01F5406181EDCC1B81EDBB
:1040E000CE0B81EDD00BEDDB10689FED150B00F5CD
:1040F00040619FED151B00F510529FED152B81EDD2
:10410000CC0B00F560539FED143B82ED401B00F596
:10411000A0449FED134B83EDB42B00F5C8459FEDF4
:10412000125B84ED283B00F5F84085ED9C4B80ED5B
:10413000105B30BD00000020000000000000000007
:1041400091ED7C3F355EBABF37894160E5D0FABF5B
:104150001B2FDD240681A5BF5A643BDF4F8DD73F5F
:10416000FCA9F1D24D62503F7B14AE47E17A84BF87
:10417000054940F25D1310FB03F00A68032102EBCE
:10418000001080F82810704700000020074940F216
:104190005D139FED070B10FB03F00222096801EB92
:1041A000001080F8282080ED160B704700000020DA
:1041B000000000000000000030B51D4C002101226D
:1041C0000B4620684171C17202778276C276C518AB
:1041D0005B1C062B6A77FADB2068837E012B03D1F8
:1041E000037E43F001030376C37E012B03D1037EDC
:1041F00043F002030376037F012B03D1037E43F0D8
:10420000040303760023C418647F012C04D1447E88
:1042100002FA03F52C4344765B1CDBB2062BF2D387
:104220008174C174C17501754175817530BD00001F
:104230000000002004480021026842F008020260E9
:104240000248006841747047140C025800000020B6
:1042500010B52DED0A8B9FEDD85B9FEDD98BB0EE9D
:10426000484BB0EE483B9FEDD82BD94C48F28050DC
:10427000B0EE481BB0EE480B2168084400F054FA39
:10428000B0EE485B9FEDD3ABB0EE483BB0EE4A4B8F
:104290009FEDD2BBB0EE481BB0EE4B2B9FEDD1CBC8
:1042A000206848F2B051B0EE4C0B084400F03CFAE4
:1042B000B0EE485B9FEDCD9BB0EE483BB0EE482B97
:1042C000B0EE494BB0EE481B9FEDCA0B206848F298
:1042D000E051084400F028FAB0EE485BB0EE484BDD
:1042E000B0EE493B9FEDC52BB0EE481B9FEDC50BD3
:1042F000206848F21061084400F016FAB0EE495BFD
:104300009FEDC24B206848F24061B0EE483BB0EEF2
:104310004C2BB0EE481BB0EE4B0B084400F004FAF7
:10432000206848F27061B0EE485BB0EE4A4BB0EEE8
:10433000483BB0EE4C2BB0EE481BB0EE4B0B0844A4
:1043400000F0F2F9B0EE485BB0EE484BB0EE483BFF
:104350009FEDB02B206848F2A061B0EE481BB0EE94
:10436000480B084400F0E0F9B0EE485BB0EE484B73
:10437000B0EE483B9FEDA92B9FEDAA1B206848F2A9
:10438000D061B0EE480B084400F0CEF9B0EE4A5BC5
:10439000B0EE484BB0EE483B9FEDA42BB0EE481B6F
:1043A0009FEDA49B206848F23871B0EE490B084499
:1043B00000F0BAF9B0EE4A5BB0EE484BB0EE483BC5
:1043C0009FED9E2BB0EE481B9FED9E0B206848F2A0
:1043D000A071084400F0A8F9B0EE4A5BB0EE484B7B
:1043E000B0EE483B9FED992BB0EE481B9FED990B2B
:1043F000206848F60801084400F096F9B0EE4A5BE0
:10440000B0EE484BB0EE483B9FED94BB206848F6B9
:104410007001B0EE481BB0EE4B2BB0EE490B0844D8
:1044200000F082F9206848F6D801B0EE4A5BB0EEA1
:10443000484BB0EE483BB0EE4B2BB0EE481BB0EE15
:10444000490B084400F070F9206848F64011B0EEBE
:10445000485BB0EE484BB0EE483BB0EE482BB0EEB8
:10446000481BB0EE480B084400F05EF9206848F2A3
:104470000871B7EE005BB0EE484BB7EE003BB0EE14
:10448000482BB0EE481BB7EE000B084400F04CF987
:104490009FED749BB0EE484BB0EE495B9FED73AB64
:1044A000B0EE482BB0EE481BB0EE4A3B9FED71BB1F
:1044B000206848F27071B0EE4B0B084400F034F9FC
:1044C0009FED6E0BB0EE484BB0EE405B9FED6D3B49
:1044D000206848F2D871B0EE482BB0EE481B084473
:1044E00000F022F99FED695BB0EE484B9FED693B10
:1044F000B0EE482BB0EE481B9FED680B206848F6E5
:104500004001084400F010F9206848F6A801B0EE18
:10451000495BB0EE484BB0EE4A3BB0EE482BB0EEF4
:10452000481BB0EE4B0B084400F0FEF8206848F63C
:104530001011B0EE495BB0EE484BB0EE4A3BB0EE26
:10454000482BB0EE481BB0EE4B0B084400F0ECF8E3
:104550009FED545BB0EE484B9FED543BB0EE482BC3
:10456000B0EE481B9FED530B206848F678110844C5
:1045700000F0DAF8216808469FED500BB6EE081BF4
:104580009FED502BB0EE0B3B9FED504B01F50441DE
:1045900000F5084081EDC01B81EDDA0B81EDF42BB5
:1045A00080ED0E3B80ED280B80ED420B80ED5C4BE7
:1045B000BDEC0A8B10BD0000E3361AC05B20C9BFFA
:1045C000000000000000000054E3A59BC420B03FA1
:1045D000000000207A008BFCFA21F93FF2D24D62F4
:1045E0001058A93FFCA9F1D24D62B03F7A008BFC74
:1045F000FA21094021B0726891EDDCBF4DF38E5372
:104600007424973F21B0726891EDDC3F7A008BFCF7
:10461000FA21F9BF7FFB3A70CE88923F809F71E10B
:104620004048363FB37BF2B0506B8ABF62105839B6
:10463000B4C8A63FDBF97E6ABC74933FD26F5F07B4
:10464000CE19A13F21B0726891EDCCBF2575029AB9
:10465000081BAE3F742497FF907ED33F6891ED7C9A
:104660003F35AE3F86C613419C87633FD0D6C1C15C
:10467000DEC4603FA35C1ABFF04A623F2AA913D090
:1046800044D8C83FE14389963C9E763F4FAF94653E
:104690008863BD3FE7ABE4637781723F60764F1E6E
:1046A000166ABD3FF168E388B5F8143FC9C7EE024A
:1046B0002505063F5D18E945ED7E053F5C8FC2F597
:1046C000285CFF3FA4703D0AD7A31240CBA145B69A
:1046D000F3FDB43F11480168C87C08B9887C78B103
:1046E0009FED0F0B5FF0000040F25D13421C43434F
:1046F000D0B2062801EB031282ED160BF4D37047FB
:1047000040F25D12431C504301EB0012D8B292ED0F
:104710001E0B062882ED160BF2D370470000002016
:10472000000000000000000080EC0C0B704700004F
:1047300010B5FFF79DF94FF0E0203F494161F021AE
:104740003E4A82F8141D00210722816102613C4922
:104750000A68081F42F060420A600268091D42F0C0
:10476000030202600A68364842F01A020A600C30FE
:1047700002683349334B18311A4302600A68001D3E
:1047800042F002020A6002682D4942F4807202601F
:104790008C3908682A4A40F000500860083A1168CD
:1047A000294841F000411160016821F003010160D6
:1047B0000268264942F0010202600A6822F00C02F7
:1047C0000A600A6842F004020A60016821F0405160
:1047D0000160016841F080510160FFF7EDFC00F0DD
:1047E000B9F800F06FFE00F06BFD00F0EBFDFFF795
:1047F0002FFDFEF72EFCFEF7C1FC02F0D3FA1448A1
:10480000016821F0C0010160016841F040010160D0
:1048100002680F4922F4407202600C31086840F4CB
:1048200080700860FFF706FD00F016F809490120C6
:104830000968487110BD0000FF5207000FE000E05A
:10484000DC440258B8000600000402580010025868
:10485000000C02580000002018480022F0B517494B
:1048600005680C31154BEF2440F2E736243325F070
:10487000010707601D1D2F1D1A602C603E600B682C
:1048800043F001030B600E4B4FF40001C3F800111D
:104890000C49036843F0010303600868951E094B47
:1048A00020F00100086024331C1D261D1A602260C0
:1048B0003560086840F001000860F0BD0014004059
:1048C00004E000E0000C0040204A214B104670B587
:1048D00041780124907800251B6898B101284FF099
:1048E000030617D0022813D0032816D0042825D099
:1048F00018B3012825D0022823D0042821D0052868
:104900001FD010E001291CD1052015E096700AE0A7
:10491000012915D00329F9D013E0022909D0012972
:104920000ED0042907D05D72907803280BD09D72B9
:1049300070BD022000E00420907002E0012900D147
:1049400094705C72F0E79C7270BD0000000000245F
:1049500000000020164910B58878002827D00020D4
:1049600008704870024688708880C8800881488135
:10497000A1F83A01A1F838018B1801EB4204521C4E
:104980001873642AA4F87000F6D30A49C1F8BC0869
:10499000C1F8C00801F6C80000F010F8064800F0A1
:1049A0000DF80548BDE81040903000F007B810BD84
:1049B0000000002400900624589906249FED070B60
:1049C0005FF0000100EBC102491C82ED000B82ED9B
:1049D0000C0B062982ED180BF4D370470000000081
:1049E000000000002DE9F043DFF8C48193B0B8F86F
:1049F0003A1100297DD008F5D222D2F8C008D2F8A9
:104A0000BC38421C9A4274D2B0FBF1F2B0FBF1F315
:104A100001FB120198B28CB200EBC000242208EB1B
:104A20008005684605F59E71FEF718FB242205F502
:104A3000B07109A8FEF712FB604900209FED5D0BE5
:104A400009AAE946D1F8006040F25D1339F910C0B7
:104A500008EBC00100FB03F501EE10CA09EB4003AF
:104A600006EB0515B8EEC11B95ED2C2B01F5D321F6
:104A700002EB400721EE021B81EE002B81ED322B71
:104A8000B3F90CC095ED302B01EE10CAB8EEC11B86
:104A900021EE021B81EE002B81ED3E2BB3F9183085
:104AA00095ED302B01EE103AB8EEC11B21EE021B42
:104AB00081EE002B81ED4A2B32F91030401C95ED30
:104AC0002C2B01EE103A0628B8EEC11B21EE021B7A
:104AD00081EE002B81ED7A2BB7F90C3095ED302B60
:104AE00001EE103AB8EEC11B21EE021B81EE002B45
:104AF00000E05AE081ED862BB7F9183095ED302BA8
:104B000001EE103AB8EEC11B21EE021B81EE002B24
:104B100081ED922B98DB0021B8F83A2100EE104A83
:104B200008EBC10000F5D320B8EE406B90ED7A2B76
:104B300090ED321BB8EE403BB8EE404B32EE410BED
:104B400005EE102A491C0629B8EE455B80EE057B70
:104B500027EE060B31EE000B80ED560B90ED3E0B71
:104B6000B8F83A2132EE401B05EE102AB8EE452B7C
:104B700081EE025B25EE031B30EE010B80ED620B34
:104B800090ED920B90ED4A1BB8F83A2130EE410BB4
:104B900002EE102AB8EE422B80EE023B23EE040B0D
:104BA00031EE000B80ED6E0BB6DB13B0BDE8F08389
:104BB0000000002400000000C0FFDF4000000020D3
:104BC00070B5154C206D80051DD5D4F8D800C007F0
:104BD00016D0124802220021006800F5004300F5BB
:104BE000004083F878231A46C3F87C1303F56273F8
:104BF0000ACB491CC2F8881343F10003C0F88C3378
:104C00004FF400702065206D000304D5FEF760FBB3
:104C10004FF40020206570BD00A00040000000207F
:104C20001948016D890002D54FF000510165016DF1
:104C3000C90002D54FF080510165016D090102D50F
:104C40004FF000610165016D490102D54FF08061AF
:104C50000165016D890102D54FF000710165016D9B
:104C6000C90102D54FF080710165016D090202D5BD
:104C70004FF400010165016D490203D5026C4FF448
:104C8000800101657047000000A0004030B59FED35
:104C9000222B5FF000020446B7EE001B2DED028BC5
:104CA000A1B0B0EE408B6846002100EB42138A426F
:104CB00003EBC10502D1B0EE410B01E0B0EE420BB7
:104CC000491C042985ED000BF1DB521C042AEBDBA7
:104CD000B0EE480BFEF7C7F98DED0A0BB0EE480BAE
:104CE000FEF7C6F9B1EE400B8DED0C0BB0EE480BA4
:104CF000FEF7BEF98DED120BB0EE480BFEF7B3F9DF
:104D0000802269468DED140B2046FEF7A7F921B0ED
:104D1000BDEC028B30BD0000000000000000000070
:104D200030B59FED222B5FF000020446B7EE001B6A
:104D30002DED028BA1B0B0EE408B6846002100EB58
:104D400042138A4203EBC10502D1B0EE410B01E0F0
:104D5000B0EE420B491C042985ED000BF1DB521C1F
:104D6000042AEBDBB0EE480BFEF77DF98DED000B6E
:104D7000B0EE480BFEF77CF98DED040BB0EE480B5E
:104D8000FEF776F9B1EE400B8DED100BB0EE480B4F
:104D9000FEF769F9802269468DED140B2046FEF777
:104DA0005DF921B0BDEC028B30BD000000000000B9
:104DB0000000000030B59FED222B5FF0000204469A
:104DC000B7EE001B2DED028BA1B0B0EE408B684614
:104DD000002100EB42138A4203EBC10502D1B0EE81
:104DE000410B01E0B0EE420B491C042985ED000B9C
:104DF000F1DB521C042AEBDBB0EE480BFEF733F973
:104E00008DED000BB0EE480BFEF732F9B1EE400B22
:104E10008DED020BB0EE480BFEF72AF98DED080B75
:104E2000B0EE480BFEF71FF9802269468DED0A0BA4
:104E30002046FEF713F921B0BDEC028B30BD000017
:104E4000000000000000000030B59FED134BA1B042
:104E500000226C46B7EE003B002104EB42138A426D
:104E600003EBC10502D1B0EE435B01E0B0EE445B61
:104E7000491C042985ED005BF1DB521C042AEBDBA5
:104E80008DED060B8DED0E1B802221468DED162B30
:104E9000FEF7E4F821B030BD000000000000000083
:104EA00005480068C07A18B1012803D100F040B865
:104EB00000F004B870470000000000201B480021EB
:104EC000B7EE003BD0F8003040F25D10B0EE431B6F
:104ED000484303EB001292ED1A0BB5EEC00BF1EE56
:104EE00010FA01D2BFEE001B02F54060491C90EDA4
:104EF000C42B90EDC64B90EDC86B22EE012B26EE35
:104F0000011B90EDCA5BC9B2062904EE002B21EE0D
:104F1000001B25EE004B01EE002B24EE004B04EEAF
:104F2000002B82ED4A2BCFD37047000000000020F9
:104F30002DE9F04361480123002421462DED068B25
:104F4000D0F8002040F25D10484302EB001090EDD5
:104F5000220B90ED4C1B80F83740B4EEC10BF1EE04
:104F600010FA57D390ED4E1BB4EEC10BF1EE10FAD0
:104F700050DC90ED281B90ED502BB4EEC21BF1EEEF
:104F800010FA47D390ED522BB4EEC21BF1EE10FA9B
:104F900040DC4FF0140C5FF000066546E146E04649
:104FA00000EBC60797ED542BB4EEC02BF1EE10FAD0
:104FB00009D297ED562BB4EEC02BF1EE10FA02DDBC
:104FC000751CB44602E0761C132EE9DB5FF0000688
:104FD00000EBC60797ED7C2BB4EEC12BF1EE10FA77
:104FE0000AD297ED7E2BB4EEC12BF1EE10FA03DD61
:104FF00006F10108B14602E0761C132EE8DBBCF195
:10500000140F07DA142D05DAB9F1140F02DAB8F12A
:10501000140F0ADB40F25D10414302EB011080F8EF
:105020003730BDEC068BBDE8F08300EBCC060CEB13
:105030008C0705EB850C00EBC50596ED544B95ED03
:10504000546B00EB471707EBC90536EE446B00EBDA
:105050004C1C0CEBC80607EBC80795EDA43B97ED7D
:10506000A45B96EDA42B30EE440B35EE437BB0EE03
:10507000C66B32EE429B00EBC90500EBC80695ED0E
:105080007C5B96ED7C8B491C31EE451B87EE06ABB5
:10509000062989EE064B0AEE003B38EE456B04EE1E
:1050A000002BB0EEC64B32EE432B82EE040B00EE2B
:1050B000013B80ED4A3BFFF645AFB2E70000002020
:1050C00070B54248C8249FED424B0022D0F8003012
:1050D00040F25D10504303EB001101F5406091ED8B
:1050E000180B91ED201B30EE410B80EDDC0BD1F85D
:1050F000885F01EBC50505F5406585EDE40BD1F84A
:10510000885F6D1CB5FBF4F604FB1655C1F8885F8B
:105110005FF0000590EDDE0B80EDE00B80EDDE4BE7
:1051200001EBC50606F5406690EDDE2B96EDE41B1F
:105130006D1CC82D31EE021B80EDDE1BF0D390ED0F
:10514000DE2B9FED253B01F5A05182EE031B80ED88
:10515000DE1B31EE400B90EDDA3B80EE031B81ED60
:10516000741B90EDDC2B91ED760B02EE030B81EDC1
:10517000760B91ED783BB4EEC30BF1EE10FA02D34F
:1051800091ED763B01E081ED763B91ED7A0BB4EE4B
:10519000C03BF1EE10FA01DD81ED760B90EDD46BA2
:1051A00090EDD60B91ED765B26EE022B20EE050BF3
:1051B00090EDD83B521C062A23EE011B32EE000B69
:1051C00030EE010B81ED7C0B82DB70BD0000002016
:1051D0000000000000000000000000000000694026
:1051E0000A4940F25D139FED0A0B10FB03F0002209
:1051F000096801EB001080F8292080ED200B80ED7C
:10520000220B80ED260B80ED280B7047000000205C
:1052100000000000000000002848002110B50368CD
:1052200040F25D104843002203EB001090ED541B48
:1052300090ED7C0B80ED4C1B80ED4E1B80ED500BF8
:1052400080ED520B00EBC20490ED4C1B94ED540B1F
:10525000B4EEC10BF1EE10FA01D280ED4C0B94EDDF
:10526000540B90ED4E1BB4EEC10BF1EE10FA01DDC4
:1052700080ED4E0B521C142AE4DB002290ED501BF3
:1052800000EBC20494ED7C0BB4EEC10BF1EE10FA0E
:1052900001D280ED500B94ED7C0B90ED521BB4EEDF
:1052A000C10BF1EE10FA01DD80ED520B521C142AF5
:1052B000E4DB491C0629B3DB10BD00000000002020
:1052C000124830B40268D07A20B101281CD130BC19
:1052D00000F022B89FED0E1B5FF0000040F25D1160
:1052E00000FB01F30021B0EE410B02EB031300BF02
:1052F00003EBC10404F54064491C042984EDC40B8C
:10530000F6DB401C0628E9DB30BC704700000020BB
:105310000000000000000000F0B587B02749182207
:105320006846FDF79BFE26486C46D0F800E000205A
:1053300040F25D13002143430A460EEB031500BF04
:1053400054F8203005EBC206521C03EBC103491C84
:1053500093ED000B142A86ED540BF1DB5FF0000295
:1053600054F8203003EBC10305EBC20693ED000BAC
:10537000491C521C142A86ED7C0BF1DB5FF0000304
:10538000002203EB830605EB461600BF54F820709D
:1053900006EBC20C521C07EBC107491C97ED000B32
:1053A000142A8CEDA40BF1DB5B1C142BE8DB401CF6
:1053B0000628BDDBFFF730FF07B0F0BDF09F00000F
:1053C0000000002030B538489FED386B9FED391B49
:1053D000B3EE045BB2EE044B2DED068BBAEE048BFC
:1053E000B3EE097BBBEE099B00689FED342B00F503
:1053F000406300F5A05183EDD46B83EDD61B83EDA4
:10540000D85B81ED788B81ED7A4B00F5105400F577
:10541000205284ED486B84ED4A1B84ED4C7B82ED79
:10542000EC9B82EDEE7B00F5605500F5804385ED49
:10543000BC2B85EDBE1B85EDC05BBBEE04AB83EDE5
:1054400060AB83ED625B00F5A041B2EE0E0B81ED27
:10545000302B81ED321B00F5A844BAEE0E3B81EDF6
:10546000340B84EDD43B00F5C84284EDD60B82EDBD
:10547000A42B82EDA61B00F5D84582EDA84B85ED47
:10548000483B00F5F84385ED4A0B83ED182B83ED7F
:105490001A1B00F5004083ED1C4B80EDBC3B80EDFA
:1054A000BE0BBDEC068B30BD0000002000000000EC
:1054B00000407A400000000000006440000000004E
:1054C00000C0774030B53D4800249FED3D5B9FED27
:1054D0003E1B9FED3F6B2DED0C8B9FED3F2B9FED0A
:1054E000407B9FED413B9FED428B9FED434B9FEDFA
:1054F000449B9FED45AB9FED46CB9FED47BB9FED9A
:10550000480BD0F80030224640F25D10B0EE40DB90
:10551000504303EB001000F5406180ED100B80ED6F
:10552000120B80ED140B80ED160B80ED2A5B80EDE5
:105530002C1B80ED2E6B80ED302B80ED327B80EDCF
:10554000343B80ED368B80ED384B80ED3A0B80EDAF
:105550003C9B80ED3EAB80ED40CB80ED4A0B81ED76
:10556000CC0B81EDCE0B81EDD00B81EDD20B81ED1B
:10557000DABB81EDDC0B81EDDE0B00F5847585EC8B
:10558000081B81EDE00B0021C0F8884F00EBC1053E
:1055900005F54065491CC82985EDE4DBF6D300F527
:1055A000A050521C80ED74DB80ED76DB062A80ED86
:1055B0007CDBA9DBBDEC0C8B30BD000000000020C3
:1055C0007A008BFCFA2109C07A008BFCFA21094091
:1055D000FCDEA63FFB2119C0FCDEA63FFB211940E3
:1055E000FCDEA63FFB2129C0FCDEA63FFB212940B3
:1055F00000000000000070C00000000000007040CB
:105600000000000000E06F400AD7A3703D0AB7BF5A
:105610000AD7A3703D0AB73FFCA9F1D24D62503FB3
:10562000000000000000000030B59FED111B93B09A
:1056300000226C46B7EE000B02EB4203002104EBA4
:10564000C3038A4203EBC10502D1B0EE402B01E057
:10565000B0EE412B491C032985ED002BF1DB521CD8
:10566000032AE9DB48222146FDF7F8FC13B030BDE0
:1056700000000000000000000FB40022F0B593B05D
:105680001AAC6B4602EB4205002104EBC50500BFD6
:1056900001EB410605EBC10703EBC60697ED000BD6
:1056A00006EBC206491C032986ED000BF0DB521CF9
:1056B000032AE7DB48221946FDF7D0FC13B0F0BC03
:1056C0005DF814FB0FB49FED1F0B00222DE9F0478E
:1056D00092B082460DF17009E8462EAC02EB420012
:1056E000002109EBC00508EBC00600BF06EBC103B3
:1056F000B0EE401B5FF0000083ED001B00EB400CA0
:1057000005EBC00704EBCC0C0CEBC10C97ED002BA8
:105710009CED003B401C032802EE031B83ED001BA5
:10572000ECDB491C0329E1DB521C032AD6DB4822AF
:1057300041465046FDF792FC12B0BDE8F0075DF817
:1057400014FB000000000000000000000FB45FF038
:1057500000012DED060BF0B587B09FED140B12AED6
:105760006D460CAC05EBC10201EB4103002082ED5C
:10577000000B06EBC30300BF03EBC00C04EBC00738
:105780009CED002B92ED001B97ED003B401C032885
:1057900002EE031B82ED001BEEDB491C0329E1DB5B
:1057A0009DEC060B07B0F0BC5DF82CFB0000000080
:1057B0000000000030B59FED101BA1B000226C4628
:1057C000B7EE000B002104EB42138A4203EBC10544
:1057D00002D1B0EE402B01E0B0EE412B491C042970
:1057E00085ED002BF1DB521C042AEBDB80222146E5
:1057F000FDF734FC21B030BD0000000000000000C7
:105800000FB40022F0B593B01AAC6D4602EB420122
:1058100004EB421305EBC1065FF0000103EBC10C82
:1058200006EBC1079CED000B491C032987ED000B1B
:10583000F4DB521C032AE9DB48222946FDF70EFC63
:1058400013B0F0BC5DF814FB0FB4002010B586B0A7
:1058500008AA694602EB401301EBC00493ED060B66
:10586000401C032884ED000BF4DB9DEC060B06B016
:1058700010BC5DF814FB00000FB49FED1D0B00225F
:105880002DE9F047A0B082460DF1A809E8464AACE0
:105890005FF0000109EB421508EB421606EBC1036D
:1058A000B0EE401B5FF0000083ED001B04EB401CDA
:1058B00005EBC0070CEBC10C97ED002B9CED003BFA
:1058C000401C042802EE031B83ED001BEEDB491C89
:1058D0000429E3DB521C042ADADB802241465046CD
:1058E000FDF7BCFB20B0BDE8F0075DF814FB00003D
:1058F00000000000000000002DE9F04F2DED0C8BA2
:10590000ADF6041DFE4B00200DF5F9640DF5F368AE
:10591000D3F8002040F25D1104EBC006414308EBD0
:10592000C0070DF5FF6502EB011101F5406105EBC4
:10593000C00C91EDCC0B401C86ED000B91EDCE0B15
:10594000062887ED000B91EDD00B8CED000BE1DB11
:10595000EC4F00250DF5147807F5607604EBC500D3
:1059600090ED000BD4A8FFF725FA07EBC5108022B5
:1059700090ED000BD4A98DED920B90ED020B8DED07
:10598000940B90ED040B8DED960B90ED060B8DEDC9
:10599000980B90ED080B8DED9A0B90ED0A0B8DEDA9
:1059A0009C0B90ED0C0B8DED9E0B90ED0E0B8DED89
:1059B000A00B90ED100B8DEDA20B90ED120B8DED69
:1059C000A40B90ED140B8DEDA60B90ED160B8DED49
:1059D000A80B90ED180B8DEDAA0B90ED1A0B8DED29
:1059E000AC0B90ED1C0B8DEDAE0B90ED1E0B1EA8BD
:1059F0008DEDB00BFDF732FB782241466846FDF78E
:105A00002DFBDDE99223B2A8FFF736FF9DEDB20B27
:105A100006EBC5106D1C80ED000B9DEDB40B062D43
:105A200080ED020B9DEDB60B80ED040B9DEDB80BE8
:105A300080ED060B9DEDBA0B80ED080B9DEDBC0BC8
:105A400080ED0A0B9DEDBE0B80ED0C0B9DEDC00BA8
:105A500080ED0E0B9DEDC20B80ED100B9DEDC40B88
:105A600080ED120B9DEDC60B80ED140B9DEDC80B68
:105A700080ED160B9DEDCA0B80ED180B9DEDCC0B48
:105A800080ED1A0B9DEDCE0B80ED1C0B9DEDD00B28
:105A900080ED1E0BFFF662AF97EDC00B9A4C002510
:105AA00086EDC00B97EDC20B86EDC20B97EDC40BD4
:105AB00086EDC40B97EDC60B86EDC60B97EDC80BB4
:105AC00086EDC80B97EDCA0B86EDCA0B97EDCC0B94
:105AD00086EDCC0B97EDCE0B86EDCE0B97EDD00B74
:105AE00086EDD00B97EDD20B86EDD20B97EDD40B54
:105AF00086EDD40B97EDD60B86EDD60B97EDD80B34
:105B000086EDD80B97EDDA0B86EDDA0B97EDDC0B13
:105B100086EDDC0B97EDDE0B0DF5147786EDDE0BD5
:105B200006EBC5103946782290ED000B8DED920BF7
:105B300090ED020B8DED940B90ED040B8DED960B1B
:105B400090ED060B8DED980B90ED080B8DED9A0BFB
:105B500090ED0A0B8DED9C0B90ED0C0B8DED9E0BDB
:105B600090ED0E0B8DEDA00B90ED100B8DEDA20BBB
:105B700090ED120B8DEDA40B90ED140B8DEDA60B9B
:105B800090ED160B8DEDA80B90ED180B8DEDAA0B7B
:105B900090ED1A0B8DEDAC0B90ED1C0B8DEDAE0B5B
:105BA00090ED1E0B68468DEDB00BFDF757FADDE961
:105BB000922322A8FFF724FE05EBC5009DED220BE2
:105BC00004EBC0006D1C80ED000B9DED240B072D38
:105BD00080ED020B9DED260B80ED040B9DED280B57
:105BE00080ED060B9DED2A0B80ED080B9DED2C0B37
:105BF00080ED0A0B9DED2E0B80ED0C0B9DED300B17
:105C000080ED0E0B9DED320B80ED100B88DB3F4ECF
:105C100000251CA8FFF708FD05EBC5009DED1C0B3A
:105C200006EBC0006D1C80ED000B9DED1E0B072DDB
:105C300080ED020B9DED200B80ED040B9DED220B02
:105C400080ED060B9DED240B80ED080B9DED260BE2
:105C500080ED0A0B9DED280B80ED0C0B9DED2A0BC2
:105C600080ED0E0B9DED2C0B80ED100BD1DB002594
:105C7000A0460DF514792F4605EBC50007EBC702CA
:105C800006EBC00408EBC20094ED000B8DED920B07
:105C900094ED020B8DED940B94ED040B8DED960BB2
:105CA00094ED060B8DED980B94ED080B8DED9A0B92
:105CB00094ED0A0B8DED9C0B94ED0C0B8DED9E0B72
:105CC00094ED0E0B8DEDA00B94ED100B8DEDA20B52
:105CD00090ED000B8DEDA40B90ED020B8DEDA60B5E
:105CE00090ED040B8DEDA80B90ED060B8DEDAA0B3E
:105CF00090ED080B8DEDAC0B90ED0A0B08E0000069
:105D000000000020388F0020B8990020A89D0020B6
:105D10008DEDAE0B90ED0C0B48228DEDB00B90EDA0
:105D20000E0BA4A98DEDB20B90ED100B10A88DED0C
:105D3000B40BFDF793F9402249466846FDF78EF90A
:105D4000DDE9922322A8FFF7BDFC9DED220B7F1C0D
:105D500084ED000B9DED240B84ED020B9DED260BD5
:105D600084ED040B9DED280B84ED060B9DED2A0BB5
:105D700084ED080B9DED2C0B84ED0A0B9DED2E0B95
:105D800084ED0C0B9DED300B84ED0E0B9DED320B75
:105D900084ED100BAF427FF76FAF6D1C4FF0000723
:105DA000072DF7DB94A83C90A6A83B90B8A83A90A2
:105DB000CAA83990DFF804B412A838900DF5C96963
:105DC00026A83790FE4807EBC706482200EBC6041A
:105DD000A0F5FC7094ED000B00EBC6008DED920B6E
:105DE00094ED020BA4A98DED940B94ED040B8DEDB5
:105DF000960B94ED060B8DED980B94ED080B8DED45
:105E00009A0B94ED0A0B8DED9C0B94ED0C0B8DED24
:105E10009E0B94ED0E0B8DEDA00B94ED100B8DED04
:105E2000A20B90ED000B8DEDA40B90ED020B8DED10
:105E3000A60B90ED040B8DEDA80B90ED060B8DEDF0
:105E4000AA0B90ED080B8DEDAC0B90ED0A0B8DEDD0
:105E5000AE0B90ED0C0B8DEDB00B90ED0E0B8DEDB0
:105E6000B20B90ED100B10A88DEDB40BFDF7F6F80A
:105E70003C9940226846FDF7F1F8DDE9922322A81B
:105E8000FFF720FCCF4840229DED220B00EBC6051A
:105E9000A0F5BD6085ED000B9DED240B00EBC60069
:105EA00085ED020B9DED260B85ED040B9DED280B7A
:105EB00085ED060B9DED2A0B85ED080B9DED2C0B5A
:105EC00085ED0A0B9DED2E0B85ED0C0B9DED300B3A
:105ED00085ED0E0B9DED320B85ED100B90ED000B5B
:105EE0008DEDA40B90ED020B8DEDA60B90ED040B48
:105EF0008DEDA80B90ED060B8DEDAA0B90ED080B28
:105F00008DEDAC0B90ED0A0B8DEDAE0B90ED0C0B07
:105F10008DEDB00B90ED0E0B8DEDB20B90ED100BE7
:105F200068468DEDB40B3B99FDF798F8DDE9A423A5
:105F300092A8FFF7A1FB9DED920B0BEBC600402250
:105F400080ED000B9DED940B80ED020B9DED960B0B
:105F500080ED040B9DED980B80ED060B9DED9A0BEB
:105F600080ED080B9DED9C0B80ED0A0B9DED9E0BCB
:105F700080ED0C0B9DEDA00B80ED0E0B9DEDA20BAB
:105F800080ED100B94ED000B68468DEDB60B94ED93
:105F9000020B8DEDB80B94ED040B8DEDBA0B94ED67
:105FA000060B8DEDBC0B94ED080B8DEDBE0B94ED47
:105FB0000A0B8DEDC00B94ED0C0B8DEDC20B94ED27
:105FC0000E0B8DEDC40B94ED100B8DEDC60B3A99B5
:105FD000FDF744F8DDE9B62322A8FFF74DFBDFF813
:105FE000E88140229DED220B08EBC60080ED000BFE
:105FF0009DED240B80ED020B9DED260B80ED040B37
:106000009DED280B80ED060B9DED2A0B80ED080B16
:106010009DED2C0B80ED0A0B9DED2E0B80ED0C0BF6
:106020009DED300B80ED0E0B9DED320B80ED100BD6
:1060300095ED000B68468DEDC80B95ED020B8DEDCF
:10604000CA0B95ED040B8DEDCC0B95ED060B8DED8C
:10605000CE0B95ED080B8DEDD00B95ED0A0B8DED6C
:10606000D20B95ED0C0B8DEDD40B95ED0E0B8DED4C
:10607000D60B95ED100B8DEDD80B3999FCF7EEFF93
:10608000DDE9C8231EA8FFF7F7FA08F5FC709DEDBF
:106090001E0B00EBC600402280ED000B9DED200B97
:1060A00080ED020B9DED220B80ED040B9DED240B8A
:1060B00080ED060B9DED260B80ED080B9DED280B6A
:1060C00080ED0A0B9DED2A0B80ED0C0B9DED2C0B4A
:1060D00080ED0E0B9DED2E0B80ED100B94ED000B63
:1060E00068468DED100B94ED020B8DED120B94EDC7
:1060F000040B8DED140B94ED060B8DED160B94ED4A
:10610000080B8DED180B94ED0A0B8DED1A0B94ED29
:106110000C0B8DED1C0B94ED0E0B8DED1E0B94ED09
:10612000100B8DED200B3899FCF798FFDDE910235B
:1061300022A8FFF7A1FA25483822379990ED009B55
:1061400090ED028B90ED04AB6846FCF787FF22AD23
:10615000B0EE4A2BB0EE481B95E80F00B0EE490BAD
:10616000FFF7F4FA07EB470108F57C7000EBC1007C
:1061700009EBC10580ED000B80ED021B80ED042BC7
:1061800094ED000B8DED060B94ED020B8DED080BDD
:1061900094ED040B8DED0A0B94ED060B8DED0C0BBD
:1061A00094ED080B8DED0E0B94ED0A0B8DED100B9D
:1061B00094ED0C0B8DED120B0AE0000098A100206D
:1061C000A89D0020A09F002088A50020508C0020C2
:1061D00094ED0E0B48228DED140B94ED100B06A9D7
:1061E0008DED160BDAA8FCF739FF00206A46DAAB12
:1061F00000EB400102EBC00403EBC101401C91ED38
:10620000040B032884ED000BF2DB9DEC060B7F1CD6
:10621000072F85EC060BFFF6D5AD12A8399024A800
:106220003890002696A83790FE4806EBC60A38221A
:1062300000EBCA04684694ED000B8DED0E0B94ED57
:10624000020B8DED100B94ED040B8DED120B94ED04
:10625000060B8DED140B94ED080B8DED160B94EDE4
:106260000A0B8DED180B94ED0C0B8DED1A0B94EDC4
:106270000E0B8DED1C0B94ED100B8DED1E0B399953
:10628000FCF7ECFE06EB46070DF5C96000EBC70016
:106290000EAD804690ED042B90ED021B90ED000BAF
:1062A00095E80F00FFF752FA0DF5F36000EBC60911
:1062B0000DF5886199ED003B01EBC70501F054FD38
:1062C00085EC060B002E3ADD0BEBCA00382290ED70
:1062D000000B12A98DED0E0B90ED020B8DED100B46
:1062E00090ED040B8DED120B90ED060B8DED140B64
:1062F00090ED080B8DED160B90ED0A0B8DED180B44
:1063000090ED0C0B8DED1A0B90ED0E0B8DED1C0B23
:1063100090ED100B68468DED1E0BFCF79FFEA5F16E
:1063200018000DF1380C90EC060B9CE80F00FFF7FD
:106330000DFA95EC063B01F0ADFC85EC060B38221E
:10634000684694ED000B8DED200B94ED020B8DED66
:10635000220B94ED040B8DED240B94ED060B8DEDCB
:10636000260B94ED080B8DED280B94ED0A0B8DEDAB
:106370002A0B94ED0C0B8DED2C0B94ED0E0B8DED8B
:106380002E0B94ED100B8DED300B3899FCF766FE5B
:106390000DF1800C98ED042B98ED021B9CE80F008A
:1063A00098ED000BFFF7D2F999ED003B01F0DCFC12
:1063B000B0EE425BB0EE403BB0EE414B95EC060BCD
:1063C00001F085FC0DF5FF6000EBC600B0EE428BDE
:1063D000B0EE40ABB0EE419B90ED003B98ED042B4E
:1063E00098ED021B98ED000B01F0BEFCB0EE42BB35
:1063F00094ED002BB0EE40DB8DED922B94ED020B73
:10640000382268468DED940B94ED040BB0EE41CB31
:106410008DED960B94ED060B8DED980B94ED080B1E
:106420008DED9A0B94ED0A0B8DED9C0B94ED0C0BFE
:106430008DED9E0B94ED0E0B8DEDA00B94ED100BDE
:106440008DEDA20B3799FCF709FE0DF5127CB0EE2D
:106450004B2BB0EE4C1B9CE80F00B0EE4D0BFFF742
:1064600075F90DF5B46000EBC704B0EE485BB0EE13
:10647000494BB0EE4A3BA04601F00CFC84EC060B05
:10648000002E3ADD0BEBCA00382290ED000B12A96A
:106490008DED0E0B90ED020B8DED100B90ED040BBE
:1064A0008DED120B90ED060B8DED140B90ED080B9E
:1064B0008DED160B90ED0A0B8DED180B90ED0C0B7E
:1064C0008DED1A0B90ED0E0B8DED1C0B90ED100B5E
:1064D00068468DED1E0BFCF7C1FDA8F118000EAC4F
:1064E00090EC060B94E80F00FFF730F998EC063BB0
:1064F000444601F0CFFB84EC060B4B4800EBC7048D
:1065000095EC060B94ED003B94ED024B94ED045B8F
:1065100001F0DDFBB0EE425BB0EE414BB0EE403B34
:1065200095EC060B01F0D3FBB0EE428BB0EE409B36
:10653000B0EE41AB94ED003B94ED024B94ED045B67
:1065400098ED042B98ED021B98ED000B01F0BFFBBA
:106550000DF5DE6000EBC704B0EE485BB0EE4A4BD1
:10656000B0EE493BA14601F095FB84EC060B002EF2
:106570003ADD0BEBCA00382290ED000B12A98DED2D
:106580000E0B90ED020B8DED100B90ED040B8DEDCD
:10659000120B90ED060B8DED140B90ED080B8DEDAD
:1065A000160B90ED0A0B8DED180B90ED0C0B8DED8D
:1065B0001A0B90ED0E0B8DED1C0B90ED100B684639
:1065C0008DED1E0BFCF74AFDA9F118000EAC90EC06
:1065D000060B94E80F00FFF7B9F899EC063B4C4620
:1065E00001F058FB84EC060B0F48903000EBC70419
:1065F00095EC060B94ED003B94ED024B94ED045B9F
:1066000001F065FBB0EE425BB0EE403BB0EE414BBB
:1066100095EC060B01F05BFBB0EE428B94ED003B7A
:1066200004E0000088A5002020AA0020B0EE409BD6
:10663000B0EE41AB94ED024B94ED045B98ED042B6E
:1066400098ED021B98ED000B01F041FB0DF59D65E7
:10665000B0EE485BB0EE4A4BB0EE493B05EBC704E9
:1066600001F018FB84EC060B002E39DD0BEBCA00A1
:10667000382290ED000B12A98DED0E0B90ED020B60
:106680008DED100B90ED040B8DED120B90ED060BC4
:106690008DED140B90ED080B8DED160B90ED0A0BA4
:1066A0008DED180B90ED0C0B8DED1A0B90ED0E0B84
:1066B0008DED1C0B90ED100B68468DED1E0BFCF75D
:1066C000CDFCA9F118000EAF90EC060B97E80F0077
:1066D000FFF73CF894EC063B01F0DCFA84EC060B87
:1066E000761C062EFFF6A0AD01F028FB62A880EC18
:1066F000060B01F023FB8CA9DFF86C95DFF86CB575
:1067000005243EAFAA46A9F57C6881EC060B12A8C9
:10671000CDF8B40004EB44050BEBC40609EBC5004F
:1067200096ED003B90ED000B90ED021B90ED042BDD
:1067300001F01AFB0AEBC500B0EE42ABB0EE40CB65
:10674000B0EE41BB90EC060B96ED003B01F00CFB6C
:1067500004EBC400B0EE409B08EBC000382290ED83
:10676000120BB0EE428B8DED0E0B90ED140BB0EED4
:1067700041DB8DED100B90ED160B8DED120B90EDB6
:10678000180B8DED140B90ED1A0B8DED160B90ED93
:106790001C0B8DED180B90ED1E0B8DED1A0B90ED73
:1067A000200B8DED1C0B90ED220B68468DED1E0B22
:1067B0002D99FCF753FC07EBC50505F118000EAE4B
:1067C00090EC060B96E80F00FEF7C0FFB0EE485BBA
:1067D000B0EE4D4BB0EE493B01F05CFAB0EE4A5BD7
:1067E000B0EE4B4BB0EE4C3B01F08AFA85EC060B59
:1067F000641E8FD5BAA8CDF89805CCA8CDF894051D
:10680000DCA8CDF890050DF6C8003D9096A83C9008
:1068100026A83B90EEA83A900DF638003990A8A82B
:1068200038900DF580603790DFF844B40DF50860BE
:1068300036900DF5D07A14A84FF00508CDF8D400A5
:1068400008EB48070BEBC70090ED003B90ED024BC7
:1068500090ED045B3EA800EBC700814690ED042B51
:1068600090ED021B90ED000B01F031FAB0EE428B7F
:10687000B0EE40ABB0EE419BFE4808EBC8063822B4
:1068800000EBC604684694ED120B8DEDB60B94ED4B
:10689000140B8DEDB80B94ED160B8DEDBA0B94ED3A
:1068A000180B8DEDBC0B94ED1A0B8DEDBE0B94ED1A
:1068B0001C0B8DEDC00B94ED1E0B8DEDC20B94EDFA
:1068C000200B8DEDC40B94ED220B8DEDC60BDDF886
:1068D0009815FCF7C3FB0AEBC70505F118000DF589
:1068E000367C90EC060B9CE80F00FEF72FFFB0EE15
:1068F000485BB0EE494BB0EE4A3B01F001FA85EC43
:10690000060B3822684694ED120B8DEDC80B94ED02
:10691000140B8DEDCA0B94ED160B8DEDCC0B94ED95
:10692000180B8DEDCE0B94ED1A0B8DEDD00B94ED75
:106930001C0B8DEDD20B94ED1E0B8DEDD40B94ED55
:10694000200B8DEDD60B94ED220B8DEDD80BDDF8E1
:106950009415FCF783FB09F11800C8AC90EC060B0A
:1069600094E80F00FEF7F2FEC148903000EBC7003C
:1069700090ED003B90ED024B90ED045B01F0A7F928
:10698000B0EE425BB0EE414BB0EE403B95EC060BF7
:1069900001F080F9B848402200EBC604684685EC57
:1069A000060B94ED000B8DEDDA0B94ED020B8DEDE3
:1069B000DC0B94ED040B8DEDDE0B94ED060B8DEDF1
:1069C000E00B94ED080B8DEDE20B94ED0A0B8DEDD1
:1069D000E40B94ED0C0B8DEDE60B94ED0E0B8DEDB1
:1069E000E80B94ED100B8DEDEA0BDDF89015FCF73C
:1069F00035FBDDE9DA230DF6B800FEF73DFE3D99E3
:106A000038226846FCF72AFB0DF5B46000EBC7009E
:106A10000DF6B80990EC060B99E80F00FEF796FE0C
:106A200096483822B0EE40AB00EBC6066846B0EEA2
:106A3000428B96ED003BB0EE419B8DED923B96ED87
:106A4000020B8DED940B96ED040B8DED960B96EDF0
:106A5000063B8DED983B96ED083B8DED9A3B96ED10
:106A60000A0B8DED9C0B96ED0C0B8DED9E0B96EDB0
:106A70000E0B8DEDA00B96ED103B8DEDA23B3C99DE
:106A8000FCF7ECFA0DF51279B0EE482BB0EE491B8D
:106A900099E80F00B0EE4A0BFEF758FE94ED003B6C
:106AA000B0EE40AB8DED223B94ED020B38226846F0
:106AB0008DED240B94ED040BB0EE428B8DED260B87
:106AC00094ED060BB0EE419B8DED280B94ED083B49
:106AD0008DED2A3B94ED0A0B8DED2C0B94ED0C0BF8
:106AE0008DED2E0B94ED0E0B8DED300B94ED103BD8
:106AF0008DED323B3B99FCF7B1FA0DF18809B0EE10
:106B0000482BB0EE491B99E80F00B0EE4A0BFEF798
:106B10001DFEB0EE425BB0EE414BB0EE403B95EC5B
:106B2000060B01F0B7F885EC060B4022684694EDA1
:106B3000000B8DEDEC0B94ED020B8DEDEE0B94ED57
