:020000040800F2
:10000000C8B10120950300089D0300089F03000864
:10001000A1030008A3030008A503000800000000D6
:10002000000000000000000000000000A70300081E
:10003000A903000800000000AB03000811580000ED
:10004000AF030008AF030008AF030008AF030008C8
:10005000AF030008AF030008AF030008AF030008B8
:10006000AF030008AF030008AF030008250600082F
:1000700041060008AF030008AF030008AF03000803
:10008000AF030008AF030008AF03000821260000FB
:10009000AF03000849260000AF030008AF030008C3
:1000A000AF030008AF030008AF030008AF03000868
:1000B000AF030008AF030008AF030008AF03000858
:1000C000AF030008AF030008AF030008AF03000848
:1000D000AF030008AF030008751600089D1600085E
:1000E000AF030008AF03000800000000AF030008E2
:1000F0003D160008AF030008AF030008AF03000877
:10010000AF030008AF030008AF030008AF03000807
:10011000AF030008AF0300081516000821580000BF
:10012000AF030008AF030008AF030008AF030008E7
:10013000AF030008AF030008AF030008AF030008D7
:10014000AF030008AF03000800000000000000003B
:10015000AF030008AF030008AF030008AF030008B7
:10016000AF030008AF030008AF030008AF030008A7
:10017000AF030008AF030008AF0300080000000051
:10018000AF030008AF030008AF030008AF03000887
:10019000AF030008AF030008AF030008AF03000877
:1001A000AF030008AF030008AF030008AF03000867
:1001B000AF030008AF030008AF030008AF03000857
:1001C000AF030008AF030008AF030008AF03000847
:1001D000AF030008AF030008AF030008AF03000837
:1001E000AF030008AF030008AF030008AF03000827
:1001F000AF030008AF030008AF030008AF03000817
:10020000AF030008AF030008AF030008AF03000806
:10021000AF030008AF030008AF030008AF030008F6
:10022000AF030008AF030008AF03000800000000A0
:10023000AF030008AF030008AF030008AF030008D6
:10024000AF030008AF030008AF030008AF030008C6
:10025000AF030008AF030008AF030008AF030008B6
:10026000AF030008AF030008AF030008AF030008A6
:10027000AF030008AF030008AF030008AF03000896
:10028000AF030008AF030008AF0300080000000040
:10029000AF030008AF03000800F002F800F06AF8AE
:1002A0000AA090E8000C82448344AAF10107DA45D1
:1002B00001D100F05FF8AFF2090EBAE80F0013F0B9
:1002C000010F18BFFB1A43F001031847241C00005C
:1002D000741C00000A444FF0000C10F8013B13F0AE
:1002E000070408BF10F8014B1D1108BF10F8015B8F
:1002F000641E05D010F8016B641E01F8016BF9D182
:1003000013F0080F1EBF10F8014BAD1C0C1B09D1D8
:100310006D1E58BF01F801CBFAD505E014F8016B4A
:1003200001F8016B6D1EF9D59142D6D370470000DC
:10033000103A24BF78C878C1FAD8520724BF30C811
:1003400030C144BF04680C607047000000230024E3
:1003500000250026103A28BF78C1FBD8520728BFD5
:1003600030C148BF0B6070471FB501F02CFD1FBDA9
:1003700010B510BD00F076F81146FFF7F5FF01F05B
:100380001FFD00F094F803B4FFF7F2FF03BC00F088
:1003900097F800000948804709480047FEE7FEE754
:1003A000FEE7FEE7FEE7FEE7FEE7FEE7FEE7FEE725
:1003B00004480549054A064B7047000031150008FE
:1003C00099020008C8B20020C8B10120C8C10020AD
:1003D000C8C1002010B5203AC0F00B80B1E8185019
:1003E000203AA0E81850B1E81850A0E81850BFF41F
:1003F000F5AF5FEA027C24BFB1E81850A0E81850BE
:1004000044BF18C918C0BDE810405FEA827C24BF11
:1004100051F8043B40F8043B08BF7047D20728BF9F
:1004200031F8023B48BF11F8012B28BF20F8023BEE
:1004300048BF00F8012B704770477047704710B5F0
:1004400000F008F8006810BD10B5044600F002F88E
:10045000046010BD0048704768B200200048704733
:1004600068B200207546FFF7F9FFAE460500694601
:10047000534620F00700854618B020B5FFF798FFD7
:10048000BDE820404FF000064FF000074FF0000895
:100490004FF0000B21F00701AC46ACE8C009ACE816
:1004A000C009ACE8C009ACE8C0098D46704710B57A
:1004B0000446AFF300802046BDE81040FFF763BF5D
:1004C00001491820ABBEFEE726000200704744F643
:1004D0004D1CC0F2000C604742F6D94CC0F2000C33
:1004E000604742F2B53CC0F2000C604741F24D2C2F
:1004F000C0F2000C604741F2193CC0F2000C6047AA
:1005000042F6856CC0F2000C604741F6B54CC0F273
:10051000000C604742F6815CC0F2000C604742F27A
:10052000911CC0F2000C6047144930B54EF66025AE
:100530004C69002312492C1B124AA4B2A1F8A24C08
:10054000C578807805EB002080B2A1F8A40C844225
:1005500006D381F89D3C106820F00100106030BD8A
:1005600008480124074D001D81F89D4C18352B606B
:10057000016821F001010160146030BD00000240FB
:1005800000D001300C1C004000231A4601E08354C7
:10059000521C8A42FBD37047F0B5044641F2210554
:1005A00000204FF6FF76034610E0E25C80EA02206E
:1005B0000022070403D585EA400080B201E006EA84
:1005C0004000521CD2B2082AF3D35B1C8B42ECD3FE
:1005D000F0BD00000848D0F8A81C491CC0F8A81CB1
:1005E000642904D96422C0F8A82C012100E000216C
:1005F00080F8AC1C7047000000D0013008484EF66F
:100600006021026922F001020261826842F0200248
:1006100082604161016941F00101016170470000A0
:100620000000024010B5054C2068800605D5FFF794
:10063000E5FFA06840F02000A06010BD000002406F
:100640000B480168090512D50A49002291F8A63C19
:10065000A1F5E831C3EB831301EB031303F5E83392
:1006600083F8AD280A70816841F4006181607047A9
:100670000000024000D001300648002110B580F88B
:10068000AC180549C0F8981C00F0EEFEBDE810401B
:1006900000F0B4BE00D001309D0600082DE9F04105
:1006A0009B4C9B22032004F57C76002322701F259F
:1006B0006070A370E370B1782171317861717178E5
:1006C000A171B1889348944A090AE1713179217284
:1006D000016801F500404B7963728B891B0AA37294
:1006E0000B7BE372CB891B0A23738B7B63738B7E3B
:1006F000A373CB7EE373134602F5C65202F5D022F4
:100700009B78237413681B0E637413681B0CA3740B
:1007100013881B0AE37412782275C97A617590F800
:10072000A014A175D0F8A414090EE175D0F8A41492
:10073000090C2176B0F8A414090A617690F8A41483
:10074000A176D0F8A814090EE176D0F8A814A6F680
:100750009E46704A090C2177B0F8A814090A6177FF
:1007600090F8A804A077002040F26111136841437B
:1007700003EB011393F82C30635513686D1C03EBE6
:100780000117EBB297F82D50E55415685B1CDBB2EE
:1007900005EB011595F82E50E55415685B1CDBB28E
:1007A00005EB011595F82F50E55415685B1CDBB27D
:1007B00005EB011595F83050E55415685B1CDBB26C
:1007C00005EB01156D8E2D0AE55415685B1CDBB237
:1007D00005EB011595F83250E55415685B1CDBB24A
:1007E00005EB0115AD8E2D0AE55415685B1CDBB2D7
:1007F00005EB011595F83450E55415685B1CDBB228
:1008000005EB01155F1C95ED200BB7EEC00B10EE4C
:10081000105A2D0EE55410EE105AFBB25F1C2D0C31
:10082000E55410EE103AFDB26F1C4FEA132C04F899
:1008300005C0FDB210EE103A401C635513686D1CE4
:1008400003EB0117EBB297ED220B5F1CB7EEC00B69
:1008500010EE105A2D0EE55410EE105AFBB25F1C2C
:100860002D0CE55410EE103AFDB26F1C4FEA132C1C
:1008700004F805C0FDB210EE103A635513686D1C04
:1008800003EB0117EBB297ED260B5F1CB7EEC00B25
:1008900010EE105A2D0EE55410EE105AFBB25F1CEC
:1008A000FFB22D0CE55410EE103A7D1CEDB24FEA6C
:1008B000132C10EE103A04F807C0635513686D1C32
:1008C00003EB011191ED280BE9B24D1CBCEEC00BFE
:1008D0000628EDB210EE103A6354FFF645AFA81C9F
:1008E000010AA1702946E0702046FFF755FE020A72
:1008F0000146681C6255C2B201250023A15486F846
:10090000AD58501C86F8960C86F8AC38BDE8F081DE
:10091000AED8013000000020000000242DE9F0478F
:10092000634E0446B6F8A45CA91EFFF735FE6119B4
:10093000042511F8012C11F8021C02EB012189B2E7
:1009400088427DD15B484FF00009C6F8A89C012180
:1009500086F89F1C4946036801EB4102002003EB27
:100960000218665D6A1C95B26A1C360614F805C04A
:1009700095B26A1C92B2655D06EB0C4608EBC007A7
:1009800014F802C007F50C4706EB052505EB0C062D
:1009900000EE106A401C02F10102B7EEC00A95B2E7
:1009A000062887ED060BDCDB491C0729D4DB002277
:1009B00002EB820000EBC201002003EBC10114F83E
:1009C00005806E1CB6B2751C4FEA086814F806C0A4
:1009D000AEB2751CADB2A65D08EB0C4C01EBC007C6
:1009E00014F8058007F50C470CEB0626464400EE8C
:1009F000106A401C05F10105B7EEC00AADB2062829
:100A000087ED5A0BDBDB0020665D05F1010C1FFA58
:100A10008CFC0CF101054FEA0668AEB214F80CC06C
:100A2000751CADB2A65D01EBC007401C08EB0C4C79
:100A300014F80580062807F50C470CEB062600E0A5
:100A400030E0464400EE106A05F10105ADB2B7EEA4
:100A5000C00A87ED680BD7DB681C655D80B2461C59
:100A60002D06275CB0B200F1010601F50C4114F827
:100A700000C0B0B205EB0745521C265C05EB0C2507
:100A800000F101002E4400EE106A85B2072AB7EE8D
:100A9000C00A81ED660B8BDB83F81E90BDE8F04742
:100AA000FFF715BD042086F89E0CBDE8F087000016
:100AB00000D00130000000202DE9F047274D04460A
:100AC000B5F8A46CB11EFFF767FDA119042211F857
:100AD000013C11F8021C03EB012189B2884239D193
:100AE0001F484FF00009C5F8A89C012185F89F1CFC
:100AF0004946036840F261154D43032003EB051896
:100B0000A65C551CADB26A1C360614F805C095B239
:100B10006A1C92B2655D06EB0C4608EBC00714F840
:100B200002C007F5406706EB0525654400EE105A44
:100B300002F1010292B2B7EEC00A401E87EDC40B6B
:100B4000DED5491C0629D5DB83F80B9083F81C9071
:100B5000BDE8F087042085F89E0CF9E700D001304D
:100B6000000000202DE9F05F524E0446B6F8A45C68
:100B7000A91EFFF711FD6119042511F8012C11F8C8
:100B8000021C02EB012189B288427DD1DFF828B135
:100B90000021C6F8A81C4FF0010E86F89FEC08460D
:100BA000DBF800A040F2611100FB01F200210AEB2A
:100BB0000213675D6A1C92B2551C3F0614F802C00E
:100BC000AAB202F1010503EBC10614F80280AAB231
:100BD00007EB0C47491CA55C07EB082702F1010253
:100BE0002F4400EE107A95B21429B7EEC00A86EDB4
:100BF000540BDEDB0021675D6A1C92B2551C3F0678
:100C000014F802C0AAB202F1010503EBC10614F800
:100C10000280AAB207EB0C47491CA55C07EB08272A
:100C200002F101022F4400EE107A95B21429B7EEBA
:100C3000C00A86ED7C0BDEDB5FF00002002102EBD8
:100C4000820603EB4619665D6F1CBFB27D1C4FEA3E
:100C50000668AEB2E75D06F10105ADB2A65D08EB30
:100C6000074709EBC10C14F80580491C07EB062661
:100C7000464400EE106A05F10105ADB2B7EEC00AB8
:100C800014298CEDA40B00E010E0DCDB521C142ACC
:100C9000D4DB401C062885DB5C468AF80BE0FFF7B6
:100CA0001BFC216800200877BDE8F09F042086F82F
:100CB0009E0CF9E700D00130000000202DE9F04142
:100CC000634D0446B5F8A46CB11EFFF765FCA2198C
:100CD000042112F8013C12F8022C03EB022292B21A
:100CE00090427DD14FF0000EC5F8A8EC012085F8A8
:100CF0009F0C584872460668481C80B2655C411CCF
:100D000040F2611389B214F800C02F0602FB03F011
:100D10004B1C655C9BB207EB0C4101EB0525E75CC6
:100D200003F101039BB23D4400EE105A06EB0010A4
:100D300000F54061B7EEC00A03F10105ADB2521CE7
:100D4000062A81EDD40BE75C05F1010314F805C018
:100D50009DB205F101039BB2655D4FEA076707EBA2
:100D60000C4714F803C003F1010307EB05256544A4
:100D700000EE105A9BB203F10105B7EEC00AADB206
:100D800081EDD60BE75C05F1010314F805C09DB2B7
:100D900005F101039BB2655D4FEA076707EB0C475E
:100DA00014F803C003F1010307EB0525654400EEC9
:100DB000105A9BB2B7EEC00A81EDD80B03F10101C6
:100DC000E55C8BB203F101014FEA0565E75C8BB28C
:100DD00003F1010189B2E35C05EB0745675C00E0C4
:100DE00031E005EB03233B4400EE103A01F1010131
:100DF00089B2B7EEC00A00F5A05001F1010380ED01
:100E0000780B655C99B201F10103675C99B201F15D
:100E1000010C4FEA0565635C1FFA8CF105EB074591
:100E2000675C05EB032301F101013B4400EE103A3E
:100E300089B2B7EEC00A80ED7A0BFFF65DAF86F897
:100E40001DE0BDE8F081042085F89E0CF9E7000064
:100E500000D00130000000202DE9F05F6F4F044604
:100E6000B7F8A49CA9F10201FFF796FB04EB090176
:100E700011F8012C11F8021C02EB012189B2884201
:100E800073D10020C7F8A80C2421A079A9F10E097C
:100E9000257999FBF1F34FEA002AE6794FEA052913
:100EA00094F80A8094F808C006EB0A056079E17AA4
:100EB0002E04627A484401EB08214FF00C0502EB46
:100EC0000C221FFA80FB1FFA82F81FFA81FA1FFA20
:100ED00083F9360C01D1FFF704FB514A022142F697
:100EE000E063B2F838C10CEB0900984203D987F8E7
:100EF0009F1CBDE8F09F642E02D8B8F1640F01D9A1
:100F000003201CE046B1D088301A00B2012801D17C
:100F1000464501D3042012E0BAF1000F0ED0414B38
:100F2000012087F89F0CA8F1010C1F68664587F423
:100F300080471F6006D11170507004E0052087F8CB
:100F40009F0CD6E710703649A2F804B00C31D68059
:100F5000A2F80880A2F83AA17054D08802EB4001B0
:100F6000A1F87090B2F8383148E053E003EBC300C9
:100F700002EB80010020665D6D1C01EB4007ADB205
:100F80003602A7F83C61401C14F8058080B205F1D8
:100F9000010C1FFA8CF506284644A7F83C61EAD3F9
:100FA0000020665D6D1C01EB4007ADB23602A7F86C
:100FB0004861401C14F8058080B205F1010C1FFA4D
:100FC0008CF506284644A7F84861EAD30020665D00
:100FD0006D1C01EB4007ADB23602A7F85461401C0E
:100FE00014F8058080B205F1010C1FFA8CF5062873
:100FF0004644A7F85461EAD35B1C9BB2B2F838119F
:1010000001EB09009842B1D889B201EB0900A2F8BE
:1010100038016EE7042087F89E0C6AE700D00130A3
:1010200000000024140402582DE9F047C14C0127A8
:1010300094F8AD0C38B1A4F5E835002615F8010F89
:101040009B2804D02AE084F8AD7CBDE8F08768785E
:10105000012819D0022817D0042815D0052813D04C
:10106000062811D007280FD008280DD009280BD04A
:101070000A2809D00B2807D00C2805D00D2803D04A
:101080000E2801D00F280BD12846FFF74DFA94F80F
:101090009D0C0128D9D028789B2801D0022025E07A
:1010A00084F89E7C4FF00408687884F8A00C01282E
:1010B00021D0022838D004284FD0052851D0DFF89D
:1010C0007892062851D007286AD008286CD00928C1
:1010D0007DD00A287CD00B287BD00C287AD00D2814
:1010E00079D00E2878D00F2877D0032084F8A06C10
:1010F00084F89E0C15E1B4F8A49C2846A9F10201DD
:10110000FFF74AFA05EB090111F8012C11F8021C4E
:1011100002EB012189B288427ED1C4F8A86C84F820
:101120009F7CFFF7E3F9FCE0B4F8A49C2846A9F102
:101130000201FFF731FA05EB090111F8012C11F852
:10114000021C02EB012189B2884265D1C4F8A86C67
:1011500084F89F7CFFF7CFF9E3E02846FFF77CFE99
:10116000DFE02846FFF7FEFCDBE0B4F8A4AC28463D
:10117000AAF10201FFF710FA05EB0A0111F8012CA0
:1011800011F8021C02EB012189B2884244D1C4F853
:10119000A86CC84684F89F7CD9F80000C772B7E0F5
:1011A0002846FFF78BFDBCE0B4F8A4AC2846AAF1B2
:1011B0000201FFF7F1F905EB0A0111F8012C11F812
:1011C000021C02EB012189B2884225D106E00FE022
:1011D00012E031E04AE063E07CE07FE0C4F8A86C14
:1011E00084F89F7CFFF78CF9D9F80000467798E0E7
:1011F0002846FFF793FB94E0B4F8A4AC2846AAF184
:101200000201FFF7C9F905EB0A0111F8012C11F8E9
:10121000021C02EB012100E080E089B288427ED10D
:10122000C4F8A86C84F89F7CFFF76FF9D9F8000028
:101230008677FFF74CF974E0B4F8A49C2846A9F12E
:101240000201FFF7A9F905EB090111F8012C11F8CA
:10125000021C02EB012189B2884260D13749C4F8EF
:10126000A86C84F89F7C287948705AE0B4F8A4AC44
:101270002846AAF10201FFF78FF905EB0A0111F8E0
:10128000012C11F8021C02EB012189B2884246D1DF
:10129000C4F8A86C84F89F7CD9F80000077240E07D
:1012A000B4F8A4AC2846AAF10201FFF775F905EBE2
:1012B0000A0111F8012C11F8021C02EB012189B27C
:1012C00088422CD1C4F8A86C84F89F7CD9F800001F
:1012D000067226E02846FFF7EFFB22E0B4F8A4AC44
:1012E0002846AAF10201FFF757F905EB0A0111F8A8
:1012F000012C11F8021C02EB012189B288420ED1A7
:10130000C4F8A86CC84684F89F7CD9F80000C6725F
:10131000FFF700F9D8F80000067702E0FFE784F84D
:101320009E8C4EF660212846FFF72EF9BDE8F04767
:10133000FFF764B900D00130000000200000002455
:101340002B482DE9F047017800294ED100F5EC3704
:101350008946AC37804600F5E8344E4694F8A60C32
:10136000401C10F0FF0084F8A60C01D084F8A69C65
:101370003D463878012834D1D5F8EC03804795F8FC
:10138000EA131C48FFF700F90020424608E029183C
:10139000131803F5E8338978401CC0B283F8C114F0
:1013A00095F8EA138142F2D813480221826A22F0AA
:1013B0000102826295F8EA23C262826A42F0010267
:1013C00082626970012184F89C9C84F89D9C84F859
:1013D0009E9C84F89F9C84F8A09CA4F8A29CA4F8EE
:1013E000A41C761C16F0FF06B8D0BDE8F0870000FC
:1013F00000000030C1D40130000002402DE9F0416E
:10140000174CEF252168002021F0010249F63F41E9
:1014100022606062A562E162E06840F00100E06085
:10142000362000F067F90F48216841F287330D4AF2
:10143000DFF830C041F0010118322160161D01278C
:10144000ACF1100C15603360CCF80070016821F02D
:1014500001010160BDE8F0412C2000F04BB9000013
:1014600000100040101C00402A492DE9F041086896
:1014700020F4702008600B68264A264843F4202395
:101480000C320B60243000251168234C234B41F4AF
:10149000A0262349166002682D27DFF888C04EF683
:1014A0006026DFF884E042F0770202602561A361E4
:1014B000E1616661CCF80070206940EA0E002061AD
:1014C0000B2000F017F915492E23164E4FF47A72AF
:1014D0001648091D361DA562134D2163C13D606389
:1014E000E2623360A06A2843A0620C2000F002F997
:1014F0000A49C022094D1D24183940F211400B1F22
:10150000243D08601A602C602720BDE8F04100F0FF
:10151000F1B80000000C02580000024024480040CE
:10152000010000300008024011050300C1D4013061
:101530002E48F0B52E4A016841F470010160106830
:1015400000F00F00072804D2106820F00F00C01D23
:10155000106028490020274C10340B68264D43F0BA
:1015600001030B6020600B682B400B60136803F0D5
:101570000F03072B04D9136823F00F03DB1D13603F
:101580001C4C1E4A18341E4B261D371D2060194C5A
:101590001C4D28343060261D3860371D23603B1DEC
:1015A00035601C1D3A60251D2E1D1860331D2260FC
:1015B0002860326018600A680E4B134C22F48022B7
:1015C00060330A60186020686FF30F00B0F1005FAD
:1015D00003D20E490120C1F8080143F2D2000C49A0
:1015E000024B4A03803B08601A60F0BD88ED00E0C2
:1015F00000200052004402587FEDF6EA800201010B
:10160000000202020000FF010010005C0080005197
:101610000040005210B5074C2069C00709D00648A9
:10162000012180F8AC18FFF78BFE206920F0010043
:10163000206110BD0010004000D0013070B50B4C8F
:101640002068C00710D0201F002602680521084D21
:1016500022F001020260AE702970FEF7CFFF2E70FB
:10166000206820F00100206070BD0000101C0040C8
:101670009EDC0130074810B50068C00609D5064851
:101680000068FFF7D1FC0348001D016841F010011C
:10169000016010BD1C44004024480040084810B5BB
:1016A0000068C0060AD5064808300068FFF7BCFC91
:1016B0000348001D016841F01001016010BD0000E9
:1016C0001C48004003B401984100009850EAC12032
:1016D00018BF04204A0D18BF40F0010040F2FF720D
:1016E000B2EB515F08BF40F00200012808BF05209F
:1016F00002B07047002809DB410900F01F02890091
:10170000012001F1E0219040C1F800017047000084
:1017100010B529499FED261B2DED020B84B00598CD
:1017200020F000408842D8BF9DED040B2DDD2349F9
:10173000884209D1049840B94FF00100FEF784FEB9
:1017400000F01AFB06B010BD05DB9DED040B30EE7A
:10175000000B06B010BD68469DED040B00F088F844
:1017600010F0030004BF9DED021B9DED000B0CD09B
:1017700001280ED09DED021B9DED000B022810D01C
:10178000012000F0A5FA06B010BD00F0F9F906B08E
:1017900010BD9DED021B9DED000B012000F098FA9D
:1017A00001E000F0EDF906B0B1EE400B10BD000015
:1017B0000000000000000000FB21E93F0000F07F76
:1017C00010B529499FED261B2DED020B84B005981D
:1017D00020F000408842DCBF00209DED040B2EDD90
:1017E0002249884209D1049840B94FF00100FEF720
:1017F0002BFE00F0C1FA06B010BD05DB9DED040B19
:1018000030EE000B06B010BD68469DED040B00F0F5
:101810002FF810F003000DD0012814D09DED021B0D
:101820009DED000B022816D000F0AAF906B0B1EE2B
:10183000400B10BD9DED021B9DED000B012000F043
:1018400047FA06B010BD9DED021B9DED000B00F0A8
:1018500097F906B010BD012000F03AFAE6E7000063
:101860000000000000000000FB21E93F0000F07FC5
:101870002DE9F14F04462DED020B2DED048B94B0B4
:101880009FED9D0B80ED020B199E9D4826F00045B3
:1018900085420ADC9DED180B002084ED000B14B08E
:1018A000BDEC048B03B0BDE8F08F96489FED969B8E
:1018B0009FED978BA84225DD97489FED991B9FEDE3
:1018C0009A2B9DED180B002E0DDD30EE490B854255
:1018D00012BF30EE480B30EE410B30EE420B84ED80
:1018E000000B0120DBE730EE090B854212BF30EE22
:1018F000080B30EE010B30EE020B84ED000B4FF0C5
:10190000FF30CCE78A48A84253DB9DED180B51EC21
:10191000100B00F049FA41EC100BB0EE401B9FEDAC
:10192000862B9FED870B290DDFF81CC201EE020B01
:101930000120FDEEC00B10EE903A00EE903AB8EEAA
:10194000E02BB0EE410B02EE490B22EE081BFC44EB
:10195000032830EE411B84ED001B1DD011EE902AB0
:1019600000EB4015113DC2F30A528A1A954213DA70
:101970000CEB0012B0EE403B92ED000B401C20EE51
:10198000021B33EE410B33EE403B33EE411B92ED35
:10199000023B12EE031BDBE7002EA8BF1846BFF682
:1019A0007EAF94ED000B5842B1EE400B84ED000B7E
:1019B00075E7C6F3130040F4801EC6F30A50A0F288
:1019C000F530471100F01F05C5F12000DDF860B0CB
:1019D000139000200890099005200DF1080C5B4938
:1019E000002D07EB0002794408BF51F8221009D0FE
:1019F00051F8223001EB8201AB404A68139922FA78
:101A000001F11943A1FB0E26A1FB0B131A449A42C4
:101A100034BF0123002303EB06080CEB8003D3E95A
:101A200001A60E448E4234BF0121002192448A4413
:101A300011B1924502D903E0924501D2012100E0A3
:101A40000021C3E901A641444CF82010011EA0F179
:101A50000100C4DC04989DED050A00F10050810FDF
:101A600004989FED3B4B800001EE100ADDED060A65
:101A70009DED072AB8EEC13BB8EE401BB8EE600BF7
:101A8000B8EE422B002021EE041B9FED334B20EEDD
:101A9000040B9FED334B22EE042B30EE024B34EE61
:101AA000014B34EE034B8DED004B00909DED004B50
:101AB000199834EE433B10F0004F33EE411B31EEEA
:101AC000400B32EE401B9DED000B9FED272B20EECF
:101AD000020B9FED272B01EE020B9DED001B9FEDEE
:101AE000262B01EE020B1CBF4942B1EE400B84EDE8
:101AF000000B0846D3E600000000000000000000D4
:101B0000FB21E93F7CD9024000004054FB21F93F12
:101B10003163621A61B4D03DFB21F93F000000003F
:101B20000000601A61B4D03D7370032E8A19A33B84
:101B3000FB2139410000000083C8C96D305FE43FDC
:101B4000000000000000E03FAE040000460400007A
:101B5000000000000000103E000000000000103CEB
:101B6000000000000000103A3326A611460B113C7D
:101B7000182D4454FB21F93D00000054FB21F93D90
:101B800010B52DED040B2DED068B82B0B0EE41AB00
:101B900009989FED299B20F00044B4F1795F0FDA9A
:101BA0009DED080BBDEEC00B10EE100A002801BF22
:101BB000B0EE490B02B0BDEC068B04B008BF10BDFF
:101BC0009DED080B1E48062120EE008BB0EE480B61
:101BD000784400F045F820EE080B9DED081B1C48EA
:101BE000844228EE000B01EE4A0B9FED171B28EEF6
:101BF000011BBCBF31EE400B39EE400B16DB154824
:101C0000A042BCBF9FED142B8DED002B06DBA4F58D
:101C100000100190002000909DED002B31EE421B42
:101C200039EE422B31EE400B32EE400B02B0BDECF0
:101C3000068B04B010BD0000000000000000F03F63
:101C4000FC01000000000000000000000000E03F78
:101C50003333D33F0000E93F000000000000D23FD3
:101C6000491E00EBC102B0EE401B92ED000B31F0BB
:101C700006020DD0491E00EBC102B0EE403B92EDD2
:101C8000002B31F00602B0EE420B03EE010BF1D156
:101C9000022914D004290AD0062918BF704790EDF4
:101CA0000A2B00EE012B90ED080B02EE010B90EDDC
:101CB000062B00EE012B90ED040B02EE010B90EDD4
:101CC000022B00EE012B90ED000B02EE010B704792
:101CD00031B504462DED040B2DED068BB0EE419B86
:101CE00007989DED060B20F00040B0F1795F0DDA0A
:101CF00051EC100BFFF7E6FC042808BF00F048F891
:101D00009DED060BBDEC068B05B030BD20EE008BC3
:101D10001348052128EE00ABB0EE480B7844FFF7DE
:101D20009FFF9FED111B8CB19FED112B29EE022B14
:101D30000AEE402B9DED060B18EE029B0AEE419B2E
:101D400030EE490BBDEC068B05B030BD08EE001B34
:101D50009DED060B0AEE010BBDEC068B05B030BD08
:101D6000A801000000000000495555555555C5BF54
:101D7000000000000000E03F9FED031B81EE010B1F
:101D8000704700000000000000000000000000009C
:101D90009FED030B20EE000B7047000000000000D9
:101DA000000000000000001082B0CDE9000121F029
:101DB000004001909DED000B02B051EC100B7047FC
:101DC000FEF7ADFBFEE74FF04070E1EE100A704702
:101DD0004C5555555555A53F7751C1166CC156BF49
:101DE0009015CB19A001FA3EAD529C804F7E92BE59
:101DF000C4B1B4BD9EEE213ED43888BEE9FAA8BD78
:101E000000004054FB21F93F3163621A61B4D03DB8
:101E10000000601A61B4D03D7370032E8A19A33B91
:101E20000000002E8A19A33BC14920259A837B39E3
:101E300000000000000000006E83F9A22915444E46
:101E4000D15727FCC0DD34F5999562DB4190433CC6
:101E5000AB6351FE61C5BBDE3A6E24B7E0D24D42A2
:101E6000EA2E49061C92D1091CEB1DFE3EA729B1A2
:101E7000F53582E88444BB2E26709CE9417E5FB430
:101E800039D69139F43953838B5F849C3B28F9BD53
:101E9000FF97F81F0F9805DE8B112FEF1F6D0A5A61
:101EA000CF7E366DB709CB27663F464F2DEA5F9E42
:101EB000C7BA27757BF1E5EBF739073DEA92528AFD
:101EC000B15FFB6B085D8D1FA6F810111111813FEA
:101ED000D561C119A0012ABF7DFEB157E31DC73EE0
:101EE000EB9C2B8AE6E55ABE7CD5CF5A3AD9E53D24
:101EF000401F00080000002004000000300300081C
:101F0000441F000800000024789A0600D40200084C
:101F1000882C000800000030B0DC0100D40200086A
:101F20004830000800000000F8AB00003003000853
:101F3000441F000804000020C4B101004C03000845
:101F40000800002001FF01FF01FF01FF01FF01FF69
:101F500001FF01FF01FF01FF01FF01FF01FF01FF81
:101F600001FF01FF01FF01FF01FF01FF01FF01FF71
:101F700001FF01FF01FF01FF01FF01FF01FF01FF61
:101F800001FF01FF01FF01FF01FF01FF01FF01FF51
:102C800001FF01FF01FF011901FF01FF01FF01FF2A
:102C900001FF01FF01FF01FF01FF01FF01FF01FF34
:102CA00001FF01FF01FF01FF01FF01FF01FF01FF24
:102CB00001FF01FF01FF01FF01FF01FF01FF01FF14
:102CC00001FF01FF01FF01FF01FF01FF01FF01FF04
:1030400001FF01FF018E000040F2D55CC0F6000CCC
:10305000604740F2796CC0F6000C604740F2D53C06
:10306000C0F6000C604741F2117CC0F6000C6047CE
:1030700041F2C17CC0F6000C604700003D480021D1
:103080000122006800F50040C0F8A41490F89035C3
:103090003BB190F8E03523B190F830360BB1C0F871
:1030A000A42490F880365BB190F8603843B190F872
:1030B000403A2BB1D0F8A43443F48073C0F8A43460
:1030C00090F8D0365BB190F8B03843B190F8903AB0
:1030D0002BB1D0F8A43443F40073C0F8A43490F8B2
:1030E00020375BB190F8003943B190F8E03A2BB14A
:1030F000D0F8A43443F48063C0F8A43490F8703757
:103100005BB190F8503943B190F8303B2BB1D0F817
:10311000A43443F40063C0F8A43490F8C0375BB122
:1031200090F8A03943B190F8803B2BB1D0F8A4348B
:1031300043F48053C0F8A43490F810385BB190F891
:10314000F03943B190F8D03B2BB1D0F8A43443F41C
:103150000053C0F8A434D0F8A43413B180F8A014FC
:1031600001E080F8A024D0F8A8141943C0F8A814EE
:1031700070470000000000201A49F0B40524012522
:10318000D1F800200020034600EB800102EB011182
:1031900001F50041D1F88C65052E04D3C1F88C45AA
:1031A00081F8905501E081F89035401C0328EBDB55
:1031B0005FF0000000EB800102EB011101F500411E
:1031C000D1F87C66052E04D3C1F87C4681F8805680
:1031D00001E081F88036401C1228EBDBF0BCFFF7E1
:1031E0004DBF00000000002010B500F07FFE00F091
:1031F00077F800F09DFE00F009F80348816921F09E
:103200000101816110BD000000A000402F492F4B3B
:1032100010B520330A682E4822F00F020A600C68AD
:103220002C4A44F00A040C60196841F099011960B5
:10323000836940F6313143F00303836183693F249E
:1032400043F486438361C261C160C0F880400122BB
:10325000214940F22223096801F5916101F50041FD
:103260000C8844F49014C0F884404C8844F44034F2
:10327000C0F8C040C0F8C820C0F8BC308C88174BDC
:10328000C0F8AC40C98841F43811C0F8A0104365BB
:103290005FF00001D0F8E03002FA01F42343C0F8F7
:1032A000E030491C0329F5DB426D4FF07F510323C9
:1032B00042F07F5242658165C365132005F065FBCE
:1032C000BDE81040152005F060BB0000000C02585E
:1032D00000A00040030B04020000002000020800D0
:1032E0005A482DE9F043006800F10C02814600F1D4
:1032F000180300F1240500F1300600F13C0700F14D
:10330000480C00F1540100F50048603000F500441D
:103310004FF40070A8F8B20409F16C0002F5004205
:1033200000F5004840F2012003F50043A2F8B20482
:1033300009F1780000F5004240F2022005F5004551
:10334000A3F8B20409F1840000F5004340F2032021
:1033500006F50046A5F8B20409F1900000F5004515
:103360004FF40170A6F8B20409F19C0007F500477C
:1033700000F5004640F205200CF5004CA7F8B20419
:1033800009F1A80000F500474FF40470ACF8B2044E
:1033900009F1B40001F5004100F5004C40F21120A4
:1033A000A1F8B20440F21221A4F8B21440F213249E
:1033B000A8F8B2444FF40578A2F8B28440F215227E
:1033C000A3F8B22409F1C0004FF43C78A5F8B28408
:1033D00000F5004040F2F122A6F8B224531CA7F8F1
:1033E000B2340724951CACF8B25409F1CC01121D7B
:1033F0004FF43D78A0F8B28401F50041134F012647
:103400005FF000004FF0605CA1F8B2243A6800EB76
:10341000400185B202EB810101F5966101F50041A1
:1034200045F0804302F500420E704C708D804D884F
:103430004CEA05452B438B60D2F8901441F82030BC
:10344000401C1228E2DBBDE8F083000000000020F1
:103450005349F0B50B6800EB400500EB800103F524
:1034600000446E0003EB0111D4F89824042505EB09
:10347000860552F8267001F50042C2F8B076D4F8FD
:1034800098C45CF805504FF0080CC2F8B4560CEB29
:10349000860CD4F898E45EF80CE04FF00C0CC2F8FF
:1034A000B8E60CEB860CD4F898E45EF80CE04FF02C
:1034B000100CC2F8BCE60CEB860CD4F898E45EF86D
:1034C0000CC04FF0140EC2F8C0C60EEB8606D4F83E
:1034D00098444FF0060CA659B0FBFCF4C2F8C46641
:1034E000C7F38A460CFB14044FEAD77C82F890C6D7
:1034F000C7F3407082F89106C2F89466EF0F82F825
:103500009876C5F3056082F89906C5F3405682F8AF
:103510009A66C5F30057C5F3034082F89B762D0CDD
:1035200082F89C06A2F89E565FF0000501EB85002C
:1035300000F5D46000F500406D1C042D866906700E
:103540004FEA162747704FEA164C80F802C04FEA40
:10355000166E80F803E0E9DB92F8A006012808D196
:1035600040F26110444303EB041090F8283080F8D7
:1035700029301046044615460023C2F87C36D2F89E
:10358000880601F50041D4F88C4602F5CF62401C54
:10359000C5F8880644F10004C1F88C461370F0BDEC
:1035A000000000205049F0B50B6800EB400500EB2F
:1035B000800103F500446E0003EB0111D4F8982458
:1035C000042505EB860552F8267001F50042C2F885
:1035D000B076D4F898C45CF805504FF0080CC2F8E7
:1035E000B4560CEB860CD4F898E45EF80CE04FF07F
:1035F0000C0CC2F8B8E60CEB860CD4F898E45EF834
:103600000CE04FF0100CC2F8BCE60CEB860CD4F8C2
:1036100098E45EF80CC04FF0140EC2F8C0C60EEB72
:103620008606D4F898444FF0060CA659B0FBFCF47B
:10363000C2F8C466C7F38A460CFB14044FEAD77C71
:1036400082F890C6C7F3407082F89106C2F894667B
:10365000EF0F82F89876C5F3056082F89906C5F3F6
:10366000405682F89A66C5F30057C5F3034082F8C6
:103670009B762D0C82F89C06A2F89E565FF0000502
:1036800001EB850000F5D46000F500406D1C042DB1
:10369000866906704FEA162747704FEA164C80F885
:1036A00002C04FEA166E80F803E0E9DB40F26110D9
:1036B00092F8A06648F288674443381D002503EB62
:1036C000041383F82C60C2F87C567B58405801F5EF
:1036D00000415B1CC2F8883640F10000C1F88C063E
:1036E00082F87856F0BD000000000020864900EB0B
:1036F00040032DE9F0470E6800EB80015C0006F501
:10370000004206EB011303F50041D2F8985455F836
:1037100024700425C1F8B07605EB8405D2F898C46E
:103720005CF805504FF0080CC1F8B4560CEB840C53
:10373000D2F8988458F80C804FF00C0CC1F8B88679
:103740000CEB840CD2F8988458F80C804FF0100CD5
:10375000C1F8BC860CEB840CD2F8988458F80C8025
:103760004FF0140CC1F8C0860CEB8404D2F89824F6
:103770004FF006084FEAD77C1259B0FBF8F4C1F8B5
:10378000C426C7F38A4281F890C608FB140AC7F31F
:10379000407481F89146C1F89426EF0F81F898762D
:1037A000C5F3056481F89946C5F3405281F89A261D
:1037B000C5F3005781F89B762A0CC5F3034481F8C2
:1037C0009C460024A1F89E2603EB840202F5D462F5
:1037D00002F50042641C042C956915704FEA152708
:1037E00057704FEA154C82F802C04FEA156882F80C
:1037F0000380E9DB40F2611491F8A15691F8A2C66A
:1038000040F2611710FB04F091F8A0462D0491F8E6
:10381000A32605EB0C2C06EB001902EB04626244B4
:1038200001EE102A99ED423B9FED382BB8EEC11BFB
:103830000AFB07F09FED370B21EE031B06EB001090
:10384000012703F5004C624600249046434681EE72
:10385000023B80ED203B91F8A46691F8A55699EDC6
:10386000442B05EB06252DB201EE105AB8EEC11B14
:1038700021EE021B81EE002B80ED222B91F8A66633
:1038800091F8A75699ED482B05EB06252DB201EED0
:10389000105AB8EEC11B21EE021B81EE002B80ED09
:1038A000262B91F8A85600EE105AB8EE400B80ED8A
:1038B000280B91F8A95680F82C5091F8AA5680F858
:1038C0002D5091F8AB5680F82E5091F8AC5680F8F8
:1038D0002F5091F8AD5680F8305080F8367005F0D2
:1038E000010580F83F50C1F87C46DCF88806D2F824
:1038F0008C26401CC8F8880642F10002C3F88C26CA
:1039000081F87846BDE8F087000000200000C0FF85
:10391000FFFFDF4100000000C0FFDF4070B5194C21
:1039200001260025D4F89800E840C00706D0E8B288
:10393000FFF7DCFE06FA05F0C4F898006D1C062DB2
:10394000F0DB0625D4F89800E840C00706D0E8B2BE
:10395000FFF728FE06FA05F0C4F898006D1C0C2D40
:10396000F0DB0C25D4F89800E840C00706D0E8B298
:10397000FFF76EFD06FA05F0C4F898006D1C122DD5
:10398000F0DB70BD00A0004010B500F073FAFFF747
:10399000F3FB11480168002000EB8002401C01EBA2
:1039A000021202F500420328D2F88C3503F101031C
:1039B000C2F88C35F0DB002000EB8002401C01EBEC
:1039C000021202F500421228D2F87C3603F10103FC
:1039D000C2F87C36F0DB10BD000000202DE9F0437A
:1039E0004E4E012230680446503000F5004090F8F9
:1039F000880501287ED002EB8200002504EB00132D
:103A0000294600BF40F2611703EB050C4F430CF54C
:103A1000004C6D1C04EB0717491CADB297F82B70D6
:103A200006298CF8B575EDDB0025B14603EB850161
:103A300001F500416D1C032D91F8B67591F8B5653F
:103A400091F8B7C591F8B88506EB072606EB0C464A
:103A500006EB0866C1F8CC65E8DB04F5004449468E
:103A600003F500430425D4F8944405EB8005D3F80E
:103A7000C435082707EB80080C2644F82030D9F815
:103A8000004006EB8006102304EB001C04F5004404
:103A90000CF5004C03EB8007D4F894440123DCF8C8
:103AA000C8C503FA02F244F805C00C681C4D04EBCB
:103AB000001C04F500440CF5004CD4F89444DCF8E8
:103AC000CCC544F808C00C6804EB001C04F50044A5
:103AD0000CF5004CD4F89444DCF8D0C544F806C08A
:103AE0000C6804EB001604F5004406F50046D4F813
:103AF000944400E00FE0D6F8D465E651D9F8001000
:103B000001EB001000F5004080F88835D5F8D000B2
:103B10001043C5F8D000BDE8F0830000000000208D
:103B200000A00040544802222DE9F04301680C46F1
:103B3000A03101F5004191F8881501297DD0814619
:103B400002EB8200002504EB0013294640F26116C7
:103B500003EB050C4E436D1CADB204EB06160CF5E1
:103B6000004C03EB050796F8288007F500478CF812
:103B7000B585491C96F82A6005F10105ADB287F8B4
:103B8000B5650629E2DB002503EB850101F500415F
:103B90006D1C032D91F8B67591F8B56591F8B7C510
:103BA00091F8B88506EB072606EB0C4606EB08668F
:103BB000C1F8CC65E8DB04F50044494603F5004351
:103BC0000425D4F8944405EB8005D3F8C4350827C0
:103BD00007EB80080C2644F82030D9F80040102369
:103BE00003EB800704EB001C04F500440CF5004CCB
:103BF0000123D4F8944406EB8006DCF8C8C503FA28
:103C000002F244F805C00C681C4D04EB001C04F5DE
:103C100000440CF5004CD4F89444DCF8CCC544F8CE
:103C200008C00C6804EB001C0CF5004C04F50044C3
:103C3000DCF8D0C5D4F8944400E01AE044F806C09B
:103C40000C6804EB001604F5004406F50046D4F8B1
:103C50009444D6F8D465E651D9F8001001EB001071
:103C600000F5004080F88835D5F8D0001043C5F83D
:103C7000D000BDE8F08300000000002000A000405C
:103C80005F4800222DE9F047036803F500418A46AA
:103C900091F8881501297DD000249FED5A1B81469B
:103CA000214602EB820003EB001500BF40F26116D3
:103CB000B0EE410B4E432F1907F5004703EB0616F4
:103CC000641C96ED162B96ED483BA4B205EB040C54
:103CD00082EE034B0CF5004C491C04F10104A4B224
:103CE000062924EE002BBDEEC22B12EE108A4FEAFD
:103CF000282887F8B58596ED162B96ED483B82EE81
:103D0000034B24EE000BFDEEC00B10EE906A8CF816
:103D1000B565CBDB0024494605EB840303F500437E
:103D2000641C032C93F8B67593F8B56593F8B7C582
:103D300093F8B88506EB072606EB0C4606EB0866FB
:103D4000C3F8CC65E8DBDAF8944405F500450426B1
:103D50004FF00C0C06EB8007D5F8C435082544F865
:103D600020300B6805EB8006102403EB001503F5EB
:103D7000004305F50045D3F89434D5F8C855DD5116
:103D80000B680CEB800704EB800C204D012403EB47
:103D9000001800E031E003F5004308F5004804FA9C
:103DA00002F2D3F89434D8F8CC8543F806800B6837
:103DB00003EB001603F5004306F50046D3F89434F0
:103DC000D6F8D065DE510B6803EB001603F500430F
:103DD00006F50046D3F89434D6F8D46543F80C6061
:103DE000D9F8001001EB001000F5004080F888457C
:103DF000D5F8D0001043C5F8D000BDE8F08700002A
:103E00000000002000000000C0FFDF4000A00040D4
:103E10001649F0B50026164DD1F80030022730467D
:103E2000D5F8D810C140C9071BD000EB800103EBC7
:103E3000011101F5004292F88845012C11D19446F8
:103E4000144682F888759646C2F88C65DCF8981599
:103E5000D4F89C45491CCEF8981544F10004C2F8EA
:103E60009C45401C0328DBDBF0BD00000000002067
:103E700000A0004070B51C4C0325002220680146BC
:103E800000F50040B0F8AC345B1C9BB2B3FBF5F618
:103E900005FB1633A0F8AC3403EB830601EB0613E5
:103EA00003F5004393F8A035012B03D0521C032ADD
:103EB000E8DB70BDB0F8AC0400EB800001EB001053
:103EC00000F50040D0F8A4058047206848F2AC41D6
:103ED0000022095A01EB810100EB011000F50040BE
:103EE00080F8A02570BD0000000000200D484FF0B4
:103EF000000CF0B5006848270B4A842600F5916055
:103F0000094B00F5004008494832084C8433A0F8BA
:103F100000C04FF40D7547808680C580083080E86A
:103F20001E00F0BD0000002000AC004034AE004098
:103F300029480021F0B503680124284A092603F521
:103F400000404FF0060C4FF46415102780F8A015C0
:103F5000C0F8A42503F5BE6280F8A81502F500425A
:103F600080F8A91503F5C86380F8AA1503F5004386
:103F7000C0F8AC1580F8B01580F8B11580F8B245DE
:103F800080F8B34580F8B46500F5B460C0E9091560
:103F9000134811705060A005117251729172D76070
:103FA0004FF45817117451749474D47482F814C077
:103FB000C2E909070B4819705860F020197259724C
:103FC0009972D8608004197459749C74DC741E75DD
:103FD000C3E90905F0BD000000000020390C000015
:103FE00095090000DD0A00002DE9F041704D002622
:103FF00028688674C6740675467606764675867594
:10400000C675FFF721F82A680124002140F26110EB
:10401000484302EB001090F82F3080F83D6080F8A4
:104020003E600BB180F83D4090F82D300BB180F828
:104030003D4090F83A30012B01D180F83E4090F895
:104040003C30012B01D180F83E4090F83730012BF5
:1040500001D180F83E4090F83830012B01D180F832
:104060003E4090F83930012B01D180F83E4090F865
:104070003B30012B01D180F83E4090F83F30012BBE
:1040800000D1547690F83D30012B00D1147690F891
:104090003E00012800D15475491C0629B6DBD5F82D
:1040A0000000002101EB810300EB031202F5004246
:1040B00092F88026012A00D18475491C1229F1DB6F
:1040C0005FF0000101EB810300EB031202F50042F7
:1040D00092F89025012A00D18475491C0329F1DB4F
:1040E00034490A680021D20600D40121427D0174BE
:1040F000012A0FD0817D01290CD0C17D012909D071
:1041000000F0EEFD2868027E012A0CD0017C012916
:1041100009D009E027498474091D0A6822F00802C1
:104120000A604474EEE7C474417E012900D104752D
:10413000467C017C847CC37C41EA4601457D867DCA
:1041400041EA8401C77D41EAC30141EA0511C489FE
:1041500041EA461141EA871141EAC21181810C43CB
:10416000C481002240F261115143521C062A00EB27
:10417000011191F8384091F8373091F8395091F8A1
:104180003A6043EA440391F83B7091F83CC043EA3B
:10419000850343EAC6038C8E43EA071343EA4C13B4
:1041A0004B8644EA03048C86DCDBBDE8F08100002A
:1041B00000000020100C02583548012210B50021E3
:1041C000D0F8003040F26110484303EB001090ED4E
:1041D0001E0B90ED361BB4EEC10BF1EE10FA06D3B8
:1041E00090ED381BB4EEC10BF1EE10FA01DD80F852
:1041F0003A2090ED180B90ED2A1BB4EEC10BF1EEB6
:1042000010FA06D390ED2C1BB4EEC10BF1EE10FAB0
:1042100001DD80F8372090ED1A0B90ED2E1BB4EEE7
:10422000C10BF1EE10FA06D390ED301BB4EEC10BCA
:10423000F1EE10FA01DD80F8382090ED1C0B90EDC6
:10424000321BB4EEC10BF1EE10FA06D390ED341B25
:10425000B4EEC10BF1EE10FA01DD80F8392000F563
:10426000406490ED3E1B94EDDC0BB4EEC10BF1EE1F
:1042700010FA06D390ED401BB4EEC10BF1EE10FA2C
:1042800001DD80F83B20491C06299BDB10BD0000A6
:104290000000002010B500F043F800F005F8BDE87C
:1042A0001040FFF7A1BE00001C4B002010B50246D5
:1042B000D3F8004040F261115143521C062A04EB2E
:1042C000011181F83D0081F83E0081F83A0081F843
:1042D0003C0081F8370081F8380081F8390081F816
:1042E0003B00E7DB1A68002101EB8104491C02EB6B
:1042F000041404F50044122984F88006F4DBD3F892
:104300000020002101EB8103491C02EB031303F59C
:104310000043032983F89005F4DB10BD0000002062
:104320000E49002210B59FED0B0B1046D1F800305E
:1043300040F261114143401C062803EB011101F5D5
:10434000406481F82F2001F82D2F84EDDC0BEFDB8A
:1043500010BD000000000000000000000000002070
:1043600010B5FFF7DDFFFFF79FFF09480022016846
:104370001046CA8140F261134343401C062801EBFA
:1043800003139A86F6DBBDE81040FFF72DBE000050
:10439000000000202DE9F04F334820210668012558
:1043A00040F2DF192C4646F001062B460A4606600D
:1043B00003274FF0A90AAC464FEA0506D0F8008063
:1043C0005FEA4878FAD51B06DFF89C8043EA04438D
:1043D000DFF898B034060E0144EA074443EA452169
:1043E000214D44EA4C23DFF880C046EA02371E4ADA
:1043F0000CF1280C383248241835CCF8007041EA0A
:10440000090143EA0A0308F130084FF488664FF0C7
:10441000400C2F1DC8F8001007F1040813602C6031
:104420003E60C8F800C0DBF8002042F03702CBF84D
:104430000020016841F08071016001688901FCD5AC
:10444000016841F08061016001680901FCD50648FE
:104450001030016841F0030101600168C1F3C2013D
:104460000329FAD1BDE8F08F004402580020005221
:1044700070B52B4C2B4D206820F00100206068693E
:1044800020F002006861206820F480402060FFF77F
:10449000ABFD00F04BF8244E30684079052808D079
:1044A00001280DD0042812D002281BD0032820D0C8
:1044B00025E0206840F48040206000F00DF91EE007
:1044C000206840F00100206000F0A2F917E02068A9
:1044D00040F001002060686940F00200686100F06F
:1044E00085FB0CE0686940F00200686100F03AF971
:1044F00005E0686940F00200686100F07DFAFFF7AE
:104500005BFEFFF771FD00F039FE3068012100F518
:10451000004080F8A015BDE87040FFF735BA0000F4
:104520001404025800100258000000202DE9F04148
:10453000404D01242DED028B2868817C012937D064
:10454000C17C012934D0002180F8061000F078F8F1
:1045500000F00EFF29680523887901282AD0CA793E
:104560002846012A29D00A7A04259FED338B012A97
:1045700026D04A7A0226012A3DD08A7A0327012AC8
:1045800055D00A79052A16D0012A17D0042A18D046
:10459000022A31D0032A07D149790446032901D0E0
:1045A00001F014FD20684771BDEC028BBDE8F0817D
:1045B0008471CBE70B714B71F6E70C714C71F3E72B
:1045C0000D7104464979042912D001F0FFFCD4F89A
:1045D0000020002140F261104843491C062902EBEB
:1045E000001080ED188B80ED1A8B80ED1C8BF1DBB9
:1045F00020684571D8E70E7104464979022913D025
:1046000001F0E4FC2268002040F261114143401CAB
:10461000062802EB011191ED200B81ED1A8B81ED43
:104620001C8B81ED180BEFDB20684671BCE70F7126
:10463000B2E70000000000200000000000000000C1
:10464000244830B50068017F19B9817E21F001014D
:104650008176417F19B9817E21F002018176817FC7
:1046600019B9817E21F00401817601225FF00001F9
:1046700040F261134B4300EB031393F82940012CE4
:1046800015D193F82C40022C01D0032C02D193F8C1
:104690003F503DB1012C0AD04CB193F83F30012B73
:1046A00005D009E0C37E02FA01F4A34303E0C37E10
:1046B00002FA01F42343C376491CC9B20629D7D3B1
:1046C000817E09B9C17E09B1C27130BD0021C171BD
:1046D00030BD00000000002070B500F08FFE01F03A
:1046E00075FC1F4D002128680172807C01281BD1B8
:1046F0000024204600F05EFA641CE4B2062CF8D3D5
:104700005FF00004286804EB840100EB011000F561
:10471000004090F88006012802D1204601F0E4FA1A
:10472000641CE4B2062CEDD32868C07C012812D1A9
:104730005FF0000440F261102968604301EB001053
:1047400090F83D000128204606D000F033FA641CA2
:10475000E4B2062CEED370BD00F012FAF7E70000C9
:104760000000002010B50024204600F0F5F9641C7C
:10477000E4B2062CF8D3224800218278012A02D024
:10478000052A17D01BE0B0F838314381B0F83A0160
:104790001C4A4343C2F8BC3802F6C800C2F8C0182D
:1047A00000F060FE184800F05DFE1748903000F001
:1047B00059FE04E00278022A1FD04170817000F097
:1047C0005DF901F091FE01F0FFF9104900200A683F
:1047D00040F261114143401C062802EB011101F532
:1047E000A05301F5406493ED7C0B94EDD21B30EEA9
:1047F000010B81ED1E0BEBDB10BD0121DEE700009C
:10480000000000240090062458990624000000208F
:104810002DE9F0412DED028B00F0F0FD01F0D6FB0B
:10482000724C002621680E729FED718B4FEA0600D4
:1048300040F261124243401C062801EB021282ED55
:104840001E8BF5DB0125002740F2611021687843BB
:1048500001EB001090F82C2080F82B2090F82920F4
:1048600080F82820012A0ED090F82C20012A03D0AD
:10487000384600F085F90DE001F5004180F8285038
:1048800081F8405606E090F82C00022802D0384605
:1048900000F090F97F1CFFB2062FD5D3D4F800208A
:1048A0000121002040F26113434302EB031393F80C
:1048B0002970012F00D0002193F82C70022F02D014
:1048C000032F00D0002193F83630012B00D00021B7
:1048D000401CC0B20628E5D3E1B3002140F26110CC
:1048E000484302EB001000F5805393F8F875A7B920
:1048F00090F83F70012F10D190ED200B00F5A050E3
:10490000B5EEC00BF1EE10FA90ED820B01DDB1EEC9
:10491000400B80ED840B83F8F855491CC9B2062979
:10492000DCD300F06BFD002540F261102168684384
:1049300001EB001000F5805090F8F805012802D135
:10494000284600F009F96D1CEDB2062DECD3226863
:10495000002000E02DE040F261114143401C062898
:1049600002EB011191ED200B01F5406181EDCC0BC3
:1049700081EDCE8B81EDD08BEBDB01F0B5FD01F04D
:10498000D7F8D4F80020002040F261114143401CC8
:10499000C0B202EB011101F5406501F5A05395EDA0
:1049A000D21B93ED860B062831EE000B81ED1E0B1A
:1049B000EAD3002540F261102168684301EB001042
:1049C00090F83F1051B990F82C10022906D000F54C
:1049D000805080F8F865284600F0ECF86D1CEDB2C8
:1049E000062DE7D3BDEC028BBDE8F081000000206E
:1049F000000000000000000010B50024204600F078
:104A0000ABF8641CE4B2062CF8D31948D0E90021B5
:104A1000491C4160914203D316490420487010BDDF
:104A200000F034FD00F058F801F05EFD01F0CCF824
:104A300000F06EFF10490020D1F8002040F2611113
:104A40004143401C062802EB011101F5A05301F57A
:104A5000406493ED7C1B94EDD22B91ED4A0B31EE2B
:104A6000021B31EE000B81ED1E0BE7DB10BD0000D9
:104A7000BC9806240000002400000020134A0020F7
:104A80009FED130BD2F8003040F261114143401CFE
:104A9000062803EB011191ED201B01F5406181ED2A
:104AA000CC1B81EDCE0B81EDD00BEDDB126800202D
:104AB00040F261114143401C062802EB011181EDD7
:104AC0001A0B81ED1C0BF3DB704700000000002087
:104AD000000000000000000030B51D4C00201D4902
:104AE000D4F8005040F2611201EBC003424303F5D9
:104AF000D323401C05EB0212062892ED200B02F591
:104B0000406282EDCC0B93ED620B82EDCE0B93ED08
:104B10006E0B82EDD00BE5DB2468002040F26113C0
:104B200001EBC002434302F5D322401C92ED560B29
:104B300004EB0313062883ED180B92ED620B83ED53
:104B40001A0B92ED6E0B83ED1C0BE7DB30BD000002
:104B50000000002000000024084940F261130322F5
:104B600010FB03F30868012100EB031300F500407C
:104B700083F82B2080F8F01570470000000000201B
:104B8000094940F261129FED090B10FB02F301226B
:104B9000086800EB031100F5004081F82B2081ED3F
:104BA000160B80F8F0257047000000200000000080
:104BB000000000000A4940F2611310B510FB03F435
:104BC0009FED080B08680222012300EB041100F599
:104BD000004081F82B2081ED160B80F8F03510BDD8
:104BE00000000020000000000000000010B500F0F0
:104BF00005FC00242046FFF7AFFF641CE4B2062C3E
:104C0000F8D3154C00209FED150B226840F261117E
:104C10004143401C062802EB011191ED201B01F5D8
:104C2000406181EDCC1B81EDCE0B81EDD00BEDDB36
:104C300001F05AFC2268002040F261114143401CFF
:104C4000062802EB011101F5406393EDD20B81EDD3
:104C50001E0BF1DB10BD0000000000200000000072
:104C60000000000030B51D4C002101220B462068D9
:104C70004171C172827702774277C5185B1C062B9F
:104C8000EA77FADB2068037F012B03D1837E43F0B0
:104C900001038376437F012B03D1837E43F002031C
:104CA0008376837F012B03D1837E43F004038376D5
:104CB0000023C418E47F012C04D1C47E02FA03F55A
:104CC0002C43C4765B1CDBB2062BF2D38174C17417
:104CD000017641758175C17530BD0000000000206E
:104CE00004480021026842F008020260024800689D
:104CF00041747047140C02580000002010B52DEDCF
:104D00000A8B9FEDD75B9FEDD88BB0EE484BB0EE92
:104D1000483B9FEDD72BD84C48F61840B0EE481BC7
:104D2000B0EE480B2168084400F052FAB0EE485B40
:104D30009FEDD2ABB0EE483BB0EE4A4B9FEDD1BBFE
:104D4000B0EE481BB0EE4B2B9FEDD0CB206848F661
:104D50004841B0EE4C0B084400F03AFAB0EE485B24
:104D60009FEDCC9BB0EE483BB0EE482BB0EE494BEC
:104D7000B0EE481B9FEDC90B206848F67841084407
:104D800000F026FAB0EE485BB0EE484BB0EE493B7F
:104D90009FEDC42BB0EE481B9FEDC40B206848F676
:104DA000A841084400F014FAB0EE495B9FEDC14BF6
:104DB000206848F6D841B0EE483BB0EE4C2BB0EE40
:104DC000481BB0EE4B0B084400F002FA206848F68E
:104DD0000851B0EE485BB0EE4A4BB0EE483BB0EE47
:104DE0004C2BB0EE481BB0EE4B0B084400F0F0F932
:104DF000B0EE485BB0EE484BB0EE483B9FEDAF2BBA
:104E0000206848F63851B0EE481BB0EE480B084415
:104E100000F0DEF9B0EE485BB0EE484BB0EE483B38
:104E20009FEDA82B9FEDA91B206848F66851B0EEB6
:104E3000480B084400F0CCF9B0EE4A5BB0EE484BAA
:104E4000B0EE483B9FEDA32BB0EE481B9FEDA39B1C
:104E5000206848F6D051B0EE490B084400F0B8F98C
:104E6000B0EE4A5BB0EE484BB0EE483B9FED9D2B59
:104E7000B0EE481B9FED9D0B206848F63861084452
:104E800000F0A6F9B0EE4A5BB0EE484BB0EE483BFE
:104E90009FED982BB0EE481B9FED980B206848F6CD
:104EA000A061084400F094F9B0EE4A5BB0EE484BC4
:104EB000B0EE483B9FED93BB206848F60871B0EE1A
:104EC000481BB0EE4B2BB0EE490B084400F080F9C4
:104ED000206848F67071B0EE4A5BB0EE484BB0EE19
:104EE000483BB0EE4B2BB0EE481BB0EE490B0844EC
:104EF00000F06EF9206848F6D871B0EE485BB0EE6D
:104F0000484BB0EE483BB0EE482BB0EE481BB0EE3D
:104F1000480B084400F05CF9206848F6A051B7EE51
:104F2000005BB0EE484BB7EE003BB0EE482BB0EE66
:104F3000481BB7EE000B084400F04AF99FED739B45
:104F4000B0EE484BB0EE495B9FED72ABB0EE482B34
:104F5000B0EE481BB0EE4A3B9FED70BB206848F6B0
:104F60000861B0EE4B0B084400F032F99FED6D0B79
:104F7000B0EE484BB0EE405B9FED6C3B206848F6CE
:104F80007061B0EE482BB0EE481B084400F020F9E9
:104F90009FED685BB0EE484B9FED683BB0EE482B51
:104FA000B0EE481B9FED670B206848F6D8610844B7
:104FB00000F00EF9206848F64071B0EE495BB0EEA3
:104FC000484BB0EE4A3BB0EE482BB0EE481BB0EE7B
:104FD0004B0B084400F0FCF8206848F6A871B0EECE
:104FE000495BB0EE484BB0EE4A3BB0EE482BB0EE1A
:104FF000481BB0EE4B0B084400F0EAF89FED535B02
:10500000B0EE484B9FED533BB0EE482BB0EE481B43
:105010009FED520B206849F21001084400F0D8F8C7
:105020009FED500BB6EE081B9FED502BB0EE0B3BE7
:105030009FED504B206800F5104100F50C4080EDCD
:10504000661B80ED800B80ED9A2B80EDB43B80EDEC
:10505000CE0B80EDE80B81ED024BBDEC0A8B10BD51
:10506000E3361AC05B20C9BF00000000000000004A
:1050700054E3A59BC420B03F000000207A008BFCC5
:10508000FA21F93FF2D24D621058A93FFCA9F1D2A2
:105090004D62B03F7A008BFCFA21094021B0726862
:1050A00091EDDCBF4DF38E537424973F21B07268AD
:1050B00091EDDC3F7A008BFCFA21F9BF7FFB3A705F
:1050C000CE88923F809F71E14048363FB37BF2B07B
:1050D000506B8ABF62105839B4C8A63FDBF97E6AAC
:1050E000BC74933FD26F5F07CE19A13F21B07268A5
:1050F00091EDCCBF2575029A081BAE3F742497FF33
:10510000907ED33F6891ED7C3F35AE3F86C613411C
:105110009C87633FD0D6C1C1DEC4603FA35C1ABF89
:10512000F04A623F2AA913D044D8C83FE143899688
:105130003C9E763F4FAF94658863BD3FE7ABE46329
:105140007781723F60764F1E166ABD3FF168E38833
:10515000B5F8143FC9C7EE022505063F5D18E945BD
:10516000ED7E053F5C8FC2F5285CFF3FA4703D0AD1
:10517000D7A31240CBA145B6F3FDB43F1148016857
:10518000C87C08B9887C78B19FED0F0B5FF00000F8
:1051900040F26113421C4343D0B2062801EB0312D4
:1051A00082ED160BF4D3704740F26112431C50435A
:1051B00001EB0012D8B292ED1E0B062882ED160B01
:1051C000F2D3704700000020000000000000000043
:1051D00080EC0C0B7047000010B5FFF7DBF84FF0C8
:1051E000E0203F494161F0213E4A82F8141D002130
:1051F0000722816102613C490A68081F42F060424F
:105200000A600268091D42F0030202600A6836481B
:1052100042F01A020A600C3002683349334B1831ED
:105220001A4302600A68001D42F002020A60026826
:105230002D4942F4807202608C3908682A4A40F095
:1052400000500860083A1168294841F00041116097
:10525000016821F0030101600268264942F0010261
:1052600002600A6822F00C020A600A6842F0040236
:105270000A60016821F040510160016841F08051ED
:105280000160FFF7EFFC00F0B9F800F0E7FE00F076
:105290009BFD00F01BFEFFF731FDFDF7DAFEFDF789
:1052A000A3FF02F077FB1448016821F0C001016000
:1052B000016841F04001016002680F4922F4407228
:1052C00002600C31086840F480700860FFF708FD48
:1052D00000F016F8094901200968487110BD000066
:1052E000FF5207000FE000E0DC440258B80006005F
:1052F0000004025800100258000C02580000002060
:1053000018480022F0B5174905680C31154BEF24F9
:1053100040F2E736243325F0010707601D1D2F1DDD
:105320001A602C603E600B6843F001030B600E4B6B
:105330004FF40001C3F800110C49036843F0010366
:1053400003600868951E094B20F0010008602433B3
:105350001C1D261D1A6022603560086840F001009F
:105360000860F0BD0014004004E000E0000C0040C4
:10537000204A214B104670B54178012490780025D1
:105380001B6898B101284FF0030617D0022813D0EC
:10539000032816D0042825D018B3012825D00228C8
:1053A00023D0042821D005281FD010E001291CD1CA
:1053B000052015E096700AE0012915D00329F9D0DF
:1053C00013E0022909D001290ED0042907D05D720B
:1053D000907803280BD09D7270BD022000E004205D
:1053E000907002E0012900D194705C72F0E79C7229
:1053F00070BD00000000002400000020164910B518
:105400008878002827D000200870487002468870ED
:105410008880C88008814881A1F83A01A1F8380144
:105420008B1801EB4204521C1873642AA4F8700014
:10543000F6D30A49C1F8BC08C1F8C00801F6C80093
:1054400000F010F8064800F00DF80548BDE81040DF
:10545000903000F007B810BD000000240090062432
:10546000589906249FED070B5FF0000100EBC10285
:10547000491C82ED000B82ED0C0B062982ED180B06
:10548000F4D3704700000000000000002DE9F04355
:10549000DFF8C48193B0B8F83A1100297DD008F53F
:1054A000D222D2F8C008D2F8BC38421C9A4274D238
:1054B000B0FBF1F2B0FBF1F301FB120198B28CB238
:1054C00000EBC000242208EB8005684605F59E71BC
:1054D000FDF7C4FD242205F5B07109A8FDF7BEFD56
:1054E000604900209FED5D0B09AAE946D1F80060F4
:1054F00040F2611339F910C008EBC00100FB03F55D
:1055000001EE10CA09EB400306EB0515B8EEC11B0E
:1055100095ED2C2B01F5D32102EB400721EE021B68
:1055200081EE002B81ED322BB3F90CC095ED302BC1
:1055300001EE10CAB8EEC11B21EE021B81EE002B5A
:1055400081ED3E2BB3F9183095ED302B01EE103A7A
:10555000B8EEC11B21EE021B81EE002B81ED4A2B20
:1055600032F91030401C95ED2C2B01EE103A062834
:10557000B8EEC11B21EE021B81EE002B81ED7A2BD0
:10558000B7F90C3095ED302B01EE103AB8EEC11B97
:1055900021EE021B81EE002B00E05AE081ED862B0C
:1055A000B7F9183095ED302B01EE103AB8EEC11B6B
:1055B00021EE021B81EE002B81ED922B98DB002166
:1055C000B8F83A2100EE104A08EBC10000F5D320EC
:1055D000B8EE406B90ED7A2B90ED321BB8EE403B6D
:1055E000B8EE404B32EE410B05EE102A491C06295D
:1055F000B8EE455B80EE057B27EE060B31EE000B27
:1056000080ED560B90ED3E0BB8F83A2132EE401B80
:1056100005EE102AB8EE452B81EE025B25EE031B4A
:1056200030EE010B80ED620B90ED920B90ED4A1B7A
:10563000B8F83A2130EE410B02EE102AB8EE422BB8
:1056400080EE023B23EE040B31EE000B80ED6E0B7F
:10565000B6DB13B0BDE8F0830000002400000000BA
:10566000C0FFDF400000002010B5084C206D800511
:1056700003D5FEF7CDFB60152065206D000304D532
:10568000FEF74CF94FF40020206510BD00A000404B
:105690001948016D890002D54FF000510165016D77
:1056A000C90002D54FF080510165016D090102D595
:1056B0004FF000610165016D490102D54FF0806135
:1056C0000165016D890102D54FF000710165016D21
:1056D000C90102D54FF080710165016D090202D543
:1056E0004FF400010165016D490203D5026C4FF4CE
:1056F000800101657047000000A0004030B59FEDBB
:10570000222B5FF000020446B7EE001B2DED028B4A
:10571000A1B0B0EE408B6846002100EB42138A42F4
:1057200003EBC10502D1B0EE410B01E0B0EE420B3C
:10573000491C042985ED000BF1DB521C042AEBDB2C
:10574000B0EE480BFDF78FFC8DED0A0BB0EE480B69
:10575000FDF78EFCB1EE400B8DED0C0BB0EE480B5F
:10576000FDF786FC8DED120BB0EE480BFDF77BFCD0
:10577000802269468DED140B2046FDF76FFC21B0A9
:10578000BDEC028B30BD00000000000000000000F6
:1057900030B59FED222B5FF000020446B7EE001BF0
:1057A0002DED028BA1B0B0EE408B6846002100EBDE
:1057B00042138A4203EBC10502D1B0EE410B01E076
:1057C000B0EE420B491C042985ED000BF1DB521CA5
:1057D000042AEBDBB0EE480BFDF745FC8DED000B2A
:1057E000B0EE480BFDF744FC8DED040BB0EE480B1A
:1057F000FDF73EFCB1EE400B8DED100BB0EE480B0B
:10580000FDF731FC802269468DED140B2046FDF733
:1058100025FC21B0BDEC028B30BD00000000000073
:105820000000000030B59FED222B5FF0000204461F
:10583000B7EE001B2DED028BA1B0B0EE408B684699
:10584000002100EB42138A4203EBC10502D1B0EE06
:10585000410B01E0B0EE420B491C042985ED000B21
:10586000F1DB521C042AEBDBB0EE480BFDF7FBFB2F
:105870008DED000BB0EE480BFDF7FAFBB1EE400BDF
:105880008DED020BB0EE480BFDF7F2FB8DED080B32
:10589000B0EE480BFDF7E7FB802269468DED0A0B61
:1058A0002046FDF7DBFB21B0BDEC028B30BD0000D4
:1058B000000000000000000030B59FED134BA1B0C8
:1058C00000226C46B7EE003B002104EB42138A42F3
:1058D00003EBC10502D1B0EE435B01E0B0EE445BE7
:1058E000491C042985ED005BF1DB521C042AEBDB2B
:1058F0008DED060B8DED0E1B802221468DED162BB6
:10590000FDF7ACFB21B030BD00000000000000003E
:1059100005480068C07A18B1012803D100F040B8EA
:1059200000F004B870470000000000201B48002170
:10593000B7EE003BD0F8003040F26110B0EE431BF0
:10594000484303EB001292ED1A0BB5EEC00BF1EEDB
:1059500010FA01D2BFEE001B02F54060491C90ED29
:10596000C42B90EDC64B90EDC86B22EE012B26EEBA
:10597000011B90EDCA5BC9B2062904EE002B21EE93
:10598000001B25EE004B01EE002B24EE004B04EE35
:10599000002B82ED4A2BCFD370470000000000207F
:1059A0002DE9F04361480123002421462DED068BAB
:1059B000D0F8002040F26110484302EB001090ED57
:1059C000220B90ED4C1B80F83C40B4EEC10BF1EE85
:1059D00010FA57D390ED4E1BB4EEC10BF1EE10FA56
:1059E00050DC90ED281B90ED502BB4EEC21BF1EE75
:1059F00010FA47D390ED522BB4EEC21BF1EE10FA21
:105A000040DC4FF0140C5FF000066546E146E046CE
:105A100000EBC60797ED542BB4EEC02BF1EE10FA55
:105A200009D297ED562BB4EEC02BF1EE10FA02DD41
:105A3000751CB44602E0761C132EE9DB5FF000060D
:105A400000EBC60797ED7C2BB4EEC12BF1EE10FAFC
:105A50000AD297ED7E2BB4EEC12BF1EE10FA03DDE6
:105A600006F10108B14602E0761C132EE8DBBCF11A
:105A7000140F07DA142D05DAB9F1140F02DAB8F1B0
:105A8000140F0ADB40F26110414302EB011080F871
:105A90003C30BDEC068BBDE8F08300EBCC060CEB94
:105AA0008C0705EB850C00EBC50596ED544B95ED89
:105AB000546B00EB471707EBC90536EE446B00EB60
:105AC0004C1C0CEBC80607EBC80795EDA43B97ED03
:105AD000A45B96EDA42B30EE440B35EE437BB0EE89
:105AE000C66B32EE429B00EBC90500EBC80695ED94
:105AF0007C5B96ED7C8B491C31EE451B87EE06AB3B
:105B0000062989EE064B0AEE003B38EE456B04EEA3
:105B1000002BB0EEC64B32EE432B82EE040B00EEB0
:105B2000013B80ED4A3BFFF645AFB2E700000020A5
:105B300022480021D0F8002040F2611041F2F853D1
:105B4000484302EB00101B5C012B08D000F5A0506D
:105B50009FED1B0B80ED840B80ED880B27E000F59B
:105B6000A05090ED840B90ED861B90ED8A2B30EECB
:105B7000410BB1EE423B80ED880BB4EEC30BF1EE6E
:105B800010FA07D290ED8C3B90ED804B03EE441B56
:105B900080ED861BB4EEC20BF1EE10FA09DD90ED3C
:105BA000860B90ED8C1B90ED802B01EE020B80EDAF
:105BB000860B491C0629BFDB70470000000000204F
:105BC000000000000000000070B54248C8249FEDAE
:105BD000424B0022D0F8003040F26110504303EBFA
:105BE000001101F5406091ED180B91ED201B30EE96
:105BF000410B80EDDC0BD1F8885F01EBC50505F5A5
:105C0000406585EDE40BD1F8885F6D1CB5FBF4F6BB
:105C100004FB1655C1F8885F5FF0000590EDDE0BC0
:105C200080EDE00B80EDDE4B01EBC50606F540662E
:105C300090EDDE2B96EDE41B6D1CC82D31EE021BA2
:105C400080EDDE1BF0D390EDDE2B9FED253B01F5C3
:105C5000A05182EE031B80EDDE1B31EE400B90ED78
:105C6000DA3B80EE031B81ED741B90EDDC2B91ED94
:105C7000760B02EE030B81ED760B91ED783BB4EEE3
:105C8000C30BF1EE10FA02D391ED763B01E081ED0A
:105C9000763B91ED7A0BB4EEC03BF1EE10FA01DDEC
:105CA00081ED760B90EDD46B90EDD60B91ED765B9C
:105CB00026EE022B20EE050B90EDD83B521C062A57
:105CC00023EE011B32EE000B30EE010B81ED7C0B5D
:105CD00082DB70BD0000002000000000000000001A
:105CE00000000000000069400A4940F261139FED86
:105CF0000A0B10FB03F00022096801EB001080F88A
:105D00002C2080ED200B80ED220B80ED260B80ED0A
:105D1000280B704700000020000000000000000079
:105D20002848002110B5036840F261104843002262
:105D300003EB001090ED541B90ED7C0B80ED4C1BA1
:105D400080ED4E1B80ED500B80ED520B00EBC2043A
:105D500090ED4C1B94ED540BB4EEC10BF1EE10FA28
:105D600001D280ED4C0B94ED540B90ED4E1BB4EE34
:105D7000C10BF1EE10FA01DD80ED4E0B521C142A1E
:105D8000E4DB002290ED501B00EBC20494ED7C0B91
:105D9000B4EEC10BF1EE10FA01D280ED500B94ED90
:105DA0007C0B90ED521BB4EEC10BF1EE10FA01DD4D
:105DB00080ED520B521C142AE4DB491C0629B3DB8C
:105DC00010BD000000000020124830B40268D07AF4
:105DD00020B101281CD130BC00F022B89FED0E1B71
:105DE0005FF0000040F2611100FB01F30021B0EE12
:105DF000410B02EB031300BF03EBC10404F5406445
:105E0000491C042984EDC40BF6DB401C0628E9DBA1
:105E100030BC7047000000200000000000000000BF
:105E2000F0B587B0274918226846FDF717F92648CC
:105E30006C46D0F800E0002040F26113002143439B
:105E40000A460EEB031500BF54F8203005EBC206DE
:105E5000521C03EBC103491C93ED000B142A86ED81
:105E6000540BF1DB5FF0000254F8203003EBC10368
:105E700005EBC20693ED000B491C521C142A86ED5B
:105E80007C0BF1DB5FF00003002203EB830605EBE4
:105E9000461600BF54F8207006EBC20C521C07EBEC
:105EA000C107491C97ED000B142A8CEDA40BF1DB04
:105EB0005B1C142BE8DB401C0628BDDBFFF730FF22
:105EC00007B0F0BDE0AB00000000002030B538485E
:105ED0009FED386B9FED391BB3EE045BB2EE044BC4
:105EE0002DED068BBAEE048BB3EE097BBBEE099B5E
:105EF00000689FED342B00F5406300F5A05183ED61
:105F0000D46B83EDD61B83EDD85B81ED788B81ED6F
:105F10007A4B00F5105400F5205284ED586B84ED57
:105F20005A1B84ED5C7B82EDFC9B82EDFE7B00F5D1
:105F3000605500F5804385EDDC2B85EDDE1B85ED9E
:105F4000E05BBBEE04AB83ED80AB83ED825B00F5E1
:105F5000A041B2EE0E0B81ED602B81ED621B00F5CE
:105F6000B044BAEE0E3B81ED640B84ED043B00F5CA
:105F7000C84284ED060B82EDE42B82EDE61B00F5B2
:105F8000D84582EDE84B85ED883B00F5F84385ED7B
:105F90008A0B83ED682B83ED6A1B00F5044083EDCB
:105FA0006C4B80ED0C3B80ED0E0BBDEC068B30BDD9
:105FB000000000200000000000407A4000000000C7
:105FC000000064400000000000C07740204830B569
:105FD0000024D0F8003022469FED1E1B40F26110D5
:105FE0005043B0EE410B03EB001101F5406081ED31
:105FF000100B81ED120B81ED140B81ED160B81ED71
:106000004A0B80EDCC0B80EDCE0B80EDD00B80EDFC
:10601000D20B80EDDC0B80EDDE0B80EDE00B002081
:10602000C1F8884F01EBC00505F54065401CC82844
:1060300085EDE40BF6D301F5A051521C81ED740BF4
:1060400081ED760B062A81ED7C0BC7DB30BD0000AD
:10605000000000200000000000000000F0B54F48E4
:106060000124072500212DED108B9FED4D4B9FED59
:106070004E3B9FED4F5B9FED501B9FED516B9FED96
:10608000522B9FED537B9FED548B9FED559B9FEDC6
:1060900056AB9FED57BBD0F800300A4640F2611076
:1060A00048439FED550B9FED56DB9FED57CB03EB20
:1060B000001000F5406600F1F00780F8362080F807
:1060C000292080F8284080F82A5080ED100B80EDC0
:1060D000120B80ED140B80ED160B80ED2A4B80ED3A
:1060E0002C3B80ED2E5B80ED301B80ED326B80ED24
:1060F000342B80ED367B80ED388B80ED3A0B80EDD4
:10610000423B80ED441B80ED462B80ED48CB80ED7B
:106110004A0B86EDCC0B86EDCE0B86EDD00B86EDD3
:10612000D20B86EDDADB86EDDC0B86EDDE0B87EC41
:10613000069B86EDE00B0026C0F8882F00EBC60713
:1061400007F54067761CC82E87EDE40BF6D300F503
:10615000805600F5A050B1EE04CB80ED740B80EDBD
:10616000760B80ED7C0B86F8F825491C80ED82CB00
:1061700080ED80DB80ED860B9FED25EB80ED840BC1
:1061800080ED880BB7EE00FB80ED8AEB062980EDF1
:106190008CFB83DBBDEC108BF0BD00000000002009
:1061A0007A008BFCFA2109C07A008BFCFA210940A5
:1061B000FCDEA63FFB2119C0FCDEA63FFB211940F7
:1061C000FCDEA63FFB2129C0FCDEA63FFB212940C7
:1061D00000000000008076C00000000000807640D3
:1061E0000000000000E06F400AD7A3703D0AB7BF6F
:1061F0000AD7A3703D0AB73F00000000000000006E
:10620000FCA9F1D24D62503F000000000000704038
:106210009A9999999999C93F30B59FED111B93B0FF
:1062200000226C46B7EE000B02EB4203002104EBA8
:10623000C3038A4203EBC10502D1B0EE402B01E05B
:10624000B0EE412B491C032985ED002BF1DB521CDC
:10625000032AE9DB48222146FCF700FF13B030BDDA
:1062600000000000000000000FB40022F0B593B061
:106270001AAC6B4602EB4205002104EBC50500BFDA
:1062800001EB410605EBC10703EBC60697ED000BDA
:1062900006EBC206491C032986ED000BF0DB521CFD
:1062A000032AE7DB48221946FCF7D8FE13B0F0BCFE
:1062B0005DF814FB0FB49FED1F0B00222DE9F04792
:1062C00092B082460DF17009E8462EAC02EB420016
:1062D000002109EBC00508EBC00600BF06EBC103B7
:1062E000B0EE401B5FF0000083ED001B00EB400CA4
:1062F00005EBC00704EBCC0C0CEBC10C97ED002BAD
:106300009CED003B401C032802EE031B83ED001BA9
:10631000ECDB491C0329E1DB521C032AD6DB4822B3
:1063200041465046FCF79AFE12B0BDE8F0075DF812
:1063300014FB000000000000000000000FB45FF03C
:1063400000012DED060BF0B587B09FED140B12AEDA
:106350006D460CAC05EBC10201EB4103002082ED60
:10636000000B06EBC30300BF03EBC00C04EBC0073C
:106370009CED002B92ED001B97ED003B401C032889
:1063800002EE031B82ED001BEEDB491C0329E1DB5F
:106390009DEC060B07B0F0BC5DF82CFB0000000084
:1063A0000000000030B59FED101BA1B000226C462C
:1063B000B7EE000B002104EB42138A4203EBC10548
:1063C00002D1B0EE402B01E0B0EE412B491C042974
:1063D00085ED002BF1DB521C042AEBDB80222146E9
:1063E000FCF73CFE21B030BD0000000000000000C2
:1063F0000FB40022F0B593B01AAC6D4602EB420127
:1064000004EB421305EBC1065FF0000103EBC10C86
:1064100006EBC1079CED000B491C032987ED000B1F
:10642000F4DB521C032AE9DB48222946FCF716FE5E
:1064300013B0F0BC5DF814FB0FB4002010B586B0AB
:1064400008AA694602EB401301EBC00493ED060B6A
:10645000401C032884ED000BF4DB9DEC060B06B01A
:1064600010BC5DF814FB00000FB49FED1D0B002263
:106470002DE9F047A0B082460DF1A809E8464AACE4
:106480005FF0000109EB421508EB421606EBC10371
:10649000B0EE401B5FF0000083ED001B04EB401CDE
:1064A00005EBC0070CEBC10C97ED002B9CED003BFE
:1064B000401C042802EE031B83ED001BEEDB491C8D
:1064C0000429E3DB521C042ADADB802241465046D1
:1064D000FCF7C4FD20B0BDE8F0075DF814FB000038
:1064E00000000000000000002DE9F04F2DED0C8BA6
:1064F000ADF6041DFE4B00200DF5F9640DF5F368B3
:10650000D3F8002040F2611104EBC006414308EBD0
:10651000C0070DF5FF6502EB011101F5406105EBC8
:10652000C00C91EDCC0B401C86ED000B91EDCE0B19
:10653000062887ED000B91EDD00B8CED000BE1DB15
:10654000EC4F00250DF5147807F5607604EBC500D7
:1065500090ED000BD4A8FFF765F907EBC51080227A
:1065600090ED000BD4A98DED920B90ED020B8DED0B
:10657000940B90ED040B8DED960B90ED060B8DEDCD
:10658000980B90ED080B8DED9A0B90ED0A0B8DEDAD
:106590009C0B90ED0C0B8DED9E0B90ED0E0B8DED8D
:1065A000A00B90ED100B8DEDA20B90ED120B8DED6D
:1065B000A40B90ED140B8DEDA60B90ED160B8DED4D
:1065C000A80B90ED180B8DEDAA0B90ED1A0B8DED2D
:1065D000AC0B90ED1C0B8DEDAE0B90ED1E0B1EA8C1
:1065E0008DEDB00BFCF73AFD782241466846FCF78A
:1065F00035FDDDE99223B2A8FFF736FF9DEDB20B22
:1066000006EBC5106D1C80ED000B9DEDB40B062D47
:1066100080ED020B9DEDB60B80ED040B9DEDB80BEC
:1066200080ED060B9DEDBA0B80ED080B9DEDBC0BCC
:1066300080ED0A0B9DEDBE0B80ED0C0B9DEDC00BAC
:1066400080ED0E0B9DEDC20B80ED100B9DEDC40B8C
:1066500080ED120B9DEDC60B80ED140B9DEDC80B6C
:1066600080ED160B9DEDCA0B80ED180B9DEDCC0B4C
:1066700080ED1A0B9DEDCE0B80ED1C0B9DEDD00B2C
:1066800080ED1E0BFFF662AF97EDC00B9A4C002514
:1066900086EDC00B97EDC20B86EDC20B97EDC40BD8
:1066A00086EDC40B97EDC60B86EDC60B97EDC80BB8
:1066B00086EDC80B97EDCA0B86EDCA0B97EDCC0B98
:1066C00086EDCC0B97EDCE0B86EDCE0B97EDD00B78
:1066D00086EDD00B97EDD20B86EDD20B97EDD40B58
:1066E00086EDD40B97EDD60B86EDD60B97EDD80B38
:1066F00086EDD80B97EDDA0B86EDDA0B97EDDC0B18
:1067000086EDDC0B97EDDE0B0DF5147786EDDE0BD9
:1067100006EBC5103946782290ED000B8DED920BFB
:1067200090ED020B8DED940B90ED040B8DED960B1F
:1067300090ED060B8DED980B90ED080B8DED9A0BFF
:1067400090ED0A0B8DED9C0B90ED0C0B8DED9E0BDF
:1067500090ED0E0B8DEDA00B90ED100B8DEDA20BBF
:1067600090ED120B8DEDA40B90ED140B8DEDA60B9F
:1067700090ED160B8DEDA80B90ED180B8DEDAA0B7F
:1067800090ED1A0B8DEDAC0B90ED1C0B8DEDAE0B5F
:1067900090ED1E0B68468DEDB00BFCF75FFCDDE95C
:1067A000922322A8FFF724FE05EBC5009DED220BE6
:1067B00004EBC0006D1C80ED000B9DED240B072D3C
:1067C00080ED020B9DED260B80ED040B9DED280B5B
:1067D00080ED060B9DED2A0B80ED080B9DED2C0B3B
:1067E00080ED0A0B9DED2E0B80ED0C0B9DED300B1B
:1067F00080ED0E0B9DED320B80ED100B88DB3F4ED4
:1068000000251CA8FFF708FD05EBC5009DED1C0B3E
:1068100006EBC0006D1C80ED000B9DED1E0B072DDF
:1068200080ED020B9DED200B80ED040B9DED220B06
:1068300080ED060B9DED240B80ED080B9DED260BE6
:1068400080ED0A0B9DED280B80ED0C0B9DED2A0BC6
:1068500080ED0E0B9DED2C0B80ED100BD1DB002598
:10686000A0460DF514792F4605EBC50007EBC702CE
:1068700006EBC00408EBC20094ED000B8DED920B0B
:1068800094ED020B8DED940B94ED040B8DED960BB6
:1068900094ED060B8DED980B94ED080B8DED9A0B96
:1068A00094ED0A0B8DED9C0B94ED0C0B8DED9E0B76
:1068B00094ED0E0B8DEDA00B94ED100B8DEDA20B56
:1068C00090ED000B8DEDA40B90ED020B8DEDA60B62
:1068D00090ED040B8DEDA80B90ED060B8DEDAA0B42
:1068E00090ED080B8DEDAC0B90ED0A0B08E000006D
:1068F00000000020D095002050A0002040A40020DF
:106900008DEDAE0B90ED0C0B48228DEDB00B90EDA4
:106910000E0BA4A98DEDB20B90ED100B10A88DED10
:10692000B40BFCF79BFB402249466846FCF796FBFC
:10693000DDE9922322A8FFF7BDFC9DED220B7F1C11
:1069400084ED000B9DED240B84ED020B9DED260BD9
:1069500084ED040B9DED280B84ED060B9DED2A0BB9
:1069600084ED080B9DED2C0B84ED0A0B9DED2E0B99
:1069700084ED0C0B9DED300B84ED0E0B9DED320B79
:1069800084ED100BAF427FF76FAF6D1C4FF0000727
:10699000072DF7DB94A83C90A6A83B90B8A83A90A6
:1069A000CAA83990DFF804B412A838900DF5C96967
:1069B00026A83790FE4807EBC706482200EBC6041E
:1069C000A0F5FC7094ED000B00EBC6008DED920B72
:1069D00094ED020BA4A98DED940B94ED040B8DEDB9
:1069E000960B94ED060B8DED980B94ED080B8DED49
:1069F0009A0B94ED0A0B8DED9C0B94ED0C0B8DED29
:106A00009E0B94ED0E0B8DEDA00B94ED100B8DED08
:106A1000A20B90ED000B8DEDA40B90ED020B8DED14
:106A2000A60B90ED040B8DEDA80B90ED060B8DEDF4
:106A3000AA0B90ED080B8DEDAC0B90ED0A0B8DEDD4
:106A4000AE0B90ED0C0B8DEDB00B90ED0E0B8DEDB4
:106A5000B20B90ED100B10A88DEDB40BFCF7FEFA05
:106A60003C9940226846FCF7F9FADDE9922322A816
:106A7000FFF720FCCF4840229DED220B00EBC6051E
:106A8000A0F5BD6085ED000B9DED240B00EBC6006D
:106A900085ED020B9DED260B85ED040B9DED280B7E
:106AA00085ED060B9DED2A0B85ED080B9DED2C0B5E
:106AB00085ED0A0B9DED2E0B85ED0C0B9DED300B3E
:106AC00085ED0E0B9DED320B85ED100B90ED000B5F
:106AD0008DEDA40B90ED020B8DEDA60B90ED040B4C
:106AE0008DEDA80B90ED060B8DEDAA0B90ED080B2C
:106AF0008DEDAC0B90ED0A0B8DEDAE0B90ED0C0B0C
:106B00008DEDB00B90ED0E0B8DEDB20B90ED100BEB
:106B100068468DEDB40B3B99FCF7A0FADDE9A423A0
:106B200092A8FFF7A1FB9DED920B0BEBC600402254
:106B300080ED000B9DED940B80ED020B9DED960B0F
