:020000040800F2
:1000000078B60120950300089D0300089F030008AF
:10001000A1030008A3030008A503000800000000D6
:10002000000000000000000000000000A70300081E
:10003000A903000800000000AB030008E94100002C
:10004000AF030008AF030008AF030008AF030008C8
:10005000AF030008AF030008AF030008AF030008B8
:10006000AF030008AF030008AF0300083505000820
:1000700051050008AF030008AF030008AF030008F4
:10008000AF030008AF030008AF0300088526000097
:10009000AF030008AD260000AF030008AF0300085F
:1000A000AF030008AF030008AF030008AF03000868
:1000B000AF030008AF030008AF030008AF03000858
:1000C000AF030008AF030008AF030008AF03000848
:1000D000AF030008AF030008E5140008AF030008F1
:1000E000AF030008AF03000800000000AF030008E2
:1000F000AF030008AF030008AF030008AF03000818
:10010000AF030008AF030008BD140008AF030008E8
:10011000AF030008AF030008AF030008F548000074
:10012000AF030008AF030008AF030008AF030008E7
:10013000AF030008AF030008AF030008AF030008D7
:10014000AF030008AF03000800000000000000003B
:10015000AF030008AF030008AF030008AF030008B7
:10016000AF030008AF030008AF030008AF030008A7
:10017000AF030008AF030008AF0300080000000051
:10018000AF030008AF030008AF030008AF03000887
:10019000AF030008AF030008AF030008AF03000877
:1001A000AF030008AF030008AF030008AF03000867
:1001B000AF030008AF030008AF030008AF03000857
:1001C000AF030008AF030008AF030008AF03000847
:1001D000AF030008AF030008AF030008AF03000837
:1001E000AF030008AF030008AF030008AF03000827
:1001F000AF030008AF030008AF030008AF03000817
:10020000AF030008AF030008AF030008AF03000806
:10021000AF030008AF030008AF030008AF030008F6
:10022000AF030008AF030008AF03000800000000A0
:10023000AF030008AF030008AF030008AF030008D6
:10024000AF030008AF030008AF030008AF030008C6
:10025000AF030008AF030008AF030008AF030008B6
:10026000AF030008AF030008AF030008AF030008A6
:10027000AF030008AF030008AF030008AF03000896
:10028000AF030008AF030008AF0300080000000040
:10029000AF030008AF03000800F002F800F06AF8AE
:1002A0000AA090E8000C82448344AAF10107DA45D1
:1002B00001D100F05FF8AFF2090EBAE80F0013F0B9
:1002C000010F18BFFB1A43F0010318476C28000008
:1002D000CC2800000A444FF0000C10F8013B13F04A
:1002E000070408BF10F8014B1D1108BF10F8015B8F
:1002F000641E05D010F8016B641E01F8016BF9D182
:1003000013F0080F1EBF10F8014BAD1C0C1B09D1D8
:100310006D1E58BF01F801CBFAD505E014F8016B4A
:1003200001F8016B6D1EF9D59142D6D370470000DC
:10033000103A24BF78C878C1FAD8520724BF30C811
:1003400030C144BF04680C607047000000230024E3
:1003500000250026103A28BF78C1FBD8520728BFD5
:1003600030C148BF0B6070471FB502F08DF91FBD4B
:1003700010B510BD00F076F81146FFF7F5FF02F05A
:10038000EFF800F094F803B4FFF7F2FF03BC00F0BD
:1003900097F800000948804709480047FEE7FEE754
:1003A000FEE7FEE7FEE7FEE7FEE7FEE7FEE7FEE725
:1003B00004480549054A064B70470000BD13000874
:1003C0009902000878B7002078B6012078C600208E
:1003D00078C6002010B5203AC0F00B80B1E8185064
:1003E000203AA0E81850B1E81850A0E81850BFF41F
:1003F000F5AF5FEA027C24BFB1E81850A0E81850BE
:1004000044BF18C918C0BDE810405FEA827C24BF11
:1004100051F8043B40F8043B08BF7047D20728BF9F
:1004200031F8023B48BF11F8012B28BF20F8023BEE
:1004300048BF00F8012B704770477047704710B5F0
:1004400000F008F8006810BD10B5044600F002F88E
:10045000046010BD0048704718B70020004870477E
:1004600018B700207546FFF7F9FFAE46050069464C
:10047000534620F00700854618B020B5FFF798FFD7
:10048000BDE820404FF000064FF000074FF0000895
:100490004FF0000B21F00701AC46ACE8C009ACE816
:1004A000C009ACE8C009ACE8C0098D46704710B57A
:1004B0000446AFF300802046BDE81040FFF763BF5D
:1004C00001491820ABBEFEE726000200704742F645
:1004D000995CC0F2000C604741F6817CC0F2000CD0
:1004E000604743F2253CC0F2000C604742F6112CF5
:1004F000C0F2000C604741F6B94CC0F2000C6047F6
:1005000041F6654CC0F2000C604741F6017CC0F238
:10051000000C604742F2594CC0F2000C604741F6B3
:10052000716CC0F2000C604744F66D0CC0F2000C18
:100530006047000010B5054C2068800605D500F026
:100540005DFCA06840F02000A06010BD00000240EB
:1005500004480168090503D5816841F400618160A0
:10056000704700000000024010B500F005F8BDE83B
:10057000104000F06FB900002DE9F05FB349B248B8
:10058000B1F83E1A012900D14170B049B1F8401AC2
:10059000012901D102214170AC49B1F8421A012967
:1005A00001D103214170A949A94CB1F8441A8180B5
:1005B000A648B0F8461A2068012900D101724FF010
:1005C0000009A249B1F8481A012901D180F8089020
:1005D0009E48B0F84A0A012804D1FFF778FF216845
:1005E00081F81D909948B0F84C0A012801D100F01B
:1005F00061FE9648B0F84E0A012806D1FFF76CFF5D
:10060000FFF76FFF216881F81E909048B0F8500AFC
:10061000012801D100F0BAFD8C48B0F8520A012837
:1006200007D120684D4680F80B90FFF75FFF2068E8
:1006300005774FF49C7B85488246B0F8541A01290F
:100640002ED1D4F8002000214FF4487301EB01258E
:10065000002002EB051600BF03F101080AEB430C72
:100660001FFA88F306EBC0070AEB4305BCF8E6C7A0
:100670005B1C07F54067B5F8E657401C9BB205EBDD
:100680000C4500EE105A0628B7EEC00A87EDC60BDF
:10069000E2DB491C0629D9DB82F80B9082F81C901A
:1006A0000AEB4B000BF101065546B0F8E6070128AE
:1006B00006D12168C872FFF719FF216881F81C90E4
:1006C00005EB4600711CB0F8E607012804D122684A
:1006D00002F5C04282F89800481C05EB4101B1F8D0
:1006E000E617012904D1226802F5C04282F89890E9
:1006F000471C05EB4000B0F8E607012801D1FFF7E1
:10070000FAFE05EB47007C1CB0F8E607012801D192
:10071000FFF7F6FE05EB4400661CB0F8E60701287B
:1007200002D10220FFF7ECFE05EB4600741CB0F886
:10073000E607012802D10420FFF7E2FE05EB4401A1
:10074000601C84B2B1F8E607012802D10820FFF747
:10075000D7FE05EB4401601C84B2B1F8E60701281E
:1007600002D11020FFF7CCFE05EB4401601C84B2DF
:10077000B1F8E607012802D12020FFF7C1FE05EB02
:100780004401601C84B2B1F8E607012802D1402080
:10079000FFF7B6FE05EB4401601C84B2B1F8E60732
:1007A000012801D1FFF7B1FE05EB4401601C84B2C2
:1007B000B1F8E607012802D10220FFF7A6FE05EBFB
:1007C0004401601C84B2B1F8E607012802D104207C
:1007D000FFF79BFE05EB4401601C84B2B1F8E6070D
:1007E000012802D10820FFF790FE05EB4401601CB0
:1007F00084B2B1F8E607012802D11020FFF785FE88
:1008000005EB4401601C84B2B1F8E607012802D16F
:100810002020FFF77AFE05EB4400B0F8E607012838
:1008200002D14020FFF771FE4FF4967049464FF415
:10083000A57305EB4004421C90B29842A4F8E61759
:10084000F7D3BDE8F09F000000000024000000384E
:1008500000000020B6480E232DE9F0430268B54998
:10086000B54C02F5C0400E465579A1F8E65795897A
:10087000A6F8E857D589A6F8EA57957EA6F8EC576A
:10088000D57EA6F8EE57254604F5D224AD78A6F815
:10089000F057D4F8C048250CA6F8F2570D46A5F835
:1008A000F447D47AA5F8F64790F8B840A5F8F84789
:1008B000D0F8BC40240CA5F8FA47B0F8BC40A5F825
:1008C000FC47D0F8C040240CA5F8FE47B0F8C04063
:1008D000A5F8004800245E1C04EB042501EB430747
:1008E0001FFA86FC02EB05130CF10105ADB213F8FB
:1008F0002C6F01EB4C08A7F8E6676E1C01EB450C6A
:100900005F78B5B2A8F8E6776E1C93F8028001EB29
:100910004507ACF8E687B5B293F803806E1CB6B213
:10092000A7F8E68701EB450C93F80480751CADB27F
:1009300001EB4607ACF8E6876E1CB3F806C0B6B20A
:1009400001EB4508A7F8E6C7751C01EB460C1E89AC
:10095000A8F8E667ADB293ED170B6E1C01EB4508E6
:10096000B7EEC00B1FFA86F909F10106B6B210EE18
:10097000105A2F0CACF8E67710EE105A01EB49072D
:10098000A8F8E657751C93ED190B01EB4608ADB2BC
:10099000B7EEC00B10EE106A4FEA164CA7F8E6C788
:1009A00010EE106A01EB450CA8F8E6676E1C93ED9B
:1009B0001D0BB5B2B7EEC00B01EB450810EE106A87
:1009C000370CACF8E67710EE106AA8F8E66793EDFE
:1009D0001F0B6D1CABB2BCEEC00B01EB43065B1CE6
:1009E000641C9BB2062C10EE105AA6F8E657FFF6D0
:1009F00072AF5A1C01EB430310F88A4F92B2A3F86E
:100A0000E647531C01EB4204C57B9AB201EB42035B
:100A1000A4F8E657521C047C92B2561CA3F8E64791
:100A200001EB4205B2B2467C531C01EB4204A5F82F
:100A3000E6679AB2457801EB4203A4F8E657521CE8
:100A400092B2561C01EB4207B2B2541C01EB4206B3
:100A5000A2B2847802F1010CA3F8E64701EB42054B
:100A60001FFA8CF2B0F804C0541CA7F8E6C7A4B271
:100A7000C78804F1010CA6F8E6771FFA8CF0461C33
:100A800001EB42030022A5F8E627B5B26E1CA3F8DD
:100A9000E62701EB440401EB4503B5B26E1CA4F854
:100AA000E62701EB400001EB4504B5B26E1CA0F84F
:100AB000E62701EB4500A3F8E627B5B2A4F8E62740
:100AC0006E1C01EB4503A0F8E627B5B26E1C01EBE6
:100AD0004504B5B2A3F8E6276E1C01EB4500A4F867
:100AE000E627B5B26E1C01EB4503A0F8E627B5B2C8
:100AF0006E1C01EB4504A3F8E627B5B2681C80B272
:100B0000A4F8E627461C01EB4003B0B2461C01EBFB
:100B1000450501EB4004B0B2A5F8E62701EB400023
:100B2000A3F8E627A4F8E627A0F8E627BDE8F083B7
:100B300000000020000000380000002400231A46B6
:100B400001E08354521C8A42FBD37047284870B599
:100B5000274A03680C32264923F47053036020317E
:100B60000368244C00254FF47A7643F42053036045
:100B70001368214843F4A05313600B681F4A43F0E5
:100B8000EE630B6025612B21A0611D48E261666167
:100B9000016020691B49084320610B2000F0DCFC48
:100BA00015491948091DA5622C22154B21631B1DEF
:100BB0006063E6621A60A06A1249C1390843A06204
:100BC0000C2000F0C9FC0D48C021104C08380A4D1B
:100BD00003680948B4FBF3F31838021F1D24243DB1
:100BE000036011602C602620BDE8704000F0B4BCAA
:100BF000000C025800000240244400400800003865
:100C00000008024011050300F0030038000E27071A
:100C10002DE9F04100F08CFAFFF798FF0E490E48DD
:100C20000C300A6800230C4CEF2522F001020A6008
:100C30002434261D4FF47A7706F1040C23603560C6
:100C4000CCF80070016841F001010160BDE8F0419D
:100C5000322000F081BC0000000C004070B5002381
:100C600005464FF6FF704AF201040CE0EA5C504082
:100C70000822C6074FEA500000D06040521E12F012
:100C8000FF02F6D15B1C8B42F0D370BD2DE9F04121
:100C9000594D2C4695F8D80714F8081F814230D1D9
:100CA0006178204640F2DC57062968D004DC01292F
:100CB0000BD0032925D145E04F480F29807B00F157
:100CC00007001FD010291CD170E00621FFF7C6FFD6
:100CD000E279A17901EB022189B2884211D1012088
:100CE00085F8E007A178E0782379627900EB0120AC
:100CF00002EB03210844401E80B2642873D200F046
:100D0000C7F875E0C6B220463146FFF7A7FFA11924
:100D1000A25D497802EB012189B2884268D10F2097
:100D200085F8E007A178E0782379627900EB01216A
:100D300002EB03200844401E80B2642853D200F026
:100D400061F955E00621FFF789FFE279A17901EB0E
:100D5000022189B288424BD1032085F8E007A178AF
:100D6000E0782379627900EB012102EB032008444B
:100D7000401E80B2B84236D200F0CEF838E00621EC
:100D8000FFF76CFFE279A17901EB022189B2884279
:100D90002ED1062085F8E007A178E07800EB01204D
:100DA00080B2B8421FD200F0FBF821E0C6B2204664
:100DB0003146FFF753FFA119A25D497802EB0121EB
:100DC00089B2884214D1102085F8E007A178E07834
:100DD0002379627900EB012102EB03200844401ED5
:100DE00080B2B84202D300F02FF801E000F060F9C1
:100DF000BDE8F04100F002B80000003808484FF4A8
:100E00007A71026922F001020261826842F02002D6
:100E100082604161016941F0010101617047000098
:100E20000000024007498A6A22F001028A628A6849
:100E300042F400628A60C862886A40F001008862F9
:100E4000704700000000024070B5104D02204FF4C2
:100E50007A7105F57C7485F8D90705F5FB652046A0
:100E6000FFF76CFE287803212070287A80306070AC
:100E70006878A0702046FFF7F1FE020AE070227148
:100E80000521BDE870400846FFF7CCBF00000038E0
:100E90002DE9F0411F4D4FF47A71A5F57C74284679
:100EA000FFF74CFE237B2046627BE17AA67A02EBB9
:100EB000032290F8D877D21D2F70032490F8E037E2
:100EC00001EB0621C2F3C7026B7089B2AA70012A36
:100ED00002D0022A06D010E0B0F8E4070424C8408B
:100EE000E8700AE0B0F8E42701F108030524CA40DD
:100EF000EA70B0F8E407D840287121462846FFF789
:100F0000ADFE611C020A2855A01C6A54BDE8F041E0
:100F1000FFF788BFF00300382DE9F0411F4C4FF474
:100F20007A71A4F57C752046FFF708FE6A7B294696
:100F30002B7BE87AAE7A02EB032291F8D857FF2395
:100F4000257000EB062080B28618032503EA4203D1
:100F500091F8E027761E6270B6B2A3700DE001EB47
:100F600040036A1C92B2B3F8E6773F0A675593F8DC
:100F7000E657531CA5549DB2401CB042EFDD2946F4
:100F80002046FFF76BFE691C020A605588B2411CBF
:100F90002254BDE8F04188B2FFF744BFF0030038A7
:100FA00070B5174D4FF47A71A5F57A742846FFF79E
:100FB000C5FDA278A4F10801E078237900EB0220B6
:100FC00080B21A0201EB400301EB4000A3F8E627D0
:100FD000B0F8E61762791144A0F8E6170020215C0A
:100FE0002954401C0628FADB06212846FFF736FE66
:100FF000A871010AE9710820BDE87040FFF712BF2F
:10100000F00300382DE9F047284D4FF47A71A5F52B
:101010007A742846FFF792FD94F802C0A4F1080301
:1010200027790020E278667902EB0C2CA17906EB97
:101030000727B3F8E4271FFA8CF63744A7F1010716
:101040001FFA87FC012902D0022902D007E0E079CB
:1010500003E0217AE07900EB0120B04080B24FF04C
:10106000010900273946B14205DB614503DC09FA75
:1010700001F84744BFB2491C1029F4DBBA43384099
:101080000243A3F8E4270020215C2954401C0628D1
:10109000FADB06212846FFF7E1FDA871010AE97194
:1010A0000820BDE8F047FFF7BDBE0000F0030038A0
:1010B0002DE9F0411D4D4FF47A71A5F57A7428465B
:1010C000FFF73CFDA2780720E178A4F10807267914
:1010D000637901EB022189B203EB06220A44521E16
:1010E00092B20FE0235C401C07EB410680B21B026A
:1010F000A6F8E63714F800C0401C80B2491C6344CF
:10110000A6F8E6379142EDDD0020215C2954401C11
:101110000628FADB06212846FFF7A0FDA871010A80
:10112000E9710820BDE8F041FFF77CBEF00300380C
:1011300070B54FF47A7412482146FFF7FFFC11484E
:101140002146FFF7FBFC104B4FF4E1300C49002225
:10115000B3FBF0F308390124C1E9000381F8E0276B
:1011600040F2DC5381F8D8471046A1F8E427441C2C
:1011700001EB4005A0B29842A5F8E627F7D370BD71
:1011800008000038F003003840420F00474A0023AF
:10119000F0B447494FF4FA70D2F8004003EB43052E
:1011A000002204EB051500BF00F1010C01EB400724
:1011B0001FFA8CF005EBC20601EB400CB7F8E6779E
:1011C000401C06F5D846BCF8E6C7521C80B20CEBB2
:1011D000074700EE107A062AB7EEC00A86ED080B24
:1011E000E2DB5B1C072BD9DB5FF0000505EB85021A
:1011F00002EBC503002204EBC30300BF00F1010CA6
:1012000001EB40061FFA8CF003EBC20701EB400C28
:10121000B6F8E667401C07F5D847BCF8E6C7521C8D
:1012200080B20CEB064600EE106A062AB7EEC00A42
:1012300087ED5C0BE2DB0022461C01EB400CB0B2F8
:1012400003EBC207BCF8E66701EB400C401C07F556
:10125000D847BCF8E6C7521C80B20CEB064600EE3D
:10126000106A062AB7EEC00A87ED6A0BE4DB421C5F
:1012700001EB400690B203F5D843B6F8E62701EB40
:101280004006401C6D1CB6F8E66780B2072D06EBE1
:10129000024200EE102AB7EEC00A83ED680BA5DB10
:1012A0000020A077F0BCFFF71CB900000000002070
:1012B000000000383F49002270B53F484FF4C87322
:1012C0000C68591C02EB022600EB43058BB204EBC1
:1012D000061100EB4306B5F8E6575B1C9BB2B6F867
:1012E000E66701F54061521C06EB054500EE105A19
:1012F00003F1010600EB4305B7EEC00AB3B2062ABC
:1013000000EB430603F101039BB281EDDA0BB5F864
:10131000E657B6F8E66706EB054500EE105A03F10E
:10132000010500EB4306B7EEC00AABB281EDDC0B62
:10133000B6F8E65700EB430603F101039BB2B6F89B
:10134000E66706EB054500EE105A03F1010500EBD8
:101350004306B7EEC00AABB281EDDE0BB6F8E65736
:1013600000EB430603F101039BB2B6F8E66706EB18
:10137000054500EE105A03F1010500EB4306B7EEF8
:10138000C00AABB281EDF80BB6F8E65700EB4306A6
:1013900003F101039BB2B6F8E66706EB054500EEE4
:1013A000105AB7EEC00A81EDFA0B8ADB0020607795
:1013B00070BD000000000020000000383548F0B586
:1013C000344903687839344A43F470030360086889
:1013D00040F010000860106800F00F00072804D2E9
:1013E000106820F00F00C01D10602C4900202B4C0D
:1013F00010340B682A4D43F001030B6020600B682A
:101400002B400B60136803F00F03072B04D91368FC
:1014100023F00F03DB1D1360204C224A1834224BAB
:10142000261D371D20601D4C204D28343060261DA0
:101430003860371D23603B1D35601C1D3A60251D3B
:101440002E1D1860331D22602860326018600B6802
:101450004FF0B042114C23F480230B6060342060C5
:10146000D2F8E400124940F48040C2F8E400086871
:101470006FF30F00B0F1005F03D20E490120C1F8F5
:10148000080143F2D2000C49024B4A03803B08603A
:101490001A60F0BD88ED00E00020005200440258C0
:1014A0007FEDF6EA80020101000202020000FF0166
:1014B0000010005C008000510040005210B5084C44
:1014C0002068C0070BD006481038016821F00101E0
:1014D0000160FFF7DBFB206820F00100206010BDF9
:1014E000100C00400C480068C00613D50B4800687B
:1014F0000B480146007A91F8D817884204D1094870
:10150000016841F0010101600348001D016841F0DC
:1015100010010160704700001C4400402448004056
:1015200000000038000C004003B40198410000980E
:1015300050EAC12018BF04204A0D18BF40F0010036
:1015400040F2FF72B2EB515F08BF40F00200012889
:1015500008BF052002B07047002809DB410900F0F0
:101560001F028900012001F1E0219040C1F8000133
:10157000704700000000000010B529499FED261BB0
:101580002DED020B84B0059820F000408842D8BFB2
:101590009DED040B2DDD2349884209D1049840B903
:1015A0004FF00100FEF750FF00F0AAFF06B010BD9B
:1015B00005DB9DED040B30EE000B06B010BD684658
:1015C0009DED040B00F004FD10F0030004BF9DED41
:1015D000021B9DED000B0CD001280ED09DED021BCF
:1015E0009DED000B022810D0012000F021FF06B075
:1015F00010BD00F075FE06B010BD9DED021B9DED07
:10160000000B012000F014FF01E000F069FE06B0BD
:10161000B1EE400B10BD0000000000000000000013
:10162000FB21E93F0000F07F2DE9F04D2DED040B8B
:101630002DED0A8B9AB0DDE92550279CDDF890A0AE
:1016400025F0004624F00048BAF1000F14BF012134
:10165000002101EB4502F84953184A1093422AD35E
:10166000002814BF0123002303EB44030B44F34978
:101670008B4220D358EA00019FEDF19B72D0DFF836
:10168000C8B35D4503D1BAF1000F05D184E0BAF1CA
:10169000000F08BF002100D0012101EB450111F529
:1016A000001F08D8002814BF0121002101EB4401CC
:1016B00011F5001F0BD99DED261B9DED240B1AB0D3
:1016C000BDEC0A8B04B0BDE8F04D00F015BF00275B
:1016D000002DBCBFDD49884521DADD498845A8BF1A
:1016E00002271CDAC3451ADCDA4901EB2851142918
:1016F00008DDC1F1340220FA02F101FA02F282425D
:101700000DD108E058B9C1F1140228FA02F101FA2A
:1017100002F2424503D101F00101C1F1020756EA8C
:101720000A0120D1002C1EDA002D18BF022F01D093
:10173000012F0AD00220FEF787FE1AB0BDEC0A8BFB
:1017400004B0BDE8F04D00F0C7BE0220FEF77CFEFD
:1017500000F0C2FEB1EE400B1AB0BDEC0A8B04B033
:10176000BDE8F08D18E09FEDBCAB9FEDBD8B002870
:101770007DD1B64880451CD105F1804010F5801020
:1017800008BFBAF1000F07D0B34508DC002CA8BF92
:101790009DED260BE0DA07E0B0EE490BDCE7002C0C
:1017A000B8BF9DED260BD5DBAF48784490ED000B1C
:1017B000D2E7D84548D1002C43DA2EB186423AD13F
:1017C000BAF1000F3DD126E0BAF1000F13D002208C
:1017D000FEF73AFE00F0A0FE8DED020B9DED240B0E
:1017E0008DED000B10EE900A039961F31E0003903B
:1017F0009DED020BB0E78DED02AB9DED240B1AEED3
:10180000901A10EE900A8DED000B61F31E0003900C
:101810009DED020BA0E78DED028B9DED240B18EEE4
:10182000901A10EE900A8DED000B61F31E000390EC
:101830009DED020B90E704DA9DED241B89EE010B70
:101840008AE79DED240B87E786421ADAB4F1804FD0
:1018500004BF9DED240B20EE000B3FF47DAFA4F1FF
:101860000050B0F1FF500CD1002D0ADB00E008E081
:101870009DED240B51EC100B00F0C8FE41EC100B59
:101880006AE79DED240B51EC100B00F05DFEBAF100
:10189000000FCDE90E0140D19FED750B46B3A6F1C7
:1018A000E040B0F17F600ED05E4536D1002D00DA09
:1018B00097B3022F0CBF01204FF0FF3000EE100A4B
:1018C000B8EEC00B48E7002D01DD002C0DDA002D2D
:1018D00001DD002C1DDB002D14DA002C12DB012FA2
:1018E00008BF9FED650B3FF437AFB0EE4A0B33E70F
:1018F000022F18BF002D0CD0012F0AD1002DFFF6AA
:101900002BAF06E0002DB8BF002C06DA012F3FF404
:1019100023AFB0EE480B1FE719E0012000EBE570A4
:1019200050EA070113D0791EB0EE498B084308BF77
:101930009FED538B5448002580457ADD5349544828
:10194000884514DDB0420DDB002C19DB2CE00120B2
:10195000FEF77AFD1AB0BDEC0A8B04B0BDE8F04D7D
:1019600000F0CEBDB34502DC002C09DC1CE0864251
:1019700002DA002C18DA03E05E4528DD002C13DDC6
:101980000220FEF761FD00F0C7FD8DED020B28EE91
:101990000A0B8DED000B10EE900A039961F31E0007
:1019A00003909DED020BD7E60220FEF74DFD00F0FF
:1019B000BFFD10EE901A18EE900A8DED020B8DED22
:1019C000008B61F31E0003909DED020BC4E69DEDBC
:1019D0000E0B9FED313B30EE490B8DED040B20EEED
:1019E000002B9DED041B9FED2E0B01EE430B9DED97
:1019F000043B9FED2D1B03EE401B9DED040B9FED63
:101A00002E3B22EE012B9FED2A1B20EE011B20EE28
:101A1000030B9FED2B3B02EE430B31EE002B8DEDC4
:101A2000022B02959DED022B32EE411B30EE411B45
:101A300021E149E000000000FFFF1F00FFFF0F0051
:101A4000000000000000F03F0000F03F0000F07FC9
:101A50000000404301FCFFFF000000000000F07F99
:101A600000000000000000009212000000000000D2
:101A70000000000000000080000000000000F0FFF7
:101A8000000000000000F0BF0000E0410000F04353
:101A9000FFFFEF3F00000000000000000000D03F0B
:101AA000555555555555D53F000000000000E03F05
:101AB000000000604715F73F44DF5DF80BAE543E71
:101AC000FE822B654715F73F0020B6F5801F0BDA25
:101AD0009DED0E0B9FEDEC1B6FF0340020EE010B23
:101AE00010EE906A8DED0E0BE94A00EB2650C6F31E
:101AF0001301A0F2FF3741F07F6040F04050914267
:101B0000D8BF002408DDE34A8A42C8BF012403DCB1
:101B10000024A0F580107F1CDF49794401EBC4014B
:101B20000F9091ED001B9DED0E2B9DED0E0BDB49F3
:101B300031EE023B30EE410B89EE032B20EE02AB7F
:101B40008DED02AB7944029591ED003B4FF00051D1
:101B500041EA600000EB84408DED043B00F500207D
:101B600005909DED043B9DED044B2AEE0ACB33EE30
:101B7000411B9DED0E3BCA48062133EE411B9DEDF6
:101B8000023B03EE440B03EE410B20EE02BBB0EE32
:101B90004C0B784400F014FC2CEE0C1B20EE010BD7
:101BA0009DED021B31EE0A1B0BEE010B9DED021B9E
:101BB00021EE011B9FEDBC2B31EE023B33EE003BCF
:101BC0008DED043B04959DED043B33EE422B32EE4C
:101BD000411B30EE412B9DED020B9DED041B20EED1
:101BE000011B9DED040B2BEE000B02EE0A0B31EEF8
:101BF000002B8DED022B02959DED022B32EE411B49
:101C000030EE410B9DED021B9FEDA92B21EE021B37
:101C10009DED022B9FEDA83B22EE032B9FEDA83BF1
:101C2000A94800EE032B784400EBC40090ED000BB4
:101C3000A64832EE000B02EE107AB8EEC22B8DED04
:101C4000042B31EE003B784400EBC4009DED044BC7
:101C500090ED002B33EE023B33EE043B8DED023B67
:101C600002959DED023B33EE443B33EE422B32EEC8
:101C7000411B30EE411B9DED260B954A8DED000B6F
:101C800000959DED260B9DED002B30EE420B9DED5A
:101C9000022B20EE020B9DED262B02EE010B9DED9B
:101CA000001B9DED022B21EE021B8DED021B30EE81
:101CB000011B11EE900A11EE101A8DED001B9042DF
:101CC00024DB821A11430ED19FED831B9DED002B67
:101CD0009DED023B30EE011B32EE432BB4EEC21BF6
:101CE000F1EE10FA26DD0220FEF7AEFB00F014FC48
:101CF00010EE901A18EE900A8DED020B8DED008B10
:101D000061F31E0003909DED020B25E5744B20F05E
:101D100000429A420ED3734A024411437FF444AE08
:101D20009DED022B31EE421BB4EEC01BF1EE10FA1A
:101D3000BFF63AAE20F000416B4A6C4B002402EB38
:101D400021529942D8BF9DED021B27DD511C4FF453
:101D5000801222FA01F10144654BC1F30A527B441F
:101D6000A2F2FF3293ED001B624B8DED041BD340BA
:101D700021EA0303C1F3130141F48011C2F11402FB
:101D800021FA02F405930028B8BF64429DED021BBE
:101D90009DED042B31EE421B8DED021B30EE011B3D
:101DA0008DED041B04959DED041B9FED532B9DEDC4
:101DB000023B21EE021B9DED042B32EE432B30EE55
:101DC000420B9FED4F2B20EE020B9DED042B9FED60
:101DD0004E3B4F48052102EE030B31EE002B8DEDFB
:101DE000002B32EE411B30EE41AB9DED000B20EE9F
:101DF000000B8DED040B784400F0E2FA9DED001B22
:101E00009DED042B02EE401B8DED021B9DED000BA2
:101E100020EE010B9FED402B31EE422B80EE021B9A
:101E20009DED002BB0EE4A0B02EE0A0B31EE400B9B
:101E30009DED001B30EE410B39EE400B10EE900A89
:101E40008DED000B00EB045001150029C8BF019077
:101E500013DC224651EC100B00F04DFCFFF764FB45
:101E6000042808BF00F064FB22469DED000B51ECF6
:101E7000100B00F040FCCDE900019DED000B28EEB9
:101E8000000B69E400000000000000000000404377
:101E90008E9803007AB60B006A0E0000F80E000060
:101EA000220E0000000000000000000000000840BA
:101EB000000000E009C7EE3FF5015B14E02F3EBED5
:101EC000FD033ADC09C7EE3F7E0D00004E0D000019
:101ED0000000904000000000FE822B654715973CF3
:101EE00000CC904000346F3F01FCFFFF0000E03F5A
:101EF000DE0C0000FFFF0F0000000000432EE63F55
:101F0000EF39FAFE422EE63F396CA80C615C20BE28
:101F1000EE0B000000000000000000000000004088
:101F200010B529499FED261B2DED020B84B00598B5
:101F300020F000408842DCBF00209DED040B2EDD28
:101F40002249884209D1049840B94FF00100FEF7B8
:101F50007BFA00F0D5FA06B010BD05DB9DED040B51
:101F600030EE000B06B010BD68469DED040B00F08E
:101F70002FF810F003000DD0012814D09DED021BA6
:101F80009DED000B022816D000F0AAF906B0B1EEC4
:101F9000400B10BD9DED021B9DED000B012000F0DC
:101FA00047FA06B010BD9DED021B9DED000B00F041
:101FB00097F906B010BD012000F03AFAE6E70000FC
:101FC0000000000000000000FB21E93F0000F07F5E
:101FD0002DE9F14F04462DED020B2DED048B94B04D
:101FE0009FED9D0B80ED020B199E9D4826F000454C
:101FF00085420ADC9DED180B002084ED000B14B027
:10200000BDEC048B03B0BDE8F08F96489FED969B26
:102010009FED978BA84225DD97489FED991B9FED7B
:102020009A2B9DED180B002E0DDD30EE490B8542ED
:1020300012BF30EE480B30EE410B30EE420B84ED18
:10204000000B0120DBE730EE090B854212BF30EEBA
:10205000080B30EE010B30EE020B84ED000B4FF05D
:10206000FF30CCE78A48A84253DB9DED180B51ECBA
:10207000100B00F069FA41EC100BB0EE401B9FED25
:10208000862B9FED870B290DDFF81CC201EE020B9A
:102090000120FDEEC00B10EE903A00EE903AB8EE43
:1020A000E02BB0EE410B02EE490B22EE081BFC4484
:1020B000032830EE411B84ED001B1DD011EE902A49
:1020C00000EB4015113DC2F30A528A1A954213DA09
:1020D0000CEB0012B0EE403B92ED000B401C20EEEA
:1020E000021B33EE410B33EE403B33EE411B92EDCE
:1020F000023B12EE031BDBE7002EA8BF1846BFF61B
:102100007EAF94ED000B5842B1EE400B84ED000B16
:1021100075E7C6F3130040F4801EC6F30A50A0F220
:10212000F530471100F01F05C5F12000DDF860B063
:10213000139000200890099005200DF1080C5B49D0
:10214000002D07EB0002794408BF51F8221009D096
:1021500051F8223001EB8201AB404A68139922FA10
:1021600001F11943A1FB0E26A1FB0B131A449A425D
:1021700034BF0123002303EB06080CEB8003D3E9F3
:1021800001A60E448E4234BF0121002192448A44AC
:1021900011B1924502D903E0924501D2012100E03C
:1021A0000021C3E901A641444CF82010011EA0F112
:1021B0000100C4DC04989DED050A00F10050810F78
:1021C00004989FED3B4B800001EE100ADDED060AFE
:1021D0009DED072AB8EEC13BB8EE401BB8EE600B90
:1021E000B8EE422B002021EE041B9FED334B20EE76
:1021F000040B9FED334B22EE042B30EE024B34EEFA
:10220000014B34EE034B8DED004B00909DED004BE8
:10221000199834EE433B10F0004F33EE411B31EE82
:10222000400B32EE401B9DED000B9FED272B20EE67
:10223000020B9FED272B01EE020B9DED001B9FED86
:10224000262B01EE020B1CBF4942B1EE400B84ED80
:10225000000B0846D3E6000000000000000000006C
:10226000FB21E93F7CD9024000004054FB21F93FAB
:102270003163621A61B4D03DFB21F93F00000000D8
:102280000000601A61B4D03D7370032E8A19A33B1D
:10229000FB2139410000000083C8C96D305FE43F75
:1022A000000000000000E03F960900002E09000039
:1022B000000000000000103E000000000000103C84
:1022C000000000000000103A3326A611460B113C16
:1022D000182D4454FB21F93D00000054FB21F93D29
:1022E00010B52DED040B2DED068B82B0B0EE41AB99
:1022F00009989FED299B20F00044B4F1795F0FDA33
:102300009DED080BBDEEC00B10EE100A002801BFBA
:10231000B0EE490B02B0BDEC068B04B008BF10BD97
:102320009DED080B1E48062120EE008BB0EE480BF9
:10233000784400F045F820EE080B9DED081B1C4882
:10234000844228EE000B01EE4A0B9FED171B28EE8E
:10235000011BBCBF31EE400B39EE400B16DB1548BC
:10236000A042BCBF9FED142B8DED002B06DBA4F526
:1023700000100190002000909DED002B31EE421BDB
:1023800039EE422B31EE400B32EE400B02B0BDEC89
:10239000068B04B010BD0000000000000000F03FFC
:1023A000DC06000000000000000000000000E03F2C
:1023B0003333D33F0000E93F000000000000D23F6C
:1023C000491E00EBC102B0EE401B92ED000B31F054
:1023D00006020DD0491E00EBC102B0EE403B92ED6B
:1023E000002B31F00602B0EE420B03EE010BF1D1EF
:1023F000022914D004290AD0062918BF704790ED8D
:102400000A2B00EE012B90ED080B02EE010B90ED74
:10241000062B00EE012B90ED040B02EE010B90ED6C
:10242000022B00EE012B90ED000B02EE010B70472A
:1024300031B504462DED040B2DED068BB0EE419B1E
:1024400007989DED060B20F00040B0F1795F0DDAA2
:1024500051EC100BFFF768F8042808BF00F068F88B
:102460009DED060BBDEC068B05B030BD20EE008B5C
:102470001348052128EE00ABB0EE480B7844FFF777
:102480009FFF9FED111B8CB19FED112B29EE022BAD
:102490000AEE402B9DED060B18EE029B0AEE419BC7
:1024A00030EE490BBDEC068B05B030BD08EE001BCD
:1024B0009DED060B0AEE010BBDEC068B05B030BDA1
:1024C0009006000000000000495555555555C5BF00
:1024D000000000000000E03F9FED031B9FED042B78
:1024E00081EE020B70470000000000000000F03F8A
:1024F000000000000000000030EE010B70470000FB
:102500009FED031B81EE010B7047000000000000EF
:1025100000000000000000009FED030B20EE000B08
:102520007047000000000000000000000000007084
:102530009FED030B20EE000B704700000000000031
:10254000000000000000001082B0CDE9000121F081
:10255000004001909DED000B02B051EC100B704754
:10256000ADF5007DFDF7D6FF24494FF400726846B3
:10257000FDF730FF224800219FED220B6D460368D6
:1025800003F5E04080ED140B01EBC10005EB811475
:1025900003EBC0025FF0000004EBC00702EBC006D3
:1025A00097ED000B06F50C46401C062886ED1E0B29
:1025B000F2DB94ED0C0B02F50C4002F5004280EDCD
:1025C0002A0B94ED0E0B491C0829BCEEC00B10EE33
:1025D000100A82F8B00CD7DB03F510430720C3F8CC
:1025E000E8044FF4FA60FDF79AFF4FF4FA7400BF65
:1025F000FDF79AFF2046FDF792FFF9E788270008CC
:10260000000000207B14AE47E17A843F00B541EC26
:10261000100B2DED028B83B0B1EEC08B18EE100ABB
:1026200018EE901A8DED008B002818BF012008438A
:1026300020F00040C0F17F6000F1E040C00F14D0F6
:1026400010EE101A10EE900A8DED000B002918BF45
:102650000121084320F00040C0F17F6000F1E0401C
:10266000C00F04BF0120FDF7EFFE51EC180B03B0C3
:10267000BDEC028B00BD000002494FF0000000F0ED
:1026800008B800BF0000F87F4FF04070E1EE100A7C
:1026900070470CF00F03092B08BF082000F0598089
:1026A0000A2B0BD0082B18BF704708BF1CF0400F37
:1026B0000AD04FF000004FF0000170471CF0400FAF
:1026C00018BF4FF0004070471CF0100F08D020F0EA
:1026D000704300F07F4242EAD3014FEA43707047F3
:1026E00000F0604021F07F4242EA000201F07F40AA
:1026F00040EA727070474FF0FF0C4CF4E06C1CEA3B
:1027000011531CBF9CEA030C9445C2BFDA4201EB93
:1027100002517047002B0DD0BCF1000F0FD0002AE2
:1027200001F00041A4BF41F0E04141F07F614FF072
:102730000000704701F000414FF00000704750EA80
:1027400001334FF09B0C18BF4CF0806C7FF494AFBA
:1027500070471CF4801F11D01CF4E02F03D06FEAE7
:10276000CC31490070474FF04050EFF3008222F027
:10277000704242EA000282F3008870474FF0000086
:102780007047000000000000000000000000000092
:102790000000000000000000000000000000000039
:1027A0000000000000000000000000000000000029
:1027B0000000000000000000000000000000000019
:1027C0000000000000000000000000000000F03FDA
:1027D0000000000000000840000000000000004071
:1027E000000000000000F03F00000000000010406A
:1027F0000000000000000840000000000000084049
:10280000000000000000F03F000000000000104049
:102810000000000000000040000000000000084030
:1028200000000000000018400000000000001440FC
:102830000000000000000040000000000000144004
:10284000000000000000F03F000000000000184001
:1028500000000000000014400000000000001040D4
:1028600000000000000000400000000000000840E0
:1028700000000000000014400000000000000040C4
:10288000000000000000F03F0000000000002240B7
:102890000000000000000000000000000000F03F09
:1028A000000000000000084000000000000014408C
:1028B0000000000000001040000000000000204068
:1028C000000000000000F03F000000000000F03FAA
:1028D0000000000000001440000000000000004064
:1028E00000000000000010400000000000001C403C
:1028F0000000000000001840000000000000084038
:10290000000000000000F03F000000000000304028
:1029100000000000000028400000000000001440FB
:102920000000000000000040000000000000204007
:10293000000000000000F03F000000000000084020
:10294000000000000000F03F0000000000002840F0
:10295000000000000000F03F0000000000002040E8
:1029600000000000000008400000000000002240BD
:1029700000000000000000400000000000001040C7
:102980000000000000000000000000000000F03F18
:10299000000000000000F83F000000000000000000
:1029A0000000004003B8E23F00000000000000000B
:1029B00006D0CF43EBFD4C3E033333333333E33F99
:1029C000FFAB6FDBB66DDB3F4D268F515555D53FC5
:1029D00001411DA96074D13F65DBC9934A86CD3F93
:1029E000EF4E454A287ECA3F3E5555555555C53F81
:1029F00093BDBE166CC166BF2CDE25AF6A56113F73
:102A0000F16BD2C541BDBBBED0A4BE726937663E74
:102A10004C5555555555A53F7751C1166CC156BFFC
:102A20009015CB19A001FA3EAD529C804F7E92BE0C
:102A3000C4B1B4BD9EEE213ED43888BEE9FAA8BD2B
:102A4000000000000000000000004054FB21F93F9E
:102A50003163621A61B4D03D0000601A61B4D03DA8
:102A60007370032E8A19A33B0000002E8A19A33B22
:102A7000C14920259A837B39000000000000000036
:102A80006E83F9A22915444ED15727FCC0DD34F5D9
:102A9000999562DB4190433CAB6351FE61C5BBDE5F
:102AA0003A6E24B7E0D24D42EA2E49061C92D10973
:102AB0001CEB1DFE3EA729B1F53582E88444BB2EF0
:102AC00026709CE9417E5FB439D69139F43953833D
:102AD0008B5F849C3B28F9BDFF97F81F0F9805DE9C
:102AE0008B112FEF1F6D0A5ACF7E366DB709CB279A
:102AF000663F464F2DEA5F9EC7BA27757BF1E5EB2F
:102B0000F739073DEA92528AB15FFB6B085D8D1F72
:102B1000A6F810111111813FD561C119A0012ABF7A
:102B20007DFEB157E31DC73EEB9C2B8AE6E55ABEFE
:102B30007CD5CF5A3AD9E53D982B000800000020FB
:102B400004000000300300089C2B00080000002453
:102B5000789A0600D4020008E0380008000000302F
:102B6000B0DC0100D4020008A03C00080000000016
:102B7000C09F00003003000860DC0008000000383F
:102B8000A0130000D40200089C2B000804000020C1
:102B900074B601004C0300080800002001FF01FF8B
:102BA00001FF01FF01FF01FF01FF01FF01FF01FF25
:102BB00001FF01FF01FF01FF01FF01FF01FF01FF15
:102BC00001FF01FF01FF01FF01FF01FF01FF01FF05
:102BD00001FF01FF01FF01FF01FF01FF01FF01FFF5
:1038D00001FF01FF01FF01FF01FF01FF01FF0119CE
:1038E00001FF01FF01FF01FF01FF01FF01FF01FFD8
:1038F00001FF01FF01FF01FF01FF01FF01FF01FFC8
:1039000001FF01FF01FF01FF01FF01FF01FF01FFB7
:1039100001FF01FF01FF01FF01FF01FF01FF01FFA7
:103C900001FF01FF01FF01FF01FF01FF018E000095
:103CA00040F6114CC0F6000C604741F2795CC0F65A
:103CB000000C604741F6217CC0F6000C604740F2E2
:103CC000D53CC0F6000C604740F2695CC0F6000CC1
:103CD000604741F2296CC0F6000C604710B501F056
:103CE00005FC00F077F801F025FC00F009F8034826
:103CF000816921F00101816110BD000000A0004038
:103D00002F492F4B10B520330A682E4822F00F029E
:103D10000A600C682C4A44F00A040C60196841F0EF
:103D200099011960836940F6313143F003038361DF
:103D300083693F2443F486438361C261C160C0F854
:103D400080400222214940F222230968A1F5FB515B
:103D500001F500410C8844F4A814C0F884404C8854
:103D600044F43024C0F8C040C0F8C820C0F8BC30CB
:103D7000174A8B88C0F8AC30C98841F42C11C0F8C0
:103D8000A010426501220021D0F8E03002FA01F4CF
:103D90002343C0F8E030491C0B29F5DB426D4FF09E
:103DA0007F51032342F07F5242658165C365132032
:103DB00004F01BFCBDE81040152004F016BC000008
:103DC000000C025800A00040030B04020000002079
:103DD0000002080064482DE9F043006800F10C047B
:103DE000814600F1180C00F1240800F1300100F1C7
:103DF0003C0200F1480300F1540500F5C047603073
:103E000000F5C0464FF40070A7F8CA0009F16C0035
:103E100004F5C04400F5C04740F201200CF5C04C49
:103E2000A4F8CA0009F1780000F5C04440F202206D
:103E300008F5C048ACF8CA0009F1840000F5C04C90
:103E400040F2032001F5C041A8F8CA0009F1900032
:103E500000F5C0484FF40170A1F8CA0009F19C00B8
:103E600002F5C04200F5C04140F2052003F5C04311
:103E7000A2F8CA0009F1A80000F5C04240F20620ED
:103E800005F5C045A3F8CA0009F1B40000F5C04328
:103E90004FF40470A5F8CA0009F1C00000F5C04550
:103EA00040F21120A6F8CA0009F1CC0000F5C04686
:103EB00040F21220A7F8CA0009F1D80000F5C04767
:103EC00040F21320A4F8CA004FF40574ACF8CA40BD
:103ED000641CA8F8CA4040F21628A1F8CA8007243A
:103EE00009F1E40040F2F12809F1F00C4FF43C71C3
:103EF000A2F8CA10A3F8CA80891CA5F8CA104A1CE7
:103F000000F5C040A6F8CA208B1CA7F8CA300CF5F3
:103F1000C04C40F2F528091DA0F8CA80124F0126B6
:103F20005FF00000ACF8CA104FF0605C00EB40019D
:103F30003A6885B245F0804302EB8101C83101F552
:103F4000C04102F5C0420E704C708D804D884CEA25
:103F500005452B438B60D2F8A81041F82030401C57
:103F60001528E3DBBDE8F083000000205A4900EB90
:103F700040032DE9F043D1F8009000EB80045B0092
:103F800009F5C04209EB041404F5C041D2F8B05061
:103F900055F823600425C1F8C86505EB8305D2F800
:103FA000B0707D590827C1F8CC5507EB8307D2F8CC
:103FB000B0C05CF807C00C27C1F8D0C507EB830779
:103FC000D2F8B0C05CF807C01027C1F8D4C507EB21
:103FD0008307D2F8B0C05CF807704FF0140CC1F83A
:103FE000D8750CEB8303D2F8B0C007275CF8033018
:103FF000B0FBF7FCC1F8DC35C6F38A4307FB1C07AE
:104000004FEAD67C81F8A8C5C6F3407081F8A905AF
:10401000C1F8AC35EE0F81F8B065C5F3056081F8E5
:10402000B105C5F3405381F8B235C5F3005681F8A8
:10403000B3652B0CC5F3034081F8B405A1F8B63580
:104040005FF0000304EB830000F5B76000F5C040AB
:104050005B1C042B856905704FEA152646704FEAF4
:10406000154C80F802C04FEA156880F80380E9DB40
:10407000052F4FF001030ED891F8B805012812D191
:1040800007EB072209EB021090F8282080F839305E
:1040900080F8292007E0062F05D191F8B8050128FE
:1040A00001D182F8953004F5C04213461546002030
:1040B000C1F89405D2F8A02504F5C044D3F8A4357E
:1040C000521CC5F8A02543F10003C4F8A43581F8BB
:1040D0009005BDE8F083000000000020544900EB8B
:1040E00080032DE9F043D1F8009000EB400509F57D
:1040F000C0426D0009EB0313D2F8B04003F5C04194
:1041000054F825600424C1F8C86504EB8504D2F88E
:10411000B0703C590827C1F8CC4507EB8507D2F8A9
:10412000B0C05CF807C00C27C1F8D0C507EB850705
:10413000D2F8B0C05CF807C01027C1F8D4C507EBAF
:104140008507D2F8B0C05CF807704FF0140CC1F8C6
:10415000D8750CEB8505D2F8B0C007275CF805C010
:10416000B0FBF7F5C1F8DCC507FB1505F70F81F8C3
:10417000A875C6F3407081F8A905C6F38A46C1F850
:10418000AC65E70F81F8B075C4F3056081F8B1053F
:10419000C4F3405681F8B265C4F3005781F8B37593
:1041A000C4F3034081F8B405240CA1F8B6450024FB
:1041B00003EB840000F5B76000F5C040641C042CDC
:1041C000866906704FEA162747704FEA164C80F84A
:1041D00002C04FEA166880F80380E9DB052D08D895
:1041E00005EB052491F8B82509EB041080F82C2084
:1041F00005E0062D03D191F8B80582F88A0003F591
:10420000C042144615460020C1F89405D2F8A025F6
:1042100003F5C043D4F8A445521CC5F8A02544F1C9
:104220000004C3F8A44581F89005BDE8F0830000C0
:1042300000000020954900EB80032DE9F047D1F8FC
:1042400000A000EB40040AF5C04264000AEB03132F
:10425000D2F8B05003F5C04155F824600425C1F8E8
:10426000C86505EB8405D2F8B0707D590827C1F800
:10427000CC5507EB8407D2F8B0C05CF807C00C2718
:10428000C1F8D0C507EB8407D2F8B0C05CF807C00E
:104290001027C1F8D4C507EB8407D2F8B0C05CF88A
:1042A00007704FF0140CC1F8D8750CEB8404D2F8E9
:1042B000B0C007275CF80440B0FBF7FCC1F8DC4550
:1042C000C6F38A4407FB1C094FEAD67C81F8A8C5CF
:1042D000C6F3407781F8A975C1F8AC45EE0F81F8B7
:1042E000B065C5F3056781F8B175C5F3405481F831
:1042F000B245C5F3005681F8B3652C0CC5F30347EE
:1043000081F8B4755FF00005A1F8B64503EB8504AC
:1043100004F5B76404F5C0446D1C042DA66926702D
:104320004FEA162767704FEA164C84F802C04FEA2E
:10433000166884F80380E9DBB9F1050F4FF001043A
:104340006ED891F8B92500EB002C91F8B86591F87A
:10435000BB5591F8BA75120405EB06659FED4C2B21
:1043600002EB07270AEB0C1209EB09263D4401EE8C
:10437000105A92ED443B0AEB06109FED470BB8EE46
:10438000C11B21EE031B81EE023B80ED223B91F825
:10439000BC6591F8BD5592ED462B05EB06252DB277
:1043A00001EE105AB8EEC11B21EE021B81EE002B6C
:1043B00080ED242B91F8BE6591F8BF5592ED4A2B04
:1043C00005EB062212B201EE102AB8EEC11B21EE57
:1043D000021B81EE002B80ED282B91F8C02500EE0A
:1043E000102AB8EE400B80ED2A0B91F8C12580F819
:1043F0002C2091F8C22580F82D2091F8C32580F853
:104400002E2091F8C42580F82F2091F8C52580F83A
:10441000302080F8384002F0010580F842501CE05E
:10442000B9F1060F19D191F8B80582F8990091F801
:10443000B90582F89A0091F8BA0582F89B0091F8C4
:10444000C10582F88A0091F8C40582F88B0091F8C2
:10445000C50582F88C0082F8944003F5C0400446FC
:1044600005460022C1F89425D0F8A00503F5C04305
:10447000D4F8A445401CC5F8A00544F10004C3F8D5
:10448000A44581F89025BDE8F087000000000020D9
:104490000000C0FFFFFFDF4100000000C0FFDF4061
:1044A00070B5194C01260025D4F89800E840C007E3
:1044B00006D0E8B2FFF7BEFE06FA05F0C4F8980091
:1044C0006D1C072DF0DB0725D4F89800E840C007E5
:1044D00006D0E8B2FFF702FE06FA05F0C4F898002D
:1044E0006D1C0E2DF0DB0E25D4F89800E840C007B7
:1044F00006D0E8B2FFF73AFD06FA05F0C4F89800D6
:104500006D1C152DF0DB70BD00A000402DE9F043BF
:104510005D4E012230680146583000F5C04090F8E9
:10452000C80101287DD002EB420000EBC20000234D
:1045300001EBC0041D4600BF05EB052704EB030C8F
:1045400001EB07180CF5C04C5F1C98F82B806D1C14
:10455000BBB28CF8F581062DEEDB2344B14601F5A4
:10456000C04103F5C04391F8895083F8F551002507
:1045700004EB850303F5C0436D1C042D93F8F6711D
:1045800093F8F56193F8F7C193F8F88106EB0726E5
:1045900006EB0C4606EB0866C3F81062E8DB02EB9C
:1045A0004203D1F8AC6004F5C0444FF6FF7505EA4C
:1045B000430349464FF00C0CD4F80872042446F823
:1045C000237004EB8307D9F80040082504EBC008EA
:1045D00004F5C04408F5C04805EB8305D4F8AC40A9
:1045E0001026D8F80C8206EB830644F807800C6886
:1045F0000CEB8308142704EBC00C04F5C0440CF545
:10460000C04C07EB8307D4F8AC400123DCF810C2A0
:1046100044F805C00C681D4D04EBC00C0CF5C04CF3
:1046200000E02FE004F5C044DCF814C203FA02F203
:10463000D4F8AC4044F808C00C6804EBC00C04F596
:10464000C0440CF5C04CD4F8AC40DCF818C244F8B7
:1046500006C00C6804EBC00604F5C04406F5C0466D
:10466000D4F8AC40D6F81C62E651D9F8001001EB42
:10467000C00000F5C04080F8C831D5F8D000104324
:10468000C5F8D000BDE8F0830000002000A0004085
:104690002DE9F043664E022230680146B03000F545
:1046A000C04090F8C80101287DD002EB420000EB29
:1046B000C200002401EBC003254600BF05EB05271F
:1046C00003EB040C01EB07170CF5C04C641C97F8C6
:1046D0002880A4B28CF8F58103EB040C0CF5C04CD7
:1046E00097F82A70641C6D1CA4B28CF8F571062D25
:1046F000E4DB1F19B146641CA4B207F5C0471C4493
:1047000001F5C04104F5C044002587F8F55191F842
:10471000885084F8F551002503EB850404F5C04466
:104720006D1C042D94F8F67194F8F56194F8F7C1B6
:1047300094F8F88106EB072606EB0C4606EB0866B4
:10474000C4F81062E8DB03F5C043D1F8AC4002EBDB
:104750004205494604264FF00C0CD3F808724FF678
:10476000FF7303EA4503082505EB830544F823702E
:10477000D9F8004006EB8307102604EBC00804F5C7
:10478000C04408F5C04806EB8306D4F8AC40D8F81E
:104790000C8244F8078014270C680CEB830807EBA5
:1047A0008307012300E041E004EBC00C04F5C044A2
:1047B0000CF5C04C03FA02F2D4F8AC40DCF810C29D
:1047C00044F805C00C681B4D04EBC00C04F5C04454
:1047D0000CF5C04CD4F8AC40DCF814C244F808C066
:1047E0000C6804EBC00C04F5C0440CF5C04CD4F8C4
:1047F000AC40DCF818C244F806C00C6804EBC006F4
:1048000004F5C04406F5C046D4F8AC40D6F81C62A6
:10481000E651D9F8001001EBC00000F5C04080F867
:10482000C831D5F8D0001043C5F8D000BDE8F083FA
:104830000000002000A000406E4900222DE9F04752
:104840000C6804F5C040814690F8C80101287DD06D
:10485000002002EB42039FED681B8A46054603EBEE
:10486000C20104EBC10300BF05EB0526B0EE410B0E
:1048700004EB06161F1896ED182B96ED4A3B07F52C
:10488000C047401C82EE034B80B203EB000C0CF5DA
:10489000C04C401C6D1C80B2062D24EE002BBDEEDA
:1048A000C22B12EE108A4FEA282887F8F58196ED80
:1048B000182B96ED4A3B82EE034B24EE000BFDEEE7
:1048C000C00B10EE906A8CF8F561CDDB1C1899F8DE
:1048D000985004F5C044504684F8F5515FF0000547
:1048E00003EB850404F5C0446D1C042D94F8F671A7
:1048F00094F8F56194F8F7C194F8F88106EB07266F
:1049000006EB0C4606EB0866C4F81062E8DB03F51C
:10491000C043D9F8AC4002EB42054FF00C0C042721
:10492000D3F808624FF6FF7303EA4503082507EB47
:10493000830744F823600468102605EB830504EB25
:10494000C10808F5C048D8F80C8200E050E004F532
:10495000C04406EB8306D4F8AC4044F807800468F2
:104960000CEB8308142704EBC10C04F5C0440CF5D0
:10497000C04C07EB8307D4F8AC400123DCF810C22D
:1049800003FA02F244F805C004681D4D04EBC10CA3
:1049900004F5C0440CF5C04CD4F8AC40DCF814C2AB
:1049A00044F808C0046804EBC10C04F5C0440CF5DD
:1049B000C04CD4F8AC40DCF818C244F806C0046817
:1049C00004EBC10604F5C04406F5C046D4F8AC407B
:1049D000D6F81C62E651DAF8000000EBC10000F5E1
:1049E000C04080F8C831D5F8D0001043C5F8D000D9
:1049F000BDE8F0870000002000000000C0FFDF409D
:104A000000A000401749F0B50026174DD1F800303E
:104A100002273046D5F8D810C140C9071DD000EB99
:104A2000400101EBC00103EBC10101F5C04292F866
:104A3000C841012C11D19446144682F8C87196469B
:104A4000C2F8CC61DCF8D811D4F8DC41491CCEF8AE
:104A5000D81144F10004C2F8DC41401C0B28D9DB1A
:104A6000F0BD00000000002000A0004051480322DB
:104A70002DE9F04301680B4601F5847101F5C04151
:104A800091F8C81101297CD002EB4201814601EB6B
:104A9000C200002403EBC00505EB840101F5C04111
:104AA000641C042C91F8F67191F8F56191F8F7C146
:104AB00091F8F88106EB072606EB0C4606EB086634
:104AC000C1F81062E8DB03F5C0434FF6FF7802EB54
:104AD00042074FF0040C05F5C0454946D3F8AC60D9
:104AE00008EA47030824D5F808520C2707EB830887
:104AF00046F8235004EB8305D9F800400CEB8306FD
:104B000004EBC00C04F5C0440CF5C04C1027D4F8DD
:104B1000AC40DCF80CC244F806C00C6807EB830616
:104B2000142704EBC00C04F5C0440CF5C04C07EB93
:104B30008307D4F8AC400123DCF810C203FA02F278
:104B400044F805C00C681C4D04EBC00C04F5C044CF
:104B50000CF5C04CD4F8AC40DCF814C244F808C0E2
:104B60000C6804EBC00C04F5C0440CF5C04CD4F840
:104B7000AC40DCF818C244F806C00C6804EBC00670
:104B800000E015E004F5C04406F5C046D4F8AC409A
:104B9000D6F81C62E651D9F8001001EBC00000F510
:104BA000C04080F8C831D5F8D0001043C5F8D00017
:104BB000BDE8F0830000002000A0004051480A2218
:104BC0002DE9F04301680B4601F55C7101F5C04128
:104BD00091F8C81101297CD002EB4201814601EB1A
:104BE000C200002403EBC00505EB840101F5C041C0
:104BF000641C042C91F8F67191F8F56191F8F7C1F5
:104C000091F8F88106EB072606EB0C4606EB0866E2
:104C1000C1F81062E8DB03F5C0434FF6FF7802EB02
:104C200042074FF0040C05F5C0454946D3F8AC6087
:104C300008EA47030824D5F808520C2707EB830835
:104C400046F8235004EB8305D9F800400CEB8306AB
:104C500004EBC00C04F5C0440CF5C04C1027D4F88C
:104C6000AC40DCF80CC244F806C00C6807EB8306C5
:104C7000142704EBC00C04F5C0440CF5C04C07EB42
:104C80008307D4F8AC400123DCF810C203FA02F227
:104C900044F805C00C681C4D04EBC00C04F5C0447E
:104CA0000CF5C04CD4F8AC40DCF814C244F808C091
:104CB0000C6804EBC00C04F5C0440CF5C04CD4F8EF
:104CC000AC40DCF818C244F806C00C6804EBC0061F
:104CD00000E015E004F5C04406F5C046D4F8AC4049
:104CE000D6F81C62E651D9F8001001EBC00000F5BF
:104CF000C04080F8C831D5F8D0001043C5F8D000C6
:104D0000BDE8F0830000002000A0004051480422CC
:104D10002DE9F04301680B46A1F5F55101F500417D
:104D200091F8C81101297CD002EB4201814601EBC8
:104D3000C200002403EBC00505EB840101F5C0416E
:104D4000641C042C91F8F67191F8F56191F8F7C1A3
:104D500091F8F88106EB072606EB0C4606EB086691
:104D6000C1F81062E8DB03F5C0434FF6FF7802EBB1
:104D700042074FF0040C05F5C0454946D3F8AC6036
:104D800008EA47030824D5F808520C2707EB8308E4
:104D900046F8235004EB8305D9F800400CEB83065A
:104DA00004EBC00C04F5C0440CF5C04C1027D4F83B
:104DB000AC40DCF80CC244F806C00C6807EB830674
:104DC000142704EBC00C04F5C0440CF5C04C07EBF1
:104DD0008307D4F8AC400123DCF810C203FA02F2D6
:104DE00044F805C00C681C4D04EBC00C04F5C0442D
:104DF0000CF5C04CD4F8AC40DCF814C244F808C040
:104E00000C6804EBC00C04F5C0440CF5C04CD4F89D
:104E1000AC40DCF818C244F806C00C6804EBC006CD
:104E200000E015E004F5C04406F5C046D4F8AC40F7
:104E3000D6F81C62E651D9F8001001EBC00000F56D
:104E4000C04080F8C831D5F8D0001043C5F8D00074
:104E5000BDE8F0830000002000A00040514805227A
:104E60002DE9F04301680B4601F5DC7101F5C04105
:104E700091F8C81101297CD002EB4201814601EB77
:104E8000C200002403EBC00505EB840101F5C0411D
:104E9000641C042C91F8F67191F8F56191F8F7C152
:104EA00091F8F88106EB072606EB0C4606EB086640
:104EB000C1F81062E8DB03F5C0434FF6FF7802EB60
:104EC00042074FF0040C05F5C0454946D3F8AC60E5
:104ED00008EA47030824D5F808520C2707EB830893
:104EE00046F8235004EB8305D9F800400CEB830609
:104EF00004EBC00C04F5C0440CF5C04C1027D4F8EA
:104F0000AC40DCF80CC244F806C00C6807EB830622
:104F1000142704EBC00C04F5C0440CF5C04C07EB9F
:104F20008307D4F8AC400123DCF810C203FA02F284
:104F300044F805C00C681C4D04EBC00C04F5C044DB
:104F40000CF5C04CD4F8AC40DCF814C244F808C0EE
:104F50000C6804EBC00C04F5C0440CF5C04CD4F84C
:104F6000AC40DCF818C244F806C00C6804EBC0067C
:104F700000E015E004F5C04406F5C046D4F8AC40A6
:104F8000D6F81C62E651D9F8001001EBC00000F51C
:104F9000C04080F8C831D5F8D0001043C5F8D00023
:104FA000BDE8F0830000002000A000405148062228
:104FB0002DE9F04301680B4601F5047101F5C0418C
:104FC00091F8C81101297CD002EB4201814601EB26
:104FD000C200002403EBC00505EB840101F5C041CC
:104FE000641C042C91F8F67191F8F56191F8F7C101
:104FF00091F8F88106EB072606EB0C4606EB0866EF
:10500000C1F81062E8DB03F5C0434FF6FF7802EB0E
:1050100042074FF0040C05F5C0454946D3F8AC6093
:1050200008EA47030824D5F808520C2707EB830841
:1050300046F8235004EB8305D9F800400CEB8306B7
:1050400004EBC00C04F5C0440CF5C04C1027D4F898
:10505000AC40DCF80CC244F806C00C6807EB8306D1
:10506000142704EBC00C04F5C0440CF5C04C07EB4E
:105070008307D4F8AC400123DCF810C203FA02F233
:1050800044F805C00C681C4D04EBC00C04F5C0448A
:105090000CF5C04CD4F8AC40DCF814C244F808C09D
:1050A0000C6804EBC00C04F5C0440CF5C04CD4F8FB
:1050B000AC40DCF818C244F806C00C6804EBC0062B
:1050C00000E015E004F5C04406F5C046D4F8AC4055
:1050D000D6F81C62E651D9F8001001EBC00000F5CB
:1050E000C04080F8C831D5F8D0001043C5F8D000D2
:1050F000BDE8F0830000002000A0004051480722D6
:105100002DE9F04301680B4601F51A7101F5C04124
:1051100091F8C81101297CD002EB4201814601EBD4
:10512000C200002403EBC00505EB840101F5C0417A
:10513000641C042C91F8F67191F8F56191F8F7C1AF
:1051400091F8F88106EB072606EB0C4606EB08669D
:10515000C1F81062E8DB03F5C0434FF6FF7802EBBD
:1051600042074FF0040C05F5C0454946D3F8AC6042
:1051700008EA47030824D5F808520C2707EB8308F0
:1051800046F8235004EB8305D9F800400CEB830666
:1051900004EBC00C04F5C0440CF5C04C1027D4F847
:1051A000AC40DCF80CC244F806C00C6807EB830680
:1051B000142704EBC00C04F5C0440CF5C04C07EBFD
:1051C0008307D4F8AC400123DCF810C203FA02F2E2
:1051D00044F805C00C681C4D04EBC00C04F5C04439
:1051E0000CF5C04CD4F8AC40DCF814C244F808C04C
:1051F0000C6804EBC00C04F5C0440CF5C04CD4F8AA
:10520000AC40DCF818C244F806C00C6804EBC006D9
:1052100000E015E004F5C04406F5C046D4F8AC4003
:10522000D6F81C62E651D9F8001001EBC00000F579
:10523000C04080F8C831D5F8D0001043C5F8D00080
:10524000BDE8F0830000002000A000405148082283
:105250002DE9F04301680B46A1F5EA5101F5004143
:1052600091F8C81101297CD002EB4201814601EB83
:10527000C200002403EBC00505EB840101F5C04129
:10528000641C042C91F8F67191F8F56191F8F7C15E
:1052900091F8F88106EB072606EB0C4606EB08664C
:1052A000C1F81062E8DB03F5C0434FF6FF7802EB6C
:1052B00042074FF0040C05F5C0454946D3F8AC60F1
:1052C00008EA47030824D5F808520C2707EB83089F
:1052D00046F8235004EB8305D9F800400CEB830615
:1052E00004EBC00C04F5C0440CF5C04C1027D4F8F6
:1052F000AC40DCF80CC244F806C00C6807EB83062F
:10530000142704EBC00C04F5C0440CF5C04C07EBAB
:105310008307D4F8AC400123DCF810C203FA02F290
:1053200044F805C00C681C4D04EBC00C04F5C044E7
:105330000CF5C04CD4F8AC40DCF814C244F808C0FA
:105340000C6804EBC00C04F5C0440CF5C04CD4F858
:10535000AC40DCF818C244F806C00C6804EBC00688
:1053600000E015E004F5C04406F5C046D4F8AC40B2
:10537000D6F81C62E651D9F8001001EBC00000F528
:10538000C04080F8C831D5F8D0001043C5F8D0002F
:10539000BDE8F0830000002000A000405148092231
:1053A0002DE9F04301680B4601F5467101F5C04156
:1053B00091F8C81101297CD002EB4201814601EB32
:1053C000C200002403EBC00505EB840101F5C041D8
:1053D000641C042C91F8F67191F8F56191F8F7C10D
:1053E00091F8F88106EB072606EB0C4606EB0866FB
:1053F000C1F81062E8DB03F5C0434FF6FF7802EB1B
:1054000042074FF0040C05F5C0454946D3F8AC609F
:1054100008EA47030824D5F808520C2707EB83084D
:1054200046F8235004EB8305D9F800400CEB8306C3
:1054300004EBC00C04F5C0440CF5C04C1027D4F8A4
:10544000AC40DCF80CC244F806C00C6807EB8306DD
:10545000142704EBC00C04F5C0440CF5C04C07EB5A
:105460008307D4F8AC400123DCF810C203FA02F23F
:1054700044F805C00C681C4D04EBC00C04F5C04496
:105480000CF5C04CD4F8AC40DCF814C244F808C0A9
:105490000C6804EBC00C04F5C0440CF5C04CD4F807
:1054A000AC40DCF818C244F806C00C6804EBC00637
:1054B00000E015E004F5C04406F5C046D4F8AC4061
:1054C000D6F81C62E651D9F8001001EBC00000F5D7
:1054D000C04080F8C831D5F8D0001043C5F8D000DE
:1054E000BDE8F0830000002000A000400D484FF010
:1054F000000CF0B5006854270B4A4FF4AE76A0F5C7
:10550000FB50094900F50040084B5432084C4FF459
:105510005575A0F800C047808680C580083080E8B7
:105520001E00F0BD0000002000AC00405CAD00405B
:1055300054AF004086480023F0B501680124854A35
:105540004FF4681501F5C0400A26072780F8E031BE
:10555000C0F8E421A1F5E85280F8E831C83A80F8B3
:10556000E93102F5004280F8EA31C0F8EC3180F808
:10557000F03180F8F13180F8F24180F8F34180F8A1
:10558000F461C0E9823574481370506010201372C2
:1055900053729372D0608004137453749474D474EF
:1055A00017754FF45C17C2E90A07A1F5E8506B4A7A
:1055B000703800F500404FF0707703704260F022C1
:1055C000037243728372C2604FF4401203744374D7
:1055D0008474C4740675A1F5E856183E06F50046B5
:1055E000C0E90A755E48A0253370706000203372F0
:1055F0007372B372F56033747074B474AB04F47482
:105600003075A1F5E65000F500405A4DC6E90A3262
:1056100000230370534B4360002303724372837271
:105620004FF4D073C3600023037443748474C47450
:1056300003754FF0D063C0E90A32A1F5E050683835
:1056400000F5004000230370474B436000230372C2
:105650004372837240F2A113C36000230374437446
:105660008474C4740375414BC0E90A32A1F5E0505B
:10567000103800F50040002303703D4B43600023C9
:105680000372437283724FF4D173C36000230374B7
:1056900043748474C47403754FF0D163C0E90A3253
:1056A0000020A1F5D853B83B03F5004318705D60A6
:1056B0001872587240F2A3159872DD60AD04187428
:1056C00058749C74DC741875C3E90A52A1F5DB5355
:1056D000294D03F5004318705D604FF4D2751872C0
:1056E00058729872DD60AD04187458749C74DC7440
:1056F0001875C3E90A52A1F5D853204D083B03F5AC
:10570000004301F5AA6101F5C04118705D6040F2E7
:10571000A515187258729872DD60AD04187458742B
:105720009C74DC741875C3E90A52154B08704B6001
:105730004FF4D373087248728872CB60087448744F
:105740008C74CC7408759804C1E90A02F0BD00009D
:1057500000000020990B00006D080000F109000016
:10576000CD0D00006D100000BD110000000084068A
:105770000D1300005D140000AD150000FD160000C3
:105780001D0F00002DE9F0415C4D002101244FEA7E
:1057900001032A689174D17411755176117651758F
:1057A0009175D17503EB032002EB001090F82F6088
:1057B00080F8401080F841100EB180F8404090F819
:1057C0002D600EB180F8404090F83D60012E01D16F
:1057D00080F8414090F83F60012E01D180F84140AF
:1057E00090F83A60012E01D180F8414090F83B607A
:1057F000012E01D180F8414090F83C60012E01D18A
:1058000080F8414090F83E60012E01D180F841407F
:1058100090F84260012E00D1547690F84060012E3D
:1058200000D1147690F84100012800D154755B1C1A
:10583000062BB7DB286846F2B802125C012A00D1B9
:1058400084752F4A12680174417581750176C17D96
:10585000012909D000F0DCF92868017E012906D071
:10586000017C012903D003E08474447400E0C47413
:105870002968487E012800D10C754D7C087C8B7C02
:10588000CA7C40EA45004C7D8D7D40EA8300CE7D98
:1058900040EAC2000F7E40EA041040EA4510CB897E
:1058A00040EA861040EAC71088810343CB8100227A
:1058B00002EB0220521C01EB0010062A90F83B403C
:1058C00090F83A3090F83C5090F83D6043EA440339
:1058D00090F83E7090F83FC043EA850343EAC60360
:1058E000848E43EA071343EA4C1320F8323F44EA1C
:1058F00003044480DCDBBDE8F081000000000020F0
:10590000100C02581349C3074FF00102096801D077
:1059100081F83720830702D541F247035A544307E1
:1059200002D542F257035A54030702D543F26703E4
:105930005A54C30602D544F277035A54830602D55B
:1059400045F287035A54400603D501F5C04181F85A
:10595000932070470000002030B4354C00204FEAFF
:1059600000032268107450749074D07410755075D0
:105970009075D075107650769081D08103EB03211D
:105980005B1C02EB0111062B81F8400081F84100FD
:1059900081F83D0081F83F0081F83A0081F83B0032
:1059A00081F83C0081F83E0081F82D0081F82E003E
:1059B00081F82F0081F8300048868886DEDB216878
:1059C0000B468C3101F5C0415FF000028872C8724D
:1059D00001F8010C087048808880194602EB8203A8
:1059E000521C01EB031303F5C043152A83F89805F5
:1059F000C3F89405F2DBD4F80030002101EB41023A
:105A000002EBC102491C03EBC20202F5C0420B29A2
:105A100082F8D001C2F8CC01F0DB2168B83101F581
:105A2000C04108704860886030BCFFF7ABBE000022
:105A3000000000202DE9F04F3348202106680125A1
:105A400040F2DF192C4646F001062B460A46066056
:105A500003274FF0A90AAC464FEA0506D0F80080AC
:105A60005FEA4878FAD51B06DFF89C8043EA0443D6
:105A7000DFF898B034060E0144EA074443EA4521B2
:105A8000214D44EA4C23DFF880C046EA02371E4A23
:105A90000CF1280C383248241835CCF8007041EA53
:105AA000090143EA0A0308F130084FF488664FF011
:105AB000400C2F1DC8F8001007F1040813602C607B
:105AC0003E60C8F800C0DBF8002042F03702CBF897
:105AD0000020016841F08071016001688901FCD5F6
:105AE000016841F08061016001680901FCD5064848
:105AF0001030016841F0030101600168C1F3C20187
:105B00000329FAD1BDE8F08F00440258002000526A
:105B10000349002209680A600A688242FCD3704780
:105B20000000002030B51D4C002101220B462068EA
:105B30004171C172827702774277C5185B1C062BD0
:105B4000EA77FADB2068037F012B03D1837E43F0E1
:105B500001038376437F012B03D1837E43F002034D
:105B60008376837F012B03D1837E43F00403837606
:105B70000023C418E47F012C04D1C47E02FA03F58B
:105B80002C43C4765B1CDBB2062BF2D38174C17448
:105B9000017641758175C17530BD0000000000209F
:105BA0002DE9F04100250446E8B200F0EDFF6D1C40
:105BB000062DF9DB00F000FC144841F2460104F028
:105BC000010243F2660EC4F34003C4F3800500688B
:105BD000C4F3C006C4F30017C4F3401CC4F380141C
:105BE00080F8362042F256020B5444F2760145F218
:105BF000860315540EF800600F5403F800C000F53A
:105C0000C04080F89240BDE8F08100000000002014
:105C1000024801680020487470470000000000201E
:105C200010B52DED088B9FEDD95B9FEDDA8BB0EEB3
:105C3000484BB0EE483B9FEDD99BDA4C46F62040EE
:105C4000B0EE481BB0EE492BB0EE480B216808447B
:105C500000F04EFAB0EE485B9FEDD3ABB0EE483BA0
:105C6000B0EE4A4B9FEDD22B206846F65041B0EE85
:105C7000481BB0EE490B084400F03AFAB0EE485B1E
:105C80009FEDCD9BB0EE483BB0EE482BB0EE494BBC
:105C9000B0EE481B9FEDCA0B206800F5D94000F01C
:105CA00027FAB0EE485BB0EE484BB0EE493B9FEDB3
:105CB000C62BB0EE481B9FEDC60B206846F6B041E0
:105CC000084400F015FAB0EE495B9FEDC34BB0EE0F
:105CD000483B9FEDC39BB0EE481BB0EE492B9FEDB8
:105CE000C2BB206846F6E041B0EE4B0B084400F022
:105CF000FFF9206846F61051B0EE485BB0EE4A4B13
:105D0000B0EE483BB0EE492BB0EE481BB0EE4B0B6B
:105D1000084400F0EDF9B0EE485BB0EE484BB0EE51
:105D2000483B9FEDB32B206846F64051B0EE481B30
:105D3000B0EE480B084400F0DBF9B0EE485BB0EE83
:105D4000484BB0EE483B9FEDAC2B9FEDAD1B206860
:105D500046F67051B0EE480B084400F0C9F9B0EEB9
:105D60004A5BB0EE484BB0EE483B9FEDA72B9FED52
:105D7000A81B9FEDA90B206846F6D851084400F0F7
:105D8000B7F9B0EE4A5B9FEDA64BB0EE483B9FEDF6
:105D9000A62BB0EE481B9FEDA60B206846F640618F
:105DA000084400F0A5F9B0EE4A5BB0EE484BB0EE07
:105DB000483B9FEDA12BB0EE481B9FEDA10B206847
:105DC00046F6A861084400F093F9B0EE4A5BB0EEE5
:105DD000484BB0EE483B9FED9C9BB0EE481BB0EEAD
:105DE000492B9FED9BBB206846F61071B0EE4B0B24
:105DF000084400F07DF9206846F67871B0EE4A5B01
:105E0000B0EE484BB0EE483BB0EE492BB0EE481B2D
:105E1000B0EE4B0B084400F06BF9206846F6E071D9
:105E2000B0EE485BB0EE484BB0EE483BB0EE482BCE
:105E3000B0EE481BB0EE480B084400F059F920685A
:105E400046F6A851B7EE005BB0EE484BB7EE003B0C
:105E5000B0EE482BB0EE481BB7EE000B084400F044
:105E600047F99FED7D5BB0EE484B9FED7D3BB0EE7B
:105E7000482BB0EE481B9FED7C0B206846F6106166
:105E8000084400F035F99FED7A5BB0EE484B9FED8A
:105E90007A3BB0EE482BB0EE481B9FED790B2068A3
:105EA00046F67861084400F023F99FED775BB0EE89
:105EB000484B9FED773BB0EE482BB0EE481B9FED73
:105EC000760B206846F6E061084400F011F99FED7A
:105ED000749BB0EE484BB0EE495B9FED73ABB0EEF8
:105EE000482BB0EE481BB0EE4A3B9FED71BB2068DB
:105EF00046F64871B0EE4B0B084400F0F9F8206804
:105F000046F6B071B0EE495BB0EE484BB0EE4A3B9E
:105F1000B0EE482BB0EE481BB0EE4B0B084400F03F
:105F2000E7F89FED655BB0EE484B9FED653BB0EE4B
:105F3000482BB0EE481B9FED640B206847F2180118
:105F4000084400F0D5F89FED620BB6EE081B9FEDFC
:105F5000622BB1EE0E3B9FED624B9FED635B2068C1
:105F600000F5E04100F5D84080ED681B80ED822B04
:105F700080ED9C3B80EDB64B80EDD00B80EDEA0BC5
:105F800081ED045BBDEC088B10BD0000E3361AC048
:105F90005B20C9BF000000000000000054E3A59B87
:105FA000C420B03F000000207A008BFCFA21F93FAA
:105FB0000E4FAF946588B33F7A008BFCFA210940FD
:105FC000C1CAA145B6F3E5BF7B14AE47E17A743F81
:105FD00046B6F3FDD478E53F7A008BFCFA21F9BF91
:105FE000FCA9F1D24D62B03FF2D24D621058A93FE8
:105FF0007FFB3A70CE88923F809F71E14048363FE8
:10600000B37BF2B0506B8ABFEC51B81E85EB913F69
:1060100079E9263108AC7CBF2D431CEBE2360ABF80
:106020001F85EB51B81E094000AE64C74620AE3F45
:10603000C1CAA145B6F3D5BFE9263108AC1CAA3FB9
:1060400090F7AA9509BFD83F6891ED7C3F35AE3FE8
:10605000DBF97E6ABC74933F57B3CEF8BEB8743F89
:10606000FF5A5EB9DE36733F4E9A0645F300763F1F
:106070009C33A2B437F8EA3F62D68BA19C68873F75
:106080008F53742497FFEA3FA301BC051214D73F36
:10609000A323B9FC87F47B3FDF4F8D976E12D73F68
:1060A00086C613419C87633FD0D6C1C1DEC4603F22
:1060B000A35C1ABFF04A623FF168E388B5F8143F69
:1060C000C9C7EE022505063F5D18E945ED7E053F8F
:1060D0005C8FC2F5285CFF3F6666666666660E40AA
:1060E0003333333333331340CBA145B6F3FDB43FE1
:1060F00080EC0C0B704700002DE9F041FFF79AFC93
:106100004FF0E0205A494161F0215A4A82F8141DAB
:10611000002407218461016157480268011F42F091
:10612000604202600A68001D42F003020A600268D1
:10613000514942F01A0202600C310A684E484F4B36
:1061400018301A430A600268091D42F00202026018
:106150000A68494842F480720A608C3802684649ED
:1061600042F00052026008390A68454842F0004295
:106170000A60016821F0030101600268414942F0B0
:10618000010202600A6822F00C020A600A6842F00A
:1061900004020A60016821F040510160016841F089
:1061A00080510160FFF7BEFC00F074F800F042FD82
:1061B00000F07EFA00F040FC00F000F9FFF730FD3F
:1061C000FDF76EFD01F068FEFDF788FD00F0FAFEB8
:1061D0002D48016821F0C0010160016841F04001D3
:1061E00001600268284922F4407202600C3108689C
:1061F00040F480700860FFF70BFD24490122002065
:10620000D1F8003000EB0025401C03EB05150628F3
:1062100085F83620F6DB0D681D4805F5C0451C4B9A
:106220000C3385F892201A4DD0F800C02435EF26A3
:106230002F1D2CF0010CC0F800C007F1040E40F235
:10624000E73C2C603E60CEF800C01C6844F00104BE
:106250001C60084C4FF400030B3CC4F80031036889
:1062600043F00103036008684271BDE8F08100005B
:10627000FF5207000FE000E0DC440258B8000600BF
:106280000004025800100258000C025800000020C0
:1062900000140040164910B58878002827D0002047
:1062A00008704870024688708880C88008814881DC
:1062B000A1F83A01A1F838018B1801EB4204521CF5
:1062C0001873642AA4F87000F6D30A49C1F8BC0810
:1062D000C1F8C00801F6C80000F010F8064800F048
:1062E0000DF80548BDE81040903000F007B810BD2B
:1062F0000000002400900624589906249FED070B07
:106300005FF0000100EBC102491C82ED000B82ED41
:106310000C0B062982ED180BF4D370470000000027
:106320000000000010B5084C206D800503D5FEF775
:1063300069FB60152065206D000304D5FEF7B0F8F9
:106340004FF40020206510BD00A000401948016DE9
:10635000890002D54FF000510165016DC90002D5D9
:106360004FF080510165016D090102D54FF00061C8
:106370000165016D490102D54FF080610165016D34
:10638000890102D54FF000710165016DC90102D587
:106390004FF080710165016D090202D54FF40001D3
:1063A0000165016D490203D5026C4FF4800101655E
:1063B0007047000000A00040AFF300800C480021AF
:1063C000012304220068883000F5C04043708170CA
:1063D0000270C1700171C1800181817201734173CA
:1063E0008173C173017441748174C174704700007A
:1063F0000000002030B59FED222B5FF00002044624
:10640000B7EE001B2DED028BA1B0B0EE408B6846BD
:10641000002100EB42138A4203EBC10502D1B0EE2A
:10642000410B01E0B0EE420B491C042985ED000B45
:10643000F1DB521C042AEBDBB0EE480BFDF735FC18
:106440008DED0A0BB0EE480BFDF734FCB1EE400BBE
:106450008DED0C0BB0EE480BFDF72CFC8DED120B07
:10646000B0EE480BFDF721FC802269468DED140B40
:106470002046FDF724FC21B0BDEC028B30BD0000AE
:10648000000000000000000030B59FED222B5FF0FF
:1064900000020446B7EE001B2DED028BA1B0B0EE5A
:1064A000408B6846002100EB42138A4203EBC10592
:1064B00002D1B0EE410B01E0B0EE420B491C0429C1
:1064C00085ED000BF1DB521C042AEBDBB0EE480B30
:1064D000FDF7EBFB8DED000BB0EE480BFDF7EAFB93
:1064E0008DED040BB0EE480BFDF7E4FBB1EE400B75
:1064F0008DED100BB0EE480BFDF7D7FB80226946FF
:106500008DED140B2046FDF7DAFB21B0BDEC028BBC
:1065100030BD0000000000000000000030B59FED1D
:10652000222B5FF000020446B7EE001B2DED028B1C
:10653000A1B0B0EE408B6846002100EB42138A42C6
:1065400003EBC10502D1B0EE410B01E0B0EE420B0E
:10655000491C042985ED000BF1DB521C042AEBDBFE
:10656000B0EE480BFDF7A1FB8DED000BB0EE480B34
:10657000FDF7A0FBB1EE400B8DED020BB0EE480B2A
:10658000FDF798FB8DED080BB0EE480BFDF78DFB8A
:10659000802269468DED0A0B2046FDF790FB21B065
:1065A000BDEC028B30BD00000000000000000000C8
:1065B00030B59FED134BA1B000226C46B7EE003B07
:1065C000002104EB42138A4203EBC10502D1B0EE75
:1065D000435B01E0B0EE445B491C042985ED005BA0
:1065E000F1DB521C042AEBDB8DED060B8DED0E1B4F
:1065F000802221468DED162BFDF761FB21B030BDC9
:1066000000000000000000002848002110B50468C8
:1066100001EB01205FF0000204EB001090ED561B2F
:1066200090ED7E0B80ED4E1B80ED501B80ED520BEC
:1066300080ED540B00EBC20390ED4E1B93ED560B17
:10664000B4EEC10BF1EE10FA01D280ED4E0B93EDDA
:10665000560B90ED501BB4EEC10BF1EE10FA01DDBC
:1066600080ED500B521C142AE4DB002290ED521BEB
:1066700000EBC20393ED7E0BB4EEC10BF1EE10FA0A
:1066800001D280ED520B93ED7E0B90ED541BB4EED6
:10669000C10BF1EE10FA01DD80ED540B521C142AEF
:1066A000E4DB491C0629B3DB10BD0000000000201C
:1066B00005480068C07A18B1012803D100F068B914
:1066C00000F004B8704700000000002010B56748D3
:1066D0002DED108B9EB000689FED65FB9FED661B56
:1066E0009FED672B9FED683B9FED694B9FED6A5BCC
:1066F00000F540619FED6A6B9FED6B7B9FED6C8BAE
:106700009FED6D9B9FED6EAB9FED6FBB9FED70CBD3
:106710009FED71DB9FED72EB9FED730B8DED1C0B0D
:106720009FED730B8DED1A0B9FED730B8DED180B19
:106730009FED730B8DED160B9FED730B8DED140B11
:106740009FED730B8DED120B9FED730B8DED100B09
:106750009FED730B8DED0E0B9FED730B8DED0C0B01
:106760009FED730B8DED0A0B9FED730B8DED080BF9
:106770009FED730B8DED060B9FED730B8DED040BF1
:106780009FED730B8DED020B9FED730B8DED000BE9
:1067900081EDC6FB9FED720B81EDC81B9FED721B57
:1067A00081EDCA2B9FED722B81EDCC3B9FED723BAF
:1067B00081EDCE4B9FED724B81EDD05B9FED725B17
:1067C00000F5E05303F54A7300F5305483EC0C6B8D
:1067D00004F54E7300F5705100F5984283EC06CB3A
:1067E0009DED1C6B84EDD46B9DED1A6B84EDD66B27
:1067F0009DED186B983884EDD86B9DED166B00F508
:10680000C04081EDD26B9DED146B81EDD46B9DED9D
:10681000126B81EDD66B9DED106B81EDD86B9DED0C
:106820000E6B81EDDA6B9DED0C6B81EDDC6B9DEDFC
:106830000A6B82EDD66B9DED086B82EDD86B9DEDFA
:10684000066B82EDDA6B9DED046B82EDDC6B9DEDEA
:10685000026B82EDDE6B9DED006B82EDE06B80ECF8
:106860000C0B1EB0BDEC108B10BD00000000002012
:106870004F401361C3B320402BF697DD9387484008
:106880002BF697DD93EF40C0569FABADD81F2D4040
:10689000E030D120054F91BF2B137EA99F072C40DC
:1068A000B2BD16F4DE181A4035DF35E169454740C0
:1068B0001684EA3906FE42C0F14D67491B05354092
:1068C0006C7FCAF6FDD89BBF8586A3204BE333407F
:1068D000671102A7A7A01740734F420F2F5F4740D1
:1068E000CC8BC61BBCD049C04C9C8066B7EC4240E8
:1068F0005694F63C3CAE9DBFB0C31E2F17BC38402B
:1069000093A757728F590540414F920D8B2529400F
:1069100046E5C0175EBB0DC0272C149794F0E4BF6A
:10692000C3BE4F898A8198BFB788ED52819E394096
:106930001880D72D751C074075D9C67A42F83240A9
:10694000D5A4CB41284B36C0735EB8521EF13040FF
:10695000F4CDDB1FCB2293BF057D01BA88133F40E6
:1069600056BE99B18A3B08404A091E8533FB354023
:10697000A86D391BA42F34C0520AF7EB174C2940DD
:10698000BEA203B79A9197BF976EE7F0DD1C334024
:10699000F0B587B0264918226846FDF790F92548DA
:1069A00000216C46D0F800E001EB012300200EEB43
:1069B0000315024654F8213005EBC20603EBC00371
:1069C000401C93ED000B521C142A86ED560BF1DB94
:1069D0005FF0000254F8213003EBC00305EBC20660
:1069E00093ED000B401C521C142A86ED7E0BF1DB4C
:1069F0005FF00003002203EB830605EB461600BFA1
:106A000054F8217006EBC20C521C07EBC007401C67
:106A100097ED000B142A8CEDA60BF1DB5B1C142BFD
:106A2000E8DB491C0629BFDBFFF7EEFD07B0F0BD30
:106A3000A89F000000000020F0B538489FED386B9B
:106A40009FED397B9FED3A5B9FED3B4B9FED3C0B00
:106A50009FED3D3B9FED3E1B9FED3F2B2DED0A8BA8
:106A600006689FED3F8B06F5406E9FED3F9B8EEDD8
:106A7000DA6B8EEDDC7B8EEDDE5B8EEDF88B06F552
:106A8000E0508EEDFA9B80EDDE6B9FED39AB80ED33
:106A9000E07B9FED39BB80EDE25B80EDFCAB06F562
:106AA000305180EDFEBB81EDE26B9FED35CB81ED8A
:106AB000E47B06F5405481EDE65B84ED00CB06F502
:106AC000705284ED025B82EDE64B82EDE80B06F539
:106AD000804582EDEA3B85ED041B06F5984385ED84
:106AE000062B83EDEA4B83EDEC0B06F5A04783ED17
:106AF000EE3B87ED081B06F5B84C87ED0A2B8CEDB5
:106B0000EE4B8CEDF00B30368CEDF23B06F5C046CB
:106B100086EC041BBDEC0A8BF0BD000000000020D9
:106B2000000000000040BF40000000000058CB40C3
:106B30000000000000005440000000000040AF4092
